{"contracts/erc1155.sol":{"erc1155":{"abi":[{"inputs":[],"stateMutability":"nonpayable","type":"constructor"},{"anonymous":false,"inputs":[{"indexed":true,"internalType":"address","name":"account","type":"address"},{"indexed":true,"internalType":"address","name":"operator","type":"address"},{"indexed":false,"internalType":"bool","name":"approved","type":"bool"}],"name":"ApprovalForAll","type":"event"},{"anonymous":false,"inputs":[{"indexed":true,"internalType":"address","name":"previousOwner","type":"address"},{"indexed":true,"internalType":"address","name":"newOwner","type":"address"}],"name":"OwnershipTransferred","type":"event"},{"anonymous":false,"inputs":[{"indexed":true,"internalType":"address","name":"operator","type":"address"},{"indexed":true,"internalType":"address","name":"from","type":"address"},{"indexed":true,"internalType":"address","name":"to","type":"address"},{"indexed":false,"internalType":"uint256[]","name":"ids","type":"uint256[]"},{"indexed":false,"internalType":"uint256[]","name":"values","type":"uint256[]"}],"name":"TransferBatch","type":"event"},{"anonymous":false,"inputs":[{"indexed":true,"internalType":"address","name":"operator","type":"address"},{"indexed":true,"internalType":"address","name":"from","type":"address"},{"indexed":true,"internalType":"address","name":"to","type":"address"},{"indexed":false,"internalType":"uint256","name":"id","type":"uint256"},{"indexed":false,"internalType":"uint256","name":"value","type":"uint256"}],"name":"TransferSingle","type":"event"},{"anonymous":false,"inputs":[{"indexed":false,"internalType":"string","name":"value","type":"string"},{"indexed":true,"internalType":"uint256","name":"id","type":"uint256"}],"name":"URI","type":"event"},{"inputs":[{"internalType":"address","name":"account","type":"address"},{"internalType":"uint256","name":"id","type":"uint256"}],"name":"balanceOf","outputs":[{"internalType":"uint256","name":"","type":"uint256"}],"stateMutability":"view","type":"function"},{"inputs":[{"internalType":"address[]","name":"accounts","type":"address[]"},{"internalType":"uint256[]","name":"ids","type":"uint256[]"}],"name":"balanceOfBatch","outputs":[{"internalType":"uint256[]","name":"","type":"uint256[]"}],"stateMutability":"view","type":"function"},{"inputs":[{"internalType":"address","name":"account","type":"address"},{"internalType":"uint256","name":"id","type":"uint256"},{"internalType":"uint256","name":"value","type":"uint256"}],"name":"burn","outputs":[],"stateMutability":"nonpayable","type":"function"},{"inputs":[{"internalType":"address","name":"account","type":"address"},{"internalType":"uint256[]","name":"ids","type":"uint256[]"},{"internalType":"uint256[]","name":"values","type":"uint256[]"}],"name":"burnBatch","outputs":[],"stateMutability":"nonpayable","type":"function"},{"inputs":[{"internalType":"address","name":"account","type":"address"},{"internalType":"uint256","name":"id","type":"uint256"},{"internalType":"uint256","name":"amount","type":"uint256"}],"name":"burning","outputs":[],"stateMutability":"nonpayable","type":"function"},{"inputs":[{"internalType":"address","name":"account","type":"address"},{"internalType":"uint256[]","name":"ids","type":"uint256[]"},{"internalType":"uint256[]","name":"amounts","type":"uint256[]"}],"name":"burningBatch","outputs":[],"stateMutability":"nonpayable","type":"function"},{"inputs":[{"internalType":"address","name":"account","type":"address"},{"internalType":"address","name":"operator","type":"address"}],"name":"isApprovedForAll","outputs":[{"internalType":"bool","name":"","type":"bool"}],"stateMutability":"view","type":"function"},{"inputs":[{"internalType":"address","name":"to","type":"address"},{"internalType":"uint256","name":"id","type":"uint256"},{"internalType":"uint256","name":"amount","type":"uint256"}],"name":"mint","outputs":[],"stateMutability":"nonpayable","type":"function"},{"inputs":[],"name":"owner","outputs":[{"internalType":"address","name":"","type":"address"}],"stateMutability":"view","type":"function"},{"inputs":[],"name":"renounceOwnership","outputs":[],"stateMutability":"nonpayable","type":"function"},{"inputs":[{"internalType":"address","name":"from","type":"address"},{"internalType":"address","name":"to","type":"address"},{"internalType":"uint256[]","name":"ids","type":"uint256[]"},{"internalType":"uint256[]","name":"amounts","type":"uint256[]"},{"internalType":"bytes","name":"data","type":"bytes"}],"name":"safeBatchTransferFrom","outputs":[],"stateMutability":"nonpayable","type":"function"},{"inputs":[{"internalType":"address","name":"from","type":"address"},{"internalType":"address","name":"to","type":"address"},{"internalType":"uint256","name":"id","type":"uint256"},{"internalType":"uint256","name":"amount","type":"uint256"},{"internalType":"bytes","name":"data","type":"bytes"}],"name":"safeTransferFrom","outputs":[],"stateMutability":"nonpayable","type":"function"},{"inputs":[{"internalType":"address","name":"operator","type":"address"},{"internalType":"bool","name":"approved","type":"bool"}],"name":"setApprovalForAll","outputs":[],"stateMutability":"nonpayable","type":"function"},{"inputs":[{"internalType":"bytes4","name":"interfaceId","type":"bytes4"}],"name":"supportsInterface","outputs":[{"internalType":"bool","name":"","type":"bool"}],"stateMutability":"view","type":"function"},{"inputs":[{"internalType":"address","name":"newOwner","type":"address"}],"name":"transferOwnership","outputs":[],"stateMutability":"nonpayable","type":"function"},{"inputs":[{"internalType":"uint256","name":"","type":"uint256"}],"name":"uri","outputs":[{"internalType":"string","name":"","type":"string"}],"stateMutability":"view","type":"function"}],"evm":{"bytecode":{"linkReferences":{},"object":"60806040523480156200001157600080fd5b506040518060800160405280605a815260200162003a10605a91396200003d816200006460201b60201c565b506200005e620000526200007960201b60201c565b6200008160201b60201c565b620004a8565b8060029081620000759190620003c1565b5050565b600033905090565b6000600360009054906101000a900473ffffffffffffffffffffffffffffffffffffffff16905081600360006101000a81548173ffffffffffffffffffffffffffffffffffffffff021916908373ffffffffffffffffffffffffffffffffffffffff1602179055508173ffffffffffffffffffffffffffffffffffffffff168173ffffffffffffffffffffffffffffffffffffffff167f8be0079c531659141344cd1fd0a4f28419497f9722a3daafe3b4186f6b6457e060405160405180910390a35050565b600081519050919050565b7f4e487b7100000000000000000000000000000000000000000000000000000000600052604160045260246000fd5b7f4e487b7100000000000000000000000000000000000000000000000000000000600052602260045260246000fd5b60006002820490506001821680620001c957607f821691505b602082108103620001df57620001de62000181565b5b50919050565b60008190508160005260206000209050919050565b60006020601f8301049050919050565b600082821b905092915050565b600060088302620002497fffffffffffffffffffffffffffffffffffffffffffffffffffffffffffffffff826200020a565b6200025586836200020a565b95508019841693508086168417925050509392505050565b6000819050919050565b6000819050919050565b6000620002a26200029c62000296846200026d565b62000277565b6200026d565b9050919050565b6000819050919050565b620002be8362000281565b620002d6620002cd82620002a9565b84845462000217565b825550505050565b600090565b620002ed620002de565b620002fa818484620002b3565b505050565b5b81811015620003225762000316600082620002e3565b60018101905062000300565b5050565b601f82111562000371576200033b81620001e5565b6200034684620001fa565b8101602085101562000356578190505b6200036e6200036585620001fa565b830182620002ff565b50505b505050565b600082821c905092915050565b6000620003966000198460080262000376565b1980831691505092915050565b6000620003b1838362000383565b9150826002028217905092915050565b620003cc8262000147565b67ffffffffffffffff811115620003e857620003e762000152565b5b620003f48254620001b0565b6200040182828562000326565b600060209050601f83116001811462000439576000841562000424578287015190505b620004308582620003a3565b865550620004a0565b601f1984166200044986620001e5565b60005b8281101562000473578489015182556001820191506020850194506020810190506200044c565b868310156200049357848901516200048f601f89168262000383565b8355505b6001600288020188555050505b505050505050565b61355880620004b86000396000f3fe608060405234801561001057600080fd5b50600436106100ff5760003560e01c80636f95545d11610097578063e985e9c511610066578063e985e9c514610294578063f242432a146102c4578063f2fde38b146102e0578063f5298aca146102fc576100ff565b80636f95545d14610234578063715018a6146102505780638da5cb5b1461025a578063a22cb46514610278576100ff565b80632eb2c2d6116100d35780632eb2c2d6146101b05780634e1273f4146101cc5780634f10e574146101fc5780636b20c45414610218576100ff565b8062fdd58e1461010457806301ffc9a7146101345780630e89341c14610164578063156e29f614610194575b600080fd5b61011e60048036038101906101199190611fa5565b610318565b60405161012b9190611ff4565b60405180910390f35b61014e60048036038101906101499190612067565b6103e0565b60405161015b91906120af565b60405180910390f35b61017e600480360381019061017991906120ca565b6104c2565b60405161018b9190612187565b60405180910390f35b6101ae60048036038101906101a991906121a9565b610556565b005b6101ca60048036038101906101c591906123f9565b610576565b005b6101e660048036038101906101e1919061258b565b610617565b6040516101f391906126c1565b60405180910390f35b610216600480360381019061021191906121a9565b610730565b005b610232600480360381019061022d91906126e3565b610740565b005b61024e600480360381019061024991906126e3565b6107dd565b005b6102586107ed565b005b610262610875565b60405161026f919061277d565b60405180910390f35b610292600480360381019061028d91906127c4565b61089f565b005b6102ae60048036038101906102a99190612804565b6108b5565b6040516102bb91906120af565b60405180910390f35b6102de60048036038101906102d99190612844565b610949565b005b6102fa60048036038101906102f591906128db565b6109ea565b005b610316600480360381019061031191906121a9565b610ae1565b005b60008073ffffffffffffffffffffffffffffffffffffffff168373ffffffffffffffffffffffffffffffffffffffff1603610388576040517f08c379a000000000000000000000000000000000000000000000000000000000815260040161037f9061297a565b60405180910390fd5b60008083815260200190815260200160002060008473ffffffffffffffffffffffffffffffffffffffff1673ffffffffffffffffffffffffffffffffffffffff16815260200190815260200160002054905092915050565b60007fd9b67a26000000000000000000000000000000000000000000000000000000007bffffffffffffffffffffffffffffffffffffffffffffffffffffffff1916827bffffffffffffffffffffffffffffffffffffffffffffffffffffffff191614806104ab57507f0e89341c000000000000000000000000000000000000000000000000000000007bffffffffffffffffffffffffffffffffffffffffffffffffffffffff1916827bffffffffffffffffffffffffffffffffffffffffffffffffffffffff1916145b806104bb57506104ba82610b7e565b5b9050919050565b6060600280546104d1906129c9565b80601f01602080910402602001604051908101604052809291908181526020018280546104fd906129c9565b801561054a5780601f1061051f5761010080835404028352916020019161054a565b820191906000526020600020905b81548152906001019060200180831161052d57829003601f168201915b50505050509050919050565b61057183838360405180602001604052806000815250610be8565b505050565b61057e610d98565b73ffffffffffffffffffffffffffffffffffffffff168573ffffffffffffffffffffffffffffffffffffffff1614806105c457506105c3856105be610d98565b6108b5565b5b610603576040517f08c379a00000000000000000000000000000000000000000000000000000000081526004016105fa90612a6c565b60405180910390fd5b6106108585858585610da0565b5050505050565b6060815183511461065d576040517f08c379a000000000000000000000000000000000000000000000000000000000815260040161065490612afe565b60405180910390fd5b6000835167ffffffffffffffff81111561067a57610679612201565b5b6040519080825280602002602001820160405280156106a85781602001602082028036833780820191505090505b50905060005b8451811015610725576106f58582815181106106cd576106cc612b1e565b5b60200260200101518583815181106106e8576106e7612b1e565b5b6020026020010151610318565b82828151811061070857610707612b1e565b5b6020026020010181815250508061071e90612b7c565b90506106ae565b508091505092915050565b61073b8383836110c1565b505050565b610748610d98565b73ffffffffffffffffffffffffffffffffffffffff168373ffffffffffffffffffffffffffffffffffffffff16148061078e575061078d83610788610d98565b6108b5565b5b6107cd576040517f08c379a00000000000000000000000000000000000000000000000000000000081526004016107c490612c36565b60405180910390fd5b6107d8838383611307565b505050565b6107e8838383611307565b505050565b6107f5610d98565b73ffffffffffffffffffffffffffffffffffffffff16610813610875565b73ffffffffffffffffffffffffffffffffffffffff1614610869576040517f08c379a000000000000000000000000000000000000000000000000000000000815260040161086090612ca2565b60405180910390fd5b61087360006115d5565b565b6000600360009054906101000a900473ffffffffffffffffffffffffffffffffffffffff16905090565b6108b16108aa610d98565b838361169b565b5050565b6000600160008473ffffffffffffffffffffffffffffffffffffffff1673ffffffffffffffffffffffffffffffffffffffff16815260200190815260200160002060008373ffffffffffffffffffffffffffffffffffffffff1673ffffffffffffffffffffffffffffffffffffffff16815260200190815260200160002060009054906101000a900460ff16905092915050565b610951610d98565b73ffffffffffffffffffffffffffffffffffffffff168573ffffffffffffffffffffffffffffffffffffffff161480610997575061099685610991610d98565b6108b5565b5b6109d6576040517f08c379a00000000000000000000000000000000000000000000000000000000081526004016109cd90612c36565b60405180910390fd5b6109e38585858585611807565b5050505050565b6109f2610d98565b73ffffffffffffffffffffffffffffffffffffffff16610a10610875565b73ffffffffffffffffffffffffffffffffffffffff1614610a66576040517f08c379a0000000000000000000000000000000000000000000000000000000008152600401610a5d90612ca2565b60405180910390fd5b600073ffffffffffffffffffffffffffffffffffffffff168173ffffffffffffffffffffffffffffffffffffffff1603610ad5576040517f08c379a0000000000000000000000000000000000000000000000000000000008152600401610acc90612d34565b60405180910390fd5b610ade816115d5565b50565b610ae9610d98565b73ffffffffffffffffffffffffffffffffffffffff168373ffffffffffffffffffffffffffffffffffffffff161480610b2f5750610b2e83610b29610d98565b6108b5565b5b610b6e576040517f08c379a0000000000000000000000000000000000000000000000000000000008152600401610b6590612c36565b60405180910390fd5b610b798383836110c1565b505050565b60007f01ffc9a7000000000000000000000000000000000000000000000000000000007bffffffffffffffffffffffffffffffffffffffffffffffffffffffff1916827bffffffffffffffffffffffffffffffffffffffffffffffffffffffff1916149050919050565b600073ffffffffffffffffffffffffffffffffffffffff168473ffffffffffffffffffffffffffffffffffffffff1603610c57576040517f08c379a0000000000000000000000000000000000000000000000000000000008152600401610c4e90612dc6565b60405180910390fd5b6000610c61610d98565b90506000610c6e85611aa2565b90506000610c7b85611aa2565b9050610c8c83600089858589611b1c565b8460008088815260200190815260200160002060008973ffffffffffffffffffffffffffffffffffffffff1673ffffffffffffffffffffffffffffffffffffffff1681526020019081526020016000206000828254610ceb9190612de6565b925050819055508673ffffffffffffffffffffffffffffffffffffffff16600073ffffffffffffffffffffffffffffffffffffffff168473ffffffffffffffffffffffffffffffffffffffff167fc3d58168c5ae7397731d063d5bbf3d657854427343f4c083240f7aacaa2d0f628989604051610d69929190612e1a565b60405180910390a4610d8083600089858589611b24565b610d8f83600089898989611b2c565b50505050505050565b600033905090565b8151835114610de4576040517f08c379a0000000000000000000000000000000000000000000000000000000008152600401610ddb90612eb5565b60405180910390fd5b600073ffffffffffffffffffffffffffffffffffffffff168473ffffffffffffffffffffffffffffffffffffffff1603610e53576040517f08c379a0000000000000000000000000000000000000000000000000000000008152600401610e4a90612f47565b60405180910390fd5b6000610e5d610d98565b9050610e6d818787878787611b1c565b60005b845181101561101e576000858281518110610e8e57610e8d612b1e565b5b602002602001015190506000858381518110610ead57610eac612b1e565b5b60200260200101519050600080600084815260200190815260200160002060008b73ffffffffffffffffffffffffffffffffffffffff1673ffffffffffffffffffffffffffffffffffffffff16815260200190815260200160002054905081811015610f4e576040517f08c379a0000000000000000000000000000000000000000000000000000000008152600401610f4590612fd9565b60405180910390fd5b81810360008085815260200190815260200160002060008c73ffffffffffffffffffffffffffffffffffffffff1673ffffffffffffffffffffffffffffffffffffffff168152602001908152602001600020819055508160008085815260200190815260200160002060008b73ffffffffffffffffffffffffffffffffffffffff1673ffffffffffffffffffffffffffffffffffffffff16815260200190815260200160002060008282546110039190612de6565b925050819055505050508061101790612b7c565b9050610e70565b508473ffffffffffffffffffffffffffffffffffffffff168673ffffffffffffffffffffffffffffffffffffffff168273ffffffffffffffffffffffffffffffffffffffff167f4a39dc06d4c0dbc64b70af90fd698a233a518aa5d07e595d983b8c0526c8f7fb8787604051611095929190612ff9565b60405180910390a46110ab818787878787611b24565b6110b9818787878787611d03565b505050505050565b600073ffffffffffffffffffffffffffffffffffffffff168373ffffffffffffffffffffffffffffffffffffffff1603611130576040517f08c379a0000000000000000000000000000000000000000000000000000000008152600401611127906130a2565b60405180910390fd5b600061113a610d98565b9050600061114784611aa2565b9050600061115484611aa2565b905061117483876000858560405180602001604052806000815250611b1c565b600080600087815260200190815260200160002060008873ffffffffffffffffffffffffffffffffffffffff1673ffffffffffffffffffffffffffffffffffffffff1681526020019081526020016000205490508481101561120b576040517f08c379a000000000000000000000000000000000000000000000000000000000815260040161120290613134565b60405180910390fd5b84810360008088815260200190815260200160002060008973ffffffffffffffffffffffffffffffffffffffff1673ffffffffffffffffffffffffffffffffffffffff16815260200190815260200160002081905550600073ffffffffffffffffffffffffffffffffffffffff168773ffffffffffffffffffffffffffffffffffffffff168573ffffffffffffffffffffffffffffffffffffffff167fc3d58168c5ae7397731d063d5bbf3d657854427343f4c083240f7aacaa2d0f6289896040516112d8929190612e1a565b60405180910390a46112fe84886000868660405180602001604052806000815250611b24565b50505050505050565b600073ffffffffffffffffffffffffffffffffffffffff168373ffffffffffffffffffffffffffffffffffffffff1603611376576040517f08c379a000000000000000000000000000000000000000000000000000000000815260040161136d906130a2565b60405180910390fd5b80518251146113ba576040517f08c379a00000000000000000000000000000000000000000000000000000000081526004016113b190612eb5565b60405180910390fd5b60006113c4610d98565b90506113e481856000868660405180602001604052806000815250611b1c565b60005b835181101561153157600084828151811061140557611404612b1e565b5b60200260200101519050600084838151811061142457611423612b1e565b5b60200260200101519050600080600084815260200190815260200160002060008973ffffffffffffffffffffffffffffffffffffffff1673ffffffffffffffffffffffffffffffffffffffff168152602001908152602001600020549050818110156114c5576040517f08c379a00000000000000000000000000000000000000000000000000000000081526004016114bc90613134565b60405180910390fd5b81810360008085815260200190815260200160002060008a73ffffffffffffffffffffffffffffffffffffffff1673ffffffffffffffffffffffffffffffffffffffff16815260200190815260200160002081905550505050808061152990612b7c565b9150506113e7565b50600073ffffffffffffffffffffffffffffffffffffffff168473ffffffffffffffffffffffffffffffffffffffff168273ffffffffffffffffffffffffffffffffffffffff167f4a39dc06d4c0dbc64b70af90fd698a233a518aa5d07e595d983b8c0526c8f7fb86866040516115a9929190612ff9565b60405180910390a46115cf81856000868660405180602001604052806000815250611b24565b50505050565b6000600360009054906101000a900473ffffffffffffffffffffffffffffffffffffffff16905081600360006101000a81548173ffffffffffffffffffffffffffffffffffffffff021916908373ffffffffffffffffffffffffffffffffffffffff1602179055508173ffffffffffffffffffffffffffffffffffffffff168173ffffffffffffffffffffffffffffffffffffffff167f8be0079c531659141344cd1fd0a4f28419497f9722a3daafe3b4186f6b6457e060405160405180910390a35050565b8173ffffffffffffffffffffffffffffffffffffffff168373ffffffffffffffffffffffffffffffffffffffff1603611709576040517f08c379a0000000000000000000000000000000000000000000000000000000008152600401611700906131c6565b60405180910390fd5b80600160008573ffffffffffffffffffffffffffffffffffffffff1673ffffffffffffffffffffffffffffffffffffffff16815260200190815260200160002060008473ffffffffffffffffffffffffffffffffffffffff1673ffffffffffffffffffffffffffffffffffffffff16815260200190815260200160002060006101000a81548160ff0219169083151502179055508173ffffffffffffffffffffffffffffffffffffffff168373ffffffffffffffffffffffffffffffffffffffff167f17307eab39ab6107e8899845ad3d59bd9653f200f220920489ca2b5937696c31836040516117fa91906120af565b60405180910390a3505050565b600073ffffffffffffffffffffffffffffffffffffffff168473ffffffffffffffffffffffffffffffffffffffff1603611876576040517f08c379a000000000000000000000000000000000000000000000000000000000815260040161186d90612f47565b60405180910390fd5b6000611880610d98565b9050600061188d85611aa2565b9050600061189a85611aa2565b90506118aa838989858589611b1c565b600080600088815260200190815260200160002060008a73ffffffffffffffffffffffffffffffffffffffff1673ffffffffffffffffffffffffffffffffffffffff16815260200190815260200160002054905085811015611941576040517f08c379a000000000000000000000000000000000000000000000000000000000815260040161193890612fd9565b60405180910390fd5b85810360008089815260200190815260200160002060008b73ffffffffffffffffffffffffffffffffffffffff1673ffffffffffffffffffffffffffffffffffffffff168152602001908152602001600020819055508560008089815260200190815260200160002060008a73ffffffffffffffffffffffffffffffffffffffff1673ffffffffffffffffffffffffffffffffffffffff16815260200190815260200160002060008282546119f69190612de6565b925050819055508773ffffffffffffffffffffffffffffffffffffffff168973ffffffffffffffffffffffffffffffffffffffff168573ffffffffffffffffffffffffffffffffffffffff167fc3d58168c5ae7397731d063d5bbf3d657854427343f4c083240f7aacaa2d0f628a8a604051611a73929190612e1a565b60405180910390a4611a89848a8a86868a611b24565b611a97848a8a8a8a8a611b2c565b505050505050505050565b60606000600167ffffffffffffffff811115611ac157611ac0612201565b5b604051908082528060200260200182016040528015611aef5781602001602082028036833780820191505090505b5090508281600081518110611b0757611b06612b1e565b5b60200260200101818152505080915050919050565b505050505050565b505050505050565b611b4b8473ffffffffffffffffffffffffffffffffffffffff16611eda565b15611cfb578373ffffffffffffffffffffffffffffffffffffffff1663f23a6e6187878686866040518663ffffffff1660e01b8152600401611b9195949392919061323b565b6020604051808303816000875af1925050508015611bcd57506040513d601f19601f82011682018060405250810190611bca91906132aa565b60015b611c7257611bd96132e4565b806308c379a003611c355750611bed613306565b80611bf85750611c37565b806040517f08c379a0000000000000000000000000000000000000000000000000000000008152600401611c2c9190612187565b60405180910390fd5b505b6040517f08c379a0000000000000000000000000000000000000000000000000000000008152600401611c6990613408565b60405180910390fd5b63f23a6e6160e01b7bffffffffffffffffffffffffffffffffffffffffffffffffffffffff1916817bffffffffffffffffffffffffffffffffffffffffffffffffffffffff191614611cf9576040517f08c379a0000000000000000000000000000000000000000000000000000000008152600401611cf09061349a565b60405180910390fd5b505b505050505050565b611d228473ffffffffffffffffffffffffffffffffffffffff16611eda565b15611ed2578373ffffffffffffffffffffffffffffffffffffffff1663bc197c8187878686866040518663ffffffff1660e01b8152600401611d689594939291906134ba565b6020604051808303816000875af1925050508015611da457506040513d601f19601f82011682018060405250810190611da191906132aa565b60015b611e4957611db06132e4565b806308c379a003611e0c5750611dc4613306565b80611dcf5750611e0e565b806040517f08c379a0000000000000000000000000000000000000000000000000000000008152600401611e039190612187565b60405180910390fd5b505b6040517f08c379a0000000000000000000000000000000000000000000000000000000008152600401611e4090613408565b60405180910390fd5b63bc197c8160e01b7bffffffffffffffffffffffffffffffffffffffffffffffffffffffff1916817bffffffffffffffffffffffffffffffffffffffffffffffffffffffff191614611ed0576040517f08c379a0000000000000000000000000000000000000000000000000000000008152600401611ec79061349a565b60405180910390fd5b505b505050505050565b6000808273ffffffffffffffffffffffffffffffffffffffff163b119050919050565b6000604051905090565b600080fd5b600080fd5b600073ffffffffffffffffffffffffffffffffffffffff82169050919050565b6000611f3c82611f11565b9050919050565b611f4c81611f31565b8114611f5757600080fd5b50565b600081359050611f6981611f43565b92915050565b6000819050919050565b611f8281611f6f565b8114611f8d57600080fd5b50565b600081359050611f9f81611f79565b92915050565b60008060408385031215611fbc57611fbb611f07565b5b6000611fca85828601611f5a565b9250506020611fdb85828601611f90565b9150509250929050565b611fee81611f6f565b82525050565b60006020820190506120096000830184611fe5565b92915050565b60007fffffffff0000000000000000000000000000000000000000000000000000000082169050919050565b6120448161200f565b811461204f57600080fd5b50565b6000813590506120618161203b565b92915050565b60006020828403121561207d5761207c611f07565b5b600061208b84828501612052565b91505092915050565b60008115159050919050565b6120a981612094565b82525050565b60006020820190506120c460008301846120a0565b92915050565b6000602082840312156120e0576120df611f07565b5b60006120ee84828501611f90565b91505092915050565b600081519050919050565b600082825260208201905092915050565b60005b83811015612131578082015181840152602081019050612116565b60008484015250505050565b6000601f19601f8301169050919050565b6000612159826120f7565b6121638185612102565b9350612173818560208601612113565b61217c8161213d565b840191505092915050565b600060208201905081810360008301526121a1818461214e565b905092915050565b6000806000606084860312156121c2576121c1611f07565b5b60006121d086828701611f5a565b93505060206121e186828701611f90565b92505060406121f286828701611f90565b9150509250925092565b600080fd5b7f4e487b7100000000000000000000000000000000000000000000000000000000600052604160045260246000fd5b6122398261213d565b810181811067ffffffffffffffff8211171561225857612257612201565b5b80604052505050565b600061226b611efd565b90506122778282612230565b919050565b600067ffffffffffffffff82111561229757612296612201565b5b602082029050602081019050919050565b600080fd5b60006122c06122bb8461227c565b612261565b905080838252602082019050602084028301858111156122e3576122e26122a8565b5b835b8181101561230c57806122f88882611f90565b8452602084019350506020810190506122e5565b5050509392505050565b600082601f83011261232b5761232a6121fc565b5b813561233b8482602086016122ad565b91505092915050565b600080fd5b600067ffffffffffffffff82111561236457612363612201565b5b61236d8261213d565b9050602081019050919050565b82818337600083830152505050565b600061239c61239784612349565b612261565b9050828152602081018484840111156123b8576123b7612344565b5b6123c384828561237a565b509392505050565b600082601f8301126123e0576123df6121fc565b5b81356123f0848260208601612389565b91505092915050565b600080600080600060a0868803121561241557612414611f07565b5b600061242388828901611f5a565b955050602061243488828901611f5a565b945050604086013567ffffffffffffffff81111561245557612454611f0c565b5b61246188828901612316565b935050606086013567ffffffffffffffff81111561248257612481611f0c565b5b61248e88828901612316565b925050608086013567ffffffffffffffff8111156124af576124ae611f0c565b5b6124bb888289016123cb565b9150509295509295909350565b600067ffffffffffffffff8211156124e3576124e2612201565b5b602082029050602081019050919050565b6000612507612502846124c8565b612261565b9050808382526020820190506020840283018581111561252a576125296122a8565b5b835b81811015612553578061253f8882611f5a565b84526020840193505060208101905061252c565b5050509392505050565b600082601f830112612572576125716121fc565b5b81356125828482602086016124f4565b91505092915050565b600080604083850312156125a2576125a1611f07565b5b600083013567ffffffffffffffff8111156125c0576125bf611f0c565b5b6125cc8582860161255d565b925050602083013567ffffffffffffffff8111156125ed576125ec611f0c565b5b6125f985828601612316565b9150509250929050565b600081519050919050565b600082825260208201905092915050565b6000819050602082019050919050565b61263881611f6f565b82525050565b600061264a838361262f565b60208301905092915050565b6000602082019050919050565b600061266e82612603565b612678818561260e565b93506126838361261f565b8060005b838110156126b457815161269b888261263e565b97506126a683612656565b925050600181019050612687565b5085935050505092915050565b600060208201905081810360008301526126db8184612663565b905092915050565b6000806000606084860312156126fc576126fb611f07565b5b600061270a86828701611f5a565b935050602084013567ffffffffffffffff81111561272b5761272a611f0c565b5b61273786828701612316565b925050604084013567ffffffffffffffff81111561275857612757611f0c565b5b61276486828701612316565b9150509250925092565b61277781611f31565b82525050565b6000602082019050612792600083018461276e565b92915050565b6127a181612094565b81146127ac57600080fd5b50565b6000813590506127be81612798565b92915050565b600080604083850312156127db576127da611f07565b5b60006127e985828601611f5a565b92505060206127fa858286016127af565b9150509250929050565b6000806040838503121561281b5761281a611f07565b5b600061282985828601611f5a565b925050602061283a85828601611f5a565b9150509250929050565b600080600080600060a086880312156128605761285f611f07565b5b600061286e88828901611f5a565b955050602061287f88828901611f5a565b945050604061289088828901611f90565b93505060606128a188828901611f90565b925050608086013567ffffffffffffffff8111156128c2576128c1611f0c565b5b6128ce888289016123cb565b9150509295509295909350565b6000602082840312156128f1576128f0611f07565b5b60006128ff84828501611f5a565b91505092915050565b7f455243313135353a2062616c616e636520717565727920666f7220746865207a60008201527f65726f2061646472657373000000000000000000000000000000000000000000602082015250565b6000612964602b83612102565b915061296f82612908565b604082019050919050565b6000602082019050818103600083015261299381612957565b9050919050565b7f4e487b7100000000000000000000000000000000000000000000000000000000600052602260045260246000fd5b600060028204905060018216806129e157607f821691505b6020821081036129f4576129f361299a565b5b50919050565b7f455243313135353a207472616e736665722063616c6c6572206973206e6f742060008201527f6f776e6572206e6f7220617070726f7665640000000000000000000000000000602082015250565b6000612a56603283612102565b9150612a61826129fa565b604082019050919050565b60006020820190508181036000830152612a8581612a49565b9050919050565b7f455243313135353a206163636f756e747320616e6420696473206c656e67746860008201527f206d69736d617463680000000000000000000000000000000000000000000000602082015250565b6000612ae8602983612102565b9150612af382612a8c565b604082019050919050565b60006020820190508181036000830152612b1781612adb565b9050919050565b7f4e487b7100000000000000000000000000000000000000000000000000000000600052603260045260246000fd5b7f4e487b7100000000000000000000000000000000000000000000000000000000600052601160045260246000fd5b6000612b8782611f6f565b91507fffffffffffffffffffffffffffffffffffffffffffffffffffffffffffffffff8203612bb957612bb8612b4d565b5b600182019050919050565b7f455243313135353a2063616c6c6572206973206e6f74206f776e6572206e6f7260008201527f20617070726f7665640000000000000000000000000000000000000000000000602082015250565b6000612c20602983612102565b9150612c2b82612bc4565b604082019050919050565b60006020820190508181036000830152612c4f81612c13565b9050919050565b7f4f776e61626c653a2063616c6c6572206973206e6f7420746865206f776e6572600082015250565b6000612c8c602083612102565b9150612c9782612c56565b602082019050919050565b60006020820190508181036000830152612cbb81612c7f565b9050919050565b7f4f776e61626c653a206e6577206f776e657220697320746865207a65726f206160008201527f6464726573730000000000000000000000000000000000000000000000000000602082015250565b6000612d1e602683612102565b9150612d2982612cc2565b604082019050919050565b60006020820190508181036000830152612d4d81612d11565b9050919050565b7f455243313135353a206d696e7420746f20746865207a65726f2061646472657360008201527f7300000000000000000000000000000000000000000000000000000000000000602082015250565b6000612db0602183612102565b9150612dbb82612d54565b604082019050919050565b60006020820190508181036000830152612ddf81612da3565b9050919050565b6000612df182611f6f565b9150612dfc83611f6f565b9250828201905080821115612e1457612e13612b4d565b5b92915050565b6000604082019050612e2f6000830185611fe5565b612e3c6020830184611fe5565b9392505050565b7f455243313135353a2069647320616e6420616d6f756e7473206c656e6774682060008201527f6d69736d61746368000000000000000000000000000000000000000000000000602082015250565b6000612e9f602883612102565b9150612eaa82612e43565b604082019050919050565b60006020820190508181036000830152612ece81612e92565b9050919050565b7f455243313135353a207472616e7366657220746f20746865207a65726f20616460008201527f6472657373000000000000000000000000000000000000000000000000000000602082015250565b6000612f31602583612102565b9150612f3c82612ed5565b604082019050919050565b60006020820190508181036000830152612f6081612f24565b9050919050565b7f455243313135353a20696e73756666696369656e742062616c616e636520666f60008201527f72207472616e7366657200000000000000000000000000000000000000000000602082015250565b6000612fc3602a83612102565b9150612fce82612f67565b604082019050919050565b60006020820190508181036000830152612ff281612fb6565b9050919050565b600060408201905081810360008301526130138185612663565b905081810360208301526130278184612663565b90509392505050565b7f455243313135353a206275726e2066726f6d20746865207a65726f206164647260008201527f6573730000000000000000000000000000000000000000000000000000000000602082015250565b600061308c602383612102565b915061309782613030565b604082019050919050565b600060208201905081810360008301526130bb8161307f565b9050919050565b7f455243313135353a206275726e20616d6f756e7420657863656564732062616c60008201527f616e636500000000000000000000000000000000000000000000000000000000602082015250565b600061311e602483612102565b9150613129826130c2565b604082019050919050565b6000602082019050818103600083015261314d81613111565b9050919050565b7f455243313135353a2073657474696e6720617070726f76616c2073746174757360008201527f20666f722073656c660000000000000000000000000000000000000000000000602082015250565b60006131b0602983612102565b91506131bb82613154565b604082019050919050565b600060208201905081810360008301526131df816131a3565b9050919050565b600081519050919050565b600082825260208201905092915050565b600061320d826131e6565b61321781856131f1565b9350613227818560208601612113565b6132308161213d565b840191505092915050565b600060a082019050613250600083018861276e565b61325d602083018761276e565b61326a6040830186611fe5565b6132776060830185611fe5565b81810360808301526132898184613202565b90509695505050505050565b6000815190506132a48161203b565b92915050565b6000602082840312156132c0576132bf611f07565b5b60006132ce84828501613295565b91505092915050565b60008160e01c9050919050565b600060033d11156133035760046000803e6133006000516132d7565b90505b90565b600060443d1061339357613318611efd565b60043d036004823e80513d602482011167ffffffffffffffff82111715613340575050613393565b808201805167ffffffffffffffff81111561335e5750505050613393565b80602083010160043d03850181111561337b575050505050613393565b61338a82602001850186612230565b82955050505050505b90565b7f455243313135353a207472616e7366657220746f206e6f6e204552433131353560008201527f526563656976657220696d706c656d656e746572000000000000000000000000602082015250565b60006133f2603483612102565b91506133fd82613396565b604082019050919050565b60006020820190508181036000830152613421816133e5565b9050919050565b7f455243313135353a204552433131353552656365697665722072656a6563746560008201527f6420746f6b656e73000000000000000000000000000000000000000000000000602082015250565b6000613484602883612102565b915061348f82613428565b604082019050919050565b600060208201905081810360008301526134b381613477565b9050919050565b600060a0820190506134cf600083018861276e565b6134dc602083018761276e565b81810360408301526134ee8186612663565b905081810360608301526135028185612663565b905081810360808301526135168184613202565b9050969550505050505056fea26469706673582212207d14ec883316e74400e9a35c0dda4f06cfe6c30f71dd0b23360baa0d07cf6cb564736f6c6343000812003368747470733a2f2f676174657761792e70696e6174612e636c6f75642f697066732f516d654c3833563868755677394e6f7455746955756a57735747734a6d6f4276594257314a5862686e706f6872512f7b69647d2e6a736f6e","opcodes":"PUSH1 0x80 PUSH1 0x40 MSTORE CALLVALUE DUP1 ISZERO PUSH3 0x11 JUMPI PUSH1 0x0 DUP1 REVERT JUMPDEST POP PUSH1 0x40 MLOAD DUP1 PUSH1 0x80 ADD PUSH1 0x40 MSTORE DUP1 PUSH1 0x5A DUP2 MSTORE PUSH1 0x20 ADD PUSH3 0x3A10 PUSH1 0x5A SWAP2 CODECOPY PUSH3 0x3D DUP2 PUSH3 0x64 PUSH1 0x20 SHL PUSH1 0x20 SHR JUMP JUMPDEST POP PUSH3 0x5E PUSH3 0x52 PUSH3 0x79 PUSH1 0x20 SHL PUSH1 0x20 SHR JUMP JUMPDEST PUSH3 0x81 PUSH1 0x20 SHL PUSH1 0x20 SHR JUMP JUMPDEST PUSH3 0x4A8 JUMP JUMPDEST DUP1 PUSH1 0x2 SWAP1 DUP2 PUSH3 0x75 SWAP2 SWAP1 PUSH3 0x3C1 JUMP JUMPDEST POP POP JUMP JUMPDEST PUSH1 0x0 CALLER SWAP1 POP SWAP1 JUMP JUMPDEST PUSH1 0x0 PUSH1 0x3 PUSH1 0x0 SWAP1 SLOAD SWAP1 PUSH2 0x100 EXP SWAP1 DIV PUSH20 0xFFFFFFFFFFFFFFFFFFFFFFFFFFFFFFFFFFFFFFFF AND SWAP1 POP DUP2 PUSH1 0x3 PUSH1 0x0 PUSH2 0x100 EXP DUP2 SLOAD DUP2 PUSH20 0xFFFFFFFFFFFFFFFFFFFFFFFFFFFFFFFFFFFFFFFF MUL NOT AND SWAP1 DUP4 PUSH20 0xFFFFFFFFFFFFFFFFFFFFFFFFFFFFFFFFFFFFFFFF AND MUL OR SWAP1 SSTORE POP DUP2 PUSH20 0xFFFFFFFFFFFFFFFFFFFFFFFFFFFFFFFFFFFFFFFF AND DUP2 PUSH20 0xFFFFFFFFFFFFFFFFFFFFFFFFFFFFFFFFFFFFFFFF AND PUSH32 0x8BE0079C531659141344CD1FD0A4F28419497F9722A3DAAFE3B4186F6B6457E0 PUSH1 0x40 MLOAD PUSH1 0x40 MLOAD DUP1 SWAP2 SUB SWAP1 LOG3 POP POP JUMP JUMPDEST PUSH1 0x0 DUP2 MLOAD SWAP1 POP SWAP2 SWAP1 POP JUMP JUMPDEST PUSH32 0x4E487B7100000000000000000000000000000000000000000000000000000000 PUSH1 0x0 MSTORE PUSH1 0x41 PUSH1 0x4 MSTORE PUSH1 0x24 PUSH1 0x0 REVERT JUMPDEST PUSH32 0x4E487B7100000000000000000000000000000000000000000000000000000000 PUSH1 0x0 MSTORE PUSH1 0x22 PUSH1 0x4 MSTORE PUSH1 0x24 PUSH1 0x0 REVERT JUMPDEST PUSH1 0x0 PUSH1 0x2 DUP3 DIV SWAP1 POP PUSH1 0x1 DUP3 AND DUP1 PUSH3 0x1C9 JUMPI PUSH1 0x7F DUP3 AND SWAP2 POP JUMPDEST PUSH1 0x20 DUP3 LT DUP2 SUB PUSH3 0x1DF JUMPI PUSH3 0x1DE PUSH3 0x181 JUMP JUMPDEST JUMPDEST POP SWAP2 SWAP1 POP JUMP JUMPDEST PUSH1 0x0 DUP2 SWAP1 POP DUP2 PUSH1 0x0 MSTORE PUSH1 0x20 PUSH1 0x0 KECCAK256 SWAP1 POP SWAP2 SWAP1 POP JUMP JUMPDEST PUSH1 0x0 PUSH1 0x20 PUSH1 0x1F DUP4 ADD DIV SWAP1 POP SWAP2 SWAP1 POP JUMP JUMPDEST PUSH1 0x0 DUP3 DUP3 SHL SWAP1 POP SWAP3 SWAP2 POP POP JUMP JUMPDEST PUSH1 0x0 PUSH1 0x8 DUP4 MUL PUSH3 0x249 PUSH32 0xFFFFFFFFFFFFFFFFFFFFFFFFFFFFFFFFFFFFFFFFFFFFFFFFFFFFFFFFFFFFFFFF DUP3 PUSH3 0x20A JUMP JUMPDEST PUSH3 0x255 DUP7 DUP4 PUSH3 0x20A JUMP JUMPDEST SWAP6 POP DUP1 NOT DUP5 AND SWAP4 POP DUP1 DUP7 AND DUP5 OR SWAP3 POP POP POP SWAP4 SWAP3 POP POP POP JUMP JUMPDEST PUSH1 0x0 DUP2 SWAP1 POP SWAP2 SWAP1 POP JUMP JUMPDEST PUSH1 0x0 DUP2 SWAP1 POP SWAP2 SWAP1 POP JUMP JUMPDEST PUSH1 0x0 PUSH3 0x2A2 PUSH3 0x29C PUSH3 0x296 DUP5 PUSH3 0x26D JUMP JUMPDEST PUSH3 0x277 JUMP JUMPDEST PUSH3 0x26D JUMP JUMPDEST SWAP1 POP SWAP2 SWAP1 POP JUMP JUMPDEST PUSH1 0x0 DUP2 SWAP1 POP SWAP2 SWAP1 POP JUMP JUMPDEST PUSH3 0x2BE DUP4 PUSH3 0x281 JUMP JUMPDEST PUSH3 0x2D6 PUSH3 0x2CD DUP3 PUSH3 0x2A9 JUMP JUMPDEST DUP5 DUP5 SLOAD PUSH3 0x217 JUMP JUMPDEST DUP3 SSTORE POP POP POP POP JUMP JUMPDEST PUSH1 0x0 SWAP1 JUMP JUMPDEST PUSH3 0x2ED PUSH3 0x2DE JUMP JUMPDEST PUSH3 0x2FA DUP2 DUP5 DUP5 PUSH3 0x2B3 JUMP JUMPDEST POP POP POP JUMP JUMPDEST JUMPDEST DUP2 DUP2 LT ISZERO PUSH3 0x322 JUMPI PUSH3 0x316 PUSH1 0x0 DUP3 PUSH3 0x2E3 JUMP JUMPDEST PUSH1 0x1 DUP2 ADD SWAP1 POP PUSH3 0x300 JUMP JUMPDEST POP POP JUMP JUMPDEST PUSH1 0x1F DUP3 GT ISZERO PUSH3 0x371 JUMPI PUSH3 0x33B DUP2 PUSH3 0x1E5 JUMP JUMPDEST PUSH3 0x346 DUP5 PUSH3 0x1FA JUMP JUMPDEST DUP2 ADD PUSH1 0x20 DUP6 LT ISZERO PUSH3 0x356 JUMPI DUP2 SWAP1 POP JUMPDEST PUSH3 0x36E PUSH3 0x365 DUP6 PUSH3 0x1FA JUMP JUMPDEST DUP4 ADD DUP3 PUSH3 0x2FF JUMP JUMPDEST POP POP JUMPDEST POP POP POP JUMP JUMPDEST PUSH1 0x0 DUP3 DUP3 SHR SWAP1 POP SWAP3 SWAP2 POP POP JUMP JUMPDEST PUSH1 0x0 PUSH3 0x396 PUSH1 0x0 NOT DUP5 PUSH1 0x8 MUL PUSH3 0x376 JUMP JUMPDEST NOT DUP1 DUP4 AND SWAP2 POP POP SWAP3 SWAP2 POP POP JUMP JUMPDEST PUSH1 0x0 PUSH3 0x3B1 DUP4 DUP4 PUSH3 0x383 JUMP JUMPDEST SWAP2 POP DUP3 PUSH1 0x2 MUL DUP3 OR SWAP1 POP SWAP3 SWAP2 POP POP JUMP JUMPDEST PUSH3 0x3CC DUP3 PUSH3 0x147 JUMP JUMPDEST PUSH8 0xFFFFFFFFFFFFFFFF DUP2 GT ISZERO PUSH3 0x3E8 JUMPI PUSH3 0x3E7 PUSH3 0x152 JUMP JUMPDEST JUMPDEST PUSH3 0x3F4 DUP3 SLOAD PUSH3 0x1B0 JUMP JUMPDEST PUSH3 0x401 DUP3 DUP3 DUP6 PUSH3 0x326 JUMP JUMPDEST PUSH1 0x0 PUSH1 0x20 SWAP1 POP PUSH1 0x1F DUP4 GT PUSH1 0x1 DUP2 EQ PUSH3 0x439 JUMPI PUSH1 0x0 DUP5 ISZERO PUSH3 0x424 JUMPI DUP3 DUP8 ADD MLOAD SWAP1 POP JUMPDEST PUSH3 0x430 DUP6 DUP3 PUSH3 0x3A3 JUMP JUMPDEST DUP7 SSTORE POP PUSH3 0x4A0 JUMP JUMPDEST PUSH1 0x1F NOT DUP5 AND PUSH3 0x449 DUP7 PUSH3 0x1E5 JUMP JUMPDEST PUSH1 0x0 JUMPDEST DUP3 DUP2 LT ISZERO PUSH3 0x473 JUMPI DUP5 DUP10 ADD MLOAD DUP3 SSTORE PUSH1 0x1 DUP3 ADD SWAP2 POP PUSH1 0x20 DUP6 ADD SWAP5 POP PUSH1 0x20 DUP2 ADD SWAP1 POP PUSH3 0x44C JUMP JUMPDEST DUP7 DUP4 LT ISZERO PUSH3 0x493 JUMPI DUP5 DUP10 ADD MLOAD PUSH3 0x48F PUSH1 0x1F DUP10 AND DUP3 PUSH3 0x383 JUMP JUMPDEST DUP4 SSTORE POP JUMPDEST PUSH1 0x1 PUSH1 0x2 DUP9 MUL ADD DUP9 SSTORE POP POP POP JUMPDEST POP POP POP POP POP POP JUMP JUMPDEST PUSH2 0x3558 DUP1 PUSH3 0x4B8 PUSH1 0x0 CODECOPY PUSH1 0x0 RETURN INVALID PUSH1 0x80 PUSH1 0x40 MSTORE CALLVALUE DUP1 ISZERO PUSH2 0x10 JUMPI PUSH1 0x0 DUP1 REVERT JUMPDEST POP PUSH1 0x4 CALLDATASIZE LT PUSH2 0xFF JUMPI PUSH1 0x0 CALLDATALOAD PUSH1 0xE0 SHR DUP1 PUSH4 0x6F95545D GT PUSH2 0x97 JUMPI DUP1 PUSH4 0xE985E9C5 GT PUSH2 0x66 JUMPI DUP1 PUSH4 0xE985E9C5 EQ PUSH2 0x294 JUMPI DUP1 PUSH4 0xF242432A EQ PUSH2 0x2C4 JUMPI DUP1 PUSH4 0xF2FDE38B EQ PUSH2 0x2E0 JUMPI DUP1 PUSH4 0xF5298ACA EQ PUSH2 0x2FC JUMPI PUSH2 0xFF JUMP JUMPDEST DUP1 PUSH4 0x6F95545D EQ PUSH2 0x234 JUMPI DUP1 PUSH4 0x715018A6 EQ PUSH2 0x250 JUMPI DUP1 PUSH4 0x8DA5CB5B EQ PUSH2 0x25A JUMPI DUP1 PUSH4 0xA22CB465 EQ PUSH2 0x278 JUMPI PUSH2 0xFF JUMP JUMPDEST DUP1 PUSH4 0x2EB2C2D6 GT PUSH2 0xD3 JUMPI DUP1 PUSH4 0x2EB2C2D6 EQ PUSH2 0x1B0 JUMPI DUP1 PUSH4 0x4E1273F4 EQ PUSH2 0x1CC JUMPI DUP1 PUSH4 0x4F10E574 EQ PUSH2 0x1FC JUMPI DUP1 PUSH4 0x6B20C454 EQ PUSH2 0x218 JUMPI PUSH2 0xFF JUMP JUMPDEST DUP1 PUSH3 0xFDD58E EQ PUSH2 0x104 JUMPI DUP1 PUSH4 0x1FFC9A7 EQ PUSH2 0x134 JUMPI DUP1 PUSH4 0xE89341C EQ PUSH2 0x164 JUMPI DUP1 PUSH4 0x156E29F6 EQ PUSH2 0x194 JUMPI JUMPDEST PUSH1 0x0 DUP1 REVERT JUMPDEST PUSH2 0x11E PUSH1 0x4 DUP1 CALLDATASIZE SUB DUP2 ADD SWAP1 PUSH2 0x119 SWAP2 SWAP1 PUSH2 0x1FA5 JUMP JUMPDEST PUSH2 0x318 JUMP JUMPDEST PUSH1 0x40 MLOAD PUSH2 0x12B SWAP2 SWAP1 PUSH2 0x1FF4 JUMP JUMPDEST PUSH1 0x40 MLOAD DUP1 SWAP2 SUB SWAP1 RETURN JUMPDEST PUSH2 0x14E PUSH1 0x4 DUP1 CALLDATASIZE SUB DUP2 ADD SWAP1 PUSH2 0x149 SWAP2 SWAP1 PUSH2 0x2067 JUMP JUMPDEST PUSH2 0x3E0 JUMP JUMPDEST PUSH1 0x40 MLOAD PUSH2 0x15B SWAP2 SWAP1 PUSH2 0x20AF JUMP JUMPDEST PUSH1 0x40 MLOAD DUP1 SWAP2 SUB SWAP1 RETURN JUMPDEST PUSH2 0x17E PUSH1 0x4 DUP1 CALLDATASIZE SUB DUP2 ADD SWAP1 PUSH2 0x179 SWAP2 SWAP1 PUSH2 0x20CA JUMP JUMPDEST PUSH2 0x4C2 JUMP JUMPDEST PUSH1 0x40 MLOAD PUSH2 0x18B SWAP2 SWAP1 PUSH2 0x2187 JUMP JUMPDEST PUSH1 0x40 MLOAD DUP1 SWAP2 SUB SWAP1 RETURN JUMPDEST PUSH2 0x1AE PUSH1 0x4 DUP1 CALLDATASIZE SUB DUP2 ADD SWAP1 PUSH2 0x1A9 SWAP2 SWAP1 PUSH2 0x21A9 JUMP JUMPDEST PUSH2 0x556 JUMP JUMPDEST STOP JUMPDEST PUSH2 0x1CA PUSH1 0x4 DUP1 CALLDATASIZE SUB DUP2 ADD SWAP1 PUSH2 0x1C5 SWAP2 SWAP1 PUSH2 0x23F9 JUMP JUMPDEST PUSH2 0x576 JUMP JUMPDEST STOP JUMPDEST PUSH2 0x1E6 PUSH1 0x4 DUP1 CALLDATASIZE SUB DUP2 ADD SWAP1 PUSH2 0x1E1 SWAP2 SWAP1 PUSH2 0x258B JUMP JUMPDEST PUSH2 0x617 JUMP JUMPDEST PUSH1 0x40 MLOAD PUSH2 0x1F3 SWAP2 SWAP1 PUSH2 0x26C1 JUMP JUMPDEST PUSH1 0x40 MLOAD DUP1 SWAP2 SUB SWAP1 RETURN JUMPDEST PUSH2 0x216 PUSH1 0x4 DUP1 CALLDATASIZE SUB DUP2 ADD SWAP1 PUSH2 0x211 SWAP2 SWAP1 PUSH2 0x21A9 JUMP JUMPDEST PUSH2 0x730 JUMP JUMPDEST STOP JUMPDEST PUSH2 0x232 PUSH1 0x4 DUP1 CALLDATASIZE SUB DUP2 ADD SWAP1 PUSH2 0x22D SWAP2 SWAP1 PUSH2 0x26E3 JUMP JUMPDEST PUSH2 0x740 JUMP JUMPDEST STOP JUMPDEST PUSH2 0x24E PUSH1 0x4 DUP1 CALLDATASIZE SUB DUP2 ADD SWAP1 PUSH2 0x249 SWAP2 SWAP1 PUSH2 0x26E3 JUMP JUMPDEST PUSH2 0x7DD JUMP JUMPDEST STOP JUMPDEST PUSH2 0x258 PUSH2 0x7ED JUMP JUMPDEST STOP JUMPDEST PUSH2 0x262 PUSH2 0x875 JUMP JUMPDEST PUSH1 0x40 MLOAD PUSH2 0x26F SWAP2 SWAP1 PUSH2 0x277D JUMP JUMPDEST PUSH1 0x40 MLOAD DUP1 SWAP2 SUB SWAP1 RETURN JUMPDEST PUSH2 0x292 PUSH1 0x4 DUP1 CALLDATASIZE SUB DUP2 ADD SWAP1 PUSH2 0x28D SWAP2 SWAP1 PUSH2 0x27C4 JUMP JUMPDEST PUSH2 0x89F JUMP JUMPDEST STOP JUMPDEST PUSH2 0x2AE PUSH1 0x4 DUP1 CALLDATASIZE SUB DUP2 ADD SWAP1 PUSH2 0x2A9 SWAP2 SWAP1 PUSH2 0x2804 JUMP JUMPDEST PUSH2 0x8B5 JUMP JUMPDEST PUSH1 0x40 MLOAD PUSH2 0x2BB SWAP2 SWAP1 PUSH2 0x20AF JUMP JUMPDEST PUSH1 0x40 MLOAD DUP1 SWAP2 SUB SWAP1 RETURN JUMPDEST PUSH2 0x2DE PUSH1 0x4 DUP1 CALLDATASIZE SUB DUP2 ADD SWAP1 PUSH2 0x2D9 SWAP2 SWAP1 PUSH2 0x2844 JUMP JUMPDEST PUSH2 0x949 JUMP JUMPDEST STOP JUMPDEST PUSH2 0x2FA PUSH1 0x4 DUP1 CALLDATASIZE SUB DUP2 ADD SWAP1 PUSH2 0x2F5 SWAP2 SWAP1 PUSH2 0x28DB JUMP JUMPDEST PUSH2 0x9EA JUMP JUMPDEST STOP JUMPDEST PUSH2 0x316 PUSH1 0x4 DUP1 CALLDATASIZE SUB DUP2 ADD SWAP1 PUSH2 0x311 SWAP2 SWAP1 PUSH2 0x21A9 JUMP JUMPDEST PUSH2 0xAE1 JUMP JUMPDEST STOP JUMPDEST PUSH1 0x0 DUP1 PUSH20 0xFFFFFFFFFFFFFFFFFFFFFFFFFFFFFFFFFFFFFFFF AND DUP4 PUSH20 0xFFFFFFFFFFFFFFFFFFFFFFFFFFFFFFFFFFFFFFFF AND SUB PUSH2 0x388 JUMPI PUSH1 0x40 MLOAD PUSH32 0x8C379A000000000000000000000000000000000000000000000000000000000 DUP2 MSTORE PUSH1 0x4 ADD PUSH2 0x37F SWAP1 PUSH2 0x297A JUMP JUMPDEST PUSH1 0x40 MLOAD DUP1 SWAP2 SUB SWAP1 REVERT JUMPDEST PUSH1 0x0 DUP1 DUP4 DUP2 MSTORE PUSH1 0x20 ADD SWAP1 DUP2 MSTORE PUSH1 0x20 ADD PUSH1 0x0 KECCAK256 PUSH1 0x0 DUP5 PUSH20 0xFFFFFFFFFFFFFFFFFFFFFFFFFFFFFFFFFFFFFFFF AND PUSH20 0xFFFFFFFFFFFFFFFFFFFFFFFFFFFFFFFFFFFFFFFF AND DUP2 MSTORE PUSH1 0x20 ADD SWAP1 DUP2 MSTORE PUSH1 0x20 ADD PUSH1 0x0 KECCAK256 SLOAD SWAP1 POP SWAP3 SWAP2 POP POP JUMP JUMPDEST PUSH1 0x0 PUSH32 0xD9B67A2600000000000000000000000000000000000000000000000000000000 PUSH28 0xFFFFFFFFFFFFFFFFFFFFFFFFFFFFFFFFFFFFFFFFFFFFFFFFFFFFFFFF NOT AND DUP3 PUSH28 0xFFFFFFFFFFFFFFFFFFFFFFFFFFFFFFFFFFFFFFFFFFFFFFFFFFFFFFFF NOT AND EQ DUP1 PUSH2 0x4AB JUMPI POP PUSH32 0xE89341C00000000000000000000000000000000000000000000000000000000 PUSH28 0xFFFFFFFFFFFFFFFFFFFFFFFFFFFFFFFFFFFFFFFFFFFFFFFFFFFFFFFF NOT AND DUP3 PUSH28 0xFFFFFFFFFFFFFFFFFFFFFFFFFFFFFFFFFFFFFFFFFFFFFFFFFFFFFFFF NOT AND EQ JUMPDEST DUP1 PUSH2 0x4BB JUMPI POP PUSH2 0x4BA DUP3 PUSH2 0xB7E JUMP JUMPDEST JUMPDEST SWAP1 POP SWAP2 SWAP1 POP JUMP JUMPDEST PUSH1 0x60 PUSH1 0x2 DUP1 SLOAD PUSH2 0x4D1 SWAP1 PUSH2 0x29C9 JUMP JUMPDEST DUP1 PUSH1 0x1F ADD PUSH1 0x20 DUP1 SWAP2 DIV MUL PUSH1 0x20 ADD PUSH1 0x40 MLOAD SWAP1 DUP2 ADD PUSH1 0x40 MSTORE DUP1 SWAP3 SWAP2 SWAP1 DUP2 DUP2 MSTORE PUSH1 0x20 ADD DUP3 DUP1 SLOAD PUSH2 0x4FD SWAP1 PUSH2 0x29C9 JUMP JUMPDEST DUP1 ISZERO PUSH2 0x54A JUMPI DUP1 PUSH1 0x1F LT PUSH2 0x51F JUMPI PUSH2 0x100 DUP1 DUP4 SLOAD DIV MUL DUP4 MSTORE SWAP2 PUSH1 0x20 ADD SWAP2 PUSH2 0x54A JUMP JUMPDEST DUP3 ADD SWAP2 SWAP1 PUSH1 0x0 MSTORE PUSH1 0x20 PUSH1 0x0 KECCAK256 SWAP1 JUMPDEST DUP2 SLOAD DUP2 MSTORE SWAP1 PUSH1 0x1 ADD SWAP1 PUSH1 0x20 ADD DUP1 DUP4 GT PUSH2 0x52D JUMPI DUP3 SWAP1 SUB PUSH1 0x1F AND DUP3 ADD SWAP2 JUMPDEST POP POP POP POP POP SWAP1 POP SWAP2 SWAP1 POP JUMP JUMPDEST PUSH2 0x571 DUP4 DUP4 DUP4 PUSH1 0x40 MLOAD DUP1 PUSH1 0x20 ADD PUSH1 0x40 MSTORE DUP1 PUSH1 0x0 DUP2 MSTORE POP PUSH2 0xBE8 JUMP JUMPDEST POP POP POP JUMP JUMPDEST PUSH2 0x57E PUSH2 0xD98 JUMP JUMPDEST PUSH20 0xFFFFFFFFFFFFFFFFFFFFFFFFFFFFFFFFFFFFFFFF AND DUP6 PUSH20 0xFFFFFFFFFFFFFFFFFFFFFFFFFFFFFFFFFFFFFFFF AND EQ DUP1 PUSH2 0x5C4 JUMPI POP PUSH2 0x5C3 DUP6 PUSH2 0x5BE PUSH2 0xD98 JUMP JUMPDEST PUSH2 0x8B5 JUMP JUMPDEST JUMPDEST PUSH2 0x603 JUMPI PUSH1 0x40 MLOAD PUSH32 0x8C379A000000000000000000000000000000000000000000000000000000000 DUP2 MSTORE PUSH1 0x4 ADD PUSH2 0x5FA SWAP1 PUSH2 0x2A6C JUMP JUMPDEST PUSH1 0x40 MLOAD DUP1 SWAP2 SUB SWAP1 REVERT JUMPDEST PUSH2 0x610 DUP6 DUP6 DUP6 DUP6 DUP6 PUSH2 0xDA0 JUMP JUMPDEST POP POP POP POP POP JUMP JUMPDEST PUSH1 0x60 DUP2 MLOAD DUP4 MLOAD EQ PUSH2 0x65D JUMPI PUSH1 0x40 MLOAD PUSH32 0x8C379A000000000000000000000000000000000000000000000000000000000 DUP2 MSTORE PUSH1 0x4 ADD PUSH2 0x654 SWAP1 PUSH2 0x2AFE JUMP JUMPDEST PUSH1 0x40 MLOAD DUP1 SWAP2 SUB SWAP1 REVERT JUMPDEST PUSH1 0x0 DUP4 MLOAD PUSH8 0xFFFFFFFFFFFFFFFF DUP2 GT ISZERO PUSH2 0x67A JUMPI PUSH2 0x679 PUSH2 0x2201 JUMP JUMPDEST JUMPDEST PUSH1 0x40 MLOAD SWAP1 DUP1 DUP3 MSTORE DUP1 PUSH1 0x20 MUL PUSH1 0x20 ADD DUP3 ADD PUSH1 0x40 MSTORE DUP1 ISZERO PUSH2 0x6A8 JUMPI DUP2 PUSH1 0x20 ADD PUSH1 0x20 DUP3 MUL DUP1 CALLDATASIZE DUP4 CALLDATACOPY DUP1 DUP3 ADD SWAP2 POP POP SWAP1 POP JUMPDEST POP SWAP1 POP PUSH1 0x0 JUMPDEST DUP5 MLOAD DUP2 LT ISZERO PUSH2 0x725 JUMPI PUSH2 0x6F5 DUP6 DUP3 DUP2 MLOAD DUP2 LT PUSH2 0x6CD JUMPI PUSH2 0x6CC PUSH2 0x2B1E JUMP JUMPDEST JUMPDEST PUSH1 0x20 MUL PUSH1 0x20 ADD ADD MLOAD DUP6 DUP4 DUP2 MLOAD DUP2 LT PUSH2 0x6E8 JUMPI PUSH2 0x6E7 PUSH2 0x2B1E JUMP JUMPDEST JUMPDEST PUSH1 0x20 MUL PUSH1 0x20 ADD ADD MLOAD PUSH2 0x318 JUMP JUMPDEST DUP3 DUP3 DUP2 MLOAD DUP2 LT PUSH2 0x708 JUMPI PUSH2 0x707 PUSH2 0x2B1E JUMP JUMPDEST JUMPDEST PUSH1 0x20 MUL PUSH1 0x20 ADD ADD DUP2 DUP2 MSTORE POP POP DUP1 PUSH2 0x71E SWAP1 PUSH2 0x2B7C JUMP JUMPDEST SWAP1 POP PUSH2 0x6AE JUMP JUMPDEST POP DUP1 SWAP2 POP POP SWAP3 SWAP2 POP POP JUMP JUMPDEST PUSH2 0x73B DUP4 DUP4 DUP4 PUSH2 0x10C1 JUMP JUMPDEST POP POP POP JUMP JUMPDEST PUSH2 0x748 PUSH2 0xD98 JUMP JUMPDEST PUSH20 0xFFFFFFFFFFFFFFFFFFFFFFFFFFFFFFFFFFFFFFFF AND DUP4 PUSH20 0xFFFFFFFFFFFFFFFFFFFFFFFFFFFFFFFFFFFFFFFF AND EQ DUP1 PUSH2 0x78E JUMPI POP PUSH2 0x78D DUP4 PUSH2 0x788 PUSH2 0xD98 JUMP JUMPDEST PUSH2 0x8B5 JUMP JUMPDEST JUMPDEST PUSH2 0x7CD JUMPI PUSH1 0x40 MLOAD PUSH32 0x8C379A000000000000000000000000000000000000000000000000000000000 DUP2 MSTORE PUSH1 0x4 ADD PUSH2 0x7C4 SWAP1 PUSH2 0x2C36 JUMP JUMPDEST PUSH1 0x40 MLOAD DUP1 SWAP2 SUB SWAP1 REVERT JUMPDEST PUSH2 0x7D8 DUP4 DUP4 DUP4 PUSH2 0x1307 JUMP JUMPDEST POP POP POP JUMP JUMPDEST PUSH2 0x7E8 DUP4 DUP4 DUP4 PUSH2 0x1307 JUMP JUMPDEST POP POP POP JUMP JUMPDEST PUSH2 0x7F5 PUSH2 0xD98 JUMP JUMPDEST PUSH20 0xFFFFFFFFFFFFFFFFFFFFFFFFFFFFFFFFFFFFFFFF AND PUSH2 0x813 PUSH2 0x875 JUMP JUMPDEST PUSH20 0xFFFFFFFFFFFFFFFFFFFFFFFFFFFFFFFFFFFFFFFF AND EQ PUSH2 0x869 JUMPI PUSH1 0x40 MLOAD PUSH32 0x8C379A000000000000000000000000000000000000000000000000000000000 DUP2 MSTORE PUSH1 0x4 ADD PUSH2 0x860 SWAP1 PUSH2 0x2CA2 JUMP JUMPDEST PUSH1 0x40 MLOAD DUP1 SWAP2 SUB SWAP1 REVERT JUMPDEST PUSH2 0x873 PUSH1 0x0 PUSH2 0x15D5 JUMP JUMPDEST JUMP JUMPDEST PUSH1 0x0 PUSH1 0x3 PUSH1 0x0 SWAP1 SLOAD SWAP1 PUSH2 0x100 EXP SWAP1 DIV PUSH20 0xFFFFFFFFFFFFFFFFFFFFFFFFFFFFFFFFFFFFFFFF AND SWAP1 POP SWAP1 JUMP JUMPDEST PUSH2 0x8B1 PUSH2 0x8AA PUSH2 0xD98 JUMP JUMPDEST DUP4 DUP4 PUSH2 0x169B JUMP JUMPDEST POP POP JUMP JUMPDEST PUSH1 0x0 PUSH1 0x1 PUSH1 0x0 DUP5 PUSH20 0xFFFFFFFFFFFFFFFFFFFFFFFFFFFFFFFFFFFFFFFF AND PUSH20 0xFFFFFFFFFFFFFFFFFFFFFFFFFFFFFFFFFFFFFFFF AND DUP2 MSTORE PUSH1 0x20 ADD SWAP1 DUP2 MSTORE PUSH1 0x20 ADD PUSH1 0x0 KECCAK256 PUSH1 0x0 DUP4 PUSH20 0xFFFFFFFFFFFFFFFFFFFFFFFFFFFFFFFFFFFFFFFF AND PUSH20 0xFFFFFFFFFFFFFFFFFFFFFFFFFFFFFFFFFFFFFFFF AND DUP2 MSTORE PUSH1 0x20 ADD SWAP1 DUP2 MSTORE PUSH1 0x20 ADD PUSH1 0x0 KECCAK256 PUSH1 0x0 SWAP1 SLOAD SWAP1 PUSH2 0x100 EXP SWAP1 DIV PUSH1 0xFF AND SWAP1 POP SWAP3 SWAP2 POP POP JUMP JUMPDEST PUSH2 0x951 PUSH2 0xD98 JUMP JUMPDEST PUSH20 0xFFFFFFFFFFFFFFFFFFFFFFFFFFFFFFFFFFFFFFFF AND DUP6 PUSH20 0xFFFFFFFFFFFFFFFFFFFFFFFFFFFFFFFFFFFFFFFF AND EQ DUP1 PUSH2 0x997 JUMPI POP PUSH2 0x996 DUP6 PUSH2 0x991 PUSH2 0xD98 JUMP JUMPDEST PUSH2 0x8B5 JUMP JUMPDEST JUMPDEST PUSH2 0x9D6 JUMPI PUSH1 0x40 MLOAD PUSH32 0x8C379A000000000000000000000000000000000000000000000000000000000 DUP2 MSTORE PUSH1 0x4 ADD PUSH2 0x9CD SWAP1 PUSH2 0x2C36 JUMP JUMPDEST PUSH1 0x40 MLOAD DUP1 SWAP2 SUB SWAP1 REVERT JUMPDEST PUSH2 0x9E3 DUP6 DUP6 DUP6 DUP6 DUP6 PUSH2 0x1807 JUMP JUMPDEST POP POP POP POP POP JUMP JUMPDEST PUSH2 0x9F2 PUSH2 0xD98 JUMP JUMPDEST PUSH20 0xFFFFFFFFFFFFFFFFFFFFFFFFFFFFFFFFFFFFFFFF AND PUSH2 0xA10 PUSH2 0x875 JUMP JUMPDEST PUSH20 0xFFFFFFFFFFFFFFFFFFFFFFFFFFFFFFFFFFFFFFFF AND EQ PUSH2 0xA66 JUMPI PUSH1 0x40 MLOAD PUSH32 0x8C379A000000000000000000000000000000000000000000000000000000000 DUP2 MSTORE PUSH1 0x4 ADD PUSH2 0xA5D SWAP1 PUSH2 0x2CA2 JUMP JUMPDEST PUSH1 0x40 MLOAD DUP1 SWAP2 SUB SWAP1 REVERT JUMPDEST PUSH1 0x0 PUSH20 0xFFFFFFFFFFFFFFFFFFFFFFFFFFFFFFFFFFFFFFFF AND DUP2 PUSH20 0xFFFFFFFFFFFFFFFFFFFFFFFFFFFFFFFFFFFFFFFF AND SUB PUSH2 0xAD5 JUMPI PUSH1 0x40 MLOAD PUSH32 0x8C379A000000000000000000000000000000000000000000000000000000000 DUP2 MSTORE PUSH1 0x4 ADD PUSH2 0xACC SWAP1 PUSH2 0x2D34 JUMP JUMPDEST PUSH1 0x40 MLOAD DUP1 SWAP2 SUB SWAP1 REVERT JUMPDEST PUSH2 0xADE DUP2 PUSH2 0x15D5 JUMP JUMPDEST POP JUMP JUMPDEST PUSH2 0xAE9 PUSH2 0xD98 JUMP JUMPDEST PUSH20 0xFFFFFFFFFFFFFFFFFFFFFFFFFFFFFFFFFFFFFFFF AND DUP4 PUSH20 0xFFFFFFFFFFFFFFFFFFFFFFFFFFFFFFFFFFFFFFFF AND EQ DUP1 PUSH2 0xB2F JUMPI POP PUSH2 0xB2E DUP4 PUSH2 0xB29 PUSH2 0xD98 JUMP JUMPDEST PUSH2 0x8B5 JUMP JUMPDEST JUMPDEST PUSH2 0xB6E JUMPI PUSH1 0x40 MLOAD PUSH32 0x8C379A000000000000000000000000000000000000000000000000000000000 DUP2 MSTORE PUSH1 0x4 ADD PUSH2 0xB65 SWAP1 PUSH2 0x2C36 JUMP JUMPDEST PUSH1 0x40 MLOAD DUP1 SWAP2 SUB SWAP1 REVERT JUMPDEST PUSH2 0xB79 DUP4 DUP4 DUP4 PUSH2 0x10C1 JUMP JUMPDEST POP POP POP JUMP JUMPDEST PUSH1 0x0 PUSH32 0x1FFC9A700000000000000000000000000000000000000000000000000000000 PUSH28 0xFFFFFFFFFFFFFFFFFFFFFFFFFFFFFFFFFFFFFFFFFFFFFFFFFFFFFFFF NOT AND DUP3 PUSH28 0xFFFFFFFFFFFFFFFFFFFFFFFFFFFFFFFFFFFFFFFFFFFFFFFFFFFFFFFF NOT AND EQ SWAP1 POP SWAP2 SWAP1 POP JUMP JUMPDEST PUSH1 0x0 PUSH20 0xFFFFFFFFFFFFFFFFFFFFFFFFFFFFFFFFFFFFFFFF AND DUP5 PUSH20 0xFFFFFFFFFFFFFFFFFFFFFFFFFFFFFFFFFFFFFFFF AND SUB PUSH2 0xC57 JUMPI PUSH1 0x40 MLOAD PUSH32 0x8C379A000000000000000000000000000000000000000000000000000000000 DUP2 MSTORE PUSH1 0x4 ADD PUSH2 0xC4E SWAP1 PUSH2 0x2DC6 JUMP JUMPDEST PUSH1 0x40 MLOAD DUP1 SWAP2 SUB SWAP1 REVERT JUMPDEST PUSH1 0x0 PUSH2 0xC61 PUSH2 0xD98 JUMP JUMPDEST SWAP1 POP PUSH1 0x0 PUSH2 0xC6E DUP6 PUSH2 0x1AA2 JUMP JUMPDEST SWAP1 POP PUSH1 0x0 PUSH2 0xC7B DUP6 PUSH2 0x1AA2 JUMP JUMPDEST SWAP1 POP PUSH2 0xC8C DUP4 PUSH1 0x0 DUP10 DUP6 DUP6 DUP10 PUSH2 0x1B1C JUMP JUMPDEST DUP5 PUSH1 0x0 DUP1 DUP9 DUP2 MSTORE PUSH1 0x20 ADD SWAP1 DUP2 MSTORE PUSH1 0x20 ADD PUSH1 0x0 KECCAK256 PUSH1 0x0 DUP10 PUSH20 0xFFFFFFFFFFFFFFFFFFFFFFFFFFFFFFFFFFFFFFFF AND PUSH20 0xFFFFFFFFFFFFFFFFFFFFFFFFFFFFFFFFFFFFFFFF AND DUP2 MSTORE PUSH1 0x20 ADD SWAP1 DUP2 MSTORE PUSH1 0x20 ADD PUSH1 0x0 KECCAK256 PUSH1 0x0 DUP3 DUP3 SLOAD PUSH2 0xCEB SWAP2 SWAP1 PUSH2 0x2DE6 JUMP JUMPDEST SWAP3 POP POP DUP2 SWAP1 SSTORE POP DUP7 PUSH20 0xFFFFFFFFFFFFFFFFFFFFFFFFFFFFFFFFFFFFFFFF AND PUSH1 0x0 PUSH20 0xFFFFFFFFFFFFFFFFFFFFFFFFFFFFFFFFFFFFFFFF AND DUP5 PUSH20 0xFFFFFFFFFFFFFFFFFFFFFFFFFFFFFFFFFFFFFFFF AND PUSH32 0xC3D58168C5AE7397731D063D5BBF3D657854427343F4C083240F7AACAA2D0F62 DUP10 DUP10 PUSH1 0x40 MLOAD PUSH2 0xD69 SWAP3 SWAP2 SWAP1 PUSH2 0x2E1A JUMP JUMPDEST PUSH1 0x40 MLOAD DUP1 SWAP2 SUB SWAP1 LOG4 PUSH2 0xD80 DUP4 PUSH1 0x0 DUP10 DUP6 DUP6 DUP10 PUSH2 0x1B24 JUMP JUMPDEST PUSH2 0xD8F DUP4 PUSH1 0x0 DUP10 DUP10 DUP10 DUP10 PUSH2 0x1B2C JUMP JUMPDEST POP POP POP POP POP POP POP JUMP JUMPDEST PUSH1 0x0 CALLER SWAP1 POP SWAP1 JUMP JUMPDEST DUP2 MLOAD DUP4 MLOAD EQ PUSH2 0xDE4 JUMPI PUSH1 0x40 MLOAD PUSH32 0x8C379A000000000000000000000000000000000000000000000000000000000 DUP2 MSTORE PUSH1 0x4 ADD PUSH2 0xDDB SWAP1 PUSH2 0x2EB5 JUMP JUMPDEST PUSH1 0x40 MLOAD DUP1 SWAP2 SUB SWAP1 REVERT JUMPDEST PUSH1 0x0 PUSH20 0xFFFFFFFFFFFFFFFFFFFFFFFFFFFFFFFFFFFFFFFF AND DUP5 PUSH20 0xFFFFFFFFFFFFFFFFFFFFFFFFFFFFFFFFFFFFFFFF AND SUB PUSH2 0xE53 JUMPI PUSH1 0x40 MLOAD PUSH32 0x8C379A000000000000000000000000000000000000000000000000000000000 DUP2 MSTORE PUSH1 0x4 ADD PUSH2 0xE4A SWAP1 PUSH2 0x2F47 JUMP JUMPDEST PUSH1 0x40 MLOAD DUP1 SWAP2 SUB SWAP1 REVERT JUMPDEST PUSH1 0x0 PUSH2 0xE5D PUSH2 0xD98 JUMP JUMPDEST SWAP1 POP PUSH2 0xE6D DUP2 DUP8 DUP8 DUP8 DUP8 DUP8 PUSH2 0x1B1C JUMP JUMPDEST PUSH1 0x0 JUMPDEST DUP5 MLOAD DUP2 LT ISZERO PUSH2 0x101E JUMPI PUSH1 0x0 DUP6 DUP3 DUP2 MLOAD DUP2 LT PUSH2 0xE8E JUMPI PUSH2 0xE8D PUSH2 0x2B1E JUMP JUMPDEST JUMPDEST PUSH1 0x20 MUL PUSH1 0x20 ADD ADD MLOAD SWAP1 POP PUSH1 0x0 DUP6 DUP4 DUP2 MLOAD DUP2 LT PUSH2 0xEAD JUMPI PUSH2 0xEAC PUSH2 0x2B1E JUMP JUMPDEST JUMPDEST PUSH1 0x20 MUL PUSH1 0x20 ADD ADD MLOAD SWAP1 POP PUSH1 0x0 DUP1 PUSH1 0x0 DUP5 DUP2 MSTORE PUSH1 0x20 ADD SWAP1 DUP2 MSTORE PUSH1 0x20 ADD PUSH1 0x0 KECCAK256 PUSH1 0x0 DUP12 PUSH20 0xFFFFFFFFFFFFFFFFFFFFFFFFFFFFFFFFFFFFFFFF AND PUSH20 0xFFFFFFFFFFFFFFFFFFFFFFFFFFFFFFFFFFFFFFFF AND DUP2 MSTORE PUSH1 0x20 ADD SWAP1 DUP2 MSTORE PUSH1 0x20 ADD PUSH1 0x0 KECCAK256 SLOAD SWAP1 POP DUP2 DUP2 LT ISZERO PUSH2 0xF4E JUMPI PUSH1 0x40 MLOAD PUSH32 0x8C379A000000000000000000000000000000000000000000000000000000000 DUP2 MSTORE PUSH1 0x4 ADD PUSH2 0xF45 SWAP1 PUSH2 0x2FD9 JUMP JUMPDEST PUSH1 0x40 MLOAD DUP1 SWAP2 SUB SWAP1 REVERT JUMPDEST DUP2 DUP2 SUB PUSH1 0x0 DUP1 DUP6 DUP2 MSTORE PUSH1 0x20 ADD SWAP1 DUP2 MSTORE PUSH1 0x20 ADD PUSH1 0x0 KECCAK256 PUSH1 0x0 DUP13 PUSH20 0xFFFFFFFFFFFFFFFFFFFFFFFFFFFFFFFFFFFFFFFF AND PUSH20 0xFFFFFFFFFFFFFFFFFFFFFFFFFFFFFFFFFFFFFFFF AND DUP2 MSTORE PUSH1 0x20 ADD SWAP1 DUP2 MSTORE PUSH1 0x20 ADD PUSH1 0x0 KECCAK256 DUP2 SWAP1 SSTORE POP DUP2 PUSH1 0x0 DUP1 DUP6 DUP2 MSTORE PUSH1 0x20 ADD SWAP1 DUP2 MSTORE PUSH1 0x20 ADD PUSH1 0x0 KECCAK256 PUSH1 0x0 DUP12 PUSH20 0xFFFFFFFFFFFFFFFFFFFFFFFFFFFFFFFFFFFFFFFF AND PUSH20 0xFFFFFFFFFFFFFFFFFFFFFFFFFFFFFFFFFFFFFFFF AND DUP2 MSTORE PUSH1 0x20 ADD SWAP1 DUP2 MSTORE PUSH1 0x20 ADD PUSH1 0x0 KECCAK256 PUSH1 0x0 DUP3 DUP3 SLOAD PUSH2 0x1003 SWAP2 SWAP1 PUSH2 0x2DE6 JUMP JUMPDEST SWAP3 POP POP DUP2 SWAP1 SSTORE POP POP POP POP DUP1 PUSH2 0x1017 SWAP1 PUSH2 0x2B7C JUMP JUMPDEST SWAP1 POP PUSH2 0xE70 JUMP JUMPDEST POP DUP5 PUSH20 0xFFFFFFFFFFFFFFFFFFFFFFFFFFFFFFFFFFFFFFFF AND DUP7 PUSH20 0xFFFFFFFFFFFFFFFFFFFFFFFFFFFFFFFFFFFFFFFF AND DUP3 PUSH20 0xFFFFFFFFFFFFFFFFFFFFFFFFFFFFFFFFFFFFFFFF AND PUSH32 0x4A39DC06D4C0DBC64B70AF90FD698A233A518AA5D07E595D983B8C0526C8F7FB DUP8 DUP8 PUSH1 0x40 MLOAD PUSH2 0x1095 SWAP3 SWAP2 SWAP1 PUSH2 0x2FF9 JUMP JUMPDEST PUSH1 0x40 MLOAD DUP1 SWAP2 SUB SWAP1 LOG4 PUSH2 0x10AB DUP2 DUP8 DUP8 DUP8 DUP8 DUP8 PUSH2 0x1B24 JUMP JUMPDEST PUSH2 0x10B9 DUP2 DUP8 DUP8 DUP8 DUP8 DUP8 PUSH2 0x1D03 JUMP JUMPDEST POP POP POP POP POP POP JUMP JUMPDEST PUSH1 0x0 PUSH20 0xFFFFFFFFFFFFFFFFFFFFFFFFFFFFFFFFFFFFFFFF AND DUP4 PUSH20 0xFFFFFFFFFFFFFFFFFFFFFFFFFFFFFFFFFFFFFFFF AND SUB PUSH2 0x1130 JUMPI PUSH1 0x40 MLOAD PUSH32 0x8C379A000000000000000000000000000000000000000000000000000000000 DUP2 MSTORE PUSH1 0x4 ADD PUSH2 0x1127 SWAP1 PUSH2 0x30A2 JUMP JUMPDEST PUSH1 0x40 MLOAD DUP1 SWAP2 SUB SWAP1 REVERT JUMPDEST PUSH1 0x0 PUSH2 0x113A PUSH2 0xD98 JUMP JUMPDEST SWAP1 POP PUSH1 0x0 PUSH2 0x1147 DUP5 PUSH2 0x1AA2 JUMP JUMPDEST SWAP1 POP PUSH1 0x0 PUSH2 0x1154 DUP5 PUSH2 0x1AA2 JUMP JUMPDEST SWAP1 POP PUSH2 0x1174 DUP4 DUP8 PUSH1 0x0 DUP6 DUP6 PUSH1 0x40 MLOAD DUP1 PUSH1 0x20 ADD PUSH1 0x40 MSTORE DUP1 PUSH1 0x0 DUP2 MSTORE POP PUSH2 0x1B1C JUMP JUMPDEST PUSH1 0x0 DUP1 PUSH1 0x0 DUP8 DUP2 MSTORE PUSH1 0x20 ADD SWAP1 DUP2 MSTORE PUSH1 0x20 ADD PUSH1 0x0 KECCAK256 PUSH1 0x0 DUP9 PUSH20 0xFFFFFFFFFFFFFFFFFFFFFFFFFFFFFFFFFFFFFFFF AND PUSH20 0xFFFFFFFFFFFFFFFFFFFFFFFFFFFFFFFFFFFFFFFF AND DUP2 MSTORE PUSH1 0x20 ADD SWAP1 DUP2 MSTORE PUSH1 0x20 ADD PUSH1 0x0 KECCAK256 SLOAD SWAP1 POP DUP5 DUP2 LT ISZERO PUSH2 0x120B JUMPI PUSH1 0x40 MLOAD PUSH32 0x8C379A000000000000000000000000000000000000000000000000000000000 DUP2 MSTORE PUSH1 0x4 ADD PUSH2 0x1202 SWAP1 PUSH2 0x3134 JUMP JUMPDEST PUSH1 0x40 MLOAD DUP1 SWAP2 SUB SWAP1 REVERT JUMPDEST DUP5 DUP2 SUB PUSH1 0x0 DUP1 DUP9 DUP2 MSTORE PUSH1 0x20 ADD SWAP1 DUP2 MSTORE PUSH1 0x20 ADD PUSH1 0x0 KECCAK256 PUSH1 0x0 DUP10 PUSH20 0xFFFFFFFFFFFFFFFFFFFFFFFFFFFFFFFFFFFFFFFF AND PUSH20 0xFFFFFFFFFFFFFFFFFFFFFFFFFFFFFFFFFFFFFFFF AND DUP2 MSTORE PUSH1 0x20 ADD SWAP1 DUP2 MSTORE PUSH1 0x20 ADD PUSH1 0x0 KECCAK256 DUP2 SWAP1 SSTORE POP PUSH1 0x0 PUSH20 0xFFFFFFFFFFFFFFFFFFFFFFFFFFFFFFFFFFFFFFFF AND DUP8 PUSH20 0xFFFFFFFFFFFFFFFFFFFFFFFFFFFFFFFFFFFFFFFF AND DUP6 PUSH20 0xFFFFFFFFFFFFFFFFFFFFFFFFFFFFFFFFFFFFFFFF AND PUSH32 0xC3D58168C5AE7397731D063D5BBF3D657854427343F4C083240F7AACAA2D0F62 DUP10 DUP10 PUSH1 0x40 MLOAD PUSH2 0x12D8 SWAP3 SWAP2 SWAP1 PUSH2 0x2E1A JUMP JUMPDEST PUSH1 0x40 MLOAD DUP1 SWAP2 SUB SWAP1 LOG4 PUSH2 0x12FE DUP5 DUP9 PUSH1 0x0 DUP7 DUP7 PUSH1 0x40 MLOAD DUP1 PUSH1 0x20 ADD PUSH1 0x40 MSTORE DUP1 PUSH1 0x0 DUP2 MSTORE POP PUSH2 0x1B24 JUMP JUMPDEST POP POP POP POP POP POP POP JUMP JUMPDEST PUSH1 0x0 PUSH20 0xFFFFFFFFFFFFFFFFFFFFFFFFFFFFFFFFFFFFFFFF AND DUP4 PUSH20 0xFFFFFFFFFFFFFFFFFFFFFFFFFFFFFFFFFFFFFFFF AND SUB PUSH2 0x1376 JUMPI PUSH1 0x40 MLOAD PUSH32 0x8C379A000000000000000000000000000000000000000000000000000000000 DUP2 MSTORE PUSH1 0x4 ADD PUSH2 0x136D SWAP1 PUSH2 0x30A2 JUMP JUMPDEST PUSH1 0x40 MLOAD DUP1 SWAP2 SUB SWAP1 REVERT JUMPDEST DUP1 MLOAD DUP3 MLOAD EQ PUSH2 0x13BA JUMPI PUSH1 0x40 MLOAD PUSH32 0x8C379A000000000000000000000000000000000000000000000000000000000 DUP2 MSTORE PUSH1 0x4 ADD PUSH2 0x13B1 SWAP1 PUSH2 0x2EB5 JUMP JUMPDEST PUSH1 0x40 MLOAD DUP1 SWAP2 SUB SWAP1 REVERT JUMPDEST PUSH1 0x0 PUSH2 0x13C4 PUSH2 0xD98 JUMP JUMPDEST SWAP1 POP PUSH2 0x13E4 DUP2 DUP6 PUSH1 0x0 DUP7 DUP7 PUSH1 0x40 MLOAD DUP1 PUSH1 0x20 ADD PUSH1 0x40 MSTORE DUP1 PUSH1 0x0 DUP2 MSTORE POP PUSH2 0x1B1C JUMP JUMPDEST PUSH1 0x0 JUMPDEST DUP4 MLOAD DUP2 LT ISZERO PUSH2 0x1531 JUMPI PUSH1 0x0 DUP5 DUP3 DUP2 MLOAD DUP2 LT PUSH2 0x1405 JUMPI PUSH2 0x1404 PUSH2 0x2B1E JUMP JUMPDEST JUMPDEST PUSH1 0x20 MUL PUSH1 0x20 ADD ADD MLOAD SWAP1 POP PUSH1 0x0 DUP5 DUP4 DUP2 MLOAD DUP2 LT PUSH2 0x1424 JUMPI PUSH2 0x1423 PUSH2 0x2B1E JUMP JUMPDEST JUMPDEST PUSH1 0x20 MUL PUSH1 0x20 ADD ADD MLOAD SWAP1 POP PUSH1 0x0 DUP1 PUSH1 0x0 DUP5 DUP2 MSTORE PUSH1 0x20 ADD SWAP1 DUP2 MSTORE PUSH1 0x20 ADD PUSH1 0x0 KECCAK256 PUSH1 0x0 DUP10 PUSH20 0xFFFFFFFFFFFFFFFFFFFFFFFFFFFFFFFFFFFFFFFF AND PUSH20 0xFFFFFFFFFFFFFFFFFFFFFFFFFFFFFFFFFFFFFFFF AND DUP2 MSTORE PUSH1 0x20 ADD SWAP1 DUP2 MSTORE PUSH1 0x20 ADD PUSH1 0x0 KECCAK256 SLOAD SWAP1 POP DUP2 DUP2 LT ISZERO PUSH2 0x14C5 JUMPI PUSH1 0x40 MLOAD PUSH32 0x8C379A000000000000000000000000000000000000000000000000000000000 DUP2 MSTORE PUSH1 0x4 ADD PUSH2 0x14BC SWAP1 PUSH2 0x3134 JUMP JUMPDEST PUSH1 0x40 MLOAD DUP1 SWAP2 SUB SWAP1 REVERT JUMPDEST DUP2 DUP2 SUB PUSH1 0x0 DUP1 DUP6 DUP2 MSTORE PUSH1 0x20 ADD SWAP1 DUP2 MSTORE PUSH1 0x20 ADD PUSH1 0x0 KECCAK256 PUSH1 0x0 DUP11 PUSH20 0xFFFFFFFFFFFFFFFFFFFFFFFFFFFFFFFFFFFFFFFF AND PUSH20 0xFFFFFFFFFFFFFFFFFFFFFFFFFFFFFFFFFFFFFFFF AND DUP2 MSTORE PUSH1 0x20 ADD SWAP1 DUP2 MSTORE PUSH1 0x20 ADD PUSH1 0x0 KECCAK256 DUP2 SWAP1 SSTORE POP POP POP POP DUP1 DUP1 PUSH2 0x1529 SWAP1 PUSH2 0x2B7C JUMP JUMPDEST SWAP2 POP POP PUSH2 0x13E7 JUMP JUMPDEST POP PUSH1 0x0 PUSH20 0xFFFFFFFFFFFFFFFFFFFFFFFFFFFFFFFFFFFFFFFF AND DUP5 PUSH20 0xFFFFFFFFFFFFFFFFFFFFFFFFFFFFFFFFFFFFFFFF AND DUP3 PUSH20 0xFFFFFFFFFFFFFFFFFFFFFFFFFFFFFFFFFFFFFFFF AND PUSH32 0x4A39DC06D4C0DBC64B70AF90FD698A233A518AA5D07E595D983B8C0526C8F7FB DUP7 DUP7 PUSH1 0x40 MLOAD PUSH2 0x15A9 SWAP3 SWAP2 SWAP1 PUSH2 0x2FF9 JUMP JUMPDEST PUSH1 0x40 MLOAD DUP1 SWAP2 SUB SWAP1 LOG4 PUSH2 0x15CF DUP2 DUP6 PUSH1 0x0 DUP7 DUP7 PUSH1 0x40 MLOAD DUP1 PUSH1 0x20 ADD PUSH1 0x40 MSTORE DUP1 PUSH1 0x0 DUP2 MSTORE POP PUSH2 0x1B24 JUMP JUMPDEST POP POP POP POP JUMP JUMPDEST PUSH1 0x0 PUSH1 0x3 PUSH1 0x0 SWAP1 SLOAD SWAP1 PUSH2 0x100 EXP SWAP1 DIV PUSH20 0xFFFFFFFFFFFFFFFFFFFFFFFFFFFFFFFFFFFFFFFF AND SWAP1 POP DUP2 PUSH1 0x3 PUSH1 0x0 PUSH2 0x100 EXP DUP2 SLOAD DUP2 PUSH20 0xFFFFFFFFFFFFFFFFFFFFFFFFFFFFFFFFFFFFFFFF MUL NOT AND SWAP1 DUP4 PUSH20 0xFFFFFFFFFFFFFFFFFFFFFFFFFFFFFFFFFFFFFFFF AND MUL OR SWAP1 SSTORE POP DUP2 PUSH20 0xFFFFFFFFFFFFFFFFFFFFFFFFFFFFFFFFFFFFFFFF AND DUP2 PUSH20 0xFFFFFFFFFFFFFFFFFFFFFFFFFFFFFFFFFFFFFFFF AND PUSH32 0x8BE0079C531659141344CD1FD0A4F28419497F9722A3DAAFE3B4186F6B6457E0 PUSH1 0x40 MLOAD PUSH1 0x40 MLOAD DUP1 SWAP2 SUB SWAP1 LOG3 POP POP JUMP JUMPDEST DUP2 PUSH20 0xFFFFFFFFFFFFFFFFFFFFFFFFFFFFFFFFFFFFFFFF AND DUP4 PUSH20 0xFFFFFFFFFFFFFFFFFFFFFFFFFFFFFFFFFFFFFFFF AND SUB PUSH2 0x1709 JUMPI PUSH1 0x40 MLOAD PUSH32 0x8C379A000000000000000000000000000000000000000000000000000000000 DUP2 MSTORE PUSH1 0x4 ADD PUSH2 0x1700 SWAP1 PUSH2 0x31C6 JUMP JUMPDEST PUSH1 0x40 MLOAD DUP1 SWAP2 SUB SWAP1 REVERT JUMPDEST DUP1 PUSH1 0x1 PUSH1 0x0 DUP6 PUSH20 0xFFFFFFFFFFFFFFFFFFFFFFFFFFFFFFFFFFFFFFFF AND PUSH20 0xFFFFFFFFFFFFFFFFFFFFFFFFFFFFFFFFFFFFFFFF AND DUP2 MSTORE PUSH1 0x20 ADD SWAP1 DUP2 MSTORE PUSH1 0x20 ADD PUSH1 0x0 KECCAK256 PUSH1 0x0 DUP5 PUSH20 0xFFFFFFFFFFFFFFFFFFFFFFFFFFFFFFFFFFFFFFFF AND PUSH20 0xFFFFFFFFFFFFFFFFFFFFFFFFFFFFFFFFFFFFFFFF AND DUP2 MSTORE PUSH1 0x20 ADD SWAP1 DUP2 MSTORE PUSH1 0x20 ADD PUSH1 0x0 KECCAK256 PUSH1 0x0 PUSH2 0x100 EXP DUP2 SLOAD DUP2 PUSH1 0xFF MUL NOT AND SWAP1 DUP4 ISZERO ISZERO MUL OR SWAP1 SSTORE POP DUP2 PUSH20 0xFFFFFFFFFFFFFFFFFFFFFFFFFFFFFFFFFFFFFFFF AND DUP4 PUSH20 0xFFFFFFFFFFFFFFFFFFFFFFFFFFFFFFFFFFFFFFFF AND PUSH32 0x17307EAB39AB6107E8899845AD3D59BD9653F200F220920489CA2B5937696C31 DUP4 PUSH1 0x40 MLOAD PUSH2 0x17FA SWAP2 SWAP1 PUSH2 0x20AF JUMP JUMPDEST PUSH1 0x40 MLOAD DUP1 SWAP2 SUB SWAP1 LOG3 POP POP POP JUMP JUMPDEST PUSH1 0x0 PUSH20 0xFFFFFFFFFFFFFFFFFFFFFFFFFFFFFFFFFFFFFFFF AND DUP5 PUSH20 0xFFFFFFFFFFFFFFFFFFFFFFFFFFFFFFFFFFFFFFFF AND SUB PUSH2 0x1876 JUMPI PUSH1 0x40 MLOAD PUSH32 0x8C379A000000000000000000000000000000000000000000000000000000000 DUP2 MSTORE PUSH1 0x4 ADD PUSH2 0x186D SWAP1 PUSH2 0x2F47 JUMP JUMPDEST PUSH1 0x40 MLOAD DUP1 SWAP2 SUB SWAP1 REVERT JUMPDEST PUSH1 0x0 PUSH2 0x1880 PUSH2 0xD98 JUMP JUMPDEST SWAP1 POP PUSH1 0x0 PUSH2 0x188D DUP6 PUSH2 0x1AA2 JUMP JUMPDEST SWAP1 POP PUSH1 0x0 PUSH2 0x189A DUP6 PUSH2 0x1AA2 JUMP JUMPDEST SWAP1 POP PUSH2 0x18AA DUP4 DUP10 DUP10 DUP6 DUP6 DUP10 PUSH2 0x1B1C JUMP JUMPDEST PUSH1 0x0 DUP1 PUSH1 0x0 DUP9 DUP2 MSTORE PUSH1 0x20 ADD SWAP1 DUP2 MSTORE PUSH1 0x20 ADD PUSH1 0x0 KECCAK256 PUSH1 0x0 DUP11 PUSH20 0xFFFFFFFFFFFFFFFFFFFFFFFFFFFFFFFFFFFFFFFF AND PUSH20 0xFFFFFFFFFFFFFFFFFFFFFFFFFFFFFFFFFFFFFFFF AND DUP2 MSTORE PUSH1 0x20 ADD SWAP1 DUP2 MSTORE PUSH1 0x20 ADD PUSH1 0x0 KECCAK256 SLOAD SWAP1 POP DUP6 DUP2 LT ISZERO PUSH2 0x1941 JUMPI PUSH1 0x40 MLOAD PUSH32 0x8C379A000000000000000000000000000000000000000000000000000000000 DUP2 MSTORE PUSH1 0x4 ADD PUSH2 0x1938 SWAP1 PUSH2 0x2FD9 JUMP JUMPDEST PUSH1 0x40 MLOAD DUP1 SWAP2 SUB SWAP1 REVERT JUMPDEST DUP6 DUP2 SUB PUSH1 0x0 DUP1 DUP10 DUP2 MSTORE PUSH1 0x20 ADD SWAP1 DUP2 MSTORE PUSH1 0x20 ADD PUSH1 0x0 KECCAK256 PUSH1 0x0 DUP12 PUSH20 0xFFFFFFFFFFFFFFFFFFFFFFFFFFFFFFFFFFFFFFFF AND PUSH20 0xFFFFFFFFFFFFFFFFFFFFFFFFFFFFFFFFFFFFFFFF AND DUP2 MSTORE PUSH1 0x20 ADD SWAP1 DUP2 MSTORE PUSH1 0x20 ADD PUSH1 0x0 KECCAK256 DUP2 SWAP1 SSTORE POP DUP6 PUSH1 0x0 DUP1 DUP10 DUP2 MSTORE PUSH1 0x20 ADD SWAP1 DUP2 MSTORE PUSH1 0x20 ADD PUSH1 0x0 KECCAK256 PUSH1 0x0 DUP11 PUSH20 0xFFFFFFFFFFFFFFFFFFFFFFFFFFFFFFFFFFFFFFFF AND PUSH20 0xFFFFFFFFFFFFFFFFFFFFFFFFFFFFFFFFFFFFFFFF AND DUP2 MSTORE PUSH1 0x20 ADD SWAP1 DUP2 MSTORE PUSH1 0x20 ADD PUSH1 0x0 KECCAK256 PUSH1 0x0 DUP3 DUP3 SLOAD PUSH2 0x19F6 SWAP2 SWAP1 PUSH2 0x2DE6 JUMP JUMPDEST SWAP3 POP POP DUP2 SWAP1 SSTORE POP DUP8 PUSH20 0xFFFFFFFFFFFFFFFFFFFFFFFFFFFFFFFFFFFFFFFF AND DUP10 PUSH20 0xFFFFFFFFFFFFFFFFFFFFFFFFFFFFFFFFFFFFFFFF AND DUP6 PUSH20 0xFFFFFFFFFFFFFFFFFFFFFFFFFFFFFFFFFFFFFFFF AND PUSH32 0xC3D58168C5AE7397731D063D5BBF3D657854427343F4C083240F7AACAA2D0F62 DUP11 DUP11 PUSH1 0x40 MLOAD PUSH2 0x1A73 SWAP3 SWAP2 SWAP1 PUSH2 0x2E1A JUMP JUMPDEST PUSH1 0x40 MLOAD DUP1 SWAP2 SUB SWAP1 LOG4 PUSH2 0x1A89 DUP5 DUP11 DUP11 DUP7 DUP7 DUP11 PUSH2 0x1B24 JUMP JUMPDEST PUSH2 0x1A97 DUP5 DUP11 DUP11 DUP11 DUP11 DUP11 PUSH2 0x1B2C JUMP JUMPDEST POP POP POP POP POP POP POP POP POP JUMP JUMPDEST PUSH1 0x60 PUSH1 0x0 PUSH1 0x1 PUSH8 0xFFFFFFFFFFFFFFFF DUP2 GT ISZERO PUSH2 0x1AC1 JUMPI PUSH2 0x1AC0 PUSH2 0x2201 JUMP JUMPDEST JUMPDEST PUSH1 0x40 MLOAD SWAP1 DUP1 DUP3 MSTORE DUP1 PUSH1 0x20 MUL PUSH1 0x20 ADD DUP3 ADD PUSH1 0x40 MSTORE DUP1 ISZERO PUSH2 0x1AEF JUMPI DUP2 PUSH1 0x20 ADD PUSH1 0x20 DUP3 MUL DUP1 CALLDATASIZE DUP4 CALLDATACOPY DUP1 DUP3 ADD SWAP2 POP POP SWAP1 POP JUMPDEST POP SWAP1 POP DUP3 DUP2 PUSH1 0x0 DUP2 MLOAD DUP2 LT PUSH2 0x1B07 JUMPI PUSH2 0x1B06 PUSH2 0x2B1E JUMP JUMPDEST JUMPDEST PUSH1 0x20 MUL PUSH1 0x20 ADD ADD DUP2 DUP2 MSTORE POP POP DUP1 SWAP2 POP POP SWAP2 SWAP1 POP JUMP JUMPDEST POP POP POP POP POP POP JUMP JUMPDEST POP POP POP POP POP POP JUMP JUMPDEST PUSH2 0x1B4B DUP5 PUSH20 0xFFFFFFFFFFFFFFFFFFFFFFFFFFFFFFFFFFFFFFFF AND PUSH2 0x1EDA JUMP JUMPDEST ISZERO PUSH2 0x1CFB JUMPI DUP4 PUSH20 0xFFFFFFFFFFFFFFFFFFFFFFFFFFFFFFFFFFFFFFFF AND PUSH4 0xF23A6E61 DUP8 DUP8 DUP7 DUP7 DUP7 PUSH1 0x40 MLOAD DUP7 PUSH4 0xFFFFFFFF AND PUSH1 0xE0 SHL DUP2 MSTORE PUSH1 0x4 ADD PUSH2 0x1B91 SWAP6 SWAP5 SWAP4 SWAP3 SWAP2 SWAP1 PUSH2 0x323B JUMP JUMPDEST PUSH1 0x20 PUSH1 0x40 MLOAD DUP1 DUP4 SUB DUP2 PUSH1 0x0 DUP8 GAS CALL SWAP3 POP POP POP DUP1 ISZERO PUSH2 0x1BCD JUMPI POP PUSH1 0x40 MLOAD RETURNDATASIZE PUSH1 0x1F NOT PUSH1 0x1F DUP3 ADD AND DUP3 ADD DUP1 PUSH1 0x40 MSTORE POP DUP2 ADD SWAP1 PUSH2 0x1BCA SWAP2 SWAP1 PUSH2 0x32AA JUMP JUMPDEST PUSH1 0x1 JUMPDEST PUSH2 0x1C72 JUMPI PUSH2 0x1BD9 PUSH2 0x32E4 JUMP JUMPDEST DUP1 PUSH4 0x8C379A0 SUB PUSH2 0x1C35 JUMPI POP PUSH2 0x1BED PUSH2 0x3306 JUMP JUMPDEST DUP1 PUSH2 0x1BF8 JUMPI POP PUSH2 0x1C37 JUMP JUMPDEST DUP1 PUSH1 0x40 MLOAD PUSH32 0x8C379A000000000000000000000000000000000000000000000000000000000 DUP2 MSTORE PUSH1 0x4 ADD PUSH2 0x1C2C SWAP2 SWAP1 PUSH2 0x2187 JUMP JUMPDEST PUSH1 0x40 MLOAD DUP1 SWAP2 SUB SWAP1 REVERT JUMPDEST POP JUMPDEST PUSH1 0x40 MLOAD PUSH32 0x8C379A000000000000000000000000000000000000000000000000000000000 DUP2 MSTORE PUSH1 0x4 ADD PUSH2 0x1C69 SWAP1 PUSH2 0x3408 JUMP JUMPDEST PUSH1 0x40 MLOAD DUP1 SWAP2 SUB SWAP1 REVERT JUMPDEST PUSH4 0xF23A6E61 PUSH1 0xE0 SHL PUSH28 0xFFFFFFFFFFFFFFFFFFFFFFFFFFFFFFFFFFFFFFFFFFFFFFFFFFFFFFFF NOT AND DUP2 PUSH28 0xFFFFFFFFFFFFFFFFFFFFFFFFFFFFFFFFFFFFFFFFFFFFFFFFFFFFFFFF NOT AND EQ PUSH2 0x1CF9 JUMPI PUSH1 0x40 MLOAD PUSH32 0x8C379A000000000000000000000000000000000000000000000000000000000 DUP2 MSTORE PUSH1 0x4 ADD PUSH2 0x1CF0 SWAP1 PUSH2 0x349A JUMP JUMPDEST PUSH1 0x40 MLOAD DUP1 SWAP2 SUB SWAP1 REVERT JUMPDEST POP JUMPDEST POP POP POP POP POP POP JUMP JUMPDEST PUSH2 0x1D22 DUP5 PUSH20 0xFFFFFFFFFFFFFFFFFFFFFFFFFFFFFFFFFFFFFFFF AND PUSH2 0x1EDA JUMP JUMPDEST ISZERO PUSH2 0x1ED2 JUMPI DUP4 PUSH20 0xFFFFFFFFFFFFFFFFFFFFFFFFFFFFFFFFFFFFFFFF AND PUSH4 0xBC197C81 DUP8 DUP8 DUP7 DUP7 DUP7 PUSH1 0x40 MLOAD DUP7 PUSH4 0xFFFFFFFF AND PUSH1 0xE0 SHL DUP2 MSTORE PUSH1 0x4 ADD PUSH2 0x1D68 SWAP6 SWAP5 SWAP4 SWAP3 SWAP2 SWAP1 PUSH2 0x34BA JUMP JUMPDEST PUSH1 0x20 PUSH1 0x40 MLOAD DUP1 DUP4 SUB DUP2 PUSH1 0x0 DUP8 GAS CALL SWAP3 POP POP POP DUP1 ISZERO PUSH2 0x1DA4 JUMPI POP PUSH1 0x40 MLOAD RETURNDATASIZE PUSH1 0x1F NOT PUSH1 0x1F DUP3 ADD AND DUP3 ADD DUP1 PUSH1 0x40 MSTORE POP DUP2 ADD SWAP1 PUSH2 0x1DA1 SWAP2 SWAP1 PUSH2 0x32AA JUMP JUMPDEST PUSH1 0x1 JUMPDEST PUSH2 0x1E49 JUMPI PUSH2 0x1DB0 PUSH2 0x32E4 JUMP JUMPDEST DUP1 PUSH4 0x8C379A0 SUB PUSH2 0x1E0C JUMPI POP PUSH2 0x1DC4 PUSH2 0x3306 JUMP JUMPDEST DUP1 PUSH2 0x1DCF JUMPI POP PUSH2 0x1E0E JUMP JUMPDEST DUP1 PUSH1 0x40 MLOAD PUSH32 0x8C379A000000000000000000000000000000000000000000000000000000000 DUP2 MSTORE PUSH1 0x4 ADD PUSH2 0x1E03 SWAP2 SWAP1 PUSH2 0x2187 JUMP JUMPDEST PUSH1 0x40 MLOAD DUP1 SWAP2 SUB SWAP1 REVERT JUMPDEST POP JUMPDEST PUSH1 0x40 MLOAD PUSH32 0x8C379A000000000000000000000000000000000000000000000000000000000 DUP2 MSTORE PUSH1 0x4 ADD PUSH2 0x1E40 SWAP1 PUSH2 0x3408 JUMP JUMPDEST PUSH1 0x40 MLOAD DUP1 SWAP2 SUB SWAP1 REVERT JUMPDEST PUSH4 0xBC197C81 PUSH1 0xE0 SHL PUSH28 0xFFFFFFFFFFFFFFFFFFFFFFFFFFFFFFFFFFFFFFFFFFFFFFFFFFFFFFFF NOT AND DUP2 PUSH28 0xFFFFFFFFFFFFFFFFFFFFFFFFFFFFFFFFFFFFFFFFFFFFFFFFFFFFFFFF NOT AND EQ PUSH2 0x1ED0 JUMPI PUSH1 0x40 MLOAD PUSH32 0x8C379A000000000000000000000000000000000000000000000000000000000 DUP2 MSTORE PUSH1 0x4 ADD PUSH2 0x1EC7 SWAP1 PUSH2 0x349A JUMP JUMPDEST PUSH1 0x40 MLOAD DUP1 SWAP2 SUB SWAP1 REVERT JUMPDEST POP JUMPDEST POP POP POP POP POP POP JUMP JUMPDEST PUSH1 0x0 DUP1 DUP3 PUSH20 0xFFFFFFFFFFFFFFFFFFFFFFFFFFFFFFFFFFFFFFFF AND EXTCODESIZE GT SWAP1 POP SWAP2 SWAP1 POP JUMP JUMPDEST PUSH1 0x0 PUSH1 0x40 MLOAD SWAP1 POP SWAP1 JUMP JUMPDEST PUSH1 0x0 DUP1 REVERT JUMPDEST PUSH1 0x0 DUP1 REVERT JUMPDEST PUSH1 0x0 PUSH20 0xFFFFFFFFFFFFFFFFFFFFFFFFFFFFFFFFFFFFFFFF DUP3 AND SWAP1 POP SWAP2 SWAP1 POP JUMP JUMPDEST PUSH1 0x0 PUSH2 0x1F3C DUP3 PUSH2 0x1F11 JUMP JUMPDEST SWAP1 POP SWAP2 SWAP1 POP JUMP JUMPDEST PUSH2 0x1F4C DUP2 PUSH2 0x1F31 JUMP JUMPDEST DUP2 EQ PUSH2 0x1F57 JUMPI PUSH1 0x0 DUP1 REVERT JUMPDEST POP JUMP JUMPDEST PUSH1 0x0 DUP2 CALLDATALOAD SWAP1 POP PUSH2 0x1F69 DUP2 PUSH2 0x1F43 JUMP JUMPDEST SWAP3 SWAP2 POP POP JUMP JUMPDEST PUSH1 0x0 DUP2 SWAP1 POP SWAP2 SWAP1 POP JUMP JUMPDEST PUSH2 0x1F82 DUP2 PUSH2 0x1F6F JUMP JUMPDEST DUP2 EQ PUSH2 0x1F8D JUMPI PUSH1 0x0 DUP1 REVERT JUMPDEST POP JUMP JUMPDEST PUSH1 0x0 DUP2 CALLDATALOAD SWAP1 POP PUSH2 0x1F9F DUP2 PUSH2 0x1F79 JUMP JUMPDEST SWAP3 SWAP2 POP POP JUMP JUMPDEST PUSH1 0x0 DUP1 PUSH1 0x40 DUP4 DUP6 SUB SLT ISZERO PUSH2 0x1FBC JUMPI PUSH2 0x1FBB PUSH2 0x1F07 JUMP JUMPDEST JUMPDEST PUSH1 0x0 PUSH2 0x1FCA DUP6 DUP3 DUP7 ADD PUSH2 0x1F5A JUMP JUMPDEST SWAP3 POP POP PUSH1 0x20 PUSH2 0x1FDB DUP6 DUP3 DUP7 ADD PUSH2 0x1F90 JUMP JUMPDEST SWAP2 POP POP SWAP3 POP SWAP3 SWAP1 POP JUMP JUMPDEST PUSH2 0x1FEE DUP2 PUSH2 0x1F6F JUMP JUMPDEST DUP3 MSTORE POP POP JUMP JUMPDEST PUSH1 0x0 PUSH1 0x20 DUP3 ADD SWAP1 POP PUSH2 0x2009 PUSH1 0x0 DUP4 ADD DUP5 PUSH2 0x1FE5 JUMP JUMPDEST SWAP3 SWAP2 POP POP JUMP JUMPDEST PUSH1 0x0 PUSH32 0xFFFFFFFF00000000000000000000000000000000000000000000000000000000 DUP3 AND SWAP1 POP SWAP2 SWAP1 POP JUMP JUMPDEST PUSH2 0x2044 DUP2 PUSH2 0x200F JUMP JUMPDEST DUP2 EQ PUSH2 0x204F JUMPI PUSH1 0x0 DUP1 REVERT JUMPDEST POP JUMP JUMPDEST PUSH1 0x0 DUP2 CALLDATALOAD SWAP1 POP PUSH2 0x2061 DUP2 PUSH2 0x203B JUMP JUMPDEST SWAP3 SWAP2 POP POP JUMP JUMPDEST PUSH1 0x0 PUSH1 0x20 DUP3 DUP5 SUB SLT ISZERO PUSH2 0x207D JUMPI PUSH2 0x207C PUSH2 0x1F07 JUMP JUMPDEST JUMPDEST PUSH1 0x0 PUSH2 0x208B DUP5 DUP3 DUP6 ADD PUSH2 0x2052 JUMP JUMPDEST SWAP2 POP POP SWAP3 SWAP2 POP POP JUMP JUMPDEST PUSH1 0x0 DUP2 ISZERO ISZERO SWAP1 POP SWAP2 SWAP1 POP JUMP JUMPDEST PUSH2 0x20A9 DUP2 PUSH2 0x2094 JUMP JUMPDEST DUP3 MSTORE POP POP JUMP JUMPDEST PUSH1 0x0 PUSH1 0x20 DUP3 ADD SWAP1 POP PUSH2 0x20C4 PUSH1 0x0 DUP4 ADD DUP5 PUSH2 0x20A0 JUMP JUMPDEST SWAP3 SWAP2 POP POP JUMP JUMPDEST PUSH1 0x0 PUSH1 0x20 DUP3 DUP5 SUB SLT ISZERO PUSH2 0x20E0 JUMPI PUSH2 0x20DF PUSH2 0x1F07 JUMP JUMPDEST JUMPDEST PUSH1 0x0 PUSH2 0x20EE DUP5 DUP3 DUP6 ADD PUSH2 0x1F90 JUMP JUMPDEST SWAP2 POP POP SWAP3 SWAP2 POP POP JUMP JUMPDEST PUSH1 0x0 DUP2 MLOAD SWAP1 POP SWAP2 SWAP1 POP JUMP JUMPDEST PUSH1 0x0 DUP3 DUP3 MSTORE PUSH1 0x20 DUP3 ADD SWAP1 POP SWAP3 SWAP2 POP POP JUMP JUMPDEST PUSH1 0x0 JUMPDEST DUP4 DUP2 LT ISZERO PUSH2 0x2131 JUMPI DUP1 DUP3 ADD MLOAD DUP2 DUP5 ADD MSTORE PUSH1 0x20 DUP2 ADD SWAP1 POP PUSH2 0x2116 JUMP JUMPDEST PUSH1 0x0 DUP5 DUP5 ADD MSTORE POP POP POP POP JUMP JUMPDEST PUSH1 0x0 PUSH1 0x1F NOT PUSH1 0x1F DUP4 ADD AND SWAP1 POP SWAP2 SWAP1 POP JUMP JUMPDEST PUSH1 0x0 PUSH2 0x2159 DUP3 PUSH2 0x20F7 JUMP JUMPDEST PUSH2 0x2163 DUP2 DUP6 PUSH2 0x2102 JUMP JUMPDEST SWAP4 POP PUSH2 0x2173 DUP2 DUP6 PUSH1 0x20 DUP7 ADD PUSH2 0x2113 JUMP JUMPDEST PUSH2 0x217C DUP2 PUSH2 0x213D JUMP JUMPDEST DUP5 ADD SWAP2 POP POP SWAP3 SWAP2 POP POP JUMP JUMPDEST PUSH1 0x0 PUSH1 0x20 DUP3 ADD SWAP1 POP DUP2 DUP2 SUB PUSH1 0x0 DUP4 ADD MSTORE PUSH2 0x21A1 DUP2 DUP5 PUSH2 0x214E JUMP JUMPDEST SWAP1 POP SWAP3 SWAP2 POP POP JUMP JUMPDEST PUSH1 0x0 DUP1 PUSH1 0x0 PUSH1 0x60 DUP5 DUP7 SUB SLT ISZERO PUSH2 0x21C2 JUMPI PUSH2 0x21C1 PUSH2 0x1F07 JUMP JUMPDEST JUMPDEST PUSH1 0x0 PUSH2 0x21D0 DUP7 DUP3 DUP8 ADD PUSH2 0x1F5A JUMP JUMPDEST SWAP4 POP POP PUSH1 0x20 PUSH2 0x21E1 DUP7 DUP3 DUP8 ADD PUSH2 0x1F90 JUMP JUMPDEST SWAP3 POP POP PUSH1 0x40 PUSH2 0x21F2 DUP7 DUP3 DUP8 ADD PUSH2 0x1F90 JUMP JUMPDEST SWAP2 POP POP SWAP3 POP SWAP3 POP SWAP3 JUMP JUMPDEST PUSH1 0x0 DUP1 REVERT JUMPDEST PUSH32 0x4E487B7100000000000000000000000000000000000000000000000000000000 PUSH1 0x0 MSTORE PUSH1 0x41 PUSH1 0x4 MSTORE PUSH1 0x24 PUSH1 0x0 REVERT JUMPDEST PUSH2 0x2239 DUP3 PUSH2 0x213D JUMP JUMPDEST DUP2 ADD DUP2 DUP2 LT PUSH8 0xFFFFFFFFFFFFFFFF DUP3 GT OR ISZERO PUSH2 0x2258 JUMPI PUSH2 0x2257 PUSH2 0x2201 JUMP JUMPDEST JUMPDEST DUP1 PUSH1 0x40 MSTORE POP POP POP JUMP JUMPDEST PUSH1 0x0 PUSH2 0x226B PUSH2 0x1EFD JUMP JUMPDEST SWAP1 POP PUSH2 0x2277 DUP3 DUP3 PUSH2 0x2230 JUMP JUMPDEST SWAP2 SWAP1 POP JUMP JUMPDEST PUSH1 0x0 PUSH8 0xFFFFFFFFFFFFFFFF DUP3 GT ISZERO PUSH2 0x2297 JUMPI PUSH2 0x2296 PUSH2 0x2201 JUMP JUMPDEST JUMPDEST PUSH1 0x20 DUP3 MUL SWAP1 POP PUSH1 0x20 DUP2 ADD SWAP1 POP SWAP2 SWAP1 POP JUMP JUMPDEST PUSH1 0x0 DUP1 REVERT JUMPDEST PUSH1 0x0 PUSH2 0x22C0 PUSH2 0x22BB DUP5 PUSH2 0x227C JUMP JUMPDEST PUSH2 0x2261 JUMP JUMPDEST SWAP1 POP DUP1 DUP4 DUP3 MSTORE PUSH1 0x20 DUP3 ADD SWAP1 POP PUSH1 0x20 DUP5 MUL DUP4 ADD DUP6 DUP2 GT ISZERO PUSH2 0x22E3 JUMPI PUSH2 0x22E2 PUSH2 0x22A8 JUMP JUMPDEST JUMPDEST DUP4 JUMPDEST DUP2 DUP2 LT ISZERO PUSH2 0x230C JUMPI DUP1 PUSH2 0x22F8 DUP9 DUP3 PUSH2 0x1F90 JUMP JUMPDEST DUP5 MSTORE PUSH1 0x20 DUP5 ADD SWAP4 POP POP PUSH1 0x20 DUP2 ADD SWAP1 POP PUSH2 0x22E5 JUMP JUMPDEST POP POP POP SWAP4 SWAP3 POP POP POP JUMP JUMPDEST PUSH1 0x0 DUP3 PUSH1 0x1F DUP4 ADD SLT PUSH2 0x232B JUMPI PUSH2 0x232A PUSH2 0x21FC JUMP JUMPDEST JUMPDEST DUP2 CALLDATALOAD PUSH2 0x233B DUP5 DUP3 PUSH1 0x20 DUP7 ADD PUSH2 0x22AD JUMP JUMPDEST SWAP2 POP POP SWAP3 SWAP2 POP POP JUMP JUMPDEST PUSH1 0x0 DUP1 REVERT JUMPDEST PUSH1 0x0 PUSH8 0xFFFFFFFFFFFFFFFF DUP3 GT ISZERO PUSH2 0x2364 JUMPI PUSH2 0x2363 PUSH2 0x2201 JUMP JUMPDEST JUMPDEST PUSH2 0x236D DUP3 PUSH2 0x213D JUMP JUMPDEST SWAP1 POP PUSH1 0x20 DUP2 ADD SWAP1 POP SWAP2 SWAP1 POP JUMP JUMPDEST DUP3 DUP2 DUP4 CALLDATACOPY PUSH1 0x0 DUP4 DUP4 ADD MSTORE POP POP POP JUMP JUMPDEST PUSH1 0x0 PUSH2 0x239C PUSH2 0x2397 DUP5 PUSH2 0x2349 JUMP JUMPDEST PUSH2 0x2261 JUMP JUMPDEST SWAP1 POP DUP3 DUP2 MSTORE PUSH1 0x20 DUP2 ADD DUP5 DUP5 DUP5 ADD GT ISZERO PUSH2 0x23B8 JUMPI PUSH2 0x23B7 PUSH2 0x2344 JUMP JUMPDEST JUMPDEST PUSH2 0x23C3 DUP5 DUP3 DUP6 PUSH2 0x237A JUMP JUMPDEST POP SWAP4 SWAP3 POP POP POP JUMP JUMPDEST PUSH1 0x0 DUP3 PUSH1 0x1F DUP4 ADD SLT PUSH2 0x23E0 JUMPI PUSH2 0x23DF PUSH2 0x21FC JUMP JUMPDEST JUMPDEST DUP2 CALLDATALOAD PUSH2 0x23F0 DUP5 DUP3 PUSH1 0x20 DUP7 ADD PUSH2 0x2389 JUMP JUMPDEST SWAP2 POP POP SWAP3 SWAP2 POP POP JUMP JUMPDEST PUSH1 0x0 DUP1 PUSH1 0x0 DUP1 PUSH1 0x0 PUSH1 0xA0 DUP7 DUP9 SUB SLT ISZERO PUSH2 0x2415 JUMPI PUSH2 0x2414 PUSH2 0x1F07 JUMP JUMPDEST JUMPDEST PUSH1 0x0 PUSH2 0x2423 DUP9 DUP3 DUP10 ADD PUSH2 0x1F5A JUMP JUMPDEST SWAP6 POP POP PUSH1 0x20 PUSH2 0x2434 DUP9 DUP3 DUP10 ADD PUSH2 0x1F5A JUMP JUMPDEST SWAP5 POP POP PUSH1 0x40 DUP7 ADD CALLDATALOAD PUSH8 0xFFFFFFFFFFFFFFFF DUP2 GT ISZERO PUSH2 0x2455 JUMPI PUSH2 0x2454 PUSH2 0x1F0C JUMP JUMPDEST JUMPDEST PUSH2 0x2461 DUP9 DUP3 DUP10 ADD PUSH2 0x2316 JUMP JUMPDEST SWAP4 POP POP PUSH1 0x60 DUP7 ADD CALLDATALOAD PUSH8 0xFFFFFFFFFFFFFFFF DUP2 GT ISZERO PUSH2 0x2482 JUMPI PUSH2 0x2481 PUSH2 0x1F0C JUMP JUMPDEST JUMPDEST PUSH2 0x248E DUP9 DUP3 DUP10 ADD PUSH2 0x2316 JUMP JUMPDEST SWAP3 POP POP PUSH1 0x80 DUP7 ADD CALLDATALOAD PUSH8 0xFFFFFFFFFFFFFFFF DUP2 GT ISZERO PUSH2 0x24AF JUMPI PUSH2 0x24AE PUSH2 0x1F0C JUMP JUMPDEST JUMPDEST PUSH2 0x24BB DUP9 DUP3 DUP10 ADD PUSH2 0x23CB JUMP JUMPDEST SWAP2 POP POP SWAP3 SWAP6 POP SWAP3 SWAP6 SWAP1 SWAP4 POP JUMP JUMPDEST PUSH1 0x0 PUSH8 0xFFFFFFFFFFFFFFFF DUP3 GT ISZERO PUSH2 0x24E3 JUMPI PUSH2 0x24E2 PUSH2 0x2201 JUMP JUMPDEST JUMPDEST PUSH1 0x20 DUP3 MUL SWAP1 POP PUSH1 0x20 DUP2 ADD SWAP1 POP SWAP2 SWAP1 POP JUMP JUMPDEST PUSH1 0x0 PUSH2 0x2507 PUSH2 0x2502 DUP5 PUSH2 0x24C8 JUMP JUMPDEST PUSH2 0x2261 JUMP JUMPDEST SWAP1 POP DUP1 DUP4 DUP3 MSTORE PUSH1 0x20 DUP3 ADD SWAP1 POP PUSH1 0x20 DUP5 MUL DUP4 ADD DUP6 DUP2 GT ISZERO PUSH2 0x252A JUMPI PUSH2 0x2529 PUSH2 0x22A8 JUMP JUMPDEST JUMPDEST DUP4 JUMPDEST DUP2 DUP2 LT ISZERO PUSH2 0x2553 JUMPI DUP1 PUSH2 0x253F DUP9 DUP3 PUSH2 0x1F5A JUMP JUMPDEST DUP5 MSTORE PUSH1 0x20 DUP5 ADD SWAP4 POP POP PUSH1 0x20 DUP2 ADD SWAP1 POP PUSH2 0x252C JUMP JUMPDEST POP POP POP SWAP4 SWAP3 POP POP POP JUMP JUMPDEST PUSH1 0x0 DUP3 PUSH1 0x1F DUP4 ADD SLT PUSH2 0x2572 JUMPI PUSH2 0x2571 PUSH2 0x21FC JUMP JUMPDEST JUMPDEST DUP2 CALLDATALOAD PUSH2 0x2582 DUP5 DUP3 PUSH1 0x20 DUP7 ADD PUSH2 0x24F4 JUMP JUMPDEST SWAP2 POP POP SWAP3 SWAP2 POP POP JUMP JUMPDEST PUSH1 0x0 DUP1 PUSH1 0x40 DUP4 DUP6 SUB SLT ISZERO PUSH2 0x25A2 JUMPI PUSH2 0x25A1 PUSH2 0x1F07 JUMP JUMPDEST JUMPDEST PUSH1 0x0 DUP4 ADD CALLDATALOAD PUSH8 0xFFFFFFFFFFFFFFFF DUP2 GT ISZERO PUSH2 0x25C0 JUMPI PUSH2 0x25BF PUSH2 0x1F0C JUMP JUMPDEST JUMPDEST PUSH2 0x25CC DUP6 DUP3 DUP7 ADD PUSH2 0x255D JUMP JUMPDEST SWAP3 POP POP PUSH1 0x20 DUP4 ADD CALLDATALOAD PUSH8 0xFFFFFFFFFFFFFFFF DUP2 GT ISZERO PUSH2 0x25ED JUMPI PUSH2 0x25EC PUSH2 0x1F0C JUMP JUMPDEST JUMPDEST PUSH2 0x25F9 DUP6 DUP3 DUP7 ADD PUSH2 0x2316 JUMP JUMPDEST SWAP2 POP POP SWAP3 POP SWAP3 SWAP1 POP JUMP JUMPDEST PUSH1 0x0 DUP2 MLOAD SWAP1 POP SWAP2 SWAP1 POP JUMP JUMPDEST PUSH1 0x0 DUP3 DUP3 MSTORE PUSH1 0x20 DUP3 ADD SWAP1 POP SWAP3 SWAP2 POP POP JUMP JUMPDEST PUSH1 0x0 DUP2 SWAP1 POP PUSH1 0x20 DUP3 ADD SWAP1 POP SWAP2 SWAP1 POP JUMP JUMPDEST PUSH2 0x2638 DUP2 PUSH2 0x1F6F JUMP JUMPDEST DUP3 MSTORE POP POP JUMP JUMPDEST PUSH1 0x0 PUSH2 0x264A DUP4 DUP4 PUSH2 0x262F JUMP JUMPDEST PUSH1 0x20 DUP4 ADD SWAP1 POP SWAP3 SWAP2 POP POP JUMP JUMPDEST PUSH1 0x0 PUSH1 0x20 DUP3 ADD SWAP1 POP SWAP2 SWAP1 POP JUMP JUMPDEST PUSH1 0x0 PUSH2 0x266E DUP3 PUSH2 0x2603 JUMP JUMPDEST PUSH2 0x2678 DUP2 DUP6 PUSH2 0x260E JUMP JUMPDEST SWAP4 POP PUSH2 0x2683 DUP4 PUSH2 0x261F JUMP JUMPDEST DUP1 PUSH1 0x0 JUMPDEST DUP4 DUP2 LT ISZERO PUSH2 0x26B4 JUMPI DUP2 MLOAD PUSH2 0x269B DUP9 DUP3 PUSH2 0x263E JUMP JUMPDEST SWAP8 POP PUSH2 0x26A6 DUP4 PUSH2 0x2656 JUMP JUMPDEST SWAP3 POP POP PUSH1 0x1 DUP2 ADD SWAP1 POP PUSH2 0x2687 JUMP JUMPDEST POP DUP6 SWAP4 POP POP POP POP SWAP3 SWAP2 POP POP JUMP JUMPDEST PUSH1 0x0 PUSH1 0x20 DUP3 ADD SWAP1 POP DUP2 DUP2 SUB PUSH1 0x0 DUP4 ADD MSTORE PUSH2 0x26DB DUP2 DUP5 PUSH2 0x2663 JUMP JUMPDEST SWAP1 POP SWAP3 SWAP2 POP POP JUMP JUMPDEST PUSH1 0x0 DUP1 PUSH1 0x0 PUSH1 0x60 DUP5 DUP7 SUB SLT ISZERO PUSH2 0x26FC JUMPI PUSH2 0x26FB PUSH2 0x1F07 JUMP JUMPDEST JUMPDEST PUSH1 0x0 PUSH2 0x270A DUP7 DUP3 DUP8 ADD PUSH2 0x1F5A JUMP JUMPDEST SWAP4 POP POP PUSH1 0x20 DUP5 ADD CALLDATALOAD PUSH8 0xFFFFFFFFFFFFFFFF DUP2 GT ISZERO PUSH2 0x272B JUMPI PUSH2 0x272A PUSH2 0x1F0C JUMP JUMPDEST JUMPDEST PUSH2 0x2737 DUP7 DUP3 DUP8 ADD PUSH2 0x2316 JUMP JUMPDEST SWAP3 POP POP PUSH1 0x40 DUP5 ADD CALLDATALOAD PUSH8 0xFFFFFFFFFFFFFFFF DUP2 GT ISZERO PUSH2 0x2758 JUMPI PUSH2 0x2757 PUSH2 0x1F0C JUMP JUMPDEST JUMPDEST PUSH2 0x2764 DUP7 DUP3 DUP8 ADD PUSH2 0x2316 JUMP JUMPDEST SWAP2 POP POP SWAP3 POP SWAP3 POP SWAP3 JUMP JUMPDEST PUSH2 0x2777 DUP2 PUSH2 0x1F31 JUMP JUMPDEST DUP3 MSTORE POP POP JUMP JUMPDEST PUSH1 0x0 PUSH1 0x20 DUP3 ADD SWAP1 POP PUSH2 0x2792 PUSH1 0x0 DUP4 ADD DUP5 PUSH2 0x276E JUMP JUMPDEST SWAP3 SWAP2 POP POP JUMP JUMPDEST PUSH2 0x27A1 DUP2 PUSH2 0x2094 JUMP JUMPDEST DUP2 EQ PUSH2 0x27AC JUMPI PUSH1 0x0 DUP1 REVERT JUMPDEST POP JUMP JUMPDEST PUSH1 0x0 DUP2 CALLDATALOAD SWAP1 POP PUSH2 0x27BE DUP2 PUSH2 0x2798 JUMP JUMPDEST SWAP3 SWAP2 POP POP JUMP JUMPDEST PUSH1 0x0 DUP1 PUSH1 0x40 DUP4 DUP6 SUB SLT ISZERO PUSH2 0x27DB JUMPI PUSH2 0x27DA PUSH2 0x1F07 JUMP JUMPDEST JUMPDEST PUSH1 0x0 PUSH2 0x27E9 DUP6 DUP3 DUP7 ADD PUSH2 0x1F5A JUMP JUMPDEST SWAP3 POP POP PUSH1 0x20 PUSH2 0x27FA DUP6 DUP3 DUP7 ADD PUSH2 0x27AF JUMP JUMPDEST SWAP2 POP POP SWAP3 POP SWAP3 SWAP1 POP JUMP JUMPDEST PUSH1 0x0 DUP1 PUSH1 0x40 DUP4 DUP6 SUB SLT ISZERO PUSH2 0x281B JUMPI PUSH2 0x281A PUSH2 0x1F07 JUMP JUMPDEST JUMPDEST PUSH1 0x0 PUSH2 0x2829 DUP6 DUP3 DUP7 ADD PUSH2 0x1F5A JUMP JUMPDEST SWAP3 POP POP PUSH1 0x20 PUSH2 0x283A DUP6 DUP3 DUP7 ADD PUSH2 0x1F5A JUMP JUMPDEST SWAP2 POP POP SWAP3 POP SWAP3 SWAP1 POP JUMP JUMPDEST PUSH1 0x0 DUP1 PUSH1 0x0 DUP1 PUSH1 0x0 PUSH1 0xA0 DUP7 DUP9 SUB SLT ISZERO PUSH2 0x2860 JUMPI PUSH2 0x285F PUSH2 0x1F07 JUMP JUMPDEST JUMPDEST PUSH1 0x0 PUSH2 0x286E DUP9 DUP3 DUP10 ADD PUSH2 0x1F5A JUMP JUMPDEST SWAP6 POP POP PUSH1 0x20 PUSH2 0x287F DUP9 DUP3 DUP10 ADD PUSH2 0x1F5A JUMP JUMPDEST SWAP5 POP POP PUSH1 0x40 PUSH2 0x2890 DUP9 DUP3 DUP10 ADD PUSH2 0x1F90 JUMP JUMPDEST SWAP4 POP POP PUSH1 0x60 PUSH2 0x28A1 DUP9 DUP3 DUP10 ADD PUSH2 0x1F90 JUMP JUMPDEST SWAP3 POP POP PUSH1 0x80 DUP7 ADD CALLDATALOAD PUSH8 0xFFFFFFFFFFFFFFFF DUP2 GT ISZERO PUSH2 0x28C2 JUMPI PUSH2 0x28C1 PUSH2 0x1F0C JUMP JUMPDEST JUMPDEST PUSH2 0x28CE DUP9 DUP3 DUP10 ADD PUSH2 0x23CB JUMP JUMPDEST SWAP2 POP POP SWAP3 SWAP6 POP SWAP3 SWAP6 SWAP1 SWAP4 POP JUMP JUMPDEST PUSH1 0x0 PUSH1 0x20 DUP3 DUP5 SUB SLT ISZERO PUSH2 0x28F1 JUMPI PUSH2 0x28F0 PUSH2 0x1F07 JUMP JUMPDEST JUMPDEST PUSH1 0x0 PUSH2 0x28FF DUP5 DUP3 DUP6 ADD PUSH2 0x1F5A JUMP JUMPDEST SWAP2 POP POP SWAP3 SWAP2 POP POP JUMP JUMPDEST PUSH32 0x455243313135353A2062616C616E636520717565727920666F7220746865207A PUSH1 0x0 DUP3 ADD MSTORE PUSH32 0x65726F2061646472657373000000000000000000000000000000000000000000 PUSH1 0x20 DUP3 ADD MSTORE POP JUMP JUMPDEST PUSH1 0x0 PUSH2 0x2964 PUSH1 0x2B DUP4 PUSH2 0x2102 JUMP JUMPDEST SWAP2 POP PUSH2 0x296F DUP3 PUSH2 0x2908 JUMP JUMPDEST PUSH1 0x40 DUP3 ADD SWAP1 POP SWAP2 SWAP1 POP JUMP JUMPDEST PUSH1 0x0 PUSH1 0x20 DUP3 ADD SWAP1 POP DUP2 DUP2 SUB PUSH1 0x0 DUP4 ADD MSTORE PUSH2 0x2993 DUP2 PUSH2 0x2957 JUMP JUMPDEST SWAP1 POP SWAP2 SWAP1 POP JUMP JUMPDEST PUSH32 0x4E487B7100000000000000000000000000000000000000000000000000000000 PUSH1 0x0 MSTORE PUSH1 0x22 PUSH1 0x4 MSTORE PUSH1 0x24 PUSH1 0x0 REVERT JUMPDEST PUSH1 0x0 PUSH1 0x2 DUP3 DIV SWAP1 POP PUSH1 0x1 DUP3 AND DUP1 PUSH2 0x29E1 JUMPI PUSH1 0x7F DUP3 AND SWAP2 POP JUMPDEST PUSH1 0x20 DUP3 LT DUP2 SUB PUSH2 0x29F4 JUMPI PUSH2 0x29F3 PUSH2 0x299A JUMP JUMPDEST JUMPDEST POP SWAP2 SWAP1 POP JUMP JUMPDEST PUSH32 0x455243313135353A207472616E736665722063616C6C6572206973206E6F7420 PUSH1 0x0 DUP3 ADD MSTORE PUSH32 0x6F776E6572206E6F7220617070726F7665640000000000000000000000000000 PUSH1 0x20 DUP3 ADD MSTORE POP JUMP JUMPDEST PUSH1 0x0 PUSH2 0x2A56 PUSH1 0x32 DUP4 PUSH2 0x2102 JUMP JUMPDEST SWAP2 POP PUSH2 0x2A61 DUP3 PUSH2 0x29FA JUMP JUMPDEST PUSH1 0x40 DUP3 ADD SWAP1 POP SWAP2 SWAP1 POP JUMP JUMPDEST PUSH1 0x0 PUSH1 0x20 DUP3 ADD SWAP1 POP DUP2 DUP2 SUB PUSH1 0x0 DUP4 ADD MSTORE PUSH2 0x2A85 DUP2 PUSH2 0x2A49 JUMP JUMPDEST SWAP1 POP SWAP2 SWAP1 POP JUMP JUMPDEST PUSH32 0x455243313135353A206163636F756E747320616E6420696473206C656E677468 PUSH1 0x0 DUP3 ADD MSTORE PUSH32 0x206D69736D617463680000000000000000000000000000000000000000000000 PUSH1 0x20 DUP3 ADD MSTORE POP JUMP JUMPDEST PUSH1 0x0 PUSH2 0x2AE8 PUSH1 0x29 DUP4 PUSH2 0x2102 JUMP JUMPDEST SWAP2 POP PUSH2 0x2AF3 DUP3 PUSH2 0x2A8C JUMP JUMPDEST PUSH1 0x40 DUP3 ADD SWAP1 POP SWAP2 SWAP1 POP JUMP JUMPDEST PUSH1 0x0 PUSH1 0x20 DUP3 ADD SWAP1 POP DUP2 DUP2 SUB PUSH1 0x0 DUP4 ADD MSTORE PUSH2 0x2B17 DUP2 PUSH2 0x2ADB JUMP JUMPDEST SWAP1 POP SWAP2 SWAP1 POP JUMP JUMPDEST PUSH32 0x4E487B7100000000000000000000000000000000000000000000000000000000 PUSH1 0x0 MSTORE PUSH1 0x32 PUSH1 0x4 MSTORE PUSH1 0x24 PUSH1 0x0 REVERT JUMPDEST PUSH32 0x4E487B7100000000000000000000000000000000000000000000000000000000 PUSH1 0x0 MSTORE PUSH1 0x11 PUSH1 0x4 MSTORE PUSH1 0x24 PUSH1 0x0 REVERT JUMPDEST PUSH1 0x0 PUSH2 0x2B87 DUP3 PUSH2 0x1F6F JUMP JUMPDEST SWAP2 POP PUSH32 0xFFFFFFFFFFFFFFFFFFFFFFFFFFFFFFFFFFFFFFFFFFFFFFFFFFFFFFFFFFFFFFFF DUP3 SUB PUSH2 0x2BB9 JUMPI PUSH2 0x2BB8 PUSH2 0x2B4D JUMP JUMPDEST JUMPDEST PUSH1 0x1 DUP3 ADD SWAP1 POP SWAP2 SWAP1 POP JUMP JUMPDEST PUSH32 0x455243313135353A2063616C6C6572206973206E6F74206F776E6572206E6F72 PUSH1 0x0 DUP3 ADD MSTORE PUSH32 0x20617070726F7665640000000000000000000000000000000000000000000000 PUSH1 0x20 DUP3 ADD MSTORE POP JUMP JUMPDEST PUSH1 0x0 PUSH2 0x2C20 PUSH1 0x29 DUP4 PUSH2 0x2102 JUMP JUMPDEST SWAP2 POP PUSH2 0x2C2B DUP3 PUSH2 0x2BC4 JUMP JUMPDEST PUSH1 0x40 DUP3 ADD SWAP1 POP SWAP2 SWAP1 POP JUMP JUMPDEST PUSH1 0x0 PUSH1 0x20 DUP3 ADD SWAP1 POP DUP2 DUP2 SUB PUSH1 0x0 DUP4 ADD MSTORE PUSH2 0x2C4F DUP2 PUSH2 0x2C13 JUMP JUMPDEST SWAP1 POP SWAP2 SWAP1 POP JUMP JUMPDEST PUSH32 0x4F776E61626C653A2063616C6C6572206973206E6F7420746865206F776E6572 PUSH1 0x0 DUP3 ADD MSTORE POP JUMP JUMPDEST PUSH1 0x0 PUSH2 0x2C8C PUSH1 0x20 DUP4 PUSH2 0x2102 JUMP JUMPDEST SWAP2 POP PUSH2 0x2C97 DUP3 PUSH2 0x2C56 JUMP JUMPDEST PUSH1 0x20 DUP3 ADD SWAP1 POP SWAP2 SWAP1 POP JUMP JUMPDEST PUSH1 0x0 PUSH1 0x20 DUP3 ADD SWAP1 POP DUP2 DUP2 SUB PUSH1 0x0 DUP4 ADD MSTORE PUSH2 0x2CBB DUP2 PUSH2 0x2C7F JUMP JUMPDEST SWAP1 POP SWAP2 SWAP1 POP JUMP JUMPDEST PUSH32 0x4F776E61626C653A206E6577206F776E657220697320746865207A65726F2061 PUSH1 0x0 DUP3 ADD MSTORE PUSH32 0x6464726573730000000000000000000000000000000000000000000000000000 PUSH1 0x20 DUP3 ADD MSTORE POP JUMP JUMPDEST PUSH1 0x0 PUSH2 0x2D1E PUSH1 0x26 DUP4 PUSH2 0x2102 JUMP JUMPDEST SWAP2 POP PUSH2 0x2D29 DUP3 PUSH2 0x2CC2 JUMP JUMPDEST PUSH1 0x40 DUP3 ADD SWAP1 POP SWAP2 SWAP1 POP JUMP JUMPDEST PUSH1 0x0 PUSH1 0x20 DUP3 ADD SWAP1 POP DUP2 DUP2 SUB PUSH1 0x0 DUP4 ADD MSTORE PUSH2 0x2D4D DUP2 PUSH2 0x2D11 JUMP JUMPDEST SWAP1 POP SWAP2 SWAP1 POP JUMP JUMPDEST PUSH32 0x455243313135353A206D696E7420746F20746865207A65726F20616464726573 PUSH1 0x0 DUP3 ADD MSTORE PUSH32 0x7300000000000000000000000000000000000000000000000000000000000000 PUSH1 0x20 DUP3 ADD MSTORE POP JUMP JUMPDEST PUSH1 0x0 PUSH2 0x2DB0 PUSH1 0x21 DUP4 PUSH2 0x2102 JUMP JUMPDEST SWAP2 POP PUSH2 0x2DBB DUP3 PUSH2 0x2D54 JUMP JUMPDEST PUSH1 0x40 DUP3 ADD SWAP1 POP SWAP2 SWAP1 POP JUMP JUMPDEST PUSH1 0x0 PUSH1 0x20 DUP3 ADD SWAP1 POP DUP2 DUP2 SUB PUSH1 0x0 DUP4 ADD MSTORE PUSH2 0x2DDF DUP2 PUSH2 0x2DA3 JUMP JUMPDEST SWAP1 POP SWAP2 SWAP1 POP JUMP JUMPDEST PUSH1 0x0 PUSH2 0x2DF1 DUP3 PUSH2 0x1F6F JUMP JUMPDEST SWAP2 POP PUSH2 0x2DFC DUP4 PUSH2 0x1F6F JUMP JUMPDEST SWAP3 POP DUP3 DUP3 ADD SWAP1 POP DUP1 DUP3 GT ISZERO PUSH2 0x2E14 JUMPI PUSH2 0x2E13 PUSH2 0x2B4D JUMP JUMPDEST JUMPDEST SWAP3 SWAP2 POP POP JUMP JUMPDEST PUSH1 0x0 PUSH1 0x40 DUP3 ADD SWAP1 POP PUSH2 0x2E2F PUSH1 0x0 DUP4 ADD DUP6 PUSH2 0x1FE5 JUMP JUMPDEST PUSH2 0x2E3C PUSH1 0x20 DUP4 ADD DUP5 PUSH2 0x1FE5 JUMP JUMPDEST SWAP4 SWAP3 POP POP POP JUMP JUMPDEST PUSH32 0x455243313135353A2069647320616E6420616D6F756E7473206C656E67746820 PUSH1 0x0 DUP3 ADD MSTORE PUSH32 0x6D69736D61746368000000000000000000000000000000000000000000000000 PUSH1 0x20 DUP3 ADD MSTORE POP JUMP JUMPDEST PUSH1 0x0 PUSH2 0x2E9F PUSH1 0x28 DUP4 PUSH2 0x2102 JUMP JUMPDEST SWAP2 POP PUSH2 0x2EAA DUP3 PUSH2 0x2E43 JUMP JUMPDEST PUSH1 0x40 DUP3 ADD SWAP1 POP SWAP2 SWAP1 POP JUMP JUMPDEST PUSH1 0x0 PUSH1 0x20 DUP3 ADD SWAP1 POP DUP2 DUP2 SUB PUSH1 0x0 DUP4 ADD MSTORE PUSH2 0x2ECE DUP2 PUSH2 0x2E92 JUMP JUMPDEST SWAP1 POP SWAP2 SWAP1 POP JUMP JUMPDEST PUSH32 0x455243313135353A207472616E7366657220746F20746865207A65726F206164 PUSH1 0x0 DUP3 ADD MSTORE PUSH32 0x6472657373000000000000000000000000000000000000000000000000000000 PUSH1 0x20 DUP3 ADD MSTORE POP JUMP JUMPDEST PUSH1 0x0 PUSH2 0x2F31 PUSH1 0x25 DUP4 PUSH2 0x2102 JUMP JUMPDEST SWAP2 POP PUSH2 0x2F3C DUP3 PUSH2 0x2ED5 JUMP JUMPDEST PUSH1 0x40 DUP3 ADD SWAP1 POP SWAP2 SWAP1 POP JUMP JUMPDEST PUSH1 0x0 PUSH1 0x20 DUP3 ADD SWAP1 POP DUP2 DUP2 SUB PUSH1 0x0 DUP4 ADD MSTORE PUSH2 0x2F60 DUP2 PUSH2 0x2F24 JUMP JUMPDEST SWAP1 POP SWAP2 SWAP1 POP JUMP JUMPDEST PUSH32 0x455243313135353A20696E73756666696369656E742062616C616E636520666F PUSH1 0x0 DUP3 ADD MSTORE PUSH32 0x72207472616E7366657200000000000000000000000000000000000000000000 PUSH1 0x20 DUP3 ADD MSTORE POP JUMP JUMPDEST PUSH1 0x0 PUSH2 0x2FC3 PUSH1 0x2A DUP4 PUSH2 0x2102 JUMP JUMPDEST SWAP2 POP PUSH2 0x2FCE DUP3 PUSH2 0x2F67 JUMP JUMPDEST PUSH1 0x40 DUP3 ADD SWAP1 POP SWAP2 SWAP1 POP JUMP JUMPDEST PUSH1 0x0 PUSH1 0x20 DUP3 ADD SWAP1 POP DUP2 DUP2 SUB PUSH1 0x0 DUP4 ADD MSTORE PUSH2 0x2FF2 DUP2 PUSH2 0x2FB6 JUMP JUMPDEST SWAP1 POP SWAP2 SWAP1 POP JUMP JUMPDEST PUSH1 0x0 PUSH1 0x40 DUP3 ADD SWAP1 POP DUP2 DUP2 SUB PUSH1 0x0 DUP4 ADD MSTORE PUSH2 0x3013 DUP2 DUP6 PUSH2 0x2663 JUMP JUMPDEST SWAP1 POP DUP2 DUP2 SUB PUSH1 0x20 DUP4 ADD MSTORE PUSH2 0x3027 DUP2 DUP5 PUSH2 0x2663 JUMP JUMPDEST SWAP1 POP SWAP4 SWAP3 POP POP POP JUMP JUMPDEST PUSH32 0x455243313135353A206275726E2066726F6D20746865207A65726F2061646472 PUSH1 0x0 DUP3 ADD MSTORE PUSH32 0x6573730000000000000000000000000000000000000000000000000000000000 PUSH1 0x20 DUP3 ADD MSTORE POP JUMP JUMPDEST PUSH1 0x0 PUSH2 0x308C PUSH1 0x23 DUP4 PUSH2 0x2102 JUMP JUMPDEST SWAP2 POP PUSH2 0x3097 DUP3 PUSH2 0x3030 JUMP JUMPDEST PUSH1 0x40 DUP3 ADD SWAP1 POP SWAP2 SWAP1 POP JUMP JUMPDEST PUSH1 0x0 PUSH1 0x20 DUP3 ADD SWAP1 POP DUP2 DUP2 SUB PUSH1 0x0 DUP4 ADD MSTORE PUSH2 0x30BB DUP2 PUSH2 0x307F JUMP JUMPDEST SWAP1 POP SWAP2 SWAP1 POP JUMP JUMPDEST PUSH32 0x455243313135353A206275726E20616D6F756E7420657863656564732062616C PUSH1 0x0 DUP3 ADD MSTORE PUSH32 0x616E636500000000000000000000000000000000000000000000000000000000 PUSH1 0x20 DUP3 ADD MSTORE POP JUMP JUMPDEST PUSH1 0x0 PUSH2 0x311E PUSH1 0x24 DUP4 PUSH2 0x2102 JUMP JUMPDEST SWAP2 POP PUSH2 0x3129 DUP3 PUSH2 0x30C2 JUMP JUMPDEST PUSH1 0x40 DUP3 ADD SWAP1 POP SWAP2 SWAP1 POP JUMP JUMPDEST PUSH1 0x0 PUSH1 0x20 DUP3 ADD SWAP1 POP DUP2 DUP2 SUB PUSH1 0x0 DUP4 ADD MSTORE PUSH2 0x314D DUP2 PUSH2 0x3111 JUMP JUMPDEST SWAP1 POP SWAP2 SWAP1 POP JUMP JUMPDEST PUSH32 0x455243313135353A2073657474696E6720617070726F76616C20737461747573 PUSH1 0x0 DUP3 ADD MSTORE PUSH32 0x20666F722073656C660000000000000000000000000000000000000000000000 PUSH1 0x20 DUP3 ADD MSTORE POP JUMP JUMPDEST PUSH1 0x0 PUSH2 0x31B0 PUSH1 0x29 DUP4 PUSH2 0x2102 JUMP JUMPDEST SWAP2 POP PUSH2 0x31BB DUP3 PUSH2 0x3154 JUMP JUMPDEST PUSH1 0x40 DUP3 ADD SWAP1 POP SWAP2 SWAP1 POP JUMP JUMPDEST PUSH1 0x0 PUSH1 0x20 DUP3 ADD SWAP1 POP DUP2 DUP2 SUB PUSH1 0x0 DUP4 ADD MSTORE PUSH2 0x31DF DUP2 PUSH2 0x31A3 JUMP JUMPDEST SWAP1 POP SWAP2 SWAP1 POP JUMP JUMPDEST PUSH1 0x0 DUP2 MLOAD SWAP1 POP SWAP2 SWAP1 POP JUMP JUMPDEST PUSH1 0x0 DUP3 DUP3 MSTORE PUSH1 0x20 DUP3 ADD SWAP1 POP SWAP3 SWAP2 POP POP JUMP JUMPDEST PUSH1 0x0 PUSH2 0x320D DUP3 PUSH2 0x31E6 JUMP JUMPDEST PUSH2 0x3217 DUP2 DUP6 PUSH2 0x31F1 JUMP JUMPDEST SWAP4 POP PUSH2 0x3227 DUP2 DUP6 PUSH1 0x20 DUP7 ADD PUSH2 0x2113 JUMP JUMPDEST PUSH2 0x3230 DUP2 PUSH2 0x213D JUMP JUMPDEST DUP5 ADD SWAP2 POP POP SWAP3 SWAP2 POP POP JUMP JUMPDEST PUSH1 0x0 PUSH1 0xA0 DUP3 ADD SWAP1 POP PUSH2 0x3250 PUSH1 0x0 DUP4 ADD DUP9 PUSH2 0x276E JUMP JUMPDEST PUSH2 0x325D PUSH1 0x20 DUP4 ADD DUP8 PUSH2 0x276E JUMP JUMPDEST PUSH2 0x326A PUSH1 0x40 DUP4 ADD DUP7 PUSH2 0x1FE5 JUMP JUMPDEST PUSH2 0x3277 PUSH1 0x60 DUP4 ADD DUP6 PUSH2 0x1FE5 JUMP JUMPDEST DUP2 DUP2 SUB PUSH1 0x80 DUP4 ADD MSTORE PUSH2 0x3289 DUP2 DUP5 PUSH2 0x3202 JUMP JUMPDEST SWAP1 POP SWAP7 SWAP6 POP POP POP POP POP POP JUMP JUMPDEST PUSH1 0x0 DUP2 MLOAD SWAP1 POP PUSH2 0x32A4 DUP2 PUSH2 0x203B JUMP JUMPDEST SWAP3 SWAP2 POP POP JUMP JUMPDEST PUSH1 0x0 PUSH1 0x20 DUP3 DUP5 SUB SLT ISZERO PUSH2 0x32C0 JUMPI PUSH2 0x32BF PUSH2 0x1F07 JUMP JUMPDEST JUMPDEST PUSH1 0x0 PUSH2 0x32CE DUP5 DUP3 DUP6 ADD PUSH2 0x3295 JUMP JUMPDEST SWAP2 POP POP SWAP3 SWAP2 POP POP JUMP JUMPDEST PUSH1 0x0 DUP2 PUSH1 0xE0 SHR SWAP1 POP SWAP2 SWAP1 POP JUMP JUMPDEST PUSH1 0x0 PUSH1 0x3 RETURNDATASIZE GT ISZERO PUSH2 0x3303 JUMPI PUSH1 0x4 PUSH1 0x0 DUP1 RETURNDATACOPY PUSH2 0x3300 PUSH1 0x0 MLOAD PUSH2 0x32D7 JUMP JUMPDEST SWAP1 POP JUMPDEST SWAP1 JUMP JUMPDEST PUSH1 0x0 PUSH1 0x44 RETURNDATASIZE LT PUSH2 0x3393 JUMPI PUSH2 0x3318 PUSH2 0x1EFD JUMP JUMPDEST PUSH1 0x4 RETURNDATASIZE SUB PUSH1 0x4 DUP3 RETURNDATACOPY DUP1 MLOAD RETURNDATASIZE PUSH1 0x24 DUP3 ADD GT PUSH8 0xFFFFFFFFFFFFFFFF DUP3 GT OR ISZERO PUSH2 0x3340 JUMPI POP POP PUSH2 0x3393 JUMP JUMPDEST DUP1 DUP3 ADD DUP1 MLOAD PUSH8 0xFFFFFFFFFFFFFFFF DUP2 GT ISZERO PUSH2 0x335E JUMPI POP POP POP POP PUSH2 0x3393 JUMP JUMPDEST DUP1 PUSH1 0x20 DUP4 ADD ADD PUSH1 0x4 RETURNDATASIZE SUB DUP6 ADD DUP2 GT ISZERO PUSH2 0x337B JUMPI POP POP POP POP POP PUSH2 0x3393 JUMP JUMPDEST PUSH2 0x338A DUP3 PUSH1 0x20 ADD DUP6 ADD DUP7 PUSH2 0x2230 JUMP JUMPDEST DUP3 SWAP6 POP POP POP POP POP POP JUMPDEST SWAP1 JUMP JUMPDEST PUSH32 0x455243313135353A207472616E7366657220746F206E6F6E2045524331313535 PUSH1 0x0 DUP3 ADD MSTORE PUSH32 0x526563656976657220696D706C656D656E746572000000000000000000000000 PUSH1 0x20 DUP3 ADD MSTORE POP JUMP JUMPDEST PUSH1 0x0 PUSH2 0x33F2 PUSH1 0x34 DUP4 PUSH2 0x2102 JUMP JUMPDEST SWAP2 POP PUSH2 0x33FD DUP3 PUSH2 0x3396 JUMP JUMPDEST PUSH1 0x40 DUP3 ADD SWAP1 POP SWAP2 SWAP1 POP JUMP JUMPDEST PUSH1 0x0 PUSH1 0x20 DUP3 ADD SWAP1 POP DUP2 DUP2 SUB PUSH1 0x0 DUP4 ADD MSTORE PUSH2 0x3421 DUP2 PUSH2 0x33E5 JUMP JUMPDEST SWAP1 POP SWAP2 SWAP1 POP JUMP JUMPDEST PUSH32 0x455243313135353A204552433131353552656365697665722072656A65637465 PUSH1 0x0 DUP3 ADD MSTORE PUSH32 0x6420746F6B656E73000000000000000000000000000000000000000000000000 PUSH1 0x20 DUP3 ADD MSTORE POP JUMP JUMPDEST PUSH1 0x0 PUSH2 0x3484 PUSH1 0x28 DUP4 PUSH2 0x2102 JUMP JUMPDEST SWAP2 POP PUSH2 0x348F DUP3 PUSH2 0x3428 JUMP JUMPDEST PUSH1 0x40 DUP3 ADD SWAP1 POP SWAP2 SWAP1 POP JUMP JUMPDEST PUSH1 0x0 PUSH1 0x20 DUP3 ADD SWAP1 POP DUP2 DUP2 SUB PUSH1 0x0 DUP4 ADD MSTORE PUSH2 0x34B3 DUP2 PUSH2 0x3477 JUMP JUMPDEST SWAP1 POP SWAP2 SWAP1 POP JUMP JUMPDEST PUSH1 0x0 PUSH1 0xA0 DUP3 ADD SWAP1 POP PUSH2 0x34CF PUSH1 0x0 DUP4 ADD DUP9 PUSH2 0x276E JUMP JUMPDEST PUSH2 0x34DC PUSH1 0x20 DUP4 ADD DUP8 PUSH2 0x276E JUMP JUMPDEST DUP2 DUP2 SUB PUSH1 0x40 DUP4 ADD MSTORE PUSH2 0x34EE DUP2 DUP7 PUSH2 0x2663 JUMP JUMPDEST SWAP1 POP DUP2 DUP2 SUB PUSH1 0x60 DUP4 ADD MSTORE PUSH2 0x3502 DUP2 DUP6 PUSH2 0x2663 JUMP JUMPDEST SWAP1 POP DUP2 DUP2 SUB PUSH1 0x80 DUP4 ADD MSTORE PUSH2 0x3516 DUP2 DUP5 PUSH2 0x3202 JUMP JUMPDEST SWAP1 POP SWAP7 SWAP6 POP POP POP POP POP POP JUMP INVALID LOG2 PUSH5 0x6970667358 0x22 SLT KECCAK256 PUSH30 0x14EC883316E74400E9A35C0DDA4F06CFE6C30F71DD0B23360BAA0D07CF6C 0xB5 PUSH5 0x736F6C6343 STOP ADDMOD SLT STOP CALLER PUSH9 0x747470733A2F2F6761 PUSH21 0x657761792E70696E6174612E636C6F75642F697066 PUSH20 0x2F516D654C3833563868755677394E6F74557469 SSTORE PUSH22 0x6A57735747734A6D6F4276594257314A5862686E706F PUSH9 0x72512F7B69647D2E6A PUSH20 0x6F6E000000000000000000000000000000000000 "},"methodIdentifiers":{"balanceOf(address,uint256)":"00fdd58e","balanceOfBatch(address[],uint256[])":"4e1273f4","burn(address,uint256,uint256)":"f5298aca","burnBatch(address,uint256[],uint256[])":"6b20c454","burning(address,uint256,uint256)":"4f10e574","burningBatch(address,uint256[],uint256[])":"6f95545d","isApprovedForAll(address,address)":"e985e9c5","mint(address,uint256,uint256)":"156e29f6","owner()":"8da5cb5b","renounceOwnership()":"715018a6","safeBatchTransferFrom(address,address,uint256[],uint256[],bytes)":"2eb2c2d6","safeTransferFrom(address,address,uint256,uint256,bytes)":"f242432a","setApprovalForAll(address,bool)":"a22cb465","supportsInterface(bytes4)":"01ffc9a7","transferOwnership(address)":"f2fde38b","uri(uint256)":"0e89341c"}}}}}