{
  "_format": "hh-sol-artifact-1",
  "contractName": "erc20liz",
  "sourceName": "contracts/erc20liz.sol",
  "abi": [
    {
      "inputs": [],
      "stateMutability": "nonpayable",
      "type": "constructor"
    },
    {
      "anonymous": false,
      "inputs": [
        {
          "indexed": true,
          "internalType": "address",
          "name": "owner",
          "type": "address"
        },
        {
          "indexed": true,
          "internalType": "address",
          "name": "spender",
          "type": "address"
        },
        {
          "indexed": false,
          "internalType": "uint256",
          "name": "value",
          "type": "uint256"
        }
      ],
      "name": "Approval",
      "type": "event"
    },
    {
      "anonymous": false,
      "inputs": [
        {
          "indexed": true,
          "internalType": "address",
          "name": "previousOwner",
          "type": "address"
        },
        {
          "indexed": true,
          "internalType": "address",
          "name": "newOwner",
          "type": "address"
        }
      ],
      "name": "OwnershipTransferred",
      "type": "event"
    },
    {
      "anonymous": false,
      "inputs": [
        {
          "indexed": true,
          "internalType": "address",
          "name": "from",
          "type": "address"
        },
        {
          "indexed": true,
          "internalType": "address",
          "name": "to",
          "type": "address"
        },
        {
          "indexed": false,
          "internalType": "uint256",
          "name": "value",
          "type": "uint256"
        }
      ],
      "name": "Transfer",
      "type": "event"
    },
    {
      "inputs": [
        {
          "internalType": "address",
          "name": "owner",
          "type": "address"
        },
        {
          "internalType": "address",
          "name": "spender",
          "type": "address"
        }
      ],
      "name": "allowance",
      "outputs": [
        {
          "internalType": "uint256",
          "name": "",
          "type": "uint256"
        }
      ],
      "stateMutability": "view",
      "type": "function"
    },
    {
      "inputs": [
        {
          "internalType": "address",
          "name": "spender",
          "type": "address"
        },
        {
          "internalType": "uint256",
          "name": "amount",
          "type": "uint256"
        }
      ],
      "name": "approve",
      "outputs": [
        {
          "internalType": "bool",
          "name": "",
          "type": "bool"
        }
      ],
      "stateMutability": "nonpayable",
      "type": "function"
    },
    {
      "inputs": [
        {
          "internalType": "address",
          "name": "account",
          "type": "address"
        }
      ],
      "name": "balanceOf",
      "outputs": [
        {
          "internalType": "uint256",
          "name": "",
          "type": "uint256"
        }
      ],
      "stateMutability": "view",
      "type": "function"
    },
    {
      "inputs": [],
      "name": "decimals",
      "outputs": [
        {
          "internalType": "uint8",
          "name": "",
          "type": "uint8"
        }
      ],
      "stateMutability": "view",
      "type": "function"
    },
    {
      "inputs": [
        {
          "internalType": "address",
          "name": "spender",
          "type": "address"
        },
        {
          "internalType": "uint256",
          "name": "subtractedValue",
          "type": "uint256"
        }
      ],
      "name": "decreaseAllowance",
      "outputs": [
        {
          "internalType": "bool",
          "name": "",
          "type": "bool"
        }
      ],
      "stateMutability": "nonpayable",
      "type": "function"
    },
    {
      "inputs": [
        {
          "internalType": "address",
          "name": "spender",
          "type": "address"
        },
        {
          "internalType": "uint256",
          "name": "addedValue",
          "type": "uint256"
        }
      ],
      "name": "increaseAllowance",
      "outputs": [
        {
          "internalType": "bool",
          "name": "",
          "type": "bool"
        }
      ],
      "stateMutability": "nonpayable",
      "type": "function"
    },
    {
      "inputs": [],
      "name": "name",
      "outputs": [
        {
          "internalType": "string",
          "name": "",
          "type": "string"
        }
      ],
      "stateMutability": "view",
      "type": "function"
    },
    {
      "inputs": [],
      "name": "owner",
      "outputs": [
        {
          "internalType": "address",
          "name": "",
          "type": "address"
        }
      ],
      "stateMutability": "view",
      "type": "function"
    },
    {
      "inputs": [],
      "name": "renounceOwnership",
      "outputs": [],
      "stateMutability": "nonpayable",
      "type": "function"
    },
    {
      "inputs": [],
      "name": "symbol",
      "outputs": [
        {
          "internalType": "string",
          "name": "",
          "type": "string"
        }
      ],
      "stateMutability": "view",
      "type": "function"
    },
    {
      "inputs": [],
      "name": "totalSupply",
      "outputs": [
        {
          "internalType": "uint256",
          "name": "",
          "type": "uint256"
        }
      ],
      "stateMutability": "view",
      "type": "function"
    },
    {
      "inputs": [
        {
          "internalType": "address",
          "name": "to",
          "type": "address"
        },
        {
          "internalType": "uint256",
          "name": "amount",
          "type": "uint256"
        }
      ],
      "name": "transfer",
      "outputs": [
        {
          "internalType": "bool",
          "name": "",
          "type": "bool"
        }
      ],
      "stateMutability": "nonpayable",
      "type": "function"
    },
    {
      "inputs": [
        {
          "internalType": "address",
          "name": "from",
          "type": "address"
        },
        {
          "internalType": "address",
          "name": "to",
          "type": "address"
        },
        {
          "internalType": "uint256",
          "name": "amount",
          "type": "uint256"
        }
      ],
      "name": "transferFrom",
      "outputs": [
        {
          "internalType": "bool",
          "name": "",
          "type": "bool"
        }
      ],
      "stateMutability": "nonpayable",
      "type": "function"
    },
    {
      "inputs": [
        {
          "internalType": "address",
          "name": "newOwner",
          "type": "address"
        }
      ],
      "name": "transferOwnership",
      "outputs": [],
      "stateMutability": "nonpayable",
      "type": "function"
    },
    {
      "inputs": [
        {
          "internalType": "address",
          "name": "to",
          "type": "address"
        },
        {
          "internalType": "uint256",
          "name": "amount",
          "type": "uint256"
        }
      ],
      "name": "transferToken",
      "outputs": [],
      "stateMutability": "payable",
      "type": "function"
    }
  ],
  "bytecode": "0x60806040523480156200001157600080fd5b506040518060400160405280600481526020017f4c697a61000000000000000000000000000000000000000000000000000000008152506040518060400160405280600381526020017f4c495a000000000000000000000000000000000000000000000000000000000081525081600390816200008f919062000632565b508060049081620000a1919062000632565b505050620000c4620000b86200015c60201b60201c565b6200016460201b60201c565b620000e06731d3a7a366a7c84660c01b6200022a60201b60201c565b620000fc675931966daf5f998960c01b6200022a60201b60201c565b6200011867a0891cd8d98fc97760c01b6200022a60201b60201c565b62000156336200012d6200022d60201b60201c565b600a6200013b9190620008a9565b61012c6200014a9190620008fa565b6200023660201b60201c565b62000a31565b600033905090565b6000600560009054906101000a900473ffffffffffffffffffffffffffffffffffffffff16905081600560006101000a81548173ffffffffffffffffffffffffffffffffffffffff021916908373ffffffffffffffffffffffffffffffffffffffff1602179055508173ffffffffffffffffffffffffffffffffffffffff168173ffffffffffffffffffffffffffffffffffffffff167f8be0079c531659141344cd1fd0a4f28419497f9722a3daafe3b4186f6b6457e060405160405180910390a35050565b50565b60006012905090565b600073ffffffffffffffffffffffffffffffffffffffff168273ffffffffffffffffffffffffffffffffffffffff1603620002a8576040517f08c379a00000000000000000000000000000000000000000000000000000000081526004016200029f90620009a6565b60405180910390fd5b620002bc60008383620003ae60201b60201c565b8060026000828254620002d09190620009c8565b92505081905550806000808473ffffffffffffffffffffffffffffffffffffffff1673ffffffffffffffffffffffffffffffffffffffff1681526020019081526020016000206000828254620003279190620009c8565b925050819055508173ffffffffffffffffffffffffffffffffffffffff16600073ffffffffffffffffffffffffffffffffffffffff167fddf252ad1be2c89b69c2b068fc378daa952ba7f163c4a11628f55a4df523b3ef836040516200038e919062000a14565b60405180910390a3620003aa60008383620003b360201b60201c565b5050565b505050565b505050565b600081519050919050565b7f4e487b7100000000000000000000000000000000000000000000000000000000600052604160045260246000fd5b7f4e487b7100000000000000000000000000000000000000000000000000000000600052602260045260246000fd5b600060028204905060018216806200043a57607f821691505b60208210810362000450576200044f620003f2565b5b50919050565b60008190508160005260206000209050919050565b60006020601f8301049050919050565b600082821b905092915050565b600060088302620004ba7fffffffffffffffffffffffffffffffffffffffffffffffffffffffffffffffff826200047b565b620004c686836200047b565b95508019841693508086168417925050509392505050565b6000819050919050565b6000819050919050565b6000620005136200050d6200050784620004de565b620004e8565b620004de565b9050919050565b6000819050919050565b6200052f83620004f2565b620005476200053e826200051a565b84845462000488565b825550505050565b600090565b6200055e6200054f565b6200056b81848462000524565b505050565b5b8181101562000593576200058760008262000554565b60018101905062000571565b5050565b601f821115620005e257620005ac8162000456565b620005b7846200046b565b81016020851015620005c7578190505b620005df620005d6856200046b565b83018262000570565b50505b505050565b600082821c905092915050565b60006200060760001984600802620005e7565b1980831691505092915050565b6000620006228383620005f4565b9150826002028217905092915050565b6200063d82620003b8565b67ffffffffffffffff811115620006595762000658620003c3565b5b62000665825462000421565b6200067282828562000597565b600060209050601f831160018114620006aa576000841562000695578287015190505b620006a1858262000614565b86555062000711565b601f198416620006ba8662000456565b60005b82811015620006e457848901518255600182019150602085019450602081019050620006bd565b8683101562000704578489015162000700601f891682620005f4565b8355505b6001600288020188555050505b505050505050565b7f4e487b7100000000000000000000000000000000000000000000000000000000600052601160045260246000fd5b60008160011c9050919050565b6000808291508390505b6001851115620007a7578086048111156200077f576200077e62000719565b5b60018516156200078f5780820291505b80810290506200079f8562000748565b94506200075f565b94509492505050565b600082620007c2576001905062000895565b81620007d2576000905062000895565b8160018114620007eb5760028114620007f6576200082c565b600191505062000895565b60ff8411156200080b576200080a62000719565b5b8360020a91508482111562000825576200082462000719565b5b5062000895565b5060208310610133831016604e8410600b8410161715620008665782820a90508381111562000860576200085f62000719565b5b62000895565b62000875848484600162000755565b925090508184048111156200088f576200088e62000719565b5b81810290505b9392505050565b600060ff82169050919050565b6000620008b682620004de565b9150620008c3836200089c565b9250620008f27fffffffffffffffffffffffffffffffffffffffffffffffffffffffffffffffff8484620007b0565b905092915050565b60006200090782620004de565b91506200091483620004de565b92508282026200092481620004de565b915082820484148315176200093e576200093d62000719565b5b5092915050565b600082825260208201905092915050565b7f45524332303a206d696e7420746f20746865207a65726f206164647265737300600082015250565b60006200098e601f8362000945565b91506200099b8262000956565b602082019050919050565b60006020820190508181036000830152620009c1816200097f565b9050919050565b6000620009d582620004de565b9150620009e283620004de565b9250828201905080821115620009fd57620009fc62000719565b5b92915050565b62000a0e81620004de565b82525050565b600060208201905062000a2b600083018462000a03565b92915050565b6119508062000a416000396000f3fe6080604052600436106100e85760003560e01c806370a082311161008a578063a457c2d711610059578063a457c2d7146102eb578063a9059cbb14610328578063dd62ed3e14610365578063f2fde38b146103a2576100e8565b806370a0823114610241578063715018a61461027e5780638da5cb5b1461029557806395d89b41146102c0576100e8565b806318160ddd116100c657806318160ddd1461017157806323b872dd1461019c578063313ce567146101d95780633950935114610204576100e8565b806306fdde03146100ed578063095ea7b3146101185780631072cbea14610155575b600080fd5b3480156100f957600080fd5b506101026103cb565b60405161010f9190610f45565b60405180910390f35b34801561012457600080fd5b5061013f600480360381019061013a9190611000565b61045d565b60405161014c919061105b565b60405180910390f35b61016f600480360381019061016a9190611000565b610480565b005b34801561017d57600080fd5b506101866104e9565b6040516101939190611085565b60405180910390f35b3480156101a857600080fd5b506101c360048036038101906101be91906110a0565b6104f3565b6040516101d0919061105b565b60405180910390f35b3480156101e557600080fd5b506101ee610522565b6040516101fb919061110f565b60405180910390f35b34801561021057600080fd5b5061022b60048036038101906102269190611000565b61052b565b604051610238919061105b565b60405180910390f35b34801561024d57600080fd5b506102686004803603810190610263919061112a565b610562565b6040516102759190611085565b60405180910390f35b34801561028a57600080fd5b506102936105aa565b005b3480156102a157600080fd5b506102aa610632565b6040516102b79190611166565b60405180910390f35b3480156102cc57600080fd5b506102d561065c565b6040516102e29190610f45565b60405180910390f35b3480156102f757600080fd5b50610312600480360381019061030d9190611000565b6106ee565b60405161031f919061105b565b60405180910390f35b34801561033457600080fd5b5061034f600480360381019061034a9190611000565b610765565b60405161035c919061105b565b60405180910390f35b34801561037157600080fd5b5061038c60048036038101906103879190611181565b610788565b6040516103999190611085565b60405180910390f35b3480156103ae57600080fd5b506103c960048036038101906103c4919061112a565b61080f565b005b6060600380546103da906111f0565b80601f0160208091040260200160405190810160405280929190818152602001828054610406906111f0565b80156104535780601f1061042857610100808354040283529160200191610453565b820191906000526020600020905b81548152906001019060200180831161043657829003601f168201915b5050505050905090565b600080610468610906565b905061047581858561090e565b600191505092915050565b6104946750363fb4ddf28c3e60c01b610ad7565b6104a867cdf99b8909fdf5d460c01b610ad7565b6104bc67969baa3a52c40a8660c01b610ad7565b6104e533836104c9610522565b600a6104d59190611383565b846104e091906113ce565b610ada565b5050565b6000600254905090565b6000806104fe610906565b905061050b858285610d59565b610516858585610ada565b60019150509392505050565b60006012905090565b600080610536610906565b90506105578185856105488589610788565b6105529190611410565b61090e565b600191505092915050565b60008060008373ffffffffffffffffffffffffffffffffffffffff1673ffffffffffffffffffffffffffffffffffffffff168152602001908152602001600020549050919050565b6105b2610906565b73ffffffffffffffffffffffffffffffffffffffff166105d0610632565b73ffffffffffffffffffffffffffffffffffffffff1614610626576040517f08c379a000000000000000000000000000000000000000000000000000000000815260040161061d90611490565b60405180910390fd5b6106306000610de5565b565b6000600560009054906101000a900473ffffffffffffffffffffffffffffffffffffffff16905090565b60606004805461066b906111f0565b80601f0160208091040260200160405190810160405280929190818152602001828054610697906111f0565b80156106e45780601f106106b9576101008083540402835291602001916106e4565b820191906000526020600020905b8154815290600101906020018083116106c757829003601f168201915b5050505050905090565b6000806106f9610906565b905060006107078286610788565b90508381101561074c576040517f08c379a000000000000000000000000000000000000000000000000000000000815260040161074390611522565b60405180910390fd5b610759828686840361090e565b60019250505092915050565b600080610770610906565b905061077d818585610ada565b600191505092915050565b6000600160008473ffffffffffffffffffffffffffffffffffffffff1673ffffffffffffffffffffffffffffffffffffffff16815260200190815260200160002060008373ffffffffffffffffffffffffffffffffffffffff1673ffffffffffffffffffffffffffffffffffffffff16815260200190815260200160002054905092915050565b610817610906565b73ffffffffffffffffffffffffffffffffffffffff16610835610632565b73ffffffffffffffffffffffffffffffffffffffff161461088b576040517f08c379a000000000000000000000000000000000000000000000000000000000815260040161088290611490565b60405180910390fd5b600073ffffffffffffffffffffffffffffffffffffffff168173ffffffffffffffffffffffffffffffffffffffff16036108fa576040517f08c379a00000000000000000000000000000000000000000000000000000000081526004016108f1906115b4565b60405180910390fd5b61090381610de5565b50565b600033905090565b600073ffffffffffffffffffffffffffffffffffffffff168373ffffffffffffffffffffffffffffffffffffffff160361097d576040517f08c379a000000000000000000000000000000000000000000000000000000000815260040161097490611646565b60405180910390fd5b600073ffffffffffffffffffffffffffffffffffffffff168273ffffffffffffffffffffffffffffffffffffffff16036109ec576040517f08c379a00000000000000000000000000000000000000000000000000000000081526004016109e3906116d8565b60405180910390fd5b80600160008573ffffffffffffffffffffffffffffffffffffffff1673ffffffffffffffffffffffffffffffffffffffff16815260200190815260200160002060008473ffffffffffffffffffffffffffffffffffffffff1673ffffffffffffffffffffffffffffffffffffffff168152602001908152602001600020819055508173ffffffffffffffffffffffffffffffffffffffff168373ffffffffffffffffffffffffffffffffffffffff167f8c5be1e5ebec7d5bd14f71427d1e84f3dd0314c0f7b2291e5b200ac8c7c3b92583604051610aca9190611085565b60405180910390a3505050565b50565b600073ffffffffffffffffffffffffffffffffffffffff168373ffffffffffffffffffffffffffffffffffffffff1603610b49576040517f08c379a0000000000000000000000000000000000000000000000000000000008152600401610b409061176a565b60405180910390fd5b600073ffffffffffffffffffffffffffffffffffffffff168273ffffffffffffffffffffffffffffffffffffffff1603610bb8576040517f08c379a0000000000000000000000000000000000000000000000000000000008152600401610baf906117fc565b60405180910390fd5b610bc3838383610eab565b60008060008573ffffffffffffffffffffffffffffffffffffffff1673ffffffffffffffffffffffffffffffffffffffff16815260200190815260200160002054905081811015610c49576040517f08c379a0000000000000000000000000000000000000000000000000000000008152600401610c409061188e565b60405180910390fd5b8181036000808673ffffffffffffffffffffffffffffffffffffffff1673ffffffffffffffffffffffffffffffffffffffff16815260200190815260200160002081905550816000808573ffffffffffffffffffffffffffffffffffffffff1673ffffffffffffffffffffffffffffffffffffffff1681526020019081526020016000206000828254610cdc9190611410565b925050819055508273ffffffffffffffffffffffffffffffffffffffff168473ffffffffffffffffffffffffffffffffffffffff167fddf252ad1be2c89b69c2b068fc378daa952ba7f163c4a11628f55a4df523b3ef84604051610d409190611085565b60405180910390a3610d53848484610eb0565b50505050565b6000610d658484610788565b90507fffffffffffffffffffffffffffffffffffffffffffffffffffffffffffffffff8114610ddf5781811015610dd1576040517f08c379a0000000000000000000000000000000000000000000000000000000008152600401610dc8906118fa565b60405180910390fd5b610dde848484840361090e565b5b50505050565b6000600560009054906101000a900473ffffffffffffffffffffffffffffffffffffffff16905081600560006101000a81548173ffffffffffffffffffffffffffffffffffffffff021916908373ffffffffffffffffffffffffffffffffffffffff1602179055508173ffffffffffffffffffffffffffffffffffffffff168173ffffffffffffffffffffffffffffffffffffffff167f8be0079c531659141344cd1fd0a4f28419497f9722a3daafe3b4186f6b6457e060405160405180910390a35050565b505050565b505050565b600081519050919050565b600082825260208201905092915050565b60005b83811015610eef578082015181840152602081019050610ed4565b60008484015250505050565b6000601f19601f8301169050919050565b6000610f1782610eb5565b610f218185610ec0565b9350610f31818560208601610ed1565b610f3a81610efb565b840191505092915050565b60006020820190508181036000830152610f5f8184610f0c565b905092915050565b600080fd5b600073ffffffffffffffffffffffffffffffffffffffff82169050919050565b6000610f9782610f6c565b9050919050565b610fa781610f8c565b8114610fb257600080fd5b50565b600081359050610fc481610f9e565b92915050565b6000819050919050565b610fdd81610fca565b8114610fe857600080fd5b50565b600081359050610ffa81610fd4565b92915050565b6000806040838503121561101757611016610f67565b5b600061102585828601610fb5565b925050602061103685828601610feb565b9150509250929050565b60008115159050919050565b61105581611040565b82525050565b6000602082019050611070600083018461104c565b92915050565b61107f81610fca565b82525050565b600060208201905061109a6000830184611076565b92915050565b6000806000606084860312156110b9576110b8610f67565b5b60006110c786828701610fb5565b93505060206110d886828701610fb5565b92505060406110e986828701610feb565b9150509250925092565b600060ff82169050919050565b611109816110f3565b82525050565b60006020820190506111246000830184611100565b92915050565b6000602082840312156111405761113f610f67565b5b600061114e84828501610fb5565b91505092915050565b61116081610f8c565b82525050565b600060208201905061117b6000830184611157565b92915050565b6000806040838503121561119857611197610f67565b5b60006111a685828601610fb5565b92505060206111b785828601610fb5565b9150509250929050565b7f4e487b7100000000000000000000000000000000000000000000000000000000600052602260045260246000fd5b6000600282049050600182168061120857607f821691505b60208210810361121b5761121a6111c1565b5b50919050565b7f4e487b7100000000000000000000000000000000000000000000000000000000600052601160045260246000fd5b60008160011c9050919050565b6000808291508390505b60018511156112a75780860481111561128357611282611221565b5b60018516156112925780820291505b80810290506112a085611250565b9450611267565b94509492505050565b6000826112c0576001905061137c565b816112ce576000905061137c565b81600181146112e457600281146112ee5761131d565b600191505061137c565b60ff841115611300576112ff611221565b5b8360020a91508482111561131757611316611221565b5b5061137c565b5060208310610133831016604e8410600b84101617156113525782820a90508381111561134d5761134c611221565b5b61137c565b61135f848484600161125d565b9250905081840481111561137657611375611221565b5b81810290505b9392505050565b600061138e82610fca565b9150611399836110f3565b92506113c67fffffffffffffffffffffffffffffffffffffffffffffffffffffffffffffffff84846112b0565b905092915050565b60006113d982610fca565b91506113e483610fca565b92508282026113f281610fca565b9150828204841483151761140957611408611221565b5b5092915050565b600061141b82610fca565b915061142683610fca565b925082820190508082111561143e5761143d611221565b5b92915050565b7f4f776e61626c653a2063616c6c6572206973206e6f7420746865206f776e6572600082015250565b600061147a602083610ec0565b915061148582611444565b602082019050919050565b600060208201905081810360008301526114a98161146d565b9050919050565b7f45524332303a2064656372656173656420616c6c6f77616e63652062656c6f7760008201527f207a65726f000000000000000000000000000000000000000000000000000000602082015250565b600061150c602583610ec0565b9150611517826114b0565b604082019050919050565b6000602082019050818103600083015261153b816114ff565b9050919050565b7f4f776e61626c653a206e6577206f776e657220697320746865207a65726f206160008201527f6464726573730000000000000000000000000000000000000000000000000000602082015250565b600061159e602683610ec0565b91506115a982611542565b604082019050919050565b600060208201905081810360008301526115cd81611591565b9050919050565b7f45524332303a20617070726f76652066726f6d20746865207a65726f2061646460008201527f7265737300000000000000000000000000000000000000000000000000000000602082015250565b6000611630602483610ec0565b915061163b826115d4565b604082019050919050565b6000602082019050818103600083015261165f81611623565b9050919050565b7f45524332303a20617070726f766520746f20746865207a65726f20616464726560008201527f7373000000000000000000000000000000000000000000000000000000000000602082015250565b60006116c2602283610ec0565b91506116cd82611666565b604082019050919050565b600060208201905081810360008301526116f1816116b5565b9050919050565b7f45524332303a207472616e736665722066726f6d20746865207a65726f20616460008201527f6472657373000000000000000000000000000000000000000000000000000000602082015250565b6000611754602583610ec0565b915061175f826116f8565b604082019050919050565b6000602082019050818103600083015261178381611747565b9050919050565b7f45524332303a207472616e7366657220746f20746865207a65726f206164647260008201527f6573730000000000000000000000000000000000000000000000000000000000602082015250565b60006117e6602383610ec0565b91506117f18261178a565b604082019050919050565b60006020820190508181036000830152611815816117d9565b9050919050565b7f45524332303a207472616e7366657220616d6f756e742065786365656473206260008201527f616c616e63650000000000000000000000000000000000000000000000000000602082015250565b6000611878602683610ec0565b91506118838261181c565b604082019050919050565b600060208201905081810360008301526118a78161186b565b9050919050565b7f45524332303a20696e73756666696369656e7420616c6c6f77616e6365000000600082015250565b60006118e4601d83610ec0565b91506118ef826118ae565b602082019050919050565b60006020820190508181036000830152611913816118d7565b905091905056fea26469706673582212207b11a43ab91fb4a0f3fde53d38f9ee184d218246d650f1863f8f4d6e476eff0864736f6c63430008120033",
  "linkReferences": {},
  "deployedLinkReferences": {}
}