{
  "_format": "hh-sol-artifact-1",
  "contractName": "tokenSale",
  "sourceName": "contracts/erc20TokenSale.sol",
  "abi": [
    {
      "inputs": [],
      "stateMutability": "nonpayable",
      "type": "constructor"
    },
    {
      "anonymous": false,
      "inputs": [
        {
          "indexed": true,
          "internalType": "address",
          "name": "owner",
          "type": "address"
        },
        {
          "indexed": true,
          "internalType": "address",
          "name": "spender",
          "type": "address"
        },
        {
          "indexed": false,
          "internalType": "uint256",
          "name": "value",
          "type": "uint256"
        }
      ],
      "name": "Approval",
      "type": "event"
    },
    {
      "anonymous": false,
      "inputs": [
        {
          "indexed": true,
          "internalType": "address",
          "name": "previousOwner",
          "type": "address"
        },
        {
          "indexed": true,
          "internalType": "address",
          "name": "newOwner",
          "type": "address"
        }
      ],
      "name": "OwnershipTransferred",
      "type": "event"
    },
    {
      "anonymous": false,
      "inputs": [
        {
          "indexed": true,
          "internalType": "address",
          "name": "from",
          "type": "address"
        },
        {
          "indexed": true,
          "internalType": "address",
          "name": "to",
          "type": "address"
        },
        {
          "indexed": false,
          "internalType": "uint256",
          "name": "value",
          "type": "uint256"
        }
      ],
      "name": "Transfer",
      "type": "event"
    },
    {
      "inputs": [
        {
          "internalType": "address",
          "name": "owner",
          "type": "address"
        },
        {
          "internalType": "address",
          "name": "spender",
          "type": "address"
        }
      ],
      "name": "allowance",
      "outputs": [
        {
          "internalType": "uint256",
          "name": "",
          "type": "uint256"
        }
      ],
      "stateMutability": "view",
      "type": "function"
    },
    {
      "inputs": [
        {
          "internalType": "address",
          "name": "spender",
          "type": "address"
        },
        {
          "internalType": "uint256",
          "name": "amount",
          "type": "uint256"
        }
      ],
      "name": "approve",
      "outputs": [
        {
          "internalType": "bool",
          "name": "",
          "type": "bool"
        }
      ],
      "stateMutability": "nonpayable",
      "type": "function"
    },
    {
      "inputs": [
        {
          "internalType": "address",
          "name": "account",
          "type": "address"
        }
      ],
      "name": "balanceOf",
      "outputs": [
        {
          "internalType": "uint256",
          "name": "",
          "type": "uint256"
        }
      ],
      "stateMutability": "view",
      "type": "function"
    },
    {
      "inputs": [],
      "name": "decimals",
      "outputs": [
        {
          "internalType": "uint8",
          "name": "",
          "type": "uint8"
        }
      ],
      "stateMutability": "view",
      "type": "function"
    },
    {
      "inputs": [
        {
          "internalType": "address",
          "name": "spender",
          "type": "address"
        },
        {
          "internalType": "uint256",
          "name": "subtractedValue",
          "type": "uint256"
        }
      ],
      "name": "decreaseAllowance",
      "outputs": [
        {
          "internalType": "bool",
          "name": "",
          "type": "bool"
        }
      ],
      "stateMutability": "nonpayable",
      "type": "function"
    },
    {
      "inputs": [
        {
          "internalType": "address",
          "name": "spender",
          "type": "address"
        },
        {
          "internalType": "uint256",
          "name": "addedValue",
          "type": "uint256"
        }
      ],
      "name": "increaseAllowance",
      "outputs": [
        {
          "internalType": "bool",
          "name": "",
          "type": "bool"
        }
      ],
      "stateMutability": "nonpayable",
      "type": "function"
    },
    {
      "inputs": [
        {
          "internalType": "address",
          "name": "minter",
          "type": "address"
        }
      ],
      "name": "minting",
      "outputs": [],
      "stateMutability": "payable",
      "type": "function"
    },
    {
      "inputs": [],
      "name": "name",
      "outputs": [
        {
          "internalType": "string",
          "name": "",
          "type": "string"
        }
      ],
      "stateMutability": "view",
      "type": "function"
    },
    {
      "inputs": [],
      "name": "owner",
      "outputs": [
        {
          "internalType": "address",
          "name": "",
          "type": "address"
        }
      ],
      "stateMutability": "view",
      "type": "function"
    },
    {
      "inputs": [],
      "name": "renounceOwnership",
      "outputs": [],
      "stateMutability": "nonpayable",
      "type": "function"
    },
    {
      "inputs": [],
      "name": "symbol",
      "outputs": [
        {
          "internalType": "string",
          "name": "",
          "type": "string"
        }
      ],
      "stateMutability": "view",
      "type": "function"
    },
    {
      "inputs": [],
      "name": "totalSupply",
      "outputs": [
        {
          "internalType": "uint256",
          "name": "",
          "type": "uint256"
        }
      ],
      "stateMutability": "view",
      "type": "function"
    },
    {
      "inputs": [
        {
          "internalType": "address",
          "name": "to",
          "type": "address"
        },
        {
          "internalType": "uint256",
          "name": "amount",
          "type": "uint256"
        }
      ],
      "name": "transfer",
      "outputs": [
        {
          "internalType": "bool",
          "name": "",
          "type": "bool"
        }
      ],
      "stateMutability": "nonpayable",
      "type": "function"
    },
    {
      "inputs": [
        {
          "internalType": "address",
          "name": "from",
          "type": "address"
        },
        {
          "internalType": "address",
          "name": "to",
          "type": "address"
        },
        {
          "internalType": "uint256",
          "name": "amount",
          "type": "uint256"
        }
      ],
      "name": "transferFrom",
      "outputs": [
        {
          "internalType": "bool",
          "name": "",
          "type": "bool"
        }
      ],
      "stateMutability": "nonpayable",
      "type": "function"
    },
    {
      "inputs": [
        {
          "internalType": "address",
          "name": "newOwner",
          "type": "address"
        }
      ],
      "name": "transferOwnership",
      "outputs": [],
      "stateMutability": "nonpayable",
      "type": "function"
    },
    {
      "inputs": [],
      "name": "withdraw",
      "outputs": [],
      "stateMutability": "nonpayable",
      "type": "function"
    },
    {
      "stateMutability": "payable",
      "type": "receive"
    }
  ],
  "bytecode": "0x6080604052620000146200013a60201b60201c565b600a6200002291906200052d565b620f3e586200003291906200057e565b6006553480156200004257600080fd5b506040518060400160405280600481526020017f476f6c64000000000000000000000000000000000000000000000000000000008152506040518060400160405280600381526020017f474c4400000000000000000000000000000000000000000000000000000000008152508160039081620000c0919062000839565b508060049081620000d2919062000839565b505050620000f5620000e96200014360201b60201c565b6200014b60201b60201c565b62000134336200010a6200013a60201b60201c565b600a6200011891906200052d565b620f3e586200012891906200057e565b6200021160201b60201c565b62000a0c565b60006012905090565b600033905090565b6000600560009054906101000a900473ffffffffffffffffffffffffffffffffffffffff16905081600560006101000a81548173ffffffffffffffffffffffffffffffffffffffff021916908373ffffffffffffffffffffffffffffffffffffffff1602179055508173ffffffffffffffffffffffffffffffffffffffff168173ffffffffffffffffffffffffffffffffffffffff167f8be0079c531659141344cd1fd0a4f28419497f9722a3daafe3b4186f6b6457e060405160405180910390a35050565b600073ffffffffffffffffffffffffffffffffffffffff168273ffffffffffffffffffffffffffffffffffffffff160362000283576040517f08c379a00000000000000000000000000000000000000000000000000000000081526004016200027a9062000981565b60405180910390fd5b62000297600083836200038960201b60201c565b8060026000828254620002ab9190620009a3565b92505081905550806000808473ffffffffffffffffffffffffffffffffffffffff1673ffffffffffffffffffffffffffffffffffffffff1681526020019081526020016000206000828254620003029190620009a3565b925050819055508173ffffffffffffffffffffffffffffffffffffffff16600073ffffffffffffffffffffffffffffffffffffffff167fddf252ad1be2c89b69c2b068fc378daa952ba7f163c4a11628f55a4df523b3ef83604051620003699190620009ef565b60405180910390a362000385600083836200038e60201b60201c565b5050565b505050565b505050565b7f4e487b7100000000000000000000000000000000000000000000000000000000600052601160045260246000fd5b60008160011c9050919050565b6000808291508390505b60018511156200042157808604811115620003f957620003f862000393565b5b6001851615620004095780820291505b80810290506200041985620003c2565b9450620003d9565b94509492505050565b6000826200043c57600190506200050f565b816200044c57600090506200050f565b81600181146200046557600281146200047057620004a6565b60019150506200050f565b60ff84111562000485576200048462000393565b5b8360020a9150848211156200049f576200049e62000393565b5b506200050f565b5060208310610133831016604e8410600b8410161715620004e05782820a905083811115620004da57620004d962000393565b5b6200050f565b620004ef8484846001620003cf565b9250905081840481111562000509576200050862000393565b5b81810290505b9392505050565b6000819050919050565b600060ff82169050919050565b60006200053a8262000516565b9150620005478362000520565b9250620005767fffffffffffffffffffffffffffffffffffffffffffffffffffffffffffffffff84846200042a565b905092915050565b60006200058b8262000516565b9150620005988362000516565b9250828202620005a88162000516565b91508282048414831517620005c257620005c162000393565b5b5092915050565b600081519050919050565b7f4e487b7100000000000000000000000000000000000000000000000000000000600052604160045260246000fd5b7f4e487b7100000000000000000000000000000000000000000000000000000000600052602260045260246000fd5b600060028204905060018216806200064b57607f821691505b60208210810362000661576200066062000603565b5b50919050565b60008190508160005260206000209050919050565b60006020601f8301049050919050565b600082821b905092915050565b600060088302620006cb7fffffffffffffffffffffffffffffffffffffffffffffffffffffffffffffffff826200068c565b620006d786836200068c565b95508019841693508086168417925050509392505050565b6000819050919050565b60006200071a620007146200070e8462000516565b620006ef565b62000516565b9050919050565b6000819050919050565b6200073683620006f9565b6200074e620007458262000721565b84845462000699565b825550505050565b600090565b6200076562000756565b620007728184846200072b565b505050565b5b818110156200079a576200078e6000826200075b565b60018101905062000778565b5050565b601f821115620007e957620007b38162000667565b620007be846200067c565b81016020851015620007ce578190505b620007e6620007dd856200067c565b83018262000777565b50505b505050565b600082821c905092915050565b60006200080e60001984600802620007ee565b1980831691505092915050565b6000620008298383620007fb565b9150826002028217905092915050565b6200084482620005c9565b67ffffffffffffffff81111562000860576200085f620005d4565b5b6200086c825462000632565b620008798282856200079e565b600060209050601f831160018114620008b157600084156200089c578287015190505b620008a885826200081b565b86555062000918565b601f198416620008c18662000667565b60005b82811015620008eb57848901518255600182019150602085019450602081019050620008c4565b868310156200090b578489015162000907601f891682620007fb565b8355505b6001600288020188555050505b505050505050565b600082825260208201905092915050565b7f45524332303a206d696e7420746f20746865207a65726f206164647265737300600082015250565b600062000969601f8362000920565b9150620009768262000931565b602082019050919050565b600060208201905081810360008301526200099c816200095a565b9050919050565b6000620009b08262000516565b9150620009bd8362000516565b9250828201905080821115620009d857620009d762000393565b5b92915050565b620009e98162000516565b82525050565b600060208201905062000a066000830184620009de565b92915050565b611e3b8062000a1c6000396000f3fe6080604052600436106100f75760003560e01c806370a082311161008a578063a457c2d711610059578063a457c2d714610318578063a9059cbb14610355578063dd62ed3e14610392578063f2fde38b146103cf576100fe565b806370a082311461026e578063715018a6146102ab5780638da5cb5b146102c257806395d89b41146102ed576100fe565b8063313ce567116100c6578063313ce567146101d357806339509351146101fe5780633ccfd60b1461023b57806350e0459814610252576100fe565b806306fdde0314610103578063095ea7b31461012e57806318160ddd1461016b57806323b872dd14610196576100fe565b366100fe57005b600080fd5b34801561010f57600080fd5b506101186103f8565b6040516101259190611280565b60405180910390f35b34801561013a57600080fd5b506101556004803603810190610150919061133b565b61048a565b6040516101629190611396565b60405180910390f35b34801561017757600080fd5b506101806104ad565b60405161018d91906113c0565b60405180910390f35b3480156101a257600080fd5b506101bd60048036038101906101b891906113db565b6104b7565b6040516101ca9190611396565b60405180910390f35b3480156101df57600080fd5b506101e86104e6565b6040516101f5919061144a565b60405180910390f35b34801561020a57600080fd5b506102256004803603810190610220919061133b565b6104ef565b6040516102329190611396565b60405180910390f35b34801561024757600080fd5b50610250610526565b005b61026c60048036038101906102679190611465565b61062e565b005b34801561027a57600080fd5b5061029560048036038101906102909190611465565b610741565b6040516102a291906113c0565b60405180910390f35b3480156102b757600080fd5b506102c0610789565b005b3480156102ce57600080fd5b506102d7610811565b6040516102e491906114a1565b60405180910390f35b3480156102f957600080fd5b5061030261083b565b60405161030f9190611280565b60405180910390f35b34801561032457600080fd5b5061033f600480360381019061033a919061133b565b6108cd565b60405161034c9190611396565b60405180910390f35b34801561036157600080fd5b5061037c6004803603810190610377919061133b565b610944565b6040516103899190611396565b60405180910390f35b34801561039e57600080fd5b506103b960048036038101906103b491906114bc565b610967565b6040516103c691906113c0565b60405180910390f35b3480156103db57600080fd5b506103f660048036038101906103f19190611465565b6109ee565b005b6060600380546104079061152b565b80601f01602080910402602001604051908101604052809291908181526020018280546104339061152b565b80156104805780601f1061045557610100808354040283529160200191610480565b820191906000526020600020905b81548152906001019060200180831161046357829003601f168201915b5050505050905090565b600080610495610ae5565b90506104a2818585610aed565b600191505092915050565b6000600254905090565b6000806104c2610ae5565b90506104cf858285610cb6565b6104da858585610d42565b60019150509392505050565b60006012905090565b6000806104fa610ae5565b905061051b81858561050c8589610967565b610516919061158b565b610aed565b600191505092915050565b61052e610ae5565b73ffffffffffffffffffffffffffffffffffffffff1661054c610811565b73ffffffffffffffffffffffffffffffffffffffff16146105a2576040517f08c379a00000000000000000000000000000000000000000000000000000000081526004016105999061160b565b60405180910390fd5b600047116105e5576040517f08c379a00000000000000000000000000000000000000000000000000000000081526004016105dc90611677565b60405180910390fd5b3373ffffffffffffffffffffffffffffffffffffffff166108fc479081150290604051600060405180830381858888f1935050505015801561062b573d6000803e3d6000fd5b50565b6006546106396104ad565b111561067a576040517f08c379a0000000000000000000000000000000000000000000000000000000008152600401610671906116e3565b60405180910390fd5b670de0b6b3a76400003410156106c5576040517f08c379a00000000000000000000000000000000000000000000000000000000081526004016106bc9061174f565b60405180910390fd5b3073ffffffffffffffffffffffffffffffffffffffff166108fc670de0b6b3a76400009081150290604051600060405180830381858888f19350505050158015610713573d6000803e3d6000fd5b5061073e816107206104e6565b600a61072c91906118a2565b6103e861073991906118ed565b610fc1565b50565b60008060008373ffffffffffffffffffffffffffffffffffffffff1673ffffffffffffffffffffffffffffffffffffffff168152602001908152602001600020549050919050565b610791610ae5565b73ffffffffffffffffffffffffffffffffffffffff166107af610811565b73ffffffffffffffffffffffffffffffffffffffff1614610805576040517f08c379a00000000000000000000000000000000000000000000000000000000081526004016107fc9061160b565b60405180910390fd5b61080f6000611120565b565b6000600560009054906101000a900473ffffffffffffffffffffffffffffffffffffffff16905090565b60606004805461084a9061152b565b80601f01602080910402602001604051908101604052809291908181526020018280546108769061152b565b80156108c35780601f10610898576101008083540402835291602001916108c3565b820191906000526020600020905b8154815290600101906020018083116108a657829003601f168201915b5050505050905090565b6000806108d8610ae5565b905060006108e68286610967565b90508381101561092b576040517f08c379a0000000000000000000000000000000000000000000000000000000008152600401610922906119a1565b60405180910390fd5b6109388286868403610aed565b60019250505092915050565b60008061094f610ae5565b905061095c818585610d42565b600191505092915050565b6000600160008473ffffffffffffffffffffffffffffffffffffffff1673ffffffffffffffffffffffffffffffffffffffff16815260200190815260200160002060008373ffffffffffffffffffffffffffffffffffffffff1673ffffffffffffffffffffffffffffffffffffffff16815260200190815260200160002054905092915050565b6109f6610ae5565b73ffffffffffffffffffffffffffffffffffffffff16610a14610811565b73ffffffffffffffffffffffffffffffffffffffff1614610a6a576040517f08c379a0000000000000000000000000000000000000000000000000000000008152600401610a619061160b565b60405180910390fd5b600073ffffffffffffffffffffffffffffffffffffffff168173ffffffffffffffffffffffffffffffffffffffff1603610ad9576040517f08c379a0000000000000000000000000000000000000000000000000000000008152600401610ad090611a33565b60405180910390fd5b610ae281611120565b50565b600033905090565b600073ffffffffffffffffffffffffffffffffffffffff168373ffffffffffffffffffffffffffffffffffffffff1603610b5c576040517f08c379a0000000000000000000000000000000000000000000000000000000008152600401610b5390611ac5565b60405180910390fd5b600073ffffffffffffffffffffffffffffffffffffffff168273ffffffffffffffffffffffffffffffffffffffff1603610bcb576040517f08c379a0000000000000000000000000000000000000000000000000000000008152600401610bc290611b57565b60405180910390fd5b80600160008573ffffffffffffffffffffffffffffffffffffffff1673ffffffffffffffffffffffffffffffffffffffff16815260200190815260200160002060008473ffffffffffffffffffffffffffffffffffffffff1673ffffffffffffffffffffffffffffffffffffffff168152602001908152602001600020819055508173ffffffffffffffffffffffffffffffffffffffff168373ffffffffffffffffffffffffffffffffffffffff167f8c5be1e5ebec7d5bd14f71427d1e84f3dd0314c0f7b2291e5b200ac8c7c3b92583604051610ca991906113c0565b60405180910390a3505050565b6000610cc28484610967565b90507fffffffffffffffffffffffffffffffffffffffffffffffffffffffffffffffff8114610d3c5781811015610d2e576040517f08c379a0000000000000000000000000000000000000000000000000000000008152600401610d2590611bc3565b60405180910390fd5b610d3b8484848403610aed565b5b50505050565b600073ffffffffffffffffffffffffffffffffffffffff168373ffffffffffffffffffffffffffffffffffffffff1603610db1576040517f08c379a0000000000000000000000000000000000000000000000000000000008152600401610da890611c55565b60405180910390fd5b600073ffffffffffffffffffffffffffffffffffffffff168273ffffffffffffffffffffffffffffffffffffffff1603610e20576040517f08c379a0000000000000000000000000000000000000000000000000000000008152600401610e1790611ce7565b60405180910390fd5b610e2b8383836111e6565b60008060008573ffffffffffffffffffffffffffffffffffffffff1673ffffffffffffffffffffffffffffffffffffffff16815260200190815260200160002054905081811015610eb1576040517f08c379a0000000000000000000000000000000000000000000000000000000008152600401610ea890611d79565b60405180910390fd5b8181036000808673ffffffffffffffffffffffffffffffffffffffff1673ffffffffffffffffffffffffffffffffffffffff16815260200190815260200160002081905550816000808573ffffffffffffffffffffffffffffffffffffffff1673ffffffffffffffffffffffffffffffffffffffff1681526020019081526020016000206000828254610f44919061158b565b925050819055508273ffffffffffffffffffffffffffffffffffffffff168473ffffffffffffffffffffffffffffffffffffffff167fddf252ad1be2c89b69c2b068fc378daa952ba7f163c4a11628f55a4df523b3ef84604051610fa891906113c0565b60405180910390a3610fbb8484846111eb565b50505050565b600073ffffffffffffffffffffffffffffffffffffffff168273ffffffffffffffffffffffffffffffffffffffff1603611030576040517f08c379a000000000000000000000000000000000000000000000000000000000815260040161102790611de5565b60405180910390fd5b61103c600083836111e6565b806002600082825461104e919061158b565b92505081905550806000808473ffffffffffffffffffffffffffffffffffffffff1673ffffffffffffffffffffffffffffffffffffffff16815260200190815260200160002060008282546110a3919061158b565b925050819055508173ffffffffffffffffffffffffffffffffffffffff16600073ffffffffffffffffffffffffffffffffffffffff167fddf252ad1be2c89b69c2b068fc378daa952ba7f163c4a11628f55a4df523b3ef8360405161110891906113c0565b60405180910390a361111c600083836111eb565b5050565b6000600560009054906101000a900473ffffffffffffffffffffffffffffffffffffffff16905081600560006101000a81548173ffffffffffffffffffffffffffffffffffffffff021916908373ffffffffffffffffffffffffffffffffffffffff1602179055508173ffffffffffffffffffffffffffffffffffffffff168173ffffffffffffffffffffffffffffffffffffffff167f8be0079c531659141344cd1fd0a4f28419497f9722a3daafe3b4186f6b6457e060405160405180910390a35050565b505050565b505050565b600081519050919050565b600082825260208201905092915050565b60005b8381101561122a57808201518184015260208101905061120f565b60008484015250505050565b6000601f19601f8301169050919050565b6000611252826111f0565b61125c81856111fb565b935061126c81856020860161120c565b61127581611236565b840191505092915050565b6000602082019050818103600083015261129a8184611247565b905092915050565b600080fd5b600073ffffffffffffffffffffffffffffffffffffffff82169050919050565b60006112d2826112a7565b9050919050565b6112e2816112c7565b81146112ed57600080fd5b50565b6000813590506112ff816112d9565b92915050565b6000819050919050565b61131881611305565b811461132357600080fd5b50565b6000813590506113358161130f565b92915050565b60008060408385031215611352576113516112a2565b5b6000611360858286016112f0565b925050602061137185828601611326565b9150509250929050565b60008115159050919050565b6113908161137b565b82525050565b60006020820190506113ab6000830184611387565b92915050565b6113ba81611305565b82525050565b60006020820190506113d560008301846113b1565b92915050565b6000806000606084860312156113f4576113f36112a2565b5b6000611402868287016112f0565b9350506020611413868287016112f0565b925050604061142486828701611326565b9150509250925092565b600060ff82169050919050565b6114448161142e565b82525050565b600060208201905061145f600083018461143b565b92915050565b60006020828403121561147b5761147a6112a2565b5b6000611489848285016112f0565b91505092915050565b61149b816112c7565b82525050565b60006020820190506114b66000830184611492565b92915050565b600080604083850312156114d3576114d26112a2565b5b60006114e1858286016112f0565b92505060206114f2858286016112f0565b9150509250929050565b7f4e487b7100000000000000000000000000000000000000000000000000000000600052602260045260246000fd5b6000600282049050600182168061154357607f821691505b602082108103611556576115556114fc565b5b50919050565b7f4e487b7100000000000000000000000000000000000000000000000000000000600052601160045260246000fd5b600061159682611305565b91506115a183611305565b92508282019050808211156115b9576115b861155c565b5b92915050565b7f4f776e61626c653a2063616c6c6572206973206e6f7420746865206f776e6572600082015250565b60006115f56020836111fb565b9150611600826115bf565b602082019050919050565b60006020820190508181036000830152611624816115e8565b9050919050565b7f436f6e747261637420686173206e6f2065746865720000000000000000000000600082015250565b60006116616015836111fb565b915061166c8261162b565b602082019050919050565b6000602082019050818103600083015261169081611654565b9050919050565b7f546f74616c537570706c792065786365656473206c696d697400000000000000600082015250565b60006116cd6019836111fb565b91506116d882611697565b602082019050919050565b600060208201905081810360008301526116fc816116c0565b9050919050565b7f4e6f7420656e6f75746820657468657200000000000000000000000000000000600082015250565b60006117396010836111fb565b915061174482611703565b602082019050919050565b600060208201905081810360008301526117688161172c565b9050919050565b60008160011c9050919050565b6000808291508390505b60018511156117c6578086048111156117a2576117a161155c565b5b60018516156117b15780820291505b80810290506117bf8561176f565b9450611786565b94509492505050565b6000826117df576001905061189b565b816117ed576000905061189b565b8160018114611803576002811461180d5761183c565b600191505061189b565b60ff84111561181f5761181e61155c565b5b8360020a9150848211156118365761183561155c565b5b5061189b565b5060208310610133831016604e8410600b84101617156118715782820a90508381111561186c5761186b61155c565b5b61189b565b61187e848484600161177c565b925090508184048111156118955761189461155c565b5b81810290505b9392505050565b60006118ad82611305565b91506118b88361142e565b92506118e57fffffffffffffffffffffffffffffffffffffffffffffffffffffffffffffffff84846117cf565b905092915050565b60006118f882611305565b915061190383611305565b925082820261191181611305565b915082820484148315176119285761192761155c565b5b5092915050565b7f45524332303a2064656372656173656420616c6c6f77616e63652062656c6f7760008201527f207a65726f000000000000000000000000000000000000000000000000000000602082015250565b600061198b6025836111fb565b91506119968261192f565b604082019050919050565b600060208201905081810360008301526119ba8161197e565b9050919050565b7f4f776e61626c653a206e6577206f776e657220697320746865207a65726f206160008201527f6464726573730000000000000000000000000000000000000000000000000000602082015250565b6000611a1d6026836111fb565b9150611a28826119c1565b604082019050919050565b60006020820190508181036000830152611a4c81611a10565b9050919050565b7f45524332303a20617070726f76652066726f6d20746865207a65726f2061646460008201527f7265737300000000000000000000000000000000000000000000000000000000602082015250565b6000611aaf6024836111fb565b9150611aba82611a53565b604082019050919050565b60006020820190508181036000830152611ade81611aa2565b9050919050565b7f45524332303a20617070726f766520746f20746865207a65726f20616464726560008201527f7373000000000000000000000000000000000000000000000000000000000000602082015250565b6000611b416022836111fb565b9150611b4c82611ae5565b604082019050919050565b60006020820190508181036000830152611b7081611b34565b9050919050565b7f45524332303a20696e73756666696369656e7420616c6c6f77616e6365000000600082015250565b6000611bad601d836111fb565b9150611bb882611b77565b602082019050919050565b60006020820190508181036000830152611bdc81611ba0565b9050919050565b7f45524332303a207472616e736665722066726f6d20746865207a65726f20616460008201527f6472657373000000000000000000000000000000000000000000000000000000602082015250565b6000611c3f6025836111fb565b9150611c4a82611be3565b604082019050919050565b60006020820190508181036000830152611c6e81611c32565b9050919050565b7f45524332303a207472616e7366657220746f20746865207a65726f206164647260008201527f6573730000000000000000000000000000000000000000000000000000000000602082015250565b6000611cd16023836111fb565b9150611cdc82611c75565b604082019050919050565b60006020820190508181036000830152611d0081611cc4565b9050919050565b7f45524332303a207472616e7366657220616d6f756e742065786365656473206260008201527f616c616e63650000000000000000000000000000000000000000000000000000602082015250565b6000611d636026836111fb565b9150611d6e82611d07565b604082019050919050565b60006020820190508181036000830152611d9281611d56565b9050919050565b7f45524332303a206d696e7420746f20746865207a65726f206164647265737300600082015250565b6000611dcf601f836111fb565b9150611dda82611d99565b602082019050919050565b60006020820190508181036000830152611dfe81611dc2565b905091905056fea2646970667358221220dc6824a11ead0bbe0d3e8f12c45e436f024e68fa4e2dc3370d3a27c43e5af8f364736f6c63430008120033",
  "linkReferences": {},
  "deployedLinkReferences": {}
}