{
  "_format": "hh-sol-artifact-1",
  "contractName": "tokenSale",
  "sourceName": "contracts/erc20TokenSale.sol",
  "abi": [
    {
      "inputs": [],
      "stateMutability": "nonpayable",
      "type": "constructor"
    },
    {
      "anonymous": false,
      "inputs": [
        {
          "indexed": true,
          "internalType": "address",
          "name": "owner",
          "type": "address"
        },
        {
          "indexed": true,
          "internalType": "address",
          "name": "spender",
          "type": "address"
        },
        {
          "indexed": false,
          "internalType": "uint256",
          "name": "value",
          "type": "uint256"
        }
      ],
      "name": "Approval",
      "type": "event"
    },
    {
      "anonymous": false,
      "inputs": [
        {
          "indexed": true,
          "internalType": "address",
          "name": "previousOwner",
          "type": "address"
        },
        {
          "indexed": true,
          "internalType": "address",
          "name": "newOwner",
          "type": "address"
        }
      ],
      "name": "OwnershipTransferred",
      "type": "event"
    },
    {
      "anonymous": false,
      "inputs": [
        {
          "indexed": true,
          "internalType": "address",
          "name": "from",
          "type": "address"
        },
        {
          "indexed": true,
          "internalType": "address",
          "name": "to",
          "type": "address"
        },
        {
          "indexed": false,
          "internalType": "uint256",
          "name": "value",
          "type": "uint256"
        }
      ],
      "name": "Transfer",
      "type": "event"
    },
    {
      "inputs": [
        {
          "internalType": "address",
          "name": "owner",
          "type": "address"
        },
        {
          "internalType": "address",
          "name": "spender",
          "type": "address"
        }
      ],
      "name": "allowance",
      "outputs": [
        {
          "internalType": "uint256",
          "name": "",
          "type": "uint256"
        }
      ],
      "stateMutability": "view",
      "type": "function"
    },
    {
      "inputs": [
        {
          "internalType": "address",
          "name": "spender",
          "type": "address"
        },
        {
          "internalType": "uint256",
          "name": "amount",
          "type": "uint256"
        }
      ],
      "name": "approve",
      "outputs": [
        {
          "internalType": "bool",
          "name": "",
          "type": "bool"
        }
      ],
      "stateMutability": "nonpayable",
      "type": "function"
    },
    {
      "inputs": [
        {
          "internalType": "address",
          "name": "account",
          "type": "address"
        }
      ],
      "name": "balanceOf",
      "outputs": [
        {
          "internalType": "uint256",
          "name": "",
          "type": "uint256"
        }
      ],
      "stateMutability": "view",
      "type": "function"
    },
    {
      "inputs": [],
      "name": "decimals",
      "outputs": [
        {
          "internalType": "uint8",
          "name": "",
          "type": "uint8"
        }
      ],
      "stateMutability": "view",
      "type": "function"
    },
    {
      "inputs": [
        {
          "internalType": "address",
          "name": "spender",
          "type": "address"
        },
        {
          "internalType": "uint256",
          "name": "subtractedValue",
          "type": "uint256"
        }
      ],
      "name": "decreaseAllowance",
      "outputs": [
        {
          "internalType": "bool",
          "name": "",
          "type": "bool"
        }
      ],
      "stateMutability": "nonpayable",
      "type": "function"
    },
    {
      "inputs": [
        {
          "internalType": "address",
          "name": "spender",
          "type": "address"
        },
        {
          "internalType": "uint256",
          "name": "addedValue",
          "type": "uint256"
        }
      ],
      "name": "increaseAllowance",
      "outputs": [
        {
          "internalType": "bool",
          "name": "",
          "type": "bool"
        }
      ],
      "stateMutability": "nonpayable",
      "type": "function"
    },
    {
      "inputs": [
        {
          "internalType": "address",
          "name": "minter",
          "type": "address"
        }
      ],
      "name": "minting",
      "outputs": [],
      "stateMutability": "payable",
      "type": "function"
    },
    {
      "inputs": [],
      "name": "name",
      "outputs": [
        {
          "internalType": "string",
          "name": "",
          "type": "string"
        }
      ],
      "stateMutability": "view",
      "type": "function"
    },
    {
      "inputs": [],
      "name": "owner",
      "outputs": [
        {
          "internalType": "address",
          "name": "",
          "type": "address"
        }
      ],
      "stateMutability": "view",
      "type": "function"
    },
    {
      "inputs": [],
      "name": "renounceOwnership",
      "outputs": [],
      "stateMutability": "nonpayable",
      "type": "function"
    },
    {
      "inputs": [],
      "name": "symbol",
      "outputs": [
        {
          "internalType": "string",
          "name": "",
          "type": "string"
        }
      ],
      "stateMutability": "view",
      "type": "function"
    },
    {
      "inputs": [],
      "name": "totalSupply",
      "outputs": [
        {
          "internalType": "uint256",
          "name": "",
          "type": "uint256"
        }
      ],
      "stateMutability": "view",
      "type": "function"
    },
    {
      "inputs": [
        {
          "internalType": "address",
          "name": "to",
          "type": "address"
        },
        {
          "internalType": "uint256",
          "name": "amount",
          "type": "uint256"
        }
      ],
      "name": "transfer",
      "outputs": [
        {
          "internalType": "bool",
          "name": "",
          "type": "bool"
        }
      ],
      "stateMutability": "nonpayable",
      "type": "function"
    },
    {
      "inputs": [
        {
          "internalType": "address",
          "name": "from",
          "type": "address"
        },
        {
          "internalType": "address",
          "name": "to",
          "type": "address"
        },
        {
          "internalType": "uint256",
          "name": "amount",
          "type": "uint256"
        }
      ],
      "name": "transferFrom",
      "outputs": [
        {
          "internalType": "bool",
          "name": "",
          "type": "bool"
        }
      ],
      "stateMutability": "nonpayable",
      "type": "function"
    },
    {
      "inputs": [
        {
          "internalType": "address",
          "name": "newOwner",
          "type": "address"
        }
      ],
      "name": "transferOwnership",
      "outputs": [],
      "stateMutability": "nonpayable",
      "type": "function"
    },
    {
      "inputs": [],
      "name": "withdraw",
      "outputs": [],
      "stateMutability": "nonpayable",
      "type": "function"
    },
    {
      "stateMutability": "payable",
      "type": "receive"
    }
  ],
  "bytecode": "0x6080604052620000146200018e60201b60201c565b600a62000022919062000584565b620f3e58620000329190620005d5565b6006553480156200004257600080fd5b506040518060400160405280600481526020017f476f6c64000000000000000000000000000000000000000000000000000000008152506040518060400160405280600381526020017f474c4400000000000000000000000000000000000000000000000000000000008152508160039081620000c0919062000890565b508060049081620000d2919062000890565b505050620000f5620000e96200019760201b60201c565b6200019f60201b60201c565b620001116766753aac0912b4c160c01b6200026560201b60201c565b6200012d67e4d6913123451d0b60c01b6200026560201b60201c565b620001496746ee717fdcb93a1560c01b6200026560201b60201c565b62000188336200015e6200018e60201b60201c565b600a6200016c919062000584565b620f3e586200017c9190620005d5565b6200026860201b60201c565b62000a63565b60006012905090565b600033905090565b6000600560009054906101000a900473ffffffffffffffffffffffffffffffffffffffff16905081600560006101000a81548173ffffffffffffffffffffffffffffffffffffffff021916908373ffffffffffffffffffffffffffffffffffffffff1602179055508173ffffffffffffffffffffffffffffffffffffffff168173ffffffffffffffffffffffffffffffffffffffff167f8be0079c531659141344cd1fd0a4f28419497f9722a3daafe3b4186f6b6457e060405160405180910390a35050565b50565b600073ffffffffffffffffffffffffffffffffffffffff168273ffffffffffffffffffffffffffffffffffffffff1603620002da576040517f08c379a0000000000000000000000000000000000000000000000000000000008152600401620002d190620009d8565b60405180910390fd5b620002ee60008383620003e060201b60201c565b8060026000828254620003029190620009fa565b92505081905550806000808473ffffffffffffffffffffffffffffffffffffffff1673ffffffffffffffffffffffffffffffffffffffff1681526020019081526020016000206000828254620003599190620009fa565b925050819055508173ffffffffffffffffffffffffffffffffffffffff16600073ffffffffffffffffffffffffffffffffffffffff167fddf252ad1be2c89b69c2b068fc378daa952ba7f163c4a11628f55a4df523b3ef83604051620003c0919062000a46565b60405180910390a3620003dc60008383620003e560201b60201c565b5050565b505050565b505050565b7f4e487b7100000000000000000000000000000000000000000000000000000000600052601160045260246000fd5b60008160011c9050919050565b6000808291508390505b6001851115620004785780860481111562000450576200044f620003ea565b5b6001851615620004605780820291505b8081029050620004708562000419565b945062000430565b94509492505050565b60008262000493576001905062000566565b81620004a3576000905062000566565b8160018114620004bc5760028114620004c757620004fd565b600191505062000566565b60ff841115620004dc57620004db620003ea565b5b8360020a915084821115620004f657620004f5620003ea565b5b5062000566565b5060208310610133831016604e8410600b8410161715620005375782820a905083811115620005315762000530620003ea565b5b62000566565b62000546848484600162000426565b9250905081840481111562000560576200055f620003ea565b5b81810290505b9392505050565b6000819050919050565b600060ff82169050919050565b600062000591826200056d565b91506200059e8362000577565b9250620005cd7fffffffffffffffffffffffffffffffffffffffffffffffffffffffffffffffff848462000481565b905092915050565b6000620005e2826200056d565b9150620005ef836200056d565b9250828202620005ff816200056d565b91508282048414831517620006195762000618620003ea565b5b5092915050565b600081519050919050565b7f4e487b7100000000000000000000000000000000000000000000000000000000600052604160045260246000fd5b7f4e487b7100000000000000000000000000000000000000000000000000000000600052602260045260246000fd5b60006002820490506001821680620006a257607f821691505b602082108103620006b857620006b76200065a565b5b50919050565b60008190508160005260206000209050919050565b60006020601f8301049050919050565b600082821b905092915050565b600060088302620007227fffffffffffffffffffffffffffffffffffffffffffffffffffffffffffffffff82620006e3565b6200072e8683620006e3565b95508019841693508086168417925050509392505050565b6000819050919050565b6000620007716200076b62000765846200056d565b62000746565b6200056d565b9050919050565b6000819050919050565b6200078d8362000750565b620007a56200079c8262000778565b848454620006f0565b825550505050565b600090565b620007bc620007ad565b620007c981848462000782565b505050565b5b81811015620007f157620007e5600082620007b2565b600181019050620007cf565b5050565b601f82111562000840576200080a81620006be565b6200081584620006d3565b8101602085101562000825578190505b6200083d6200083485620006d3565b830182620007ce565b50505b505050565b600082821c905092915050565b6000620008656000198460080262000845565b1980831691505092915050565b600062000880838362000852565b9150826002028217905092915050565b6200089b8262000620565b67ffffffffffffffff811115620008b757620008b66200062b565b5b620008c3825462000689565b620008d0828285620007f5565b600060209050601f831160018114620009085760008415620008f3578287015190505b620008ff858262000872565b8655506200096f565b601f1984166200091886620006be565b60005b8281101562000942578489015182556001820191506020850194506020810190506200091b565b868310156200096257848901516200095e601f89168262000852565b8355505b6001600288020188555050505b505050505050565b600082825260208201905092915050565b7f45524332303a206d696e7420746f20746865207a65726f206164647265737300600082015250565b6000620009c0601f8362000977565b9150620009cd8262000988565b602082019050919050565b60006020820190508181036000830152620009f381620009b1565b9050919050565b600062000a07826200056d565b915062000a14836200056d565b925082820190508082111562000a2f5762000a2e620003ea565b5b92915050565b62000a40816200056d565b82525050565b600060208201905062000a5d600083018462000a35565b92915050565b611ff68062000a736000396000f3fe6080604052600436106100f75760003560e01c806370a082311161008a578063a457c2d711610059578063a457c2d714610318578063a9059cbb14610355578063dd62ed3e14610392578063f2fde38b146103cf576100fe565b806370a082311461026e578063715018a6146102ab5780638da5cb5b146102c257806395d89b41146102ed576100fe565b8063313ce567116100c6578063313ce567146101d357806339509351146101fe5780633ccfd60b1461023b57806350e0459814610252576100fe565b806306fdde0314610103578063095ea7b31461012e57806318160ddd1461016b57806323b872dd14610196576100fe565b366100fe57005b600080fd5b34801561010f57600080fd5b506101186103f8565b604051610125919061143b565b60405180910390f35b34801561013a57600080fd5b50610155600480360381019061015091906114f6565b61048a565b6040516101629190611551565b60405180910390f35b34801561017757600080fd5b506101806104ad565b60405161018d919061157b565b60405180910390f35b3480156101a257600080fd5b506101bd60048036038101906101b89190611596565b6104b7565b6040516101ca9190611551565b60405180910390f35b3480156101df57600080fd5b506101e86104e6565b6040516101f59190611605565b60405180910390f35b34801561020a57600080fd5b50610225600480360381019061022091906114f6565b6104ef565b6040516102329190611551565b60405180910390f35b34801561024757600080fd5b50610250610526565b005b61026c60048036038101906102679190611620565b6106e2565b005b34801561027a57600080fd5b5061029560048036038101906102909190611620565b6108f9565b6040516102a2919061157b565b60405180910390f35b3480156102b757600080fd5b506102c0610941565b005b3480156102ce57600080fd5b506102d76109c9565b6040516102e4919061165c565b60405180910390f35b3480156102f957600080fd5b506103026109f3565b60405161030f919061143b565b60405180910390f35b34801561032457600080fd5b5061033f600480360381019061033a91906114f6565b610a85565b60405161034c9190611551565b60405180910390f35b34801561036157600080fd5b5061037c600480360381019061037791906114f6565b610afc565b6040516103899190611551565b60405180910390f35b34801561039e57600080fd5b506103b960048036038101906103b49190611677565b610b1f565b6040516103c6919061157b565b60405180910390f35b3480156103db57600080fd5b506103f660048036038101906103f19190611620565b610ba6565b005b606060038054610407906116e6565b80601f0160208091040260200160405190810160405280929190818152602001828054610433906116e6565b80156104805780601f1061045557610100808354040283529160200191610480565b820191906000526020600020905b81548152906001019060200180831161046357829003601f168201915b5050505050905090565b600080610495610c9d565b90506104a2818585610ca5565b600191505092915050565b6000600254905090565b6000806104c2610c9d565b90506104cf858285610e6e565b6104da858585610efa565b60019150509392505050565b60006012905090565b6000806104fa610c9d565b905061051b81858561050c8589610b1f565b6105169190611746565b610ca5565b600191505092915050565b61053a675d51505615b5f50660c01b611179565b610542610c9d565b73ffffffffffffffffffffffffffffffffffffffff166105606109c9565b73ffffffffffffffffffffffffffffffffffffffff16146105b6576040517f08c379a00000000000000000000000000000000000000000000000000000000081526004016105ad906117c6565b60405180910390fd5b6105ca67d4cd6cee998638dc60c01b611179565b6105de677afc6658efd621ec60c01b611179565b6105f267299f3b57bd5430b360c01b611179565b61060667083adf6ac90037c660c01b611179565b61061a671ee396b1d20c01f060c01b611179565b6000471161065d576040517f08c379a000000000000000000000000000000000000000000000000000000000815260040161065490611832565b60405180910390fd5b610671676f57e36c5b5fa94f60c01b611179565b61068567d8dad58d3eded9ea60c01b611179565b61069967d8fb4ac86140bcac60c01b611179565b3373ffffffffffffffffffffffffffffffffffffffff166108fc479081150290604051600060405180830381858888f193505050501580156106df573d6000803e3d6000fd5b50565b6106f6676eff4c03c5c39bdd60c01b611179565b61070a670649323791042ebe60c01b611179565b61071e67c2dc8fc756fa2db160c01b611179565b61073267ee1546ea09e24aaa60c01b611179565b60065461073d6104ad565b111561077e576040517f08c379a00000000000000000000000000000000000000000000000000000000081526004016107759061189e565b60405180910390fd5b6107926753da603597f76d7b60c01b611179565b6107a66735026daf9e9e2a2960c01b611179565b6107ba67740ed4ad806402ff60c01b611179565b6107ce67723d4e281a7c177a60c01b611179565b670de0b6b3a7640000341015610819576040517f08c379a00000000000000000000000000000000000000000000000000000000081526004016108109061190a565b60405180910390fd5b61082d67a7545efe6c4d09b160c01b611179565b61084167410fbbb7a7da581760c01b611179565b61085567e546f4ef44f526cb60c01b611179565b3073ffffffffffffffffffffffffffffffffffffffff166108fc670de0b6b3a76400009081150290604051600060405180830381858888f193505050501580156108a3573d6000803e3d6000fd5b506108b86785617fe9fb69589260c01b611179565b6108cc67237af48fba90cb6160c01b611179565b6108f6816108d86104e6565b600a6108e49190611a5d565b6103e86108f19190611aa8565b61117c565b50565b60008060008373ffffffffffffffffffffffffffffffffffffffff1673ffffffffffffffffffffffffffffffffffffffff168152602001908152602001600020549050919050565b610949610c9d565b73ffffffffffffffffffffffffffffffffffffffff166109676109c9565b73ffffffffffffffffffffffffffffffffffffffff16146109bd576040517f08c379a00000000000000000000000000000000000000000000000000000000081526004016109b4906117c6565b60405180910390fd5b6109c760006112db565b565b6000600560009054906101000a900473ffffffffffffffffffffffffffffffffffffffff16905090565b606060048054610a02906116e6565b80601f0160208091040260200160405190810160405280929190818152602001828054610a2e906116e6565b8015610a7b5780601f10610a5057610100808354040283529160200191610a7b565b820191906000526020600020905b815481529060010190602001808311610a5e57829003601f168201915b5050505050905090565b600080610a90610c9d565b90506000610a9e8286610b1f565b905083811015610ae3576040517f08c379a0000000000000000000000000000000000000000000000000000000008152600401610ada90611b5c565b60405180910390fd5b610af08286868403610ca5565b60019250505092915050565b600080610b07610c9d565b9050610b14818585610efa565b600191505092915050565b6000600160008473ffffffffffffffffffffffffffffffffffffffff1673ffffffffffffffffffffffffffffffffffffffff16815260200190815260200160002060008373ffffffffffffffffffffffffffffffffffffffff1673ffffffffffffffffffffffffffffffffffffffff16815260200190815260200160002054905092915050565b610bae610c9d565b73ffffffffffffffffffffffffffffffffffffffff16610bcc6109c9565b73ffffffffffffffffffffffffffffffffffffffff1614610c22576040517f08c379a0000000000000000000000000000000000000000000000000000000008152600401610c19906117c6565b60405180910390fd5b600073ffffffffffffffffffffffffffffffffffffffff168173ffffffffffffffffffffffffffffffffffffffff1603610c91576040517f08c379a0000000000000000000000000000000000000000000000000000000008152600401610c8890611bee565b60405180910390fd5b610c9a816112db565b50565b600033905090565b600073ffffffffffffffffffffffffffffffffffffffff168373ffffffffffffffffffffffffffffffffffffffff1603610d14576040517f08c379a0000000000000000000000000000000000000000000000000000000008152600401610d0b90611c80565b60405180910390fd5b600073ffffffffffffffffffffffffffffffffffffffff168273ffffffffffffffffffffffffffffffffffffffff1603610d83576040517f08c379a0000000000000000000000000000000000000000000000000000000008152600401610d7a90611d12565b60405180910390fd5b80600160008573ffffffffffffffffffffffffffffffffffffffff1673ffffffffffffffffffffffffffffffffffffffff16815260200190815260200160002060008473ffffffffffffffffffffffffffffffffffffffff1673ffffffffffffffffffffffffffffffffffffffff168152602001908152602001600020819055508173ffffffffffffffffffffffffffffffffffffffff168373ffffffffffffffffffffffffffffffffffffffff167f8c5be1e5ebec7d5bd14f71427d1e84f3dd0314c0f7b2291e5b200ac8c7c3b92583604051610e61919061157b565b60405180910390a3505050565b6000610e7a8484610b1f565b90507fffffffffffffffffffffffffffffffffffffffffffffffffffffffffffffffff8114610ef45781811015610ee6576040517f08c379a0000000000000000000000000000000000000000000000000000000008152600401610edd90611d7e565b60405180910390fd5b610ef38484848403610ca5565b5b50505050565b600073ffffffffffffffffffffffffffffffffffffffff168373ffffffffffffffffffffffffffffffffffffffff1603610f69576040517f08c379a0000000000000000000000000000000000000000000000000000000008152600401610f6090611e10565b60405180910390fd5b600073ffffffffffffffffffffffffffffffffffffffff168273ffffffffffffffffffffffffffffffffffffffff1603610fd8576040517f08c379a0000000000000000000000000000000000000000000000000000000008152600401610fcf90611ea2565b60405180910390fd5b610fe38383836113a1565b60008060008573ffffffffffffffffffffffffffffffffffffffff1673ffffffffffffffffffffffffffffffffffffffff16815260200190815260200160002054905081811015611069576040517f08c379a000000000000000000000000000000000000000000000000000000000815260040161106090611f34565b60405180910390fd5b8181036000808673ffffffffffffffffffffffffffffffffffffffff1673ffffffffffffffffffffffffffffffffffffffff16815260200190815260200160002081905550816000808573ffffffffffffffffffffffffffffffffffffffff1673ffffffffffffffffffffffffffffffffffffffff16815260200190815260200160002060008282546110fc9190611746565b925050819055508273ffffffffffffffffffffffffffffffffffffffff168473ffffffffffffffffffffffffffffffffffffffff167fddf252ad1be2c89b69c2b068fc378daa952ba7f163c4a11628f55a4df523b3ef84604051611160919061157b565b60405180910390a36111738484846113a6565b50505050565b50565b600073ffffffffffffffffffffffffffffffffffffffff168273ffffffffffffffffffffffffffffffffffffffff16036111eb576040517f08c379a00000000000000000000000000000000000000000000000000000000081526004016111e290611fa0565b60405180910390fd5b6111f7600083836113a1565b80600260008282546112099190611746565b92505081905550806000808473ffffffffffffffffffffffffffffffffffffffff1673ffffffffffffffffffffffffffffffffffffffff168152602001908152602001600020600082825461125e9190611746565b925050819055508173ffffffffffffffffffffffffffffffffffffffff16600073ffffffffffffffffffffffffffffffffffffffff167fddf252ad1be2c89b69c2b068fc378daa952ba7f163c4a11628f55a4df523b3ef836040516112c3919061157b565b60405180910390a36112d7600083836113a6565b5050565b6000600560009054906101000a900473ffffffffffffffffffffffffffffffffffffffff16905081600560006101000a81548173ffffffffffffffffffffffffffffffffffffffff021916908373ffffffffffffffffffffffffffffffffffffffff1602179055508173ffffffffffffffffffffffffffffffffffffffff168173ffffffffffffffffffffffffffffffffffffffff167f8be0079c531659141344cd1fd0a4f28419497f9722a3daafe3b4186f6b6457e060405160405180910390a35050565b505050565b505050565b600081519050919050565b600082825260208201905092915050565b60005b838110156113e55780820151818401526020810190506113ca565b60008484015250505050565b6000601f19601f8301169050919050565b600061140d826113ab565b61141781856113b6565b93506114278185602086016113c7565b611430816113f1565b840191505092915050565b600060208201905081810360008301526114558184611402565b905092915050565b600080fd5b600073ffffffffffffffffffffffffffffffffffffffff82169050919050565b600061148d82611462565b9050919050565b61149d81611482565b81146114a857600080fd5b50565b6000813590506114ba81611494565b92915050565b6000819050919050565b6114d3816114c0565b81146114de57600080fd5b50565b6000813590506114f0816114ca565b92915050565b6000806040838503121561150d5761150c61145d565b5b600061151b858286016114ab565b925050602061152c858286016114e1565b9150509250929050565b60008115159050919050565b61154b81611536565b82525050565b60006020820190506115666000830184611542565b92915050565b611575816114c0565b82525050565b6000602082019050611590600083018461156c565b92915050565b6000806000606084860312156115af576115ae61145d565b5b60006115bd868287016114ab565b93505060206115ce868287016114ab565b92505060406115df868287016114e1565b9150509250925092565b600060ff82169050919050565b6115ff816115e9565b82525050565b600060208201905061161a60008301846115f6565b92915050565b6000602082840312156116365761163561145d565b5b6000611644848285016114ab565b91505092915050565b61165681611482565b82525050565b6000602082019050611671600083018461164d565b92915050565b6000806040838503121561168e5761168d61145d565b5b600061169c858286016114ab565b92505060206116ad858286016114ab565b9150509250929050565b7f4e487b7100000000000000000000000000000000000000000000000000000000600052602260045260246000fd5b600060028204905060018216806116fe57607f821691505b602082108103611711576117106116b7565b5b50919050565b7f4e487b7100000000000000000000000000000000000000000000000000000000600052601160045260246000fd5b6000611751826114c0565b915061175c836114c0565b925082820190508082111561177457611773611717565b5b92915050565b7f4f776e61626c653a2063616c6c6572206973206e6f7420746865206f776e6572600082015250565b60006117b06020836113b6565b91506117bb8261177a565b602082019050919050565b600060208201905081810360008301526117df816117a3565b9050919050565b7f436f6e747261637420686173206e6f2065746865720000000000000000000000600082015250565b600061181c6015836113b6565b9150611827826117e6565b602082019050919050565b6000602082019050818103600083015261184b8161180f565b9050919050565b7f546f74616c537570706c792065786365656473206c696d697400000000000000600082015250565b60006118886019836113b6565b915061189382611852565b602082019050919050565b600060208201905081810360008301526118b78161187b565b9050919050565b7f4e6f7420656e6f75746820657468657200000000000000000000000000000000600082015250565b60006118f46010836113b6565b91506118ff826118be565b602082019050919050565b60006020820190508181036000830152611923816118e7565b9050919050565b60008160011c9050919050565b6000808291508390505b60018511156119815780860481111561195d5761195c611717565b5b600185161561196c5780820291505b808102905061197a8561192a565b9450611941565b94509492505050565b60008261199a5760019050611a56565b816119a85760009050611a56565b81600181146119be57600281146119c8576119f7565b6001915050611a56565b60ff8411156119da576119d9611717565b5b8360020a9150848211156119f1576119f0611717565b5b50611a56565b5060208310610133831016604e8410600b8410161715611a2c5782820a905083811115611a2757611a26611717565b5b611a56565b611a398484846001611937565b92509050818404811115611a5057611a4f611717565b5b81810290505b9392505050565b6000611a68826114c0565b9150611a73836115e9565b9250611aa07fffffffffffffffffffffffffffffffffffffffffffffffffffffffffffffffff848461198a565b905092915050565b6000611ab3826114c0565b9150611abe836114c0565b9250828202611acc816114c0565b91508282048414831517611ae357611ae2611717565b5b5092915050565b7f45524332303a2064656372656173656420616c6c6f77616e63652062656c6f7760008201527f207a65726f000000000000000000000000000000000000000000000000000000602082015250565b6000611b466025836113b6565b9150611b5182611aea565b604082019050919050565b60006020820190508181036000830152611b7581611b39565b9050919050565b7f4f776e61626c653a206e6577206f776e657220697320746865207a65726f206160008201527f6464726573730000000000000000000000000000000000000000000000000000602082015250565b6000611bd86026836113b6565b9150611be382611b7c565b604082019050919050565b60006020820190508181036000830152611c0781611bcb565b9050919050565b7f45524332303a20617070726f76652066726f6d20746865207a65726f2061646460008201527f7265737300000000000000000000000000000000000000000000000000000000602082015250565b6000611c6a6024836113b6565b9150611c7582611c0e565b604082019050919050565b60006020820190508181036000830152611c9981611c5d565b9050919050565b7f45524332303a20617070726f766520746f20746865207a65726f20616464726560008201527f7373000000000000000000000000000000000000000000000000000000000000602082015250565b6000611cfc6022836113b6565b9150611d0782611ca0565b604082019050919050565b60006020820190508181036000830152611d2b81611cef565b9050919050565b7f45524332303a20696e73756666696369656e7420616c6c6f77616e6365000000600082015250565b6000611d68601d836113b6565b9150611d7382611d32565b602082019050919050565b60006020820190508181036000830152611d9781611d5b565b9050919050565b7f45524332303a207472616e736665722066726f6d20746865207a65726f20616460008201527f6472657373000000000000000000000000000000000000000000000000000000602082015250565b6000611dfa6025836113b6565b9150611e0582611d9e565b604082019050919050565b60006020820190508181036000830152611e2981611ded565b9050919050565b7f45524332303a207472616e7366657220746f20746865207a65726f206164647260008201527f6573730000000000000000000000000000000000000000000000000000000000602082015250565b6000611e8c6023836113b6565b9150611e9782611e30565b604082019050919050565b60006020820190508181036000830152611ebb81611e7f565b9050919050565b7f45524332303a207472616e7366657220616d6f756e742065786365656473206260008201527f616c616e63650000000000000000000000000000000000000000000000000000602082015250565b6000611f1e6026836113b6565b9150611f2982611ec2565b604082019050919050565b60006020820190508181036000830152611f4d81611f11565b9050919050565b7f45524332303a206d696e7420746f20746865207a65726f206164647265737300600082015250565b6000611f8a601f836113b6565b9150611f9582611f54565b602082019050919050565b60006020820190508181036000830152611fb981611f7d565b905091905056fea2646970667358221220f5682bcd8d496d519a27d9bdbc4691e5eee2b2a83eae52c193f4dd3820fe791c64736f6c63430008120033",
  "linkReferences": {},
  "deployedLinkReferences": {}
}