{
  "_format": "hh-sol-artifact-1",
  "contractName": "forge",
  "sourceName": "contracts/forge.sol",
  "abi": [
    {
      "inputs": [
        {
          "internalType": "contract erc1155",
          "name": "_token",
          "type": "address"
        }
      ],
      "stateMutability": "nonpayable",
      "type": "constructor"
    },
    {
      "inputs": [],
      "name": "GOLD",
      "outputs": [
        {
          "internalType": "uint256",
          "name": "",
          "type": "uint256"
        }
      ],
      "stateMutability": "view",
      "type": "function"
    },
    {
      "inputs": [],
      "name": "LOKIS_HORNS",
      "outputs": [
        {
          "internalType": "uint256",
          "name": "",
          "type": "uint256"
        }
      ],
      "stateMutability": "view",
      "type": "function"
    },
    {
      "inputs": [],
      "name": "POTION",
      "outputs": [
        {
          "internalType": "uint256",
          "name": "",
          "type": "uint256"
        }
      ],
      "stateMutability": "view",
      "type": "function"
    },
    {
      "inputs": [],
      "name": "SHIELD",
      "outputs": [
        {
          "internalType": "uint256",
          "name": "",
          "type": "uint256"
        }
      ],
      "stateMutability": "view",
      "type": "function"
    },
    {
      "inputs": [],
      "name": "SILVER",
      "outputs": [
        {
          "internalType": "uint256",
          "name": "",
          "type": "uint256"
        }
      ],
      "stateMutability": "view",
      "type": "function"
    },
    {
      "inputs": [],
      "name": "SWORD",
      "outputs": [
        {
          "internalType": "uint256",
          "name": "",
          "type": "uint256"
        }
      ],
      "stateMutability": "view",
      "type": "function"
    },
    {
      "inputs": [],
      "name": "THORS_HAMMER",
      "outputs": [
        {
          "internalType": "uint256",
          "name": "",
          "type": "uint256"
        }
      ],
      "stateMutability": "view",
      "type": "function"
    },
    {
      "inputs": [],
      "name": "balanceOfGold",
      "outputs": [
        {
          "internalType": "uint256",
          "name": "",
          "type": "uint256"
        }
      ],
      "stateMutability": "view",
      "type": "function"
    },
    {
      "inputs": [],
      "name": "balanceOfSilver",
      "outputs": [
        {
          "internalType": "uint256",
          "name": "",
          "type": "uint256"
        }
      ],
      "stateMutability": "view",
      "type": "function"
    },
    {
      "inputs": [
        {
          "internalType": "address",
          "name": "to",
          "type": "address"
        },
        {
          "internalType": "uint256",
          "name": "id",
          "type": "uint256"
        },
        {
          "internalType": "uint256",
          "name": "amount",
          "type": "uint256"
        }
      ],
      "name": "forging",
      "outputs": [],
      "stateMutability": "nonpayable",
      "type": "function"
    },
    {
      "inputs": [],
      "name": "name",
      "outputs": [
        {
          "internalType": "string",
          "name": "",
          "type": "string"
        }
      ],
      "stateMutability": "pure",
      "type": "function"
    },
    {
      "inputs": [
        {
          "internalType": "address",
          "name": "",
          "type": "address"
        },
        {
          "internalType": "address",
          "name": "",
          "type": "address"
        },
        {
          "internalType": "uint256[]",
          "name": "",
          "type": "uint256[]"
        },
        {
          "internalType": "uint256[]",
          "name": "",
          "type": "uint256[]"
        },
        {
          "internalType": "bytes",
          "name": "",
          "type": "bytes"
        }
      ],
      "name": "onERC1155BatchReceived",
      "outputs": [
        {
          "internalType": "bytes4",
          "name": "",
          "type": "bytes4"
        }
      ],
      "stateMutability": "nonpayable",
      "type": "function"
    },
    {
      "inputs": [
        {
          "internalType": "address",
          "name": "",
          "type": "address"
        },
        {
          "internalType": "address",
          "name": "",
          "type": "address"
        },
        {
          "internalType": "uint256",
          "name": "",
          "type": "uint256"
        },
        {
          "internalType": "uint256",
          "name": "",
          "type": "uint256"
        },
        {
          "internalType": "bytes",
          "name": "",
          "type": "bytes"
        }
      ],
      "name": "onERC1155Received",
      "outputs": [
        {
          "internalType": "bytes4",
          "name": "",
          "type": "bytes4"
        }
      ],
      "stateMutability": "nonpayable",
      "type": "function"
    },
    {
      "inputs": [
        {
          "internalType": "bytes4",
          "name": "interfaceId",
          "type": "bytes4"
        }
      ],
      "name": "supportsInterface",
      "outputs": [
        {
          "internalType": "bool",
          "name": "",
          "type": "bool"
        }
      ],
      "stateMutability": "view",
      "type": "function"
    },
    {
      "inputs": [
        {
          "internalType": "address",
          "name": "account",
          "type": "address"
        },
        {
          "internalType": "uint256",
          "name": "id",
          "type": "uint256"
        },
        {
          "internalType": "uint256",
          "name": "amount",
          "type": "uint256"
        }
      ],
      "name": "trade",
      "outputs": [],
      "stateMutability": "nonpayable",
      "type": "function"
    }
  ],
  "bytecode": "0x6080604052426001553480156200001557600080fd5b5060405162002e0238038062002e0283398181016040528101906200003b919062000100565b806000806101000a81548173ffffffffffffffffffffffffffffffffffffffff021916908373ffffffffffffffffffffffffffffffffffffffff1602179055505062000132565b600080fd5b600073ffffffffffffffffffffffffffffffffffffffff82169050919050565b6000620000b48262000087565b9050919050565b6000620000c882620000a7565b9050919050565b620000da81620000bb565b8114620000e657600080fd5b50565b600081519050620000fa81620000cf565b92915050565b60006020828403121562000119576200011862000082565b5b60006200012984828501620000e9565b91505092915050565b612cc080620001426000396000f3fe608060405234801561001057600080fd5b50600436106100f55760003560e01c8063633d731811610097578063d562e20411610066578063d562e20414610266578063e3e55f0814610284578063f23a6e61146102a2578063f2f75e28146102d2576100f5565b8063633d7318146101de578063b44b96e1146101fc578063b5ca098214610218578063bc197c8114610236576100f5565b80633b295b11116100d35780633b295b11146101665780633e4bee381461018457806357b5c357146101a25780635b2725ed146101c0576100f5565b806301ffc9a7146100fa57806306fdde031461012a57806313dc989f14610148575b600080fd5b610114600480360381019061010f919061211b565b6102ee565b6040516101219190612163565b60405180910390f35b610132610300565b60405161013f919061220e565b60405180910390f35b61015061033d565b60405161015d9190612249565b60405180910390f35b61016e610342565b60405161017b9190612249565b60405180910390f35b61018c610347565b6040516101999190612249565b60405180910390f35b6101aa61034c565b6040516101b79190612249565b60405180910390f35b6101c86103f0565b6040516101d59190612249565b60405180910390f35b6101e66103f5565b6040516101f39190612249565b60405180910390f35b610216600480360381019061021191906122ee565b6103fa565b005b610220610df6565b60405161022d9190612249565b60405180910390f35b610250600480360381019061024b919061253e565b610e9a565b60405161025d919061261c565b60405180910390f35b61026e610eaf565b60405161027b9190612249565b60405180910390f35b61028c610eb4565b6040516102999190612249565b60405180910390f35b6102bc60048036038101906102b79190612637565b610eb9565b6040516102c9919061261c565b60405180910390f35b6102ec60048036038101906102e791906122ee565b610ece565b005b60006102f982611fcb565b9050919050565b60606040518060400160405280600581526020017f666f726765000000000000000000000000000000000000000000000000000000815250905090565b600381565b600681565b600081565b60008060009054906101000a900473ffffffffffffffffffffffffffffffffffffffff1673ffffffffffffffffffffffffffffffffffffffff1662fdd58e3360006040518363ffffffff1660e01b81526004016103aa9291906126dd565b602060405180830381865afa1580156103c7573d6000803e3d6000fd5b505050506040513d601f19601f820116820180604052508101906103eb919061271b565b905090565b600481565b600581565b60048214806104095750600582145b806104145750600682145b15610744578060008054906101000a900473ffffffffffffffffffffffffffffffffffffffff1673ffffffffffffffffffffffffffffffffffffffff1662fdd58e3360046040518363ffffffff1660e01b81526004016104759291906126dd565b602060405180830381865afa158015610492573d6000803e3d6000fd5b505050506040513d601f19601f820116820180604052508101906104b6919061271b565b116104f6576040517f08c379a00000000000000000000000000000000000000000000000000000000081526004016104ed90612794565b60405180910390fd5b8060008054906101000a900473ffffffffffffffffffffffffffffffffffffffff1673ffffffffffffffffffffffffffffffffffffffff1662fdd58e3360056040518363ffffffff1660e01b81526004016105529291906126dd565b602060405180830381865afa15801561056f573d6000803e3d6000fd5b505050506040513d601f19601f82011682018060405250810190610593919061271b565b116105d3576040517f08c379a00000000000000000000000000000000000000000000000000000000081526004016105ca90612800565b60405180910390fd5b8060008054906101000a900473ffffffffffffffffffffffffffffffffffffffff1673ffffffffffffffffffffffffffffffffffffffff1662fdd58e3360066040518363ffffffff1660e01b815260040161062f9291906126dd565b602060405180830381865afa15801561064c573d6000803e3d6000fd5b505050506040513d601f19601f82011682018060405250810190610670919061271b565b116106b0576040517f08c379a00000000000000000000000000000000000000000000000000000000081526004016106a79061286c565b60405180910390fd5b60008054906101000a900473ffffffffffffffffffffffffffffffffffffffff1673ffffffffffffffffffffffffffffffffffffffff16634f10e5748484846040518463ffffffff1660e01b815260040161070d9392919061288c565b600060405180830381600087803b15801561072757600080fd5b505af115801561073b573d6000803e3d6000fd5b50505050610df1565b6000820361095157600160008054906101000a900473ffffffffffffffffffffffffffffffffffffffff1673ffffffffffffffffffffffffffffffffffffffff1662fdd58e3360006040518363ffffffff1660e01b81526004016107a99291906126dd565b602060405180830381865afa1580156107c6573d6000803e3d6000fd5b505050506040513d601f19601f820116820180604052508101906107ea919061271b565b1161082a576040517f08c379a00000000000000000000000000000000000000000000000000000000081526004016108219061290f565b60405180910390fd5b60008054906101000a900473ffffffffffffffffffffffffffffffffffffffff1673ffffffffffffffffffffffffffffffffffffffff16634f10e57484600060016040518463ffffffff1660e01b815260040161088993929190612974565b600060405180830381600087803b1580156108a357600080fd5b505af11580156108b7573d6000803e3d6000fd5b5050505060008054906101000a900473ffffffffffffffffffffffffffffffffffffffff1673ffffffffffffffffffffffffffffffffffffffff1663156e29f684600160026040518463ffffffff1660e01b815260040161091a939291906129e6565b600060405180830381600087803b15801561093457600080fd5b505af1158015610948573d6000803e3d6000fd5b50505050610df0565b60018203610b5d57600160008054906101000a900473ffffffffffffffffffffffffffffffffffffffff1673ffffffffffffffffffffffffffffffffffffffff1662fdd58e3360016040518363ffffffff1660e01b81526004016109b69291906126dd565b602060405180830381865afa1580156109d3573d6000803e3d6000fd5b505050506040513d601f19601f820116820180604052508101906109f7919061271b565b11610a37576040517f08c379a0000000000000000000000000000000000000000000000000000000008152600401610a2e90612a69565b60405180910390fd5b60008054906101000a900473ffffffffffffffffffffffffffffffffffffffff1673ffffffffffffffffffffffffffffffffffffffff16634f10e574846001806040518463ffffffff1660e01b8152600401610a9593929190612974565b600060405180830381600087803b158015610aaf57600080fd5b505af1158015610ac3573d6000803e3d6000fd5b5050505060008054906101000a900473ffffffffffffffffffffffffffffffffffffffff1673ffffffffffffffffffffffffffffffffffffffff1663156e29f684600260016040518463ffffffff1660e01b8152600401610b2693929190612974565b600060405180830381600087803b158015610b4057600080fd5b505af1158015610b54573d6000803e3d6000fd5b50505050610def565b600160008054906101000a900473ffffffffffffffffffffffffffffffffffffffff1673ffffffffffffffffffffffffffffffffffffffff1662fdd58e3360026040518363ffffffff1660e01b8152600401610bba9291906126dd565b602060405180830381865afa158015610bd7573d6000803e3d6000fd5b505050506040513d601f19601f82011682018060405250810190610bfb919061271b565b11610c3b576040517f08c379a0000000000000000000000000000000000000000000000000000000008152600401610c329061290f565b60405180910390fd5b60008054906101000a900473ffffffffffffffffffffffffffffffffffffffff1673ffffffffffffffffffffffffffffffffffffffff16634f10e57484600260016040518463ffffffff1660e01b8152600401610c9a93929190612974565b600060405180830381600087803b158015610cb457600080fd5b505af1158015610cc8573d6000803e3d6000fd5b5050505060008054906101000a900473ffffffffffffffffffffffffffffffffffffffff1673ffffffffffffffffffffffffffffffffffffffff1663156e29f684600160026040518463ffffffff1660e01b8152600401610d2b939291906129e6565b600060405180830381600087803b158015610d4557600080fd5b505af1158015610d59573d6000803e3d6000fd5b5050505060008054906101000a900473ffffffffffffffffffffffffffffffffffffffff1673ffffffffffffffffffffffffffffffffffffffff1663156e29f684600060026040518463ffffffff1660e01b8152600401610dbc939291906129e6565b600060405180830381600087803b158015610dd657600080fd5b505af1158015610dea573d6000803e3d6000fd5b505050505b5b5b505050565b60008060009054906101000a900473ffffffffffffffffffffffffffffffffffffffff1673ffffffffffffffffffffffffffffffffffffffff1662fdd58e3360016040518363ffffffff1660e01b8152600401610e549291906126dd565b602060405180830381865afa158015610e71573d6000803e3d6000fd5b505050506040513d601f19601f82011682018060405250810190610e95919061271b565b905090565b600063bc197c8160e01b905095945050505050565b600281565b600181565b600063f23a6e6160e01b905095945050505050565b6000821480610edd5750600182145b80610ee85750600282145b15610fd157603c600154610efc9190612ab8565b4211610f3d576040517f08c379a0000000000000000000000000000000000000000000000000000000008152600401610f3490612b38565b60405180910390fd5b60008054906101000a900473ffffffffffffffffffffffffffffffffffffffff1673ffffffffffffffffffffffffffffffffffffffff1663156e29f68484846040518463ffffffff1660e01b8152600401610f9a9392919061288c565b600060405180830381600087803b158015610fb457600080fd5b505af1158015610fc8573d6000803e3d6000fd5b50505050611fc6565b6003820361134d5760008060009054906101000a900473ffffffffffffffffffffffffffffffffffffffff1673ffffffffffffffffffffffffffffffffffffffff1662fdd58e3360006040518363ffffffff1660e01b81526004016110379291906126dd565b602060405180830381865afa158015611054573d6000803e3d6000fd5b505050506040513d601f19601f82011682018060405250810190611078919061271b565b116110b8576040517f08c379a00000000000000000000000000000000000000000000000000000000081526004016110af9061290f565b60405180910390fd5b60008060009054906101000a900473ffffffffffffffffffffffffffffffffffffffff1673ffffffffffffffffffffffffffffffffffffffff1662fdd58e3360016040518363ffffffff1660e01b81526004016111169291906126dd565b602060405180830381865afa158015611133573d6000803e3d6000fd5b505050506040513d601f19601f82011682018060405250810190611157919061271b565b11611197576040517f08c379a000000000000000000000000000000000000000000000000000000000815260040161118e90612a69565b60405180910390fd5b60008054906101000a900473ffffffffffffffffffffffffffffffffffffffff1673ffffffffffffffffffffffffffffffffffffffff16634f10e57484600060016040518463ffffffff1660e01b81526004016111f693929190612974565b600060405180830381600087803b15801561121057600080fd5b505af1158015611224573d6000803e3d6000fd5b5050505060008054906101000a900473ffffffffffffffffffffffffffffffffffffffff1673ffffffffffffffffffffffffffffffffffffffff16634f10e574846001806040518463ffffffff1660e01b815260040161128693929190612974565b600060405180830381600087803b1580156112a057600080fd5b505af11580156112b4573d6000803e3d6000fd5b5050505060008054906101000a900473ffffffffffffffffffffffffffffffffffffffff1673ffffffffffffffffffffffffffffffffffffffff1663156e29f6846003846040518463ffffffff1660e01b81526004016113169392919061288c565b600060405180830381600087803b15801561133057600080fd5b505af1158015611344573d6000803e3d6000fd5b50505050611fc5565b6004820361175d5760008060009054906101000a900473ffffffffffffffffffffffffffffffffffffffff1673ffffffffffffffffffffffffffffffffffffffff1662fdd58e3360026040518363ffffffff1660e01b81526004016113b39291906126dd565b602060405180830381865afa1580156113d0573d6000803e3d6000fd5b505050506040513d601f19601f820116820180604052508101906113f4919061271b565b11611434576040517f08c379a000000000000000000000000000000000000000000000000000000000815260040161142b9061290f565b60405180910390fd5b60008060009054906101000a900473ffffffffffffffffffffffffffffffffffffffff1673ffffffffffffffffffffffffffffffffffffffff1662fdd58e3360016040518363ffffffff1660e01b81526004016114929291906126dd565b602060405180830381865afa1580156114af573d6000803e3d6000fd5b505050506040513d601f19601f820116820180604052508101906114d3919061271b565b11611513576040517f08c379a000000000000000000000000000000000000000000000000000000000815260040161150a90612a69565b60405180910390fd5b6000600267ffffffffffffffff8111156115305761152f612346565b5b60405190808252806020026020018201604052801561155e5781602001602082028036833780820191505090505b5090506000600267ffffffffffffffff81111561157e5761157d612346565b5b6040519080825280602002602001820160405280156115ac5781602001602082028036833780820191505090505b5090506000826000815181106115c5576115c4612b58565b5b6020026020010181815250506001826001815181106115e7576115e6612b58565b5b60200260200101818152505060018160008151811061160957611608612b58565b5b60200260200101818152505060018160018151811061162b5761162a612b58565b5b60200260200101818152505060008054906101000a900473ffffffffffffffffffffffffffffffffffffffff1673ffffffffffffffffffffffffffffffffffffffff16636f95545d8684846040518463ffffffff1660e01b815260040161169493929190612c45565b600060405180830381600087803b1580156116ae57600080fd5b505af11580156116c2573d6000803e3d6000fd5b5050505060008054906101000a900473ffffffffffffffffffffffffffffffffffffffff1673ffffffffffffffffffffffffffffffffffffffff1663156e29f6866004866040518463ffffffff1660e01b81526004016117249392919061288c565b600060405180830381600087803b15801561173e57600080fd5b505af1158015611752573d6000803e3d6000fd5b505050505050611fc4565b60058203611ada5760008060009054906101000a900473ffffffffffffffffffffffffffffffffffffffff1673ffffffffffffffffffffffffffffffffffffffff1662fdd58e3360006040518363ffffffff1660e01b81526004016117c39291906126dd565b602060405180830381865afa1580156117e0573d6000803e3d6000fd5b505050506040513d601f19601f82011682018060405250810190611804919061271b565b11611844576040517f08c379a000000000000000000000000000000000000000000000000000000000815260040161183b9061290f565b60405180910390fd5b60008060009054906101000a900473ffffffffffffffffffffffffffffffffffffffff1673ffffffffffffffffffffffffffffffffffffffff1662fdd58e3360026040518363ffffffff1660e01b81526004016118a29291906126dd565b602060405180830381865afa1580156118bf573d6000803e3d6000fd5b505050506040513d601f19601f820116820180604052508101906118e3919061271b565b11611923576040517f08c379a000000000000000000000000000000000000000000000000000000000815260040161191a90612a69565b60405180910390fd5b60008054906101000a900473ffffffffffffffffffffffffffffffffffffffff1673ffffffffffffffffffffffffffffffffffffffff16634f10e57484600060016040518463ffffffff1660e01b815260040161198293929190612974565b600060405180830381600087803b15801561199c57600080fd5b505af11580156119b0573d6000803e3d6000fd5b5050505060008054906101000a900473ffffffffffffffffffffffffffffffffffffffff1673ffffffffffffffffffffffffffffffffffffffff16634f10e57484600260016040518463ffffffff1660e01b8152600401611a1393929190612974565b600060405180830381600087803b158015611a2d57600080fd5b505af1158015611a41573d6000803e3d6000fd5b5050505060008054906101000a900473ffffffffffffffffffffffffffffffffffffffff1673ffffffffffffffffffffffffffffffffffffffff1663156e29f6846005846040518463ffffffff1660e01b8152600401611aa39392919061288c565b600060405180830381600087803b158015611abd57600080fd5b505af1158015611ad1573d6000803e3d6000fd5b50505050611fc3565b60068203611fc25760008060009054906101000a900473ffffffffffffffffffffffffffffffffffffffff1673ffffffffffffffffffffffffffffffffffffffff1662fdd58e3360006040518363ffffffff1660e01b8152600401611b409291906126dd565b602060405180830381865afa158015611b5d573d6000803e3d6000fd5b505050506040513d601f19601f82011682018060405250810190611b81919061271b565b11611bc1576040517f08c379a0000000000000000000000000000000000000000000000000000000008152600401611bb89061290f565b60405180910390fd5b60008060009054906101000a900473ffffffffffffffffffffffffffffffffffffffff1673ffffffffffffffffffffffffffffffffffffffff1662fdd58e3360016040518363ffffffff1660e01b8152600401611c1f9291906126dd565b602060405180830381865afa158015611c3c573d6000803e3d6000fd5b505050506040513d601f19601f82011682018060405250810190611c60919061271b565b11611ca0576040517f08c379a0000000000000000000000000000000000000000000000000000000008152600401611c9790612a69565b60405180910390fd5b60008060009054906101000a900473ffffffffffffffffffffffffffffffffffffffff1673ffffffffffffffffffffffffffffffffffffffff1662fdd58e3360026040518363ffffffff1660e01b8152600401611cfe9291906126dd565b602060405180830381865afa158015611d1b573d6000803e3d6000fd5b505050506040513d601f19601f82011682018060405250810190611d3f919061271b565b11611d7f576040517f08c379a0000000000000000000000000000000000000000000000000000000008152600401611d7690612a69565b60405180910390fd5b60008054906101000a900473ffffffffffffffffffffffffffffffffffffffff1673ffffffffffffffffffffffffffffffffffffffff16634f10e57484600060016040518463ffffffff1660e01b8152600401611dde93929190612974565b600060405180830381600087803b158015611df857600080fd5b505af1158015611e0c573d6000803e3d6000fd5b5050505060008054906101000a900473ffffffffffffffffffffffffffffffffffffffff1673ffffffffffffffffffffffffffffffffffffffff16634f10e574846001806040518463ffffffff1660e01b8152600401611e6e93929190612974565b600060405180830381600087803b158015611e8857600080fd5b505af1158015611e9c573d6000803e3d6000fd5b5050505060008054906101000a900473ffffffffffffffffffffffffffffffffffffffff1673ffffffffffffffffffffffffffffffffffffffff16634f10e57484600260016040518463ffffffff1660e01b8152600401611eff93929190612974565b600060405180830381600087803b158015611f1957600080fd5b505af1158015611f2d573d6000803e3d6000fd5b5050505060008054906101000a900473ffffffffffffffffffffffffffffffffffffffff1673ffffffffffffffffffffffffffffffffffffffff1663156e29f6846006846040518463ffffffff1660e01b8152600401611f8f9392919061288c565b600060405180830381600087803b158015611fa957600080fd5b505af1158015611fbd573d6000803e3d6000fd5b505050505b5b5b5b5b505050565b60007f4e2312e0000000000000000000000000000000000000000000000000000000007bffffffffffffffffffffffffffffffffffffffffffffffffffffffff1916827bffffffffffffffffffffffffffffffffffffffffffffffffffffffff1916148061203e575061203d82612045565b5b9050919050565b60007f01ffc9a7000000000000000000000000000000000000000000000000000000007bffffffffffffffffffffffffffffffffffffffffffffffffffffffff1916827bffffffffffffffffffffffffffffffffffffffffffffffffffffffff1916149050919050565b6000604051905090565b600080fd5b600080fd5b60007fffffffff0000000000000000000000000000000000000000000000000000000082169050919050565b6120f8816120c3565b811461210357600080fd5b50565b600081359050612115816120ef565b92915050565b600060208284031215612131576121306120b9565b5b600061213f84828501612106565b91505092915050565b60008115159050919050565b61215d81612148565b82525050565b60006020820190506121786000830184612154565b92915050565b600081519050919050565b600082825260208201905092915050565b60005b838110156121b857808201518184015260208101905061219d565b60008484015250505050565b6000601f19601f8301169050919050565b60006121e08261217e565b6121ea8185612189565b93506121fa81856020860161219a565b612203816121c4565b840191505092915050565b6000602082019050818103600083015261222881846121d5565b905092915050565b6000819050919050565b61224381612230565b82525050565b600060208201905061225e600083018461223a565b92915050565b600073ffffffffffffffffffffffffffffffffffffffff82169050919050565b600061228f82612264565b9050919050565b61229f81612284565b81146122aa57600080fd5b50565b6000813590506122bc81612296565b92915050565b6122cb81612230565b81146122d657600080fd5b50565b6000813590506122e8816122c2565b92915050565b600080600060608486031215612307576123066120b9565b5b6000612315868287016122ad565b9350506020612326868287016122d9565b9250506040612337868287016122d9565b9150509250925092565b600080fd5b7f4e487b7100000000000000000000000000000000000000000000000000000000600052604160045260246000fd5b61237e826121c4565b810181811067ffffffffffffffff8211171561239d5761239c612346565b5b80604052505050565b60006123b06120af565b90506123bc8282612375565b919050565b600067ffffffffffffffff8211156123dc576123db612346565b5b602082029050602081019050919050565b600080fd5b6000612405612400846123c1565b6123a6565b90508083825260208201905060208402830185811115612428576124276123ed565b5b835b81811015612451578061243d88826122d9565b84526020840193505060208101905061242a565b5050509392505050565b600082601f8301126124705761246f612341565b5b81356124808482602086016123f2565b91505092915050565b600080fd5b600067ffffffffffffffff8211156124a9576124a8612346565b5b6124b2826121c4565b9050602081019050919050565b82818337600083830152505050565b60006124e16124dc8461248e565b6123a6565b9050828152602081018484840111156124fd576124fc612489565b5b6125088482856124bf565b509392505050565b600082601f83011261252557612524612341565b5b81356125358482602086016124ce565b91505092915050565b600080600080600060a0868803121561255a576125596120b9565b5b6000612568888289016122ad565b9550506020612579888289016122ad565b945050604086013567ffffffffffffffff81111561259a576125996120be565b5b6125a68882890161245b565b935050606086013567ffffffffffffffff8111156125c7576125c66120be565b5b6125d38882890161245b565b925050608086013567ffffffffffffffff8111156125f4576125f36120be565b5b61260088828901612510565b9150509295509295909350565b612616816120c3565b82525050565b6000602082019050612631600083018461260d565b92915050565b600080600080600060a08688031215612653576126526120b9565b5b6000612661888289016122ad565b9550506020612672888289016122ad565b9450506040612683888289016122d9565b9350506060612694888289016122d9565b925050608086013567ffffffffffffffff8111156126b5576126b46120be565b5b6126c188828901612510565b9150509295509295909350565b6126d781612284565b82525050565b60006040820190506126f260008301856126ce565b6126ff602083018461223a565b9392505050565b600081519050612715816122c2565b92915050565b600060208284031215612731576127306120b9565b5b600061273f84828501612706565b91505092915050565b7f596f7520646f6e2774206861766520736869656c647300000000000000000000600082015250565b600061277e601683612189565b915061278982612748565b602082019050919050565b600060208201905081810360008301526127ad81612771565b9050919050565b7f596f7520646f6e27742068617665206c6f6b69277320686f726e730000000000600082015250565b60006127ea601b83612189565b91506127f5826127b4565b602082019050919050565b60006020820190508181036000830152612819816127dd565b9050919050565b7f596f7520646f6e2774206861766520706f74696f6e0000000000000000000000600082015250565b6000612856601583612189565b915061286182612820565b602082019050919050565b6000602082019050818103600083015261288581612849565b9050919050565b60006060820190506128a160008301866126ce565b6128ae602083018561223a565b6128bb604083018461223a565b949350505050565b7f596f7520646f6e2774206861766520676f6c6400000000000000000000000000600082015250565b60006128f9601383612189565b9150612904826128c3565b602082019050919050565b60006020820190508181036000830152612928816128ec565b9050919050565b6000819050919050565b6000819050919050565b600061295e6129596129548461292f565b612939565b612230565b9050919050565b61296e81612943565b82525050565b600060608201905061298960008301866126ce565b612996602083018561223a565b6129a36040830184612965565b949350505050565b6000819050919050565b60006129d06129cb6129c6846129ab565b612939565b612230565b9050919050565b6129e0816129b5565b82525050565b60006060820190506129fb60008301866126ce565b612a08602083018561223a565b612a1560408301846129d7565b949350505050565b7f596f7520646f6e277420686176652073696c7665720000000000000000000000600082015250565b6000612a53601583612189565b9150612a5e82612a1d565b602082019050919050565b60006020820190508181036000830152612a8281612a46565b9050919050565b7f4e487b7100000000000000000000000000000000000000000000000000000000600052601160045260246000fd5b6000612ac382612230565b9150612ace83612230565b9250828201905080821115612ae657612ae5612a89565b5b92915050565b7f4e6f20656e6f756768742074696d652070617374000000000000000000000000600082015250565b6000612b22601483612189565b9150612b2d82612aec565b602082019050919050565b60006020820190508181036000830152612b5181612b15565b9050919050565b7f4e487b7100000000000000000000000000000000000000000000000000000000600052603260045260246000fd5b600081519050919050565b600082825260208201905092915050565b6000819050602082019050919050565b612bbc81612230565b82525050565b6000612bce8383612bb3565b60208301905092915050565b6000602082019050919050565b6000612bf282612b87565b612bfc8185612b92565b9350612c0783612ba3565b8060005b83811015612c38578151612c1f8882612bc2565b9750612c2a83612bda565b925050600181019050612c0b565b5085935050505092915050565b6000606082019050612c5a60008301866126ce565b8181036020830152612c6c8185612be7565b90508181036040830152612c808184612be7565b905094935050505056fea26469706673582212207767d49e2508f0c1615f4132afadf1b65ed278cc607821cea86c192d7dbe4a7664736f6c63430008110033",
  "linkReferences": {},
  "deployedLinkReferences": {}
}