{
  "_format": "hh-sol-artifact-1",
  "contractName": "forge",
  "sourceName": "contracts/forge.sol",
  "abi": [
    {
      "inputs": [
        {
          "internalType": "contract erc1155",
          "name": "_token",
          "type": "address"
        }
      ],
      "stateMutability": "nonpayable",
      "type": "constructor"
    },
    {
      "inputs": [],
      "name": "GOLD",
      "outputs": [
        {
          "internalType": "uint256",
          "name": "",
          "type": "uint256"
        }
      ],
      "stateMutability": "view",
      "type": "function"
    },
    {
      "inputs": [],
      "name": "LOKIS_HORNS",
      "outputs": [
        {
          "internalType": "uint256",
          "name": "",
          "type": "uint256"
        }
      ],
      "stateMutability": "view",
      "type": "function"
    },
    {
      "inputs": [],
      "name": "POTION",
      "outputs": [
        {
          "internalType": "uint256",
          "name": "",
          "type": "uint256"
        }
      ],
      "stateMutability": "view",
      "type": "function"
    },
    {
      "inputs": [],
      "name": "SHIELD",
      "outputs": [
        {
          "internalType": "uint256",
          "name": "",
          "type": "uint256"
        }
      ],
      "stateMutability": "view",
      "type": "function"
    },
    {
      "inputs": [],
      "name": "SILVER",
      "outputs": [
        {
          "internalType": "uint256",
          "name": "",
          "type": "uint256"
        }
      ],
      "stateMutability": "view",
      "type": "function"
    },
    {
      "inputs": [],
      "name": "SWORD",
      "outputs": [
        {
          "internalType": "uint256",
          "name": "",
          "type": "uint256"
        }
      ],
      "stateMutability": "view",
      "type": "function"
    },
    {
      "inputs": [],
      "name": "THORS_HAMMER",
      "outputs": [
        {
          "internalType": "uint256",
          "name": "",
          "type": "uint256"
        }
      ],
      "stateMutability": "view",
      "type": "function"
    },
    {
      "inputs": [
        {
          "internalType": "address",
          "name": "to",
          "type": "address"
        },
        {
          "internalType": "uint256",
          "name": "id",
          "type": "uint256"
        },
        {
          "internalType": "uint256",
          "name": "amount",
          "type": "uint256"
        }
      ],
      "name": "forging",
      "outputs": [],
      "stateMutability": "nonpayable",
      "type": "function"
    },
    {
      "inputs": [
        {
          "internalType": "address",
          "name": "",
          "type": "address"
        },
        {
          "internalType": "address",
          "name": "",
          "type": "address"
        },
        {
          "internalType": "uint256[]",
          "name": "",
          "type": "uint256[]"
        },
        {
          "internalType": "uint256[]",
          "name": "",
          "type": "uint256[]"
        },
        {
          "internalType": "bytes",
          "name": "",
          "type": "bytes"
        }
      ],
      "name": "onERC1155BatchReceived",
      "outputs": [
        {
          "internalType": "bytes4",
          "name": "",
          "type": "bytes4"
        }
      ],
      "stateMutability": "nonpayable",
      "type": "function"
    },
    {
      "inputs": [
        {
          "internalType": "address",
          "name": "",
          "type": "address"
        },
        {
          "internalType": "address",
          "name": "",
          "type": "address"
        },
        {
          "internalType": "uint256",
          "name": "",
          "type": "uint256"
        },
        {
          "internalType": "uint256",
          "name": "",
          "type": "uint256"
        },
        {
          "internalType": "bytes",
          "name": "",
          "type": "bytes"
        }
      ],
      "name": "onERC1155Received",
      "outputs": [
        {
          "internalType": "bytes4",
          "name": "",
          "type": "bytes4"
        }
      ],
      "stateMutability": "nonpayable",
      "type": "function"
    },
    {
      "inputs": [
        {
          "internalType": "bytes4",
          "name": "interfaceId",
          "type": "bytes4"
        }
      ],
      "name": "supportsInterface",
      "outputs": [
        {
          "internalType": "bool",
          "name": "",
          "type": "bool"
        }
      ],
      "stateMutability": "view",
      "type": "function"
    },
    {
      "inputs": [
        {
          "internalType": "address",
          "name": "account",
          "type": "address"
        },
        {
          "internalType": "uint256",
          "name": "id",
          "type": "uint256"
        },
        {
          "internalType": "uint256",
          "name": "amount",
          "type": "uint256"
        }
      ],
      "name": "trade",
      "outputs": [],
      "stateMutability": "nonpayable",
      "type": "function"
    }
  ],
  "bytecode": "0x6080604052426001553480156200001557600080fd5b5060405162002bbe38038062002bbe83398181016040528101906200003b919062000100565b806000806101000a81548173ffffffffffffffffffffffffffffffffffffffff021916908373ffffffffffffffffffffffffffffffffffffffff1602179055505062000132565b600080fd5b600073ffffffffffffffffffffffffffffffffffffffff82169050919050565b6000620000b48262000087565b9050919050565b6000620000c882620000a7565b9050919050565b620000da81620000bb565b8114620000e657600080fd5b50565b600081519050620000fa81620000cf565b92915050565b60006020828403121562000119576200011862000082565b5b60006200012984828501620000e9565b91505092915050565b612a7c80620001426000396000f3fe608060405234801561001057600080fd5b50600436106100b45760003560e01c8063b44b96e111610071578063b44b96e11461017f578063bc197c811461019b578063d562e204146101cb578063e3e55f08146101e9578063f23a6e6114610207578063f2f75e2814610237576100b4565b806301ffc9a7146100b957806313dc989f146100e95780633b295b11146101075780633e4bee38146101255780635b2725ed14610143578063633d731814610161575b600080fd5b6100d360048036038101906100ce9190611efb565b610253565b6040516100e09190611f43565b60405180910390f35b6100f1610265565b6040516100fe9190611f77565b60405180910390f35b61010f61026a565b60405161011c9190611f77565b60405180910390f35b61012d61026f565b60405161013a9190611f77565b60405180910390f35b61014b610274565b6040516101589190611f77565b60405180910390f35b610169610279565b6040516101769190611f77565b60405180910390f35b6101996004803603810190610194919061201c565b61027e565b005b6101b560048036038101906101b0919061227d565b610c7a565b6040516101c2919061235b565b60405180910390f35b6101d3610c8f565b6040516101e09190611f77565b60405180910390f35b6101f1610c94565b6040516101fe9190611f77565b60405180910390f35b610221600480360381019061021c9190612376565b610c99565b60405161022e919061235b565b60405180910390f35b610251600480360381019061024c919061201c565b610cae565b005b600061025e82611dab565b9050919050565b600381565b600681565b600081565b600481565b600581565b600482148061028d5750600582145b806102985750600682145b156105c8578060008054906101000a900473ffffffffffffffffffffffffffffffffffffffff1673ffffffffffffffffffffffffffffffffffffffff1662fdd58e3360046040518363ffffffff1660e01b81526004016102f992919061241c565b602060405180830381865afa158015610316573d6000803e3d6000fd5b505050506040513d601f19601f8201168201806040525081019061033a919061245a565b1161037a576040517f08c379a0000000000000000000000000000000000000000000000000000000008152600401610371906124e4565b60405180910390fd5b8060008054906101000a900473ffffffffffffffffffffffffffffffffffffffff1673ffffffffffffffffffffffffffffffffffffffff1662fdd58e3360056040518363ffffffff1660e01b81526004016103d692919061241c565b602060405180830381865afa1580156103f3573d6000803e3d6000fd5b505050506040513d601f19601f82011682018060405250810190610417919061245a565b11610457576040517f08c379a000000000000000000000000000000000000000000000000000000000815260040161044e90612550565b60405180910390fd5b8060008054906101000a900473ffffffffffffffffffffffffffffffffffffffff1673ffffffffffffffffffffffffffffffffffffffff1662fdd58e3360066040518363ffffffff1660e01b81526004016104b392919061241c565b602060405180830381865afa1580156104d0573d6000803e3d6000fd5b505050506040513d601f19601f820116820180604052508101906104f4919061245a565b11610534576040517f08c379a000000000000000000000000000000000000000000000000000000000815260040161052b906125bc565b60405180910390fd5b60008054906101000a900473ffffffffffffffffffffffffffffffffffffffff1673ffffffffffffffffffffffffffffffffffffffff16634f10e5748484846040518463ffffffff1660e01b8152600401610591939291906125dc565b600060405180830381600087803b1580156105ab57600080fd5b505af11580156105bf573d6000803e3d6000fd5b50505050610c75565b600082036107d557600160008054906101000a900473ffffffffffffffffffffffffffffffffffffffff1673ffffffffffffffffffffffffffffffffffffffff1662fdd58e3360006040518363ffffffff1660e01b815260040161062d92919061241c565b602060405180830381865afa15801561064a573d6000803e3d6000fd5b505050506040513d601f19601f8201168201806040525081019061066e919061245a565b116106ae576040517f08c379a00000000000000000000000000000000000000000000000000000000081526004016106a59061265f565b60405180910390fd5b60008054906101000a900473ffffffffffffffffffffffffffffffffffffffff1673ffffffffffffffffffffffffffffffffffffffff16634f10e57484600060016040518463ffffffff1660e01b815260040161070d939291906126c4565b600060405180830381600087803b15801561072757600080fd5b505af115801561073b573d6000803e3d6000fd5b5050505060008054906101000a900473ffffffffffffffffffffffffffffffffffffffff1673ffffffffffffffffffffffffffffffffffffffff1663156e29f684600160026040518463ffffffff1660e01b815260040161079e93929190612736565b600060405180830381600087803b1580156107b857600080fd5b505af11580156107cc573d6000803e3d6000fd5b50505050610c74565b600182036109e157600160008054906101000a900473ffffffffffffffffffffffffffffffffffffffff1673ffffffffffffffffffffffffffffffffffffffff1662fdd58e3360016040518363ffffffff1660e01b815260040161083a92919061241c565b602060405180830381865afa158015610857573d6000803e3d6000fd5b505050506040513d601f19601f8201168201806040525081019061087b919061245a565b116108bb576040517f08c379a00000000000000000000000000000000000000000000000000000000081526004016108b2906127b9565b60405180910390fd5b60008054906101000a900473ffffffffffffffffffffffffffffffffffffffff1673ffffffffffffffffffffffffffffffffffffffff16634f10e574846001806040518463ffffffff1660e01b8152600401610919939291906126c4565b600060405180830381600087803b15801561093357600080fd5b505af1158015610947573d6000803e3d6000fd5b5050505060008054906101000a900473ffffffffffffffffffffffffffffffffffffffff1673ffffffffffffffffffffffffffffffffffffffff1663156e29f684600260016040518463ffffffff1660e01b81526004016109aa939291906126c4565b600060405180830381600087803b1580156109c457600080fd5b505af11580156109d8573d6000803e3d6000fd5b50505050610c73565b600160008054906101000a900473ffffffffffffffffffffffffffffffffffffffff1673ffffffffffffffffffffffffffffffffffffffff1662fdd58e3360026040518363ffffffff1660e01b8152600401610a3e92919061241c565b602060405180830381865afa158015610a5b573d6000803e3d6000fd5b505050506040513d601f19601f82011682018060405250810190610a7f919061245a565b11610abf576040517f08c379a0000000000000000000000000000000000000000000000000000000008152600401610ab690612825565b60405180910390fd5b60008054906101000a900473ffffffffffffffffffffffffffffffffffffffff1673ffffffffffffffffffffffffffffffffffffffff16634f10e57484600260016040518463ffffffff1660e01b8152600401610b1e939291906126c4565b600060405180830381600087803b158015610b3857600080fd5b505af1158015610b4c573d6000803e3d6000fd5b5050505060008054906101000a900473ffffffffffffffffffffffffffffffffffffffff1673ffffffffffffffffffffffffffffffffffffffff1663156e29f684600160026040518463ffffffff1660e01b8152600401610baf93929190612736565b600060405180830381600087803b158015610bc957600080fd5b505af1158015610bdd573d6000803e3d6000fd5b5050505060008054906101000a900473ffffffffffffffffffffffffffffffffffffffff1673ffffffffffffffffffffffffffffffffffffffff1663156e29f684600060026040518463ffffffff1660e01b8152600401610c4093929190612736565b600060405180830381600087803b158015610c5a57600080fd5b505af1158015610c6e573d6000803e3d6000fd5b505050505b5b5b505050565b600063bc197c8160e01b905095945050505050565b600281565b600181565b600063f23a6e6160e01b905095945050505050565b6000821480610cbd5750600182145b80610cc85750600282145b15610db157603c600154610cdc9190612874565b4211610d1d576040517f08c379a0000000000000000000000000000000000000000000000000000000008152600401610d14906128f4565b60405180910390fd5b60008054906101000a900473ffffffffffffffffffffffffffffffffffffffff1673ffffffffffffffffffffffffffffffffffffffff1663156e29f68484846040518463ffffffff1660e01b8152600401610d7a939291906125dc565b600060405180830381600087803b158015610d9457600080fd5b505af1158015610da8573d6000803e3d6000fd5b50505050611da6565b6003820361112d5760008060009054906101000a900473ffffffffffffffffffffffffffffffffffffffff1673ffffffffffffffffffffffffffffffffffffffff1662fdd58e3360006040518363ffffffff1660e01b8152600401610e1792919061241c565b602060405180830381865afa158015610e34573d6000803e3d6000fd5b505050506040513d601f19601f82011682018060405250810190610e58919061245a565b11610e98576040517f08c379a0000000000000000000000000000000000000000000000000000000008152600401610e8f9061265f565b60405180910390fd5b60008060009054906101000a900473ffffffffffffffffffffffffffffffffffffffff1673ffffffffffffffffffffffffffffffffffffffff1662fdd58e3360016040518363ffffffff1660e01b8152600401610ef692919061241c565b602060405180830381865afa158015610f13573d6000803e3d6000fd5b505050506040513d601f19601f82011682018060405250810190610f37919061245a565b11610f77576040517f08c379a0000000000000000000000000000000000000000000000000000000008152600401610f6e906127b9565b60405180910390fd5b60008054906101000a900473ffffffffffffffffffffffffffffffffffffffff1673ffffffffffffffffffffffffffffffffffffffff16634f10e57484600060016040518463ffffffff1660e01b8152600401610fd6939291906126c4565b600060405180830381600087803b158015610ff057600080fd5b505af1158015611004573d6000803e3d6000fd5b5050505060008054906101000a900473ffffffffffffffffffffffffffffffffffffffff1673ffffffffffffffffffffffffffffffffffffffff16634f10e574846001806040518463ffffffff1660e01b8152600401611066939291906126c4565b600060405180830381600087803b15801561108057600080fd5b505af1158015611094573d6000803e3d6000fd5b5050505060008054906101000a900473ffffffffffffffffffffffffffffffffffffffff1673ffffffffffffffffffffffffffffffffffffffff1663156e29f6846003846040518463ffffffff1660e01b81526004016110f6939291906125dc565b600060405180830381600087803b15801561111057600080fd5b505af1158015611124573d6000803e3d6000fd5b50505050611da5565b6004820361153d5760008060009054906101000a900473ffffffffffffffffffffffffffffffffffffffff1673ffffffffffffffffffffffffffffffffffffffff1662fdd58e3360026040518363ffffffff1660e01b815260040161119392919061241c565b602060405180830381865afa1580156111b0573d6000803e3d6000fd5b505050506040513d601f19601f820116820180604052508101906111d4919061245a565b11611214576040517f08c379a000000000000000000000000000000000000000000000000000000000815260040161120b90612825565b60405180910390fd5b60008060009054906101000a900473ffffffffffffffffffffffffffffffffffffffff1673ffffffffffffffffffffffffffffffffffffffff1662fdd58e3360016040518363ffffffff1660e01b815260040161127292919061241c565b602060405180830381865afa15801561128f573d6000803e3d6000fd5b505050506040513d601f19601f820116820180604052508101906112b3919061245a565b116112f3576040517f08c379a00000000000000000000000000000000000000000000000000000000081526004016112ea906127b9565b60405180910390fd5b6000600267ffffffffffffffff8111156113105761130f612085565b5b60405190808252806020026020018201604052801561133e5781602001602082028036833780820191505090505b5090506000600267ffffffffffffffff81111561135e5761135d612085565b5b60405190808252806020026020018201604052801561138c5781602001602082028036833780820191505090505b5090506000826000815181106113a5576113a4612914565b5b6020026020010181815250506001826001815181106113c7576113c6612914565b5b6020026020010181815250506001816000815181106113e9576113e8612914565b5b60200260200101818152505060018160018151811061140b5761140a612914565b5b60200260200101818152505060008054906101000a900473ffffffffffffffffffffffffffffffffffffffff1673ffffffffffffffffffffffffffffffffffffffff16636f95545d8684846040518463ffffffff1660e01b815260040161147493929190612a01565b600060405180830381600087803b15801561148e57600080fd5b505af11580156114a2573d6000803e3d6000fd5b5050505060008054906101000a900473ffffffffffffffffffffffffffffffffffffffff1673ffffffffffffffffffffffffffffffffffffffff1663156e29f6866004866040518463ffffffff1660e01b8152600401611504939291906125dc565b600060405180830381600087803b15801561151e57600080fd5b505af1158015611532573d6000803e3d6000fd5b505050505050611da4565b600582036118ba5760008060009054906101000a900473ffffffffffffffffffffffffffffffffffffffff1673ffffffffffffffffffffffffffffffffffffffff1662fdd58e3360006040518363ffffffff1660e01b81526004016115a392919061241c565b602060405180830381865afa1580156115c0573d6000803e3d6000fd5b505050506040513d601f19601f820116820180604052508101906115e4919061245a565b11611624576040517f08c379a000000000000000000000000000000000000000000000000000000000815260040161161b9061265f565b60405180910390fd5b60008060009054906101000a900473ffffffffffffffffffffffffffffffffffffffff1673ffffffffffffffffffffffffffffffffffffffff1662fdd58e3360026040518363ffffffff1660e01b815260040161168292919061241c565b602060405180830381865afa15801561169f573d6000803e3d6000fd5b505050506040513d601f19601f820116820180604052508101906116c3919061245a565b11611703576040517f08c379a00000000000000000000000000000000000000000000000000000000081526004016116fa90612825565b60405180910390fd5b60008054906101000a900473ffffffffffffffffffffffffffffffffffffffff1673ffffffffffffffffffffffffffffffffffffffff16634f10e57484600060016040518463ffffffff1660e01b8152600401611762939291906126c4565b600060405180830381600087803b15801561177c57600080fd5b505af1158015611790573d6000803e3d6000fd5b5050505060008054906101000a900473ffffffffffffffffffffffffffffffffffffffff1673ffffffffffffffffffffffffffffffffffffffff16634f10e57484600260016040518463ffffffff1660e01b81526004016117f3939291906126c4565b600060405180830381600087803b15801561180d57600080fd5b505af1158015611821573d6000803e3d6000fd5b5050505060008054906101000a900473ffffffffffffffffffffffffffffffffffffffff1673ffffffffffffffffffffffffffffffffffffffff1663156e29f6846005846040518463ffffffff1660e01b8152600401611883939291906125dc565b600060405180830381600087803b15801561189d57600080fd5b505af11580156118b1573d6000803e3d6000fd5b50505050611da3565b60068203611da25760008060009054906101000a900473ffffffffffffffffffffffffffffffffffffffff1673ffffffffffffffffffffffffffffffffffffffff1662fdd58e3360006040518363ffffffff1660e01b815260040161192092919061241c565b602060405180830381865afa15801561193d573d6000803e3d6000fd5b505050506040513d601f19601f82011682018060405250810190611961919061245a565b116119a1576040517f08c379a00000000000000000000000000000000000000000000000000000000081526004016119989061265f565b60405180910390fd5b60008060009054906101000a900473ffffffffffffffffffffffffffffffffffffffff1673ffffffffffffffffffffffffffffffffffffffff1662fdd58e3360016040518363ffffffff1660e01b81526004016119ff92919061241c565b602060405180830381865afa158015611a1c573d6000803e3d6000fd5b505050506040513d601f19601f82011682018060405250810190611a40919061245a565b11611a80576040517f08c379a0000000000000000000000000000000000000000000000000000000008152600401611a77906127b9565b60405180910390fd5b60008060009054906101000a900473ffffffffffffffffffffffffffffffffffffffff1673ffffffffffffffffffffffffffffffffffffffff1662fdd58e3360026040518363ffffffff1660e01b8152600401611ade92919061241c565b602060405180830381865afa158015611afb573d6000803e3d6000fd5b505050506040513d601f19601f82011682018060405250810190611b1f919061245a565b11611b5f576040517f08c379a0000000000000000000000000000000000000000000000000000000008152600401611b5690612825565b60405180910390fd5b60008054906101000a900473ffffffffffffffffffffffffffffffffffffffff1673ffffffffffffffffffffffffffffffffffffffff16634f10e57484600060016040518463ffffffff1660e01b8152600401611bbe939291906126c4565b600060405180830381600087803b158015611bd857600080fd5b505af1158015611bec573d6000803e3d6000fd5b5050505060008054906101000a900473ffffffffffffffffffffffffffffffffffffffff1673ffffffffffffffffffffffffffffffffffffffff16634f10e574846001806040518463ffffffff1660e01b8152600401611c4e939291906126c4565b600060405180830381600087803b158015611c6857600080fd5b505af1158015611c7c573d6000803e3d6000fd5b5050505060008054906101000a900473ffffffffffffffffffffffffffffffffffffffff1673ffffffffffffffffffffffffffffffffffffffff16634f10e57484600260016040518463ffffffff1660e01b8152600401611cdf939291906126c4565b600060405180830381600087803b158015611cf957600080fd5b505af1158015611d0d573d6000803e3d6000fd5b5050505060008054906101000a900473ffffffffffffffffffffffffffffffffffffffff1673ffffffffffffffffffffffffffffffffffffffff1663156e29f6846006846040518463ffffffff1660e01b8152600401611d6f939291906125dc565b600060405180830381600087803b158015611d8957600080fd5b505af1158015611d9d573d6000803e3d6000fd5b505050505b5b5b5b5b505050565b60007f4e2312e0000000000000000000000000000000000000000000000000000000007bffffffffffffffffffffffffffffffffffffffffffffffffffffffff1916827bffffffffffffffffffffffffffffffffffffffffffffffffffffffff19161480611e1e5750611e1d82611e25565b5b9050919050565b60007f01ffc9a7000000000000000000000000000000000000000000000000000000007bffffffffffffffffffffffffffffffffffffffffffffffffffffffff1916827bffffffffffffffffffffffffffffffffffffffffffffffffffffffff1916149050919050565b6000604051905090565b600080fd5b600080fd5b60007fffffffff0000000000000000000000000000000000000000000000000000000082169050919050565b611ed881611ea3565b8114611ee357600080fd5b50565b600081359050611ef581611ecf565b92915050565b600060208284031215611f1157611f10611e99565b5b6000611f1f84828501611ee6565b91505092915050565b60008115159050919050565b611f3d81611f28565b82525050565b6000602082019050611f586000830184611f34565b92915050565b6000819050919050565b611f7181611f5e565b82525050565b6000602082019050611f8c6000830184611f68565b92915050565b600073ffffffffffffffffffffffffffffffffffffffff82169050919050565b6000611fbd82611f92565b9050919050565b611fcd81611fb2565b8114611fd857600080fd5b50565b600081359050611fea81611fc4565b92915050565b611ff981611f5e565b811461200457600080fd5b50565b60008135905061201681611ff0565b92915050565b60008060006060848603121561203557612034611e99565b5b600061204386828701611fdb565b935050602061205486828701612007565b925050604061206586828701612007565b9150509250925092565b600080fd5b6000601f19601f8301169050919050565b7f4e487b7100000000000000000000000000000000000000000000000000000000600052604160045260246000fd5b6120bd82612074565b810181811067ffffffffffffffff821117156120dc576120db612085565b5b80604052505050565b60006120ef611e8f565b90506120fb82826120b4565b919050565b600067ffffffffffffffff82111561211b5761211a612085565b5b602082029050602081019050919050565b600080fd5b600061214461213f84612100565b6120e5565b905080838252602082019050602084028301858111156121675761216661212c565b5b835b81811015612190578061217c8882612007565b845260208401935050602081019050612169565b5050509392505050565b600082601f8301126121af576121ae61206f565b5b81356121bf848260208601612131565b91505092915050565b600080fd5b600067ffffffffffffffff8211156121e8576121e7612085565b5b6121f182612074565b9050602081019050919050565b82818337600083830152505050565b600061222061221b846121cd565b6120e5565b90508281526020810184848401111561223c5761223b6121c8565b5b6122478482856121fe565b509392505050565b600082601f8301126122645761226361206f565b5b813561227484826020860161220d565b91505092915050565b600080600080600060a0868803121561229957612298611e99565b5b60006122a788828901611fdb565b95505060206122b888828901611fdb565b945050604086013567ffffffffffffffff8111156122d9576122d8611e9e565b5b6122e58882890161219a565b935050606086013567ffffffffffffffff81111561230657612305611e9e565b5b6123128882890161219a565b925050608086013567ffffffffffffffff81111561233357612332611e9e565b5b61233f8882890161224f565b9150509295509295909350565b61235581611ea3565b82525050565b6000602082019050612370600083018461234c565b92915050565b600080600080600060a0868803121561239257612391611e99565b5b60006123a088828901611fdb565b95505060206123b188828901611fdb565b94505060406123c288828901612007565b93505060606123d388828901612007565b925050608086013567ffffffffffffffff8111156123f4576123f3611e9e565b5b6124008882890161224f565b9150509295509295909350565b61241681611fb2565b82525050565b6000604082019050612431600083018561240d565b61243e6020830184611f68565b9392505050565b60008151905061245481611ff0565b92915050565b6000602082840312156124705761246f611e99565b5b600061247e84828501612445565b91505092915050565b600082825260208201905092915050565b7f596f7520646f6e2774206861766520736869656c647300000000000000000000600082015250565b60006124ce601683612487565b91506124d982612498565b602082019050919050565b600060208201905081810360008301526124fd816124c1565b9050919050565b7f596f7520646f6e27742068617665206c6f6b69277320686f726e730000000000600082015250565b600061253a601b83612487565b915061254582612504565b602082019050919050565b600060208201905081810360008301526125698161252d565b9050919050565b7f596f7520646f6e2774206861766520706f74696f6e0000000000000000000000600082015250565b60006125a6601583612487565b91506125b182612570565b602082019050919050565b600060208201905081810360008301526125d581612599565b9050919050565b60006060820190506125f1600083018661240d565b6125fe6020830185611f68565b61260b6040830184611f68565b949350505050565b7f596f7520646f6e2774206861766520676f6c6400000000000000000000000000600082015250565b6000612649601383612487565b915061265482612613565b602082019050919050565b600060208201905081810360008301526126788161263c565b9050919050565b6000819050919050565b6000819050919050565b60006126ae6126a96126a48461267f565b612689565b611f5e565b9050919050565b6126be81612693565b82525050565b60006060820190506126d9600083018661240d565b6126e66020830185611f68565b6126f360408301846126b5565b949350505050565b6000819050919050565b600061272061271b612716846126fb565b612689565b611f5e565b9050919050565b61273081612705565b82525050565b600060608201905061274b600083018661240d565b6127586020830185611f68565b6127656040830184612727565b949350505050565b7f596f7520646f6e277420686176652073696c7665720000000000000000000000600082015250565b60006127a3601583612487565b91506127ae8261276d565b602082019050919050565b600060208201905081810360008301526127d281612796565b9050919050565b7f596f7520646f6e277420686176652068616d6d65720000000000000000000000600082015250565b600061280f601583612487565b915061281a826127d9565b602082019050919050565b6000602082019050818103600083015261283e81612802565b9050919050565b7f4e487b7100000000000000000000000000000000000000000000000000000000600052601160045260246000fd5b600061287f82611f5e565b915061288a83611f5e565b92508282019050808211156128a2576128a1612845565b5b92915050565b7f4e6f7420656e6f7567682074696d652070617373656400000000000000000000600082015250565b60006128de601683612487565b91506128e9826128a8565b602082019050919050565b6000602082019050818103600083015261290d816128d1565b9050919050565b7f4e487b7100000000000000000000000000000000000000000000000000000000600052603260045260246000fd5b600081519050919050565b600082825260208201905092915050565b6000819050602082019050919050565b61297881611f5e565b82525050565b600061298a838361296f565b60208301905092915050565b6000602082019050919050565b60006129ae82612943565b6129b8818561294e565b93506129c38361295f565b8060005b838110156129f45781516129db888261297e565b97506129e683612996565b9250506001810190506129c7565b5085935050505092915050565b6000606082019050612a16600083018661240d565b8181036020830152612a2881856129a3565b90508181036040830152612a3c81846129a3565b905094935050505056fea2646970667358221220b8724a4027e6cc2f81d88753d257acee76407a1d7010600e3ad2f1ed83c016a564736f6c63430008120033",
  "linkReferences": {},
  "deployedLinkReferences": {}
}