{
  "_format": "hh-sol-artifact-1",
  "contractName": "erc20partialRefund",
  "sourceName": "contracts/erc20PartialRefund.sol",
  "abi": [
    {
      "inputs": [],
      "stateMutability": "nonpayable",
      "type": "constructor"
    },
    {
      "anonymous": false,
      "inputs": [
        {
          "indexed": true,
          "internalType": "address",
          "name": "owner",
          "type": "address"
        },
        {
          "indexed": true,
          "internalType": "address",
          "name": "spender",
          "type": "address"
        },
        {
          "indexed": false,
          "internalType": "uint256",
          "name": "value",
          "type": "uint256"
        }
      ],
      "name": "Approval",
      "type": "event"
    },
    {
      "anonymous": false,
      "inputs": [
        {
          "indexed": true,
          "internalType": "address",
          "name": "previousOwner",
          "type": "address"
        },
        {
          "indexed": true,
          "internalType": "address",
          "name": "newOwner",
          "type": "address"
        }
      ],
      "name": "OwnershipTransferred",
      "type": "event"
    },
    {
      "anonymous": false,
      "inputs": [
        {
          "indexed": true,
          "internalType": "address",
          "name": "from",
          "type": "address"
        },
        {
          "indexed": true,
          "internalType": "address",
          "name": "to",
          "type": "address"
        },
        {
          "indexed": false,
          "internalType": "uint256",
          "name": "value",
          "type": "uint256"
        }
      ],
      "name": "Transfer",
      "type": "event"
    },
    {
      "inputs": [],
      "name": "MAX_TOKENS",
      "outputs": [
        {
          "internalType": "uint256",
          "name": "",
          "type": "uint256"
        }
      ],
      "stateMutability": "view",
      "type": "function"
    },
    {
      "inputs": [
        {
          "internalType": "address",
          "name": "owner",
          "type": "address"
        },
        {
          "internalType": "address",
          "name": "spender",
          "type": "address"
        }
      ],
      "name": "allowance",
      "outputs": [
        {
          "internalType": "uint256",
          "name": "",
          "type": "uint256"
        }
      ],
      "stateMutability": "view",
      "type": "function"
    },
    {
      "inputs": [
        {
          "internalType": "address",
          "name": "spender",
          "type": "address"
        },
        {
          "internalType": "uint256",
          "name": "amount",
          "type": "uint256"
        }
      ],
      "name": "approve",
      "outputs": [
        {
          "internalType": "bool",
          "name": "",
          "type": "bool"
        }
      ],
      "stateMutability": "nonpayable",
      "type": "function"
    },
    {
      "inputs": [
        {
          "internalType": "address",
          "name": "account",
          "type": "address"
        }
      ],
      "name": "balanceOf",
      "outputs": [
        {
          "internalType": "uint256",
          "name": "",
          "type": "uint256"
        }
      ],
      "stateMutability": "view",
      "type": "function"
    },
    {
      "inputs": [],
      "name": "decimals",
      "outputs": [
        {
          "internalType": "uint8",
          "name": "",
          "type": "uint8"
        }
      ],
      "stateMutability": "view",
      "type": "function"
    },
    {
      "inputs": [
        {
          "internalType": "address",
          "name": "spender",
          "type": "address"
        },
        {
          "internalType": "uint256",
          "name": "subtractedValue",
          "type": "uint256"
        }
      ],
      "name": "decreaseAllowance",
      "outputs": [
        {
          "internalType": "bool",
          "name": "",
          "type": "bool"
        }
      ],
      "stateMutability": "nonpayable",
      "type": "function"
    },
    {
      "inputs": [
        {
          "internalType": "address",
          "name": "spender",
          "type": "address"
        },
        {
          "internalType": "uint256",
          "name": "addedValue",
          "type": "uint256"
        }
      ],
      "name": "increaseAllowance",
      "outputs": [
        {
          "internalType": "bool",
          "name": "",
          "type": "bool"
        }
      ],
      "stateMutability": "nonpayable",
      "type": "function"
    },
    {
      "inputs": [],
      "name": "minting",
      "outputs": [],
      "stateMutability": "payable",
      "type": "function"
    },
    {
      "inputs": [],
      "name": "name",
      "outputs": [
        {
          "internalType": "string",
          "name": "",
          "type": "string"
        }
      ],
      "stateMutability": "view",
      "type": "function"
    },
    {
      "inputs": [],
      "name": "owner",
      "outputs": [
        {
          "internalType": "address",
          "name": "",
          "type": "address"
        }
      ],
      "stateMutability": "view",
      "type": "function"
    },
    {
      "inputs": [],
      "name": "renounceOwnership",
      "outputs": [],
      "stateMutability": "nonpayable",
      "type": "function"
    },
    {
      "inputs": [
        {
          "internalType": "uint256",
          "name": "amount",
          "type": "uint256"
        }
      ],
      "name": "sellBack",
      "outputs": [],
      "stateMutability": "nonpayable",
      "type": "function"
    },
    {
      "inputs": [],
      "name": "symbol",
      "outputs": [
        {
          "internalType": "string",
          "name": "",
          "type": "string"
        }
      ],
      "stateMutability": "view",
      "type": "function"
    },
    {
      "inputs": [],
      "name": "totalSupply",
      "outputs": [
        {
          "internalType": "uint256",
          "name": "",
          "type": "uint256"
        }
      ],
      "stateMutability": "view",
      "type": "function"
    },
    {
      "inputs": [
        {
          "internalType": "address",
          "name": "to",
          "type": "address"
        },
        {
          "internalType": "uint256",
          "name": "amount",
          "type": "uint256"
        }
      ],
      "name": "transfer",
      "outputs": [
        {
          "internalType": "bool",
          "name": "",
          "type": "bool"
        }
      ],
      "stateMutability": "nonpayable",
      "type": "function"
    },
    {
      "inputs": [
        {
          "internalType": "address",
          "name": "from",
          "type": "address"
        },
        {
          "internalType": "address",
          "name": "to",
          "type": "address"
        },
        {
          "internalType": "uint256",
          "name": "amount",
          "type": "uint256"
        }
      ],
      "name": "transferFrom",
      "outputs": [
        {
          "internalType": "bool",
          "name": "",
          "type": "bool"
        }
      ],
      "stateMutability": "nonpayable",
      "type": "function"
    },
    {
      "inputs": [
        {
          "internalType": "address",
          "name": "newOwner",
          "type": "address"
        }
      ],
      "name": "transferOwnership",
      "outputs": [],
      "stateMutability": "nonpayable",
      "type": "function"
    },
    {
      "inputs": [],
      "name": "withdraw",
      "outputs": [],
      "stateMutability": "nonpayable",
      "type": "function"
    },
    {
      "stateMutability": "payable",
      "type": "receive"
    }
  ],
  "bytecode": "0x6080604052620000146200012260201b60201c565b600a62000022919062000396565b620f4240620000329190620003e7565b6006556601c6bf526340006007553480156200004d57600080fd5b506040518060400160405280600481526020017f476f6c64000000000000000000000000000000000000000000000000000000008152506040518060400160405280600381526020017f474c4400000000000000000000000000000000000000000000000000000000008152508160039081620000cb9190620006a2565b508060049081620000dd9190620006a2565b50505062000100620000f46200012b60201b60201c565b6200013360201b60201c565b6200011c6769b8ee4008aa31ca60c01b620001f960201b60201c565b62000789565b60006012905090565b600033905090565b6000600560009054906101000a900473ffffffffffffffffffffffffffffffffffffffff16905081600560006101000a81548173ffffffffffffffffffffffffffffffffffffffff021916908373ffffffffffffffffffffffffffffffffffffffff1602179055508173ffffffffffffffffffffffffffffffffffffffff168173ffffffffffffffffffffffffffffffffffffffff167f8be0079c531659141344cd1fd0a4f28419497f9722a3daafe3b4186f6b6457e060405160405180910390a35050565b50565b7f4e487b7100000000000000000000000000000000000000000000000000000000600052601160045260246000fd5b60008160011c9050919050565b6000808291508390505b60018511156200028a57808604811115620002625762000261620001fc565b5b6001851615620002725780820291505b808102905062000282856200022b565b945062000242565b94509492505050565b600082620002a5576001905062000378565b81620002b5576000905062000378565b8160018114620002ce5760028114620002d9576200030f565b600191505062000378565b60ff841115620002ee57620002ed620001fc565b5b8360020a915084821115620003085762000307620001fc565b5b5062000378565b5060208310610133831016604e8410600b8410161715620003495782820a905083811115620003435762000342620001fc565b5b62000378565b62000358848484600162000238565b92509050818404811115620003725762000371620001fc565b5b81810290505b9392505050565b6000819050919050565b600060ff82169050919050565b6000620003a3826200037f565b9150620003b08362000389565b9250620003df7fffffffffffffffffffffffffffffffffffffffffffffffffffffffffffffffff848462000293565b905092915050565b6000620003f4826200037f565b915062000401836200037f565b925082820262000411816200037f565b915082820484148315176200042b576200042a620001fc565b5b5092915050565b600081519050919050565b7f4e487b7100000000000000000000000000000000000000000000000000000000600052604160045260246000fd5b7f4e487b7100000000000000000000000000000000000000000000000000000000600052602260045260246000fd5b60006002820490506001821680620004b457607f821691505b602082108103620004ca57620004c96200046c565b5b50919050565b60008190508160005260206000209050919050565b60006020601f8301049050919050565b600082821b905092915050565b600060088302620005347fffffffffffffffffffffffffffffffffffffffffffffffffffffffffffffffff82620004f5565b620005408683620004f5565b95508019841693508086168417925050509392505050565b6000819050919050565b6000620005836200057d62000577846200037f565b62000558565b6200037f565b9050919050565b6000819050919050565b6200059f8362000562565b620005b7620005ae826200058a565b84845462000502565b825550505050565b600090565b620005ce620005bf565b620005db81848462000594565b505050565b5b818110156200060357620005f7600082620005c4565b600181019050620005e1565b5050565b601f82111562000652576200061c81620004d0565b6200062784620004e5565b8101602085101562000637578190505b6200064f6200064685620004e5565b830182620005e0565b50505b505050565b600082821c905092915050565b6000620006776000198460080262000657565b1980831691505092915050565b600062000692838362000664565b9150826002028217905092915050565b620006ad8262000432565b67ffffffffffffffff811115620006c957620006c86200043d565b5b620006d582546200049b565b620006e282828562000607565b600060209050601f8311600181146200071a576000841562000705578287015190505b62000711858262000684565b86555062000781565b601f1984166200072a86620004d0565b60005b8281101562000754578489015182556001820191506020850194506020810190506200072d565b8683101562000774578489015162000770601f89168262000664565b8355505b6001600288020188555050505b505050505050565b61240380620007996000396000f3fe60806040526004361061010d5760003560e01c80637dc2268c11610095578063a9059cbb11610064578063a9059cbb14610375578063ad5d4bc5146103b2578063dd62ed3e146103db578063f2fde38b14610418578063f47c84c51461044157610130565b80637dc2268c146102d85780638da5cb5b146102e257806395d89b411461030d578063a457c2d71461033857610130565b8063313ce567116100dc578063313ce5671461020557806339509351146102305780633ccfd60b1461026d57806370a0823114610284578063715018a6146102c157610130565b806306fdde0314610135578063095ea7b31461016057806318160ddd1461019d57806323b872dd146101c857610130565b36610130576101266770b4f7ac91bc61ae60c01b61046c565b61012e61046f565b005b600080fd5b34801561014157600080fd5b5061014a61060e565b60405161015791906116bd565b60405180910390f35b34801561016c57600080fd5b5061018760048036038101906101829190611778565b6106a0565b60405161019491906117d3565b60405180910390f35b3480156101a957600080fd5b506101b26106c3565b6040516101bf91906117fd565b60405180910390f35b3480156101d457600080fd5b506101ef60048036038101906101ea9190611818565b6106cd565b6040516101fc91906117d3565b60405180910390f35b34801561021157600080fd5b5061021a6106fc565b6040516102279190611887565b60405180910390f35b34801561023c57600080fd5b5061025760048036038101906102529190611778565b610705565b60405161026491906117d3565b60405180910390f35b34801561027957600080fd5b5061028261073c565b005b34801561029057600080fd5b506102ab60048036038101906102a691906118a2565b6108f8565b6040516102b891906117fd565b60405180910390f35b3480156102cd57600080fd5b506102d6610940565b005b6102e061046f565b005b3480156102ee57600080fd5b506102f76109c8565b60405161030491906118de565b60405180910390f35b34801561031957600080fd5b506103226109f2565b60405161032f91906116bd565b60405180910390f35b34801561034457600080fd5b5061035f600480360381019061035a9190611778565b610a84565b60405161036c91906117d3565b60405180910390f35b34801561038157600080fd5b5061039c60048036038101906103979190611778565b610afb565b6040516103a991906117d3565b60405180910390f35b3480156103be57600080fd5b506103d960048036038101906103d491906118f9565b610b1e565b005b3480156103e757600080fd5b5061040260048036038101906103fd9190611926565b610d9e565b60405161040f91906117fd565b60405180910390f35b34801561042457600080fd5b5061043f600480360381019061043a91906118a2565b610e25565b005b34801561044d57600080fd5b50610456610f1c565b60405161046391906117fd565b60405180910390f35b50565b61048367c55f49f429d72efd60c01b61046c565b61049767680f932def0ea4c160c01b61046c565b6104ab678871fc9b45606e0e60c01b61046c565b6104bf67ce994a888090cf9b60c01b61046c565b6006546104ca6106c3565b111561050b576040517f08c379a0000000000000000000000000000000000000000000000000000000008152600401610502906119b2565b60405180910390fd5b61051f67a55ce4371930d58060c01b61046c565b61053367a164477b66520b3560c01b61046c565b61054767cb219f1478f41e0760c01b61046c565b61055b678907371ce21e82ba60c01b61046c565b670de0b6b3a76400003410156105a6576040517f08c379a000000000000000000000000000000000000000000000000000000000815260040161059d90611a1e565b60405180910390fd5b6105ba671d2d47a78c7a64d560c01b61046c565b6105ce67ff498b79142384a660c01b61046c565b6105e2674554fcd9608bd32d60c01b61046c565b61060c336105ee6106fc565b600a6105fa9190611ba0565b6103e86106079190611beb565b610f22565b565b60606003805461061d90611c5c565b80601f016020809104026020016040519081016040528092919081815260200182805461064990611c5c565b80156106965780601f1061066b57610100808354040283529160200191610696565b820191906000526020600020905b81548152906001019060200180831161067957829003601f168201915b5050505050905090565b6000806106ab611081565b90506106b8818585611089565b600191505092915050565b6000600254905090565b6000806106d8611081565b90506106e5858285611252565b6106f08585856112de565b60019150509392505050565b60006012905090565b600080610710611081565b90506107318185856107228589610d9e565b61072c9190611c8d565b611089565b600191505092915050565b610750674e6c3b97087cf47d60c01b61046c565b610758611081565b73ffffffffffffffffffffffffffffffffffffffff166107766109c8565b73ffffffffffffffffffffffffffffffffffffffff16146107cc576040517f08c379a00000000000000000000000000000000000000000000000000000000081526004016107c390611d0d565b60405180910390fd5b6107e0675637900bf4c946f460c01b61046c565b6107f46795055ad85bab390c60c01b61046c565b6108086753be9dcd750e57ce60c01b61046c565b61081c672b80eea81cab7e5b60c01b61046c565b61083067d5930604cd96e86960c01b61046c565b60004711610873576040517f08c379a000000000000000000000000000000000000000000000000000000000815260040161086a90611d79565b60405180910390fd5b610887671e157b9acca1238f60c01b61046c565b61089b67febe09f6f1f7cf5e60c01b61046c565b6108af67e4e2cdb4ec269d2a60c01b61046c565b3373ffffffffffffffffffffffffffffffffffffffff166108fc479081150290604051600060405180830381858888f193505050501580156108f5573d6000803e3d6000fd5b50565b60008060008373ffffffffffffffffffffffffffffffffffffffff1673ffffffffffffffffffffffffffffffffffffffff168152602001908152602001600020549050919050565b610948611081565b73ffffffffffffffffffffffffffffffffffffffff166109666109c8565b73ffffffffffffffffffffffffffffffffffffffff16146109bc576040517f08c379a00000000000000000000000000000000000000000000000000000000081526004016109b390611d0d565b60405180910390fd5b6109c6600061155d565b565b6000600560009054906101000a900473ffffffffffffffffffffffffffffffffffffffff16905090565b606060048054610a0190611c5c565b80601f0160208091040260200160405190810160405280929190818152602001828054610a2d90611c5c565b8015610a7a5780601f10610a4f57610100808354040283529160200191610a7a565b820191906000526020600020905b815481529060010190602001808311610a5d57829003601f168201915b5050505050905090565b600080610a8f611081565b90506000610a9d8286610d9e565b905083811015610ae2576040517f08c379a0000000000000000000000000000000000000000000000000000000008152600401610ad990611e0b565b60405180910390fd5b610aef8286868403611089565b60019250505092915050565b600080610b06611081565b9050610b138185856112de565b600191505092915050565b610b3267789f4fa62567ff7560c01b61046c565b610b46678b2717048185dba860c01b61046c565b610b5a67ec23990d8e71c99e60c01b61046c565b6000610b646106fc565b600a610b709190611ba0565b82610b7b9190611beb565b9050610b91675cf23bfe2953417260c01b61046c565b610ba567ad3237c0ab3a07b160c01b61046c565b610bb967802374a4b8b4c39560c01b61046c565b60008111610bfc576040517f08c379a0000000000000000000000000000000000000000000000000000000008152600401610bf390611e9d565b60405180910390fd5b610c10677fc9c941f246a8f460c01b61046c565b610c24671288fddc5640753e60c01b61046c565b610c38676b61a1db2f8b13d960c01b61046c565b610c4c67c9a43c2dd6d7eed460c01b61046c565b610c546106fc565b600a610c609190611ba0565b60075482610c6e9190611beb565b610c789190611eec565b4711610cb9576040517f08c379a0000000000000000000000000000000000000000000000000000000008152600401610cb090611f69565b60405180910390fd5b610ccd6793add78dc4e843d760c01b61046c565b610ce167646a6b1d732c498d60c01b61046c565b610cf56783bfa0f4a4aacb1f60c01b61046c565b610d003330836112de565b610d1467a1000c94d917082160c01b61046c565b610d28671fc3984017d410d360c01b61046c565b3373ffffffffffffffffffffffffffffffffffffffff166108fc610d4a6106fc565b600a610d569190611ba0565b60075484610d649190611beb565b610d6e9190611eec565b9081150290604051600060405180830381858888f19350505050158015610d99573d6000803e3d6000fd5b505050565b6000600160008473ffffffffffffffffffffffffffffffffffffffff1673ffffffffffffffffffffffffffffffffffffffff16815260200190815260200160002060008373ffffffffffffffffffffffffffffffffffffffff1673ffffffffffffffffffffffffffffffffffffffff16815260200190815260200160002054905092915050565b610e2d611081565b73ffffffffffffffffffffffffffffffffffffffff16610e4b6109c8565b73ffffffffffffffffffffffffffffffffffffffff1614610ea1576040517f08c379a0000000000000000000000000000000000000000000000000000000008152600401610e9890611d0d565b60405180910390fd5b600073ffffffffffffffffffffffffffffffffffffffff168173ffffffffffffffffffffffffffffffffffffffff1603610f10576040517f08c379a0000000000000000000000000000000000000000000000000000000008152600401610f0790611ffb565b60405180910390fd5b610f198161155d565b50565b60065481565b600073ffffffffffffffffffffffffffffffffffffffff168273ffffffffffffffffffffffffffffffffffffffff1603610f91576040517f08c379a0000000000000000000000000000000000000000000000000000000008152600401610f8890612067565b60405180910390fd5b610f9d60008383611623565b8060026000828254610faf9190611c8d565b92505081905550806000808473ffffffffffffffffffffffffffffffffffffffff1673ffffffffffffffffffffffffffffffffffffffff16815260200190815260200160002060008282546110049190611c8d565b925050819055508173ffffffffffffffffffffffffffffffffffffffff16600073ffffffffffffffffffffffffffffffffffffffff167fddf252ad1be2c89b69c2b068fc378daa952ba7f163c4a11628f55a4df523b3ef8360405161106991906117fd565b60405180910390a361107d60008383611628565b5050565b600033905090565b600073ffffffffffffffffffffffffffffffffffffffff168373ffffffffffffffffffffffffffffffffffffffff16036110f8576040517f08c379a00000000000000000000000000000000000000000000000000000000081526004016110ef906120f9565b60405180910390fd5b600073ffffffffffffffffffffffffffffffffffffffff168273ffffffffffffffffffffffffffffffffffffffff1603611167576040517f08c379a000000000000000000000000000000000000000000000000000000000815260040161115e9061218b565b60405180910390fd5b80600160008573ffffffffffffffffffffffffffffffffffffffff1673ffffffffffffffffffffffffffffffffffffffff16815260200190815260200160002060008473ffffffffffffffffffffffffffffffffffffffff1673ffffffffffffffffffffffffffffffffffffffff168152602001908152602001600020819055508173ffffffffffffffffffffffffffffffffffffffff168373ffffffffffffffffffffffffffffffffffffffff167f8c5be1e5ebec7d5bd14f71427d1e84f3dd0314c0f7b2291e5b200ac8c7c3b9258360405161124591906117fd565b60405180910390a3505050565b600061125e8484610d9e565b90507fffffffffffffffffffffffffffffffffffffffffffffffffffffffffffffffff81146112d857818110156112ca576040517f08c379a00000000000000000000000000000000000000000000000000000000081526004016112c1906121f7565b60405180910390fd5b6112d78484848403611089565b5b50505050565b600073ffffffffffffffffffffffffffffffffffffffff168373ffffffffffffffffffffffffffffffffffffffff160361134d576040517f08c379a000000000000000000000000000000000000000000000000000000000815260040161134490612289565b60405180910390fd5b600073ffffffffffffffffffffffffffffffffffffffff168273ffffffffffffffffffffffffffffffffffffffff16036113bc576040517f08c379a00000000000000000000000000000000000000000000000000000000081526004016113b39061231b565b60405180910390fd5b6113c7838383611623565b60008060008573ffffffffffffffffffffffffffffffffffffffff1673ffffffffffffffffffffffffffffffffffffffff1681526020019081526020016000205490508181101561144d576040517f08c379a0000000000000000000000000000000000000000000000000000000008152600401611444906123ad565b60405180910390fd5b8181036000808673ffffffffffffffffffffffffffffffffffffffff1673ffffffffffffffffffffffffffffffffffffffff16815260200190815260200160002081905550816000808573ffffffffffffffffffffffffffffffffffffffff1673ffffffffffffffffffffffffffffffffffffffff16815260200190815260200160002060008282546114e09190611c8d565b925050819055508273ffffffffffffffffffffffffffffffffffffffff168473ffffffffffffffffffffffffffffffffffffffff167fddf252ad1be2c89b69c2b068fc378daa952ba7f163c4a11628f55a4df523b3ef8460405161154491906117fd565b60405180910390a3611557848484611628565b50505050565b6000600560009054906101000a900473ffffffffffffffffffffffffffffffffffffffff16905081600560006101000a81548173ffffffffffffffffffffffffffffffffffffffff021916908373ffffffffffffffffffffffffffffffffffffffff1602179055508173ffffffffffffffffffffffffffffffffffffffff168173ffffffffffffffffffffffffffffffffffffffff167f8be0079c531659141344cd1fd0a4f28419497f9722a3daafe3b4186f6b6457e060405160405180910390a35050565b505050565b505050565b600081519050919050565b600082825260208201905092915050565b60005b8381101561166757808201518184015260208101905061164c565b60008484015250505050565b6000601f19601f8301169050919050565b600061168f8261162d565b6116998185611638565b93506116a9818560208601611649565b6116b281611673565b840191505092915050565b600060208201905081810360008301526116d78184611684565b905092915050565b600080fd5b600073ffffffffffffffffffffffffffffffffffffffff82169050919050565b600061170f826116e4565b9050919050565b61171f81611704565b811461172a57600080fd5b50565b60008135905061173c81611716565b92915050565b6000819050919050565b61175581611742565b811461176057600080fd5b50565b6000813590506117728161174c565b92915050565b6000806040838503121561178f5761178e6116df565b5b600061179d8582860161172d565b92505060206117ae85828601611763565b9150509250929050565b60008115159050919050565b6117cd816117b8565b82525050565b60006020820190506117e860008301846117c4565b92915050565b6117f781611742565b82525050565b600060208201905061181260008301846117ee565b92915050565b600080600060608486031215611831576118306116df565b5b600061183f8682870161172d565b93505060206118508682870161172d565b925050604061186186828701611763565b9150509250925092565b600060ff82169050919050565b6118818161186b565b82525050565b600060208201905061189c6000830184611878565b92915050565b6000602082840312156118b8576118b76116df565b5b60006118c68482850161172d565b91505092915050565b6118d881611704565b82525050565b60006020820190506118f360008301846118cf565b92915050565b60006020828403121561190f5761190e6116df565b5b600061191d84828501611763565b91505092915050565b6000806040838503121561193d5761193c6116df565b5b600061194b8582860161172d565b925050602061195c8582860161172d565b9150509250929050565b7f546f74616c537570706c792065786365656473206c696d697400000000000000600082015250565b600061199c601983611638565b91506119a782611966565b602082019050919050565b600060208201905081810360008301526119cb8161198f565b9050919050565b7f4e6f7420656e6f75676820657468657200000000000000000000000000000000600082015250565b6000611a08601083611638565b9150611a13826119d2565b602082019050919050565b60006020820190508181036000830152611a37816119fb565b9050919050565b7f4e487b7100000000000000000000000000000000000000000000000000000000600052601160045260246000fd5b60008160011c9050919050565b6000808291508390505b6001851115611ac457808604811115611aa057611a9f611a3e565b5b6001851615611aaf5780820291505b8081029050611abd85611a6d565b9450611a84565b94509492505050565b600082611add5760019050611b99565b81611aeb5760009050611b99565b8160018114611b015760028114611b0b57611b3a565b6001915050611b99565b60ff841115611b1d57611b1c611a3e565b5b8360020a915084821115611b3457611b33611a3e565b5b50611b99565b5060208310610133831016604e8410600b8410161715611b6f5782820a905083811115611b6a57611b69611a3e565b5b611b99565b611b7c8484846001611a7a565b92509050818404811115611b9357611b92611a3e565b5b81810290505b9392505050565b6000611bab82611742565b9150611bb68361186b565b9250611be37fffffffffffffffffffffffffffffffffffffffffffffffffffffffffffffffff8484611acd565b905092915050565b6000611bf682611742565b9150611c0183611742565b9250828202611c0f81611742565b91508282048414831517611c2657611c25611a3e565b5b5092915050565b7f4e487b7100000000000000000000000000000000000000000000000000000000600052602260045260246000fd5b60006002820490506001821680611c7457607f821691505b602082108103611c8757611c86611c2d565b5b50919050565b6000611c9882611742565b9150611ca383611742565b9250828201905080821115611cbb57611cba611a3e565b5b92915050565b7f4f776e61626c653a2063616c6c6572206973206e6f7420746865206f776e6572600082015250565b6000611cf7602083611638565b9150611d0282611cc1565b602082019050919050565b60006020820190508181036000830152611d2681611cea565b9050919050565b7f436f6e747261637420686173206e6f2065746865720000000000000000000000600082015250565b6000611d63601583611638565b9150611d6e82611d2d565b602082019050919050565b60006020820190508181036000830152611d9281611d56565b9050919050565b7f45524332303a2064656372656173656420616c6c6f77616e63652062656c6f7760008201527f207a65726f000000000000000000000000000000000000000000000000000000602082015250565b6000611df5602583611638565b9150611e0082611d99565b604082019050919050565b60006020820190508181036000830152611e2481611de8565b9050919050565b7f596f75206e65656420746f2073656c6c206174206c6561737420736f6d65207460008201527f6f6b656e73000000000000000000000000000000000000000000000000000000602082015250565b6000611e87602583611638565b9150611e9282611e2b565b604082019050919050565b60006020820190508181036000830152611eb681611e7a565b9050919050565b7f4e487b7100000000000000000000000000000000000000000000000000000000600052601260045260246000fd5b6000611ef782611742565b9150611f0283611742565b925082611f1257611f11611ebd565b5b828204905092915050565b7f534320646f65736e277420686f6c6420656e6f75676820657468657200000000600082015250565b6000611f53601c83611638565b9150611f5e82611f1d565b602082019050919050565b60006020820190508181036000830152611f8281611f46565b9050919050565b7f4f776e61626c653a206e6577206f776e657220697320746865207a65726f206160008201527f6464726573730000000000000000000000000000000000000000000000000000602082015250565b6000611fe5602683611638565b9150611ff082611f89565b604082019050919050565b6000602082019050818103600083015261201481611fd8565b9050919050565b7f45524332303a206d696e7420746f20746865207a65726f206164647265737300600082015250565b6000612051601f83611638565b915061205c8261201b565b602082019050919050565b6000602082019050818103600083015261208081612044565b9050919050565b7f45524332303a20617070726f76652066726f6d20746865207a65726f2061646460008201527f7265737300000000000000000000000000000000000000000000000000000000602082015250565b60006120e3602483611638565b91506120ee82612087565b604082019050919050565b60006020820190508181036000830152612112816120d6565b9050919050565b7f45524332303a20617070726f766520746f20746865207a65726f20616464726560008201527f7373000000000000000000000000000000000000000000000000000000000000602082015250565b6000612175602283611638565b915061218082612119565b604082019050919050565b600060208201905081810360008301526121a481612168565b9050919050565b7f45524332303a20696e73756666696369656e7420616c6c6f77616e6365000000600082015250565b60006121e1601d83611638565b91506121ec826121ab565b602082019050919050565b60006020820190508181036000830152612210816121d4565b9050919050565b7f45524332303a207472616e736665722066726f6d20746865207a65726f20616460008201527f6472657373000000000000000000000000000000000000000000000000000000602082015250565b6000612273602583611638565b915061227e82612217565b604082019050919050565b600060208201905081810360008301526122a281612266565b9050919050565b7f45524332303a207472616e7366657220746f20746865207a65726f206164647260008201527f6573730000000000000000000000000000000000000000000000000000000000602082015250565b6000612305602383611638565b9150612310826122a9565b604082019050919050565b60006020820190508181036000830152612334816122f8565b9050919050565b7f45524332303a207472616e7366657220616d6f756e742065786365656473206260008201527f616c616e63650000000000000000000000000000000000000000000000000000602082015250565b6000612397602683611638565b91506123a28261233b565b604082019050919050565b600060208201905081810360008301526123c68161238a565b905091905056fea26469706673582212208f4c7b8597d98861cf544bbe1586c944fa0308f49f3b5e486693b6dec250209c64736f6c63430008120033",
  "linkReferences": {},
  "deployedLinkReferences": {}
}