{
  "_format": "hh-sol-artifact-1",
  "contractName": "erc20partialRefund",
  "sourceName": "contracts/erc20PartialRefund.sol",
  "abi": [
    {
      "inputs": [],
      "stateMutability": "nonpayable",
      "type": "constructor"
    },
    {
      "anonymous": false,
      "inputs": [
        {
          "indexed": true,
          "internalType": "address",
          "name": "owner",
          "type": "address"
        },
        {
          "indexed": true,
          "internalType": "address",
          "name": "spender",
          "type": "address"
        },
        {
          "indexed": false,
          "internalType": "uint256",
          "name": "value",
          "type": "uint256"
        }
      ],
      "name": "Approval",
      "type": "event"
    },
    {
      "anonymous": false,
      "inputs": [
        {
          "indexed": true,
          "internalType": "address",
          "name": "previousOwner",
          "type": "address"
        },
        {
          "indexed": true,
          "internalType": "address",
          "name": "newOwner",
          "type": "address"
        }
      ],
      "name": "OwnershipTransferred",
      "type": "event"
    },
    {
      "anonymous": false,
      "inputs": [
        {
          "indexed": true,
          "internalType": "bytes32",
          "name": "role",
          "type": "bytes32"
        },
        {
          "indexed": true,
          "internalType": "bytes32",
          "name": "previousAdminRole",
          "type": "bytes32"
        },
        {
          "indexed": true,
          "internalType": "bytes32",
          "name": "newAdminRole",
          "type": "bytes32"
        }
      ],
      "name": "RoleAdminChanged",
      "type": "event"
    },
    {
      "anonymous": false,
      "inputs": [
        {
          "indexed": true,
          "internalType": "bytes32",
          "name": "role",
          "type": "bytes32"
        },
        {
          "indexed": true,
          "internalType": "address",
          "name": "account",
          "type": "address"
        },
        {
          "indexed": true,
          "internalType": "address",
          "name": "sender",
          "type": "address"
        }
      ],
      "name": "RoleGranted",
      "type": "event"
    },
    {
      "anonymous": false,
      "inputs": [
        {
          "indexed": true,
          "internalType": "bytes32",
          "name": "role",
          "type": "bytes32"
        },
        {
          "indexed": true,
          "internalType": "address",
          "name": "account",
          "type": "address"
        },
        {
          "indexed": true,
          "internalType": "address",
          "name": "sender",
          "type": "address"
        }
      ],
      "name": "RoleRevoked",
      "type": "event"
    },
    {
      "anonymous": false,
      "inputs": [
        {
          "indexed": true,
          "internalType": "address",
          "name": "from",
          "type": "address"
        },
        {
          "indexed": true,
          "internalType": "address",
          "name": "to",
          "type": "address"
        },
        {
          "indexed": false,
          "internalType": "uint256",
          "name": "value",
          "type": "uint256"
        }
      ],
      "name": "Transfer",
      "type": "event"
    },
    {
      "inputs": [],
      "name": "DEFAULT_ADMIN_ROLE",
      "outputs": [
        {
          "internalType": "bytes32",
          "name": "",
          "type": "bytes32"
        }
      ],
      "stateMutability": "view",
      "type": "function"
    },
    {
      "inputs": [
        {
          "internalType": "address",
          "name": "owner",
          "type": "address"
        },
        {
          "internalType": "address",
          "name": "spender",
          "type": "address"
        }
      ],
      "name": "allowance",
      "outputs": [
        {
          "internalType": "uint256",
          "name": "",
          "type": "uint256"
        }
      ],
      "stateMutability": "view",
      "type": "function"
    },
    {
      "inputs": [
        {
          "internalType": "address",
          "name": "spender",
          "type": "address"
        },
        {
          "internalType": "uint256",
          "name": "amount",
          "type": "uint256"
        }
      ],
      "name": "approve",
      "outputs": [
        {
          "internalType": "bool",
          "name": "",
          "type": "bool"
        }
      ],
      "stateMutability": "nonpayable",
      "type": "function"
    },
    {
      "inputs": [
        {
          "internalType": "address",
          "name": "account",
          "type": "address"
        }
      ],
      "name": "balanceOf",
      "outputs": [
        {
          "internalType": "uint256",
          "name": "",
          "type": "uint256"
        }
      ],
      "stateMutability": "view",
      "type": "function"
    },
    {
      "inputs": [],
      "name": "decimals",
      "outputs": [
        {
          "internalType": "uint8",
          "name": "",
          "type": "uint8"
        }
      ],
      "stateMutability": "view",
      "type": "function"
    },
    {
      "inputs": [
        {
          "internalType": "address",
          "name": "spender",
          "type": "address"
        },
        {
          "internalType": "uint256",
          "name": "subtractedValue",
          "type": "uint256"
        }
      ],
      "name": "decreaseAllowance",
      "outputs": [
        {
          "internalType": "bool",
          "name": "",
          "type": "bool"
        }
      ],
      "stateMutability": "nonpayable",
      "type": "function"
    },
    {
      "inputs": [
        {
          "internalType": "bytes32",
          "name": "role",
          "type": "bytes32"
        }
      ],
      "name": "getRoleAdmin",
      "outputs": [
        {
          "internalType": "bytes32",
          "name": "",
          "type": "bytes32"
        }
      ],
      "stateMutability": "view",
      "type": "function"
    },
    {
      "inputs": [
        {
          "internalType": "bytes32",
          "name": "role",
          "type": "bytes32"
        },
        {
          "internalType": "address",
          "name": "account",
          "type": "address"
        }
      ],
      "name": "grantRole",
      "outputs": [],
      "stateMutability": "nonpayable",
      "type": "function"
    },
    {
      "inputs": [
        {
          "internalType": "bytes32",
          "name": "role",
          "type": "bytes32"
        },
        {
          "internalType": "address",
          "name": "account",
          "type": "address"
        }
      ],
      "name": "hasRole",
      "outputs": [
        {
          "internalType": "bool",
          "name": "",
          "type": "bool"
        }
      ],
      "stateMutability": "view",
      "type": "function"
    },
    {
      "inputs": [
        {
          "internalType": "address",
          "name": "spender",
          "type": "address"
        },
        {
          "internalType": "uint256",
          "name": "addedValue",
          "type": "uint256"
        }
      ],
      "name": "increaseAllowance",
      "outputs": [
        {
          "internalType": "bool",
          "name": "",
          "type": "bool"
        }
      ],
      "stateMutability": "nonpayable",
      "type": "function"
    },
    {
      "inputs": [],
      "name": "minting",
      "outputs": [],
      "stateMutability": "payable",
      "type": "function"
    },
    {
      "inputs": [],
      "name": "name",
      "outputs": [
        {
          "internalType": "string",
          "name": "",
          "type": "string"
        }
      ],
      "stateMutability": "view",
      "type": "function"
    },
    {
      "inputs": [],
      "name": "owner",
      "outputs": [
        {
          "internalType": "address",
          "name": "",
          "type": "address"
        }
      ],
      "stateMutability": "view",
      "type": "function"
    },
    {
      "inputs": [],
      "name": "renounceOwnership",
      "outputs": [],
      "stateMutability": "nonpayable",
      "type": "function"
    },
    {
      "inputs": [
        {
          "internalType": "bytes32",
          "name": "role",
          "type": "bytes32"
        },
        {
          "internalType": "address",
          "name": "account",
          "type": "address"
        }
      ],
      "name": "renounceRole",
      "outputs": [],
      "stateMutability": "nonpayable",
      "type": "function"
    },
    {
      "inputs": [
        {
          "internalType": "bytes32",
          "name": "role",
          "type": "bytes32"
        },
        {
          "internalType": "address",
          "name": "account",
          "type": "address"
        }
      ],
      "name": "revokeRole",
      "outputs": [],
      "stateMutability": "nonpayable",
      "type": "function"
    },
    {
      "inputs": [
        {
          "internalType": "uint256",
          "name": "amount",
          "type": "uint256"
        }
      ],
      "name": "sellBack",
      "outputs": [],
      "stateMutability": "nonpayable",
      "type": "function"
    },
    {
      "inputs": [
        {
          "internalType": "bytes4",
          "name": "interfaceId",
          "type": "bytes4"
        }
      ],
      "name": "supportsInterface",
      "outputs": [
        {
          "internalType": "bool",
          "name": "",
          "type": "bool"
        }
      ],
      "stateMutability": "view",
      "type": "function"
    },
    {
      "inputs": [],
      "name": "symbol",
      "outputs": [
        {
          "internalType": "string",
          "name": "",
          "type": "string"
        }
      ],
      "stateMutability": "view",
      "type": "function"
    },
    {
      "inputs": [],
      "name": "totalSupply",
      "outputs": [
        {
          "internalType": "uint256",
          "name": "",
          "type": "uint256"
        }
      ],
      "stateMutability": "view",
      "type": "function"
    },
    {
      "inputs": [
        {
          "internalType": "address",
          "name": "to",
          "type": "address"
        },
        {
          "internalType": "uint256",
          "name": "amount",
          "type": "uint256"
        }
      ],
      "name": "transfer",
      "outputs": [
        {
          "internalType": "bool",
          "name": "",
          "type": "bool"
        }
      ],
      "stateMutability": "nonpayable",
      "type": "function"
    },
    {
      "inputs": [
        {
          "internalType": "address",
          "name": "from",
          "type": "address"
        },
        {
          "internalType": "address",
          "name": "to",
          "type": "address"
        },
        {
          "internalType": "uint256",
          "name": "amount",
          "type": "uint256"
        }
      ],
      "name": "transferFrom",
      "outputs": [
        {
          "internalType": "bool",
          "name": "",
          "type": "bool"
        }
      ],
      "stateMutability": "nonpayable",
      "type": "function"
    },
    {
      "inputs": [
        {
          "internalType": "address",
          "name": "newOwner",
          "type": "address"
        }
      ],
      "name": "transferOwnership",
      "outputs": [],
      "stateMutability": "nonpayable",
      "type": "function"
    },
    {
      "inputs": [],
      "name": "withdraw",
      "outputs": [],
      "stateMutability": "nonpayable",
      "type": "function"
    },
    {
      "stateMutability": "payable",
      "type": "receive"
    }
  ],
  "bytecode": "0x6080604052620000146200010660201b60201c565b600a62000022919062000377565b620f4240620000329190620003c8565b6007556601c6bf526340006008553480156200004d57600080fd5b506040518060400160405280600481526020017f476f6c64000000000000000000000000000000000000000000000000000000008152506040518060400160405280600381526020017f474c4400000000000000000000000000000000000000000000000000000000008152508160039081620000cb919062000683565b508060049081620000dd919062000683565b50505062000100620000f46200010f60201b60201c565b6200011760201b60201c565b6200076a565b60006012905090565b600033905090565b6000600560009054906101000a900473ffffffffffffffffffffffffffffffffffffffff16905081600560006101000a81548173ffffffffffffffffffffffffffffffffffffffff021916908373ffffffffffffffffffffffffffffffffffffffff1602179055508173ffffffffffffffffffffffffffffffffffffffff168173ffffffffffffffffffffffffffffffffffffffff167f8be0079c531659141344cd1fd0a4f28419497f9722a3daafe3b4186f6b6457e060405160405180910390a35050565b7f4e487b7100000000000000000000000000000000000000000000000000000000600052601160045260246000fd5b60008160011c9050919050565b6000808291508390505b60018511156200026b57808604811115620002435762000242620001dd565b5b6001851615620002535780820291505b808102905062000263856200020c565b945062000223565b94509492505050565b60008262000286576001905062000359565b8162000296576000905062000359565b8160018114620002af5760028114620002ba57620002f0565b600191505062000359565b60ff841115620002cf57620002ce620001dd565b5b8360020a915084821115620002e957620002e8620001dd565b5b5062000359565b5060208310610133831016604e8410600b84101617156200032a5782820a905083811115620003245762000323620001dd565b5b62000359565b62000339848484600162000219565b92509050818404811115620003535762000352620001dd565b5b81810290505b9392505050565b6000819050919050565b600060ff82169050919050565b6000620003848262000360565b915062000391836200036a565b9250620003c07fffffffffffffffffffffffffffffffffffffffffffffffffffffffffffffffff848462000274565b905092915050565b6000620003d58262000360565b9150620003e28362000360565b9250828202620003f28162000360565b915082820484148315176200040c576200040b620001dd565b5b5092915050565b600081519050919050565b7f4e487b7100000000000000000000000000000000000000000000000000000000600052604160045260246000fd5b7f4e487b7100000000000000000000000000000000000000000000000000000000600052602260045260246000fd5b600060028204905060018216806200049557607f821691505b602082108103620004ab57620004aa6200044d565b5b50919050565b60008190508160005260206000209050919050565b60006020601f8301049050919050565b600082821b905092915050565b600060088302620005157fffffffffffffffffffffffffffffffffffffffffffffffffffffffffffffffff82620004d6565b620005218683620004d6565b95508019841693508086168417925050509392505050565b6000819050919050565b6000620005646200055e620005588462000360565b62000539565b62000360565b9050919050565b6000819050919050565b620005808362000543565b620005986200058f826200056b565b848454620004e3565b825550505050565b600090565b620005af620005a0565b620005bc81848462000575565b505050565b5b81811015620005e457620005d8600082620005a5565b600181019050620005c2565b5050565b601f8211156200063357620005fd81620004b1565b6200060884620004c6565b8101602085101562000618578190505b620006306200062785620004c6565b830182620005c1565b50505b505050565b600082821c905092915050565b6000620006586000198460080262000638565b1980831691505092915050565b600062000673838362000645565b9150826002028217905092915050565b6200068e8262000413565b67ffffffffffffffff811115620006aa57620006a96200041e565b5b620006b682546200047c565b620006c3828285620005e8565b600060209050601f831160018114620006fb5760008415620006e6578287015190505b620006f2858262000665565b86555062000762565b601f1984166200070b86620004b1565b60005b8281101562000735578489015182556001820191506020850194506020810190506200070e565b8683101562000755578489015162000751601f89168262000645565b8355505b6001600288020188555050505b505050505050565b612d6e806200077a6000396000f3fe60806040526004361061014f5760003560e01c8063715018a6116100b6578063a457c2d71161006f578063a457c2d71461049a578063a9059cbb146104d7578063ad5d4bc514610514578063d547741f1461053d578063dd62ed3e14610566578063f2fde38b146105a35761015e565b8063715018a6146103bb5780637dc2268c146103d25780638da5cb5b146103dc57806391d148541461040757806395d89b4114610444578063a217fddf1461046f5761015e565b80632f2ff15d116101085780632f2ff15d146102ad578063313ce567146102d657806336568abe14610301578063395093511461032a5780633ccfd60b1461036757806370a082311461037e5761015e565b806301ffc9a71461016357806306fdde03146101a0578063095ea7b3146101cb57806318160ddd1461020857806323b872dd14610233578063248a9ca3146102705761015e565b3661015e5761015c6105cc565b005b600080fd5b34801561016f57600080fd5b5061018a60048036038101906101859190611c10565b61068f565b6040516101979190611c58565b60405180910390f35b3480156101ac57600080fd5b506101b5610709565b6040516101c29190611d03565b60405180910390f35b3480156101d757600080fd5b506101f260048036038101906101ed9190611db9565b61079b565b6040516101ff9190611c58565b60405180910390f35b34801561021457600080fd5b5061021d6107be565b60405161022a9190611e08565b60405180910390f35b34801561023f57600080fd5b5061025a60048036038101906102559190611e23565b6107c8565b6040516102679190611c58565b60405180910390f35b34801561027c57600080fd5b5061029760048036038101906102929190611eac565b6107f7565b6040516102a49190611ee8565b60405180910390f35b3480156102b957600080fd5b506102d460048036038101906102cf9190611f03565b610817565b005b3480156102e257600080fd5b506102eb610838565b6040516102f89190611f5f565b60405180910390f35b34801561030d57600080fd5b5061032860048036038101906103239190611f03565b610841565b005b34801561033657600080fd5b50610351600480360381019061034c9190611db9565b6108c4565b60405161035e9190611c58565b60405180910390f35b34801561037357600080fd5b5061037c6108fb565b005b34801561038a57600080fd5b506103a560048036038101906103a09190611f7a565b610a03565b6040516103b29190611e08565b60405180910390f35b3480156103c757600080fd5b506103d0610a4b565b005b6103da6105cc565b005b3480156103e857600080fd5b506103f1610ad3565b6040516103fe9190611fb6565b60405180910390f35b34801561041357600080fd5b5061042e60048036038101906104299190611f03565b610afd565b60405161043b9190611c58565b60405180910390f35b34801561045057600080fd5b50610459610b68565b6040516104669190611d03565b60405180910390f35b34801561047b57600080fd5b50610484610bfa565b6040516104919190611ee8565b60405180910390f35b3480156104a657600080fd5b506104c160048036038101906104bc9190611db9565b610c01565b6040516104ce9190611c58565b60405180910390f35b3480156104e357600080fd5b506104fe60048036038101906104f99190611db9565b610c78565b60405161050b9190611c58565b60405180910390f35b34801561052057600080fd5b5061053b60048036038101906105369190611fd1565b610c9b565b005b34801561054957600080fd5b50610564600480360381019061055f9190611f03565b610def565b005b34801561057257600080fd5b5061058d60048036038101906105889190611ffe565b610e10565b60405161059a9190611e08565b60405180910390f35b3480156105af57600080fd5b506105ca60048036038101906105c59190611f7a565b610e97565b005b6007546105d76107be565b1115610618576040517f08c379a000000000000000000000000000000000000000000000000000000000815260040161060f9061208a565b60405180910390fd5b670de0b6b3a7640000341015610663576040517f08c379a000000000000000000000000000000000000000000000000000000000815260040161065a906120f6565b60405180910390fd5b61068d3361066f610838565b600a61067b9190612278565b6103e861068891906122c3565b610f8e565b565b60007f7965db0b000000000000000000000000000000000000000000000000000000007bffffffffffffffffffffffffffffffffffffffffffffffffffffffff1916827bffffffffffffffffffffffffffffffffffffffffffffffffffffffff191614806107025750610701826110ed565b5b9050919050565b60606003805461071890612334565b80601f016020809104026020016040519081016040528092919081815260200182805461074490612334565b80156107915780601f1061076657610100808354040283529160200191610791565b820191906000526020600020905b81548152906001019060200180831161077457829003601f168201915b5050505050905090565b6000806107a6611157565b90506107b381858561115f565b600191505092915050565b6000600254905090565b6000806107d3611157565b90506107e0858285611328565b6107eb8585856113b4565b60019150509392505050565b600060066000838152602001908152602001600020600101549050919050565b610820826107f7565b61082981611633565b6108338383611647565b505050565b60006012905090565b610849611157565b73ffffffffffffffffffffffffffffffffffffffff168173ffffffffffffffffffffffffffffffffffffffff16146108b6576040517f08c379a00000000000000000000000000000000000000000000000000000000081526004016108ad906123d7565b60405180910390fd5b6108c08282611728565b5050565b6000806108cf611157565b90506108f08185856108e18589610e10565b6108eb91906123f7565b61115f565b600191505092915050565b610903611157565b73ffffffffffffffffffffffffffffffffffffffff16610921610ad3565b73ffffffffffffffffffffffffffffffffffffffff1614610977576040517f08c379a000000000000000000000000000000000000000000000000000000000815260040161096e90612477565b60405180910390fd5b600047116109ba576040517f08c379a00000000000000000000000000000000000000000000000000000000081526004016109b1906124e3565b60405180910390fd5b3373ffffffffffffffffffffffffffffffffffffffff166108fc479081150290604051600060405180830381858888f19350505050158015610a00573d6000803e3d6000fd5b50565b60008060008373ffffffffffffffffffffffffffffffffffffffff1673ffffffffffffffffffffffffffffffffffffffff168152602001908152602001600020549050919050565b610a53611157565b73ffffffffffffffffffffffffffffffffffffffff16610a71610ad3565b73ffffffffffffffffffffffffffffffffffffffff1614610ac7576040517f08c379a0000000000000000000000000000000000000000000000000000000008152600401610abe90612477565b60405180910390fd5b610ad1600061180a565b565b6000600560009054906101000a900473ffffffffffffffffffffffffffffffffffffffff16905090565b60006006600084815260200190815260200160002060000160008373ffffffffffffffffffffffffffffffffffffffff1673ffffffffffffffffffffffffffffffffffffffff16815260200190815260200160002060009054906101000a900460ff16905092915050565b606060048054610b7790612334565b80601f0160208091040260200160405190810160405280929190818152602001828054610ba390612334565b8015610bf05780601f10610bc557610100808354040283529160200191610bf0565b820191906000526020600020905b815481529060010190602001808311610bd357829003601f168201915b5050505050905090565b6000801b81565b600080610c0c611157565b90506000610c1a8286610e10565b905083811015610c5f576040517f08c379a0000000000000000000000000000000000000000000000000000000008152600401610c5690612575565b60405180910390fd5b610c6c828686840361115f565b60019250505092915050565b600080610c83611157565b9050610c908185856113b4565b600191505092915050565b6000610ca5610838565b600a610cb19190612278565b82610cbc91906122c3565b905060008111610d01576040517f08c379a0000000000000000000000000000000000000000000000000000000008152600401610cf890612607565b60405180910390fd5b610d09610838565b600a610d159190612278565b60085482610d2391906122c3565b610d2d9190612656565b4711610d6e576040517f08c379a0000000000000000000000000000000000000000000000000000000008152600401610d65906126d3565b60405180910390fd5b610d793330836113b4565b3373ffffffffffffffffffffffffffffffffffffffff166108fc610d9b610838565b600a610da79190612278565b60085484610db591906122c3565b610dbf9190612656565b9081150290604051600060405180830381858888f19350505050158015610dea573d6000803e3d6000fd5b505050565b610df8826107f7565b610e0181611633565b610e0b8383611728565b505050565b6000600160008473ffffffffffffffffffffffffffffffffffffffff1673ffffffffffffffffffffffffffffffffffffffff16815260200190815260200160002060008373ffffffffffffffffffffffffffffffffffffffff1673ffffffffffffffffffffffffffffffffffffffff16815260200190815260200160002054905092915050565b610e9f611157565b73ffffffffffffffffffffffffffffffffffffffff16610ebd610ad3565b73ffffffffffffffffffffffffffffffffffffffff1614610f13576040517f08c379a0000000000000000000000000000000000000000000000000000000008152600401610f0a90612477565b60405180910390fd5b600073ffffffffffffffffffffffffffffffffffffffff168173ffffffffffffffffffffffffffffffffffffffff1603610f82576040517f08c379a0000000000000000000000000000000000000000000000000000000008152600401610f7990612765565b60405180910390fd5b610f8b8161180a565b50565b600073ffffffffffffffffffffffffffffffffffffffff168273ffffffffffffffffffffffffffffffffffffffff1603610ffd576040517f08c379a0000000000000000000000000000000000000000000000000000000008152600401610ff4906127d1565b60405180910390fd5b611009600083836118d0565b806002600082825461101b91906123f7565b92505081905550806000808473ffffffffffffffffffffffffffffffffffffffff1673ffffffffffffffffffffffffffffffffffffffff168152602001908152602001600020600082825461107091906123f7565b925050819055508173ffffffffffffffffffffffffffffffffffffffff16600073ffffffffffffffffffffffffffffffffffffffff167fddf252ad1be2c89b69c2b068fc378daa952ba7f163c4a11628f55a4df523b3ef836040516110d59190611e08565b60405180910390a36110e9600083836118d5565b5050565b60007f01ffc9a7000000000000000000000000000000000000000000000000000000007bffffffffffffffffffffffffffffffffffffffffffffffffffffffff1916827bffffffffffffffffffffffffffffffffffffffffffffffffffffffff1916149050919050565b600033905090565b600073ffffffffffffffffffffffffffffffffffffffff168373ffffffffffffffffffffffffffffffffffffffff16036111ce576040517f08c379a00000000000000000000000000000000000000000000000000000000081526004016111c590612863565b60405180910390fd5b600073ffffffffffffffffffffffffffffffffffffffff168273ffffffffffffffffffffffffffffffffffffffff160361123d576040517f08c379a0000000000000000000000000000000000000000000000000000000008152600401611234906128f5565b60405180910390fd5b80600160008573ffffffffffffffffffffffffffffffffffffffff1673ffffffffffffffffffffffffffffffffffffffff16815260200190815260200160002060008473ffffffffffffffffffffffffffffffffffffffff1673ffffffffffffffffffffffffffffffffffffffff168152602001908152602001600020819055508173ffffffffffffffffffffffffffffffffffffffff168373ffffffffffffffffffffffffffffffffffffffff167f8c5be1e5ebec7d5bd14f71427d1e84f3dd0314c0f7b2291e5b200ac8c7c3b9258360405161131b9190611e08565b60405180910390a3505050565b60006113348484610e10565b90507fffffffffffffffffffffffffffffffffffffffffffffffffffffffffffffffff81146113ae57818110156113a0576040517f08c379a000000000000000000000000000000000000000000000000000000000815260040161139790612961565b60405180910390fd5b6113ad848484840361115f565b5b50505050565b600073ffffffffffffffffffffffffffffffffffffffff168373ffffffffffffffffffffffffffffffffffffffff1603611423576040517f08c379a000000000000000000000000000000000000000000000000000000000815260040161141a906129f3565b60405180910390fd5b600073ffffffffffffffffffffffffffffffffffffffff168273ffffffffffffffffffffffffffffffffffffffff1603611492576040517f08c379a000000000000000000000000000000000000000000000000000000000815260040161148990612a85565b60405180910390fd5b61149d8383836118d0565b60008060008573ffffffffffffffffffffffffffffffffffffffff1673ffffffffffffffffffffffffffffffffffffffff16815260200190815260200160002054905081811015611523576040517f08c379a000000000000000000000000000000000000000000000000000000000815260040161151a90612b17565b60405180910390fd5b8181036000808673ffffffffffffffffffffffffffffffffffffffff1673ffffffffffffffffffffffffffffffffffffffff16815260200190815260200160002081905550816000808573ffffffffffffffffffffffffffffffffffffffff1673ffffffffffffffffffffffffffffffffffffffff16815260200190815260200160002060008282546115b691906123f7565b925050819055508273ffffffffffffffffffffffffffffffffffffffff168473ffffffffffffffffffffffffffffffffffffffff167fddf252ad1be2c89b69c2b068fc378daa952ba7f163c4a11628f55a4df523b3ef8460405161161a9190611e08565b60405180910390a361162d8484846118d5565b50505050565b6116448161163f611157565b6118da565b50565b6116518282610afd565b6117245760016006600084815260200190815260200160002060000160008373ffffffffffffffffffffffffffffffffffffffff1673ffffffffffffffffffffffffffffffffffffffff16815260200190815260200160002060006101000a81548160ff0219169083151502179055506116c9611157565b73ffffffffffffffffffffffffffffffffffffffff168173ffffffffffffffffffffffffffffffffffffffff16837f2f8788117e7eff1d82e926ec794901d17c78024a50270940304540a733656f0d60405160405180910390a45b5050565b6117328282610afd565b156118065760006006600084815260200190815260200160002060000160008373ffffffffffffffffffffffffffffffffffffffff1673ffffffffffffffffffffffffffffffffffffffff16815260200190815260200160002060006101000a81548160ff0219169083151502179055506117ab611157565b73ffffffffffffffffffffffffffffffffffffffff168173ffffffffffffffffffffffffffffffffffffffff16837ff6391f5c32d9c69d2a47ea670b442974b53935d1edc7fd64eb21e047a839171b60405160405180910390a45b5050565b6000600560009054906101000a900473ffffffffffffffffffffffffffffffffffffffff16905081600560006101000a81548173ffffffffffffffffffffffffffffffffffffffff021916908373ffffffffffffffffffffffffffffffffffffffff1602179055508173ffffffffffffffffffffffffffffffffffffffff168173ffffffffffffffffffffffffffffffffffffffff167f8be0079c531659141344cd1fd0a4f28419497f9722a3daafe3b4186f6b6457e060405160405180910390a35050565b505050565b505050565b6118e48282610afd565b611973576119098173ffffffffffffffffffffffffffffffffffffffff166014611977565b6119178360001c6020611977565b604051602001611928929190612c0b565b6040516020818303038152906040526040517f08c379a000000000000000000000000000000000000000000000000000000000815260040161196a9190611d03565b60405180910390fd5b5050565b60606000600283600261198a91906122c3565b61199491906123f7565b67ffffffffffffffff8111156119ad576119ac612c45565b5b6040519080825280601f01601f1916602001820160405280156119df5781602001600182028036833780820191505090505b5090507f300000000000000000000000000000000000000000000000000000000000000081600081518110611a1757611a16612c74565b5b60200101907effffffffffffffffffffffffffffffffffffffffffffffffffffffffffffff1916908160001a9053507f780000000000000000000000000000000000000000000000000000000000000081600181518110611a7b57611a7a612c74565b5b60200101907effffffffffffffffffffffffffffffffffffffffffffffffffffffffffffff1916908160001a90535060006001846002611abb91906122c3565b611ac591906123f7565b90505b6001811115611b65577f3031323334353637383961626364656600000000000000000000000000000000600f861660108110611b0757611b06612c74565b5b1a60f81b828281518110611b1e57611b1d612c74565b5b60200101907effffffffffffffffffffffffffffffffffffffffffffffffffffffffffffff1916908160001a905350600485901c945080611b5e90612ca3565b9050611ac8565b5060008414611ba9576040517f08c379a0000000000000000000000000000000000000000000000000000000008152600401611ba090612d18565b60405180910390fd5b8091505092915050565b600080fd5b60007fffffffff0000000000000000000000000000000000000000000000000000000082169050919050565b611bed81611bb8565b8114611bf857600080fd5b50565b600081359050611c0a81611be4565b92915050565b600060208284031215611c2657611c25611bb3565b5b6000611c3484828501611bfb565b91505092915050565b60008115159050919050565b611c5281611c3d565b82525050565b6000602082019050611c6d6000830184611c49565b92915050565b600081519050919050565b600082825260208201905092915050565b60005b83811015611cad578082015181840152602081019050611c92565b60008484015250505050565b6000601f19601f8301169050919050565b6000611cd582611c73565b611cdf8185611c7e565b9350611cef818560208601611c8f565b611cf881611cb9565b840191505092915050565b60006020820190508181036000830152611d1d8184611cca565b905092915050565b600073ffffffffffffffffffffffffffffffffffffffff82169050919050565b6000611d5082611d25565b9050919050565b611d6081611d45565b8114611d6b57600080fd5b50565b600081359050611d7d81611d57565b92915050565b6000819050919050565b611d9681611d83565b8114611da157600080fd5b50565b600081359050611db381611d8d565b92915050565b60008060408385031215611dd057611dcf611bb3565b5b6000611dde85828601611d6e565b9250506020611def85828601611da4565b9150509250929050565b611e0281611d83565b82525050565b6000602082019050611e1d6000830184611df9565b92915050565b600080600060608486031215611e3c57611e3b611bb3565b5b6000611e4a86828701611d6e565b9350506020611e5b86828701611d6e565b9250506040611e6c86828701611da4565b9150509250925092565b6000819050919050565b611e8981611e76565b8114611e9457600080fd5b50565b600081359050611ea681611e80565b92915050565b600060208284031215611ec257611ec1611bb3565b5b6000611ed084828501611e97565b91505092915050565b611ee281611e76565b82525050565b6000602082019050611efd6000830184611ed9565b92915050565b60008060408385031215611f1a57611f19611bb3565b5b6000611f2885828601611e97565b9250506020611f3985828601611d6e565b9150509250929050565b600060ff82169050919050565b611f5981611f43565b82525050565b6000602082019050611f746000830184611f50565b92915050565b600060208284031215611f9057611f8f611bb3565b5b6000611f9e84828501611d6e565b91505092915050565b611fb081611d45565b82525050565b6000602082019050611fcb6000830184611fa7565b92915050565b600060208284031215611fe757611fe6611bb3565b5b6000611ff584828501611da4565b91505092915050565b6000806040838503121561201557612014611bb3565b5b600061202385828601611d6e565b925050602061203485828601611d6e565b9150509250929050565b7f546f74616c537570706c792065786365656473206c696d697400000000000000600082015250565b6000612074601983611c7e565b915061207f8261203e565b602082019050919050565b600060208201905081810360008301526120a381612067565b9050919050565b7f4e6f7420656e6f75746820657468657200000000000000000000000000000000600082015250565b60006120e0601083611c7e565b91506120eb826120aa565b602082019050919050565b6000602082019050818103600083015261210f816120d3565b9050919050565b7f4e487b7100000000000000000000000000000000000000000000000000000000600052601160045260246000fd5b60008160011c9050919050565b6000808291508390505b600185111561219c5780860481111561217857612177612116565b5b60018516156121875780820291505b808102905061219585612145565b945061215c565b94509492505050565b6000826121b55760019050612271565b816121c35760009050612271565b81600181146121d957600281146121e357612212565b6001915050612271565b60ff8411156121f5576121f4612116565b5b8360020a91508482111561220c5761220b612116565b5b50612271565b5060208310610133831016604e8410600b84101617156122475782820a90508381111561224257612241612116565b5b612271565b6122548484846001612152565b9250905081840481111561226b5761226a612116565b5b81810290505b9392505050565b600061228382611d83565b915061228e83611f43565b92506122bb7fffffffffffffffffffffffffffffffffffffffffffffffffffffffffffffffff84846121a5565b905092915050565b60006122ce82611d83565b91506122d983611d83565b92508282026122e781611d83565b915082820484148315176122fe576122fd612116565b5b5092915050565b7f4e487b7100000000000000000000000000000000000000000000000000000000600052602260045260246000fd5b6000600282049050600182168061234c57607f821691505b60208210810361235f5761235e612305565b5b50919050565b7f416363657373436f6e74726f6c3a2063616e206f6e6c792072656e6f756e636560008201527f20726f6c657320666f722073656c660000000000000000000000000000000000602082015250565b60006123c1602f83611c7e565b91506123cc82612365565b604082019050919050565b600060208201905081810360008301526123f0816123b4565b9050919050565b600061240282611d83565b915061240d83611d83565b925082820190508082111561242557612424612116565b5b92915050565b7f4f776e61626c653a2063616c6c6572206973206e6f7420746865206f776e6572600082015250565b6000612461602083611c7e565b915061246c8261242b565b602082019050919050565b6000602082019050818103600083015261249081612454565b9050919050565b7f436f6e747261637420686173206e6f2065746865720000000000000000000000600082015250565b60006124cd601583611c7e565b91506124d882612497565b602082019050919050565b600060208201905081810360008301526124fc816124c0565b9050919050565b7f45524332303a2064656372656173656420616c6c6f77616e63652062656c6f7760008201527f207a65726f000000000000000000000000000000000000000000000000000000602082015250565b600061255f602583611c7e565b915061256a82612503565b604082019050919050565b6000602082019050818103600083015261258e81612552565b9050919050565b7f596f75206e65656420746f2073656c6c206174206c6561737420736f6d65207460008201527f6f6b656e73000000000000000000000000000000000000000000000000000000602082015250565b60006125f1602583611c7e565b91506125fc82612595565b604082019050919050565b60006020820190508181036000830152612620816125e4565b9050919050565b7f4e487b7100000000000000000000000000000000000000000000000000000000600052601260045260246000fd5b600061266182611d83565b915061266c83611d83565b92508261267c5761267b612627565b5b828204905092915050565b7f534320646f65736e277420686f6c6420656e6f75676874206574686572000000600082015250565b60006126bd601d83611c7e565b91506126c882612687565b602082019050919050565b600060208201905081810360008301526126ec816126b0565b9050919050565b7f4f776e61626c653a206e6577206f776e657220697320746865207a65726f206160008201527f6464726573730000000000000000000000000000000000000000000000000000602082015250565b600061274f602683611c7e565b915061275a826126f3565b604082019050919050565b6000602082019050818103600083015261277e81612742565b9050919050565b7f45524332303a206d696e7420746f20746865207a65726f206164647265737300600082015250565b60006127bb601f83611c7e565b91506127c682612785565b602082019050919050565b600060208201905081810360008301526127ea816127ae565b9050919050565b7f45524332303a20617070726f76652066726f6d20746865207a65726f2061646460008201527f7265737300000000000000000000000000000000000000000000000000000000602082015250565b600061284d602483611c7e565b9150612858826127f1565b604082019050919050565b6000602082019050818103600083015261287c81612840565b9050919050565b7f45524332303a20617070726f766520746f20746865207a65726f20616464726560008201527f7373000000000000000000000000000000000000000000000000000000000000602082015250565b60006128df602283611c7e565b91506128ea82612883565b604082019050919050565b6000602082019050818103600083015261290e816128d2565b9050919050565b7f45524332303a20696e73756666696369656e7420616c6c6f77616e6365000000600082015250565b600061294b601d83611c7e565b915061295682612915565b602082019050919050565b6000602082019050818103600083015261297a8161293e565b9050919050565b7f45524332303a207472616e736665722066726f6d20746865207a65726f20616460008201527f6472657373000000000000000000000000000000000000000000000000000000602082015250565b60006129dd602583611c7e565b91506129e882612981565b604082019050919050565b60006020820190508181036000830152612a0c816129d0565b9050919050565b7f45524332303a207472616e7366657220746f20746865207a65726f206164647260008201527f6573730000000000000000000000000000000000000000000000000000000000602082015250565b6000612a6f602383611c7e565b9150612a7a82612a13565b604082019050919050565b60006020820190508181036000830152612a9e81612a62565b9050919050565b7f45524332303a207472616e7366657220616d6f756e742065786365656473206260008201527f616c616e63650000000000000000000000000000000000000000000000000000602082015250565b6000612b01602683611c7e565b9150612b0c82612aa5565b604082019050919050565b60006020820190508181036000830152612b3081612af4565b9050919050565b600081905092915050565b7f416363657373436f6e74726f6c3a206163636f756e7420000000000000000000600082015250565b6000612b78601783612b37565b9150612b8382612b42565b601782019050919050565b6000612b9982611c73565b612ba38185612b37565b9350612bb3818560208601611c8f565b80840191505092915050565b7f206973206d697373696e6720726f6c6520000000000000000000000000000000600082015250565b6000612bf5601183612b37565b9150612c0082612bbf565b601182019050919050565b6000612c1682612b6b565b9150612c228285612b8e565b9150612c2d82612be8565b9150612c398284612b8e565b91508190509392505050565b7f4e487b7100000000000000000000000000000000000000000000000000000000600052604160045260246000fd5b7f4e487b7100000000000000000000000000000000000000000000000000000000600052603260045260246000fd5b6000612cae82611d83565b915060008203612cc157612cc0612116565b5b600182039050919050565b7f537472696e67733a20686578206c656e67746820696e73756666696369656e74600082015250565b6000612d02602083611c7e565b9150612d0d82612ccc565b602082019050919050565b60006020820190508181036000830152612d3181612cf5565b905091905056fea264697066735822122064ee15eb2ce63eed80ecf8f336debbaf4d5eb5adb15695b1052bfcf929d984fa64736f6c63430008120033",
  "linkReferences": {},
  "deployedLinkReferences": {}
}