{
  "_format": "hh-sol-artifact-1",
  "contractName": "erc1155",
  "sourceName": "contracts/erc1155.sol",
  "abi": [
    {
      "inputs": [],
      "stateMutability": "nonpayable",
      "type": "constructor"
    },
    {
      "anonymous": false,
      "inputs": [
        {
          "indexed": true,
          "internalType": "address",
          "name": "account",
          "type": "address"
        },
        {
          "indexed": true,
          "internalType": "address",
          "name": "operator",
          "type": "address"
        },
        {
          "indexed": false,
          "internalType": "bool",
          "name": "approved",
          "type": "bool"
        }
      ],
      "name": "ApprovalForAll",
      "type": "event"
    },
    {
      "anonymous": false,
      "inputs": [
        {
          "indexed": true,
          "internalType": "address",
          "name": "previousOwner",
          "type": "address"
        },
        {
          "indexed": true,
          "internalType": "address",
          "name": "newOwner",
          "type": "address"
        }
      ],
      "name": "OwnershipTransferred",
      "type": "event"
    },
    {
      "anonymous": false,
      "inputs": [
        {
          "indexed": true,
          "internalType": "address",
          "name": "operator",
          "type": "address"
        },
        {
          "indexed": true,
          "internalType": "address",
          "name": "from",
          "type": "address"
        },
        {
          "indexed": true,
          "internalType": "address",
          "name": "to",
          "type": "address"
        },
        {
          "indexed": false,
          "internalType": "uint256[]",
          "name": "ids",
          "type": "uint256[]"
        },
        {
          "indexed": false,
          "internalType": "uint256[]",
          "name": "values",
          "type": "uint256[]"
        }
      ],
      "name": "TransferBatch",
      "type": "event"
    },
    {
      "anonymous": false,
      "inputs": [
        {
          "indexed": true,
          "internalType": "address",
          "name": "operator",
          "type": "address"
        },
        {
          "indexed": true,
          "internalType": "address",
          "name": "from",
          "type": "address"
        },
        {
          "indexed": true,
          "internalType": "address",
          "name": "to",
          "type": "address"
        },
        {
          "indexed": false,
          "internalType": "uint256",
          "name": "id",
          "type": "uint256"
        },
        {
          "indexed": false,
          "internalType": "uint256",
          "name": "value",
          "type": "uint256"
        }
      ],
      "name": "TransferSingle",
      "type": "event"
    },
    {
      "anonymous": false,
      "inputs": [
        {
          "indexed": false,
          "internalType": "string",
          "name": "value",
          "type": "string"
        },
        {
          "indexed": true,
          "internalType": "uint256",
          "name": "id",
          "type": "uint256"
        }
      ],
      "name": "URI",
      "type": "event"
    },
    {
      "inputs": [
        {
          "internalType": "address",
          "name": "account",
          "type": "address"
        },
        {
          "internalType": "uint256",
          "name": "id",
          "type": "uint256"
        }
      ],
      "name": "balanceOf",
      "outputs": [
        {
          "internalType": "uint256",
          "name": "",
          "type": "uint256"
        }
      ],
      "stateMutability": "view",
      "type": "function"
    },
    {
      "inputs": [
        {
          "internalType": "address[]",
          "name": "accounts",
          "type": "address[]"
        },
        {
          "internalType": "uint256[]",
          "name": "ids",
          "type": "uint256[]"
        }
      ],
      "name": "balanceOfBatch",
      "outputs": [
        {
          "internalType": "uint256[]",
          "name": "",
          "type": "uint256[]"
        }
      ],
      "stateMutability": "view",
      "type": "function"
    },
    {
      "inputs": [
        {
          "internalType": "address",
          "name": "account",
          "type": "address"
        },
        {
          "internalType": "uint256",
          "name": "id",
          "type": "uint256"
        },
        {
          "internalType": "uint256",
          "name": "value",
          "type": "uint256"
        }
      ],
      "name": "burn",
      "outputs": [],
      "stateMutability": "nonpayable",
      "type": "function"
    },
    {
      "inputs": [
        {
          "internalType": "address",
          "name": "account",
          "type": "address"
        },
        {
          "internalType": "uint256[]",
          "name": "ids",
          "type": "uint256[]"
        },
        {
          "internalType": "uint256[]",
          "name": "values",
          "type": "uint256[]"
        }
      ],
      "name": "burnBatch",
      "outputs": [],
      "stateMutability": "nonpayable",
      "type": "function"
    },
    {
      "inputs": [
        {
          "internalType": "address",
          "name": "account",
          "type": "address"
        },
        {
          "internalType": "uint256",
          "name": "id",
          "type": "uint256"
        },
        {
          "internalType": "uint256",
          "name": "amount",
          "type": "uint256"
        }
      ],
      "name": "burning",
      "outputs": [],
      "stateMutability": "nonpayable",
      "type": "function"
    },
    {
      "inputs": [
        {
          "internalType": "address",
          "name": "account",
          "type": "address"
        },
        {
          "internalType": "uint256[]",
          "name": "ids",
          "type": "uint256[]"
        },
        {
          "internalType": "uint256[]",
          "name": "amounts",
          "type": "uint256[]"
        }
      ],
      "name": "burningBatch",
      "outputs": [],
      "stateMutability": "nonpayable",
      "type": "function"
    },
    {
      "inputs": [
        {
          "internalType": "address",
          "name": "account",
          "type": "address"
        },
        {
          "internalType": "address",
          "name": "operator",
          "type": "address"
        }
      ],
      "name": "isApprovedForAll",
      "outputs": [
        {
          "internalType": "bool",
          "name": "",
          "type": "bool"
        }
      ],
      "stateMutability": "view",
      "type": "function"
    },
    {
      "inputs": [
        {
          "internalType": "address",
          "name": "to",
          "type": "address"
        },
        {
          "internalType": "uint256",
          "name": "id",
          "type": "uint256"
        },
        {
          "internalType": "uint256",
          "name": "amount",
          "type": "uint256"
        }
      ],
      "name": "mint",
      "outputs": [],
      "stateMutability": "nonpayable",
      "type": "function"
    },
    {
      "inputs": [],
      "name": "owner",
      "outputs": [
        {
          "internalType": "address",
          "name": "",
          "type": "address"
        }
      ],
      "stateMutability": "view",
      "type": "function"
    },
    {
      "inputs": [],
      "name": "renounceOwnership",
      "outputs": [],
      "stateMutability": "nonpayable",
      "type": "function"
    },
    {
      "inputs": [
        {
          "internalType": "address",
          "name": "from",
          "type": "address"
        },
        {
          "internalType": "address",
          "name": "to",
          "type": "address"
        },
        {
          "internalType": "uint256[]",
          "name": "ids",
          "type": "uint256[]"
        },
        {
          "internalType": "uint256[]",
          "name": "amounts",
          "type": "uint256[]"
        },
        {
          "internalType": "bytes",
          "name": "data",
          "type": "bytes"
        }
      ],
      "name": "safeBatchTransferFrom",
      "outputs": [],
      "stateMutability": "nonpayable",
      "type": "function"
    },
    {
      "inputs": [
        {
          "internalType": "address",
          "name": "from",
          "type": "address"
        },
        {
          "internalType": "address",
          "name": "to",
          "type": "address"
        },
        {
          "internalType": "uint256",
          "name": "id",
          "type": "uint256"
        },
        {
          "internalType": "uint256",
          "name": "amount",
          "type": "uint256"
        },
        {
          "internalType": "bytes",
          "name": "data",
          "type": "bytes"
        }
      ],
      "name": "safeTransferFrom",
      "outputs": [],
      "stateMutability": "nonpayable",
      "type": "function"
    },
    {
      "inputs": [
        {
          "internalType": "address",
          "name": "operator",
          "type": "address"
        },
        {
          "internalType": "bool",
          "name": "approved",
          "type": "bool"
        }
      ],
      "name": "setApprovalForAll",
      "outputs": [],
      "stateMutability": "nonpayable",
      "type": "function"
    },
    {
      "inputs": [
        {
          "internalType": "bytes4",
          "name": "interfaceId",
          "type": "bytes4"
        }
      ],
      "name": "supportsInterface",
      "outputs": [
        {
          "internalType": "bool",
          "name": "",
          "type": "bool"
        }
      ],
      "stateMutability": "view",
      "type": "function"
    },
    {
      "inputs": [
        {
          "internalType": "address",
          "name": "newOwner",
          "type": "address"
        }
      ],
      "name": "transferOwnership",
      "outputs": [],
      "stateMutability": "nonpayable",
      "type": "function"
    },
    {
      "inputs": [
        {
          "internalType": "uint256",
          "name": "",
          "type": "uint256"
        }
      ],
      "name": "uri",
      "outputs": [
        {
          "internalType": "string",
          "name": "",
          "type": "string"
        }
      ],
      "stateMutability": "view",
      "type": "function"
    }
  ],
  "bytecode": "0x60806040523480156200001157600080fd5b5060405180610100016040528060c4815260200162003a1160c491396200003e816200006560201b60201c565b506200005f620000536200007a60201b60201c565b6200008260201b60201c565b620004a9565b8060029081620000769190620003c2565b5050565b600033905090565b6000600360009054906101000a900473ffffffffffffffffffffffffffffffffffffffff16905081600360006101000a81548173ffffffffffffffffffffffffffffffffffffffff021916908373ffffffffffffffffffffffffffffffffffffffff1602179055508173ffffffffffffffffffffffffffffffffffffffff168173ffffffffffffffffffffffffffffffffffffffff167f8be0079c531659141344cd1fd0a4f28419497f9722a3daafe3b4186f6b6457e060405160405180910390a35050565b600081519050919050565b7f4e487b7100000000000000000000000000000000000000000000000000000000600052604160045260246000fd5b7f4e487b7100000000000000000000000000000000000000000000000000000000600052602260045260246000fd5b60006002820490506001821680620001ca57607f821691505b602082108103620001e057620001df62000182565b5b50919050565b60008190508160005260206000209050919050565b60006020601f8301049050919050565b600082821b905092915050565b6000600883026200024a7fffffffffffffffffffffffffffffffffffffffffffffffffffffffffffffffff826200020b565b6200025686836200020b565b95508019841693508086168417925050509392505050565b6000819050919050565b6000819050919050565b6000620002a36200029d62000297846200026e565b62000278565b6200026e565b9050919050565b6000819050919050565b620002bf8362000282565b620002d7620002ce82620002aa565b84845462000218565b825550505050565b600090565b620002ee620002df565b620002fb818484620002b4565b505050565b5b81811015620003235762000317600082620002e4565b60018101905062000301565b5050565b601f82111562000372576200033c81620001e6565b6200034784620001fb565b8101602085101562000357578190505b6200036f6200036685620001fb565b83018262000300565b50505b505050565b600082821c905092915050565b6000620003976000198460080262000377565b1980831691505092915050565b6000620003b2838362000384565b9150826002028217905092915050565b620003cd8262000148565b67ffffffffffffffff811115620003e957620003e862000153565b5b620003f58254620001b1565b6200040282828562000327565b600060209050601f8311600181146200043a576000841562000425578287015190505b620004318582620003a4565b865550620004a1565b601f1984166200044a86620001e6565b60005b8281101562000474578489015182556001820191506020850194506020810190506200044d565b8683101562000494578489015162000490601f89168262000384565b8355505b6001600288020188555050505b505050505050565b61355880620004b96000396000f3fe608060405234801561001057600080fd5b50600436106100ff5760003560e01c80636f95545d11610097578063e985e9c511610066578063e985e9c514610294578063f242432a146102c4578063f2fde38b146102e0578063f5298aca146102fc576100ff565b80636f95545d14610234578063715018a6146102505780638da5cb5b1461025a578063a22cb46514610278576100ff565b80632eb2c2d6116100d35780632eb2c2d6146101b05780634e1273f4146101cc5780634f10e574146101fc5780636b20c45414610218576100ff565b8062fdd58e1461010457806301ffc9a7146101345780630e89341c14610164578063156e29f614610194575b600080fd5b61011e60048036038101906101199190611fa5565b610318565b60405161012b9190611ff4565b60405180910390f35b61014e60048036038101906101499190612067565b6103e0565b60405161015b91906120af565b60405180910390f35b61017e600480360381019061017991906120ca565b6104c2565b60405161018b9190612187565b60405180910390f35b6101ae60048036038101906101a991906121a9565b610556565b005b6101ca60048036038101906101c591906123f9565b610576565b005b6101e660048036038101906101e1919061258b565b610617565b6040516101f391906126c1565b60405180910390f35b610216600480360381019061021191906121a9565b610730565b005b610232600480360381019061022d91906126e3565b610740565b005b61024e600480360381019061024991906126e3565b6107dd565b005b6102586107ed565b005b610262610875565b60405161026f919061277d565b60405180910390f35b610292600480360381019061028d91906127c4565b61089f565b005b6102ae60048036038101906102a99190612804565b6108b5565b6040516102bb91906120af565b60405180910390f35b6102de60048036038101906102d99190612844565b610949565b005b6102fa60048036038101906102f591906128db565b6109ea565b005b610316600480360381019061031191906121a9565b610ae1565b005b60008073ffffffffffffffffffffffffffffffffffffffff168373ffffffffffffffffffffffffffffffffffffffff1603610388576040517f08c379a000000000000000000000000000000000000000000000000000000000815260040161037f9061297a565b60405180910390fd5b60008083815260200190815260200160002060008473ffffffffffffffffffffffffffffffffffffffff1673ffffffffffffffffffffffffffffffffffffffff16815260200190815260200160002054905092915050565b60007fd9b67a26000000000000000000000000000000000000000000000000000000007bffffffffffffffffffffffffffffffffffffffffffffffffffffffff1916827bffffffffffffffffffffffffffffffffffffffffffffffffffffffff191614806104ab57507f0e89341c000000000000000000000000000000000000000000000000000000007bffffffffffffffffffffffffffffffffffffffffffffffffffffffff1916827bffffffffffffffffffffffffffffffffffffffffffffffffffffffff1916145b806104bb57506104ba82610b7e565b5b9050919050565b6060600280546104d1906129c9565b80601f01602080910402602001604051908101604052809291908181526020018280546104fd906129c9565b801561054a5780601f1061051f5761010080835404028352916020019161054a565b820191906000526020600020905b81548152906001019060200180831161052d57829003601f168201915b50505050509050919050565b61057183838360405180602001604052806000815250610be8565b505050565b61057e610d98565b73ffffffffffffffffffffffffffffffffffffffff168573ffffffffffffffffffffffffffffffffffffffff1614806105c457506105c3856105be610d98565b6108b5565b5b610603576040517f08c379a00000000000000000000000000000000000000000000000000000000081526004016105fa90612a6c565b60405180910390fd5b6106108585858585610da0565b5050505050565b6060815183511461065d576040517f08c379a000000000000000000000000000000000000000000000000000000000815260040161065490612afe565b60405180910390fd5b6000835167ffffffffffffffff81111561067a57610679612201565b5b6040519080825280602002602001820160405280156106a85781602001602082028036833780820191505090505b50905060005b8451811015610725576106f58582815181106106cd576106cc612b1e565b5b60200260200101518583815181106106e8576106e7612b1e565b5b6020026020010151610318565b82828151811061070857610707612b1e565b5b6020026020010181815250508061071e90612b7c565b90506106ae565b508091505092915050565b61073b8383836110c1565b505050565b610748610d98565b73ffffffffffffffffffffffffffffffffffffffff168373ffffffffffffffffffffffffffffffffffffffff16148061078e575061078d83610788610d98565b6108b5565b5b6107cd576040517f08c379a00000000000000000000000000000000000000000000000000000000081526004016107c490612c36565b60405180910390fd5b6107d8838383611307565b505050565b6107e8838383611307565b505050565b6107f5610d98565b73ffffffffffffffffffffffffffffffffffffffff16610813610875565b73ffffffffffffffffffffffffffffffffffffffff1614610869576040517f08c379a000000000000000000000000000000000000000000000000000000000815260040161086090612ca2565b60405180910390fd5b61087360006115d5565b565b6000600360009054906101000a900473ffffffffffffffffffffffffffffffffffffffff16905090565b6108b16108aa610d98565b838361169b565b5050565b6000600160008473ffffffffffffffffffffffffffffffffffffffff1673ffffffffffffffffffffffffffffffffffffffff16815260200190815260200160002060008373ffffffffffffffffffffffffffffffffffffffff1673ffffffffffffffffffffffffffffffffffffffff16815260200190815260200160002060009054906101000a900460ff16905092915050565b610951610d98565b73ffffffffffffffffffffffffffffffffffffffff168573ffffffffffffffffffffffffffffffffffffffff161480610997575061099685610991610d98565b6108b5565b5b6109d6576040517f08c379a00000000000000000000000000000000000000000000000000000000081526004016109cd90612c36565b60405180910390fd5b6109e38585858585611807565b5050505050565b6109f2610d98565b73ffffffffffffffffffffffffffffffffffffffff16610a10610875565b73ffffffffffffffffffffffffffffffffffffffff1614610a66576040517f08c379a0000000000000000000000000000000000000000000000000000000008152600401610a5d90612ca2565b60405180910390fd5b600073ffffffffffffffffffffffffffffffffffffffff168173ffffffffffffffffffffffffffffffffffffffff1603610ad5576040517f08c379a0000000000000000000000000000000000000000000000000000000008152600401610acc90612d34565b60405180910390fd5b610ade816115d5565b50565b610ae9610d98565b73ffffffffffffffffffffffffffffffffffffffff168373ffffffffffffffffffffffffffffffffffffffff161480610b2f5750610b2e83610b29610d98565b6108b5565b5b610b6e576040517f08c379a0000000000000000000000000000000000000000000000000000000008152600401610b6590612c36565b60405180910390fd5b610b798383836110c1565b505050565b60007f01ffc9a7000000000000000000000000000000000000000000000000000000007bffffffffffffffffffffffffffffffffffffffffffffffffffffffff1916827bffffffffffffffffffffffffffffffffffffffffffffffffffffffff1916149050919050565b600073ffffffffffffffffffffffffffffffffffffffff168473ffffffffffffffffffffffffffffffffffffffff1603610c57576040517f08c379a0000000000000000000000000000000000000000000000000000000008152600401610c4e90612dc6565b60405180910390fd5b6000610c61610d98565b90506000610c6e85611aa2565b90506000610c7b85611aa2565b9050610c8c83600089858589611b1c565b8460008088815260200190815260200160002060008973ffffffffffffffffffffffffffffffffffffffff1673ffffffffffffffffffffffffffffffffffffffff1681526020019081526020016000206000828254610ceb9190612de6565b925050819055508673ffffffffffffffffffffffffffffffffffffffff16600073ffffffffffffffffffffffffffffffffffffffff168473ffffffffffffffffffffffffffffffffffffffff167fc3d58168c5ae7397731d063d5bbf3d657854427343f4c083240f7aacaa2d0f628989604051610d69929190612e1a565b60405180910390a4610d8083600089858589611b24565b610d8f83600089898989611b2c565b50505050505050565b600033905090565b8151835114610de4576040517f08c379a0000000000000000000000000000000000000000000000000000000008152600401610ddb90612eb5565b60405180910390fd5b600073ffffffffffffffffffffffffffffffffffffffff168473ffffffffffffffffffffffffffffffffffffffff1603610e53576040517f08c379a0000000000000000000000000000000000000000000000000000000008152600401610e4a90612f47565b60405180910390fd5b6000610e5d610d98565b9050610e6d818787878787611b1c565b60005b845181101561101e576000858281518110610e8e57610e8d612b1e565b5b602002602001015190506000858381518110610ead57610eac612b1e565b5b60200260200101519050600080600084815260200190815260200160002060008b73ffffffffffffffffffffffffffffffffffffffff1673ffffffffffffffffffffffffffffffffffffffff16815260200190815260200160002054905081811015610f4e576040517f08c379a0000000000000000000000000000000000000000000000000000000008152600401610f4590612fd9565b60405180910390fd5b81810360008085815260200190815260200160002060008c73ffffffffffffffffffffffffffffffffffffffff1673ffffffffffffffffffffffffffffffffffffffff168152602001908152602001600020819055508160008085815260200190815260200160002060008b73ffffffffffffffffffffffffffffffffffffffff1673ffffffffffffffffffffffffffffffffffffffff16815260200190815260200160002060008282546110039190612de6565b925050819055505050508061101790612b7c565b9050610e70565b508473ffffffffffffffffffffffffffffffffffffffff168673ffffffffffffffffffffffffffffffffffffffff168273ffffffffffffffffffffffffffffffffffffffff167f4a39dc06d4c0dbc64b70af90fd698a233a518aa5d07e595d983b8c0526c8f7fb8787604051611095929190612ff9565b60405180910390a46110ab818787878787611b24565b6110b9818787878787611d03565b505050505050565b600073ffffffffffffffffffffffffffffffffffffffff168373ffffffffffffffffffffffffffffffffffffffff1603611130576040517f08c379a0000000000000000000000000000000000000000000000000000000008152600401611127906130a2565b60405180910390fd5b600061113a610d98565b9050600061114784611aa2565b9050600061115484611aa2565b905061117483876000858560405180602001604052806000815250611b1c565b600080600087815260200190815260200160002060008873ffffffffffffffffffffffffffffffffffffffff1673ffffffffffffffffffffffffffffffffffffffff1681526020019081526020016000205490508481101561120b576040517f08c379a000000000000000000000000000000000000000000000000000000000815260040161120290613134565b60405180910390fd5b84810360008088815260200190815260200160002060008973ffffffffffffffffffffffffffffffffffffffff1673ffffffffffffffffffffffffffffffffffffffff16815260200190815260200160002081905550600073ffffffffffffffffffffffffffffffffffffffff168773ffffffffffffffffffffffffffffffffffffffff168573ffffffffffffffffffffffffffffffffffffffff167fc3d58168c5ae7397731d063d5bbf3d657854427343f4c083240f7aacaa2d0f6289896040516112d8929190612e1a565b60405180910390a46112fe84886000868660405180602001604052806000815250611b24565b50505050505050565b600073ffffffffffffffffffffffffffffffffffffffff168373ffffffffffffffffffffffffffffffffffffffff1603611376576040517f08c379a000000000000000000000000000000000000000000000000000000000815260040161136d906130a2565b60405180910390fd5b80518251146113ba576040517f08c379a00000000000000000000000000000000000000000000000000000000081526004016113b190612eb5565b60405180910390fd5b60006113c4610d98565b90506113e481856000868660405180602001604052806000815250611b1c565b60005b835181101561153157600084828151811061140557611404612b1e565b5b60200260200101519050600084838151811061142457611423612b1e565b5b60200260200101519050600080600084815260200190815260200160002060008973ffffffffffffffffffffffffffffffffffffffff1673ffffffffffffffffffffffffffffffffffffffff168152602001908152602001600020549050818110156114c5576040517f08c379a00000000000000000000000000000000000000000000000000000000081526004016114bc90613134565b60405180910390fd5b81810360008085815260200190815260200160002060008a73ffffffffffffffffffffffffffffffffffffffff1673ffffffffffffffffffffffffffffffffffffffff16815260200190815260200160002081905550505050808061152990612b7c565b9150506113e7565b50600073ffffffffffffffffffffffffffffffffffffffff168473ffffffffffffffffffffffffffffffffffffffff168273ffffffffffffffffffffffffffffffffffffffff167f4a39dc06d4c0dbc64b70af90fd698a233a518aa5d07e595d983b8c0526c8f7fb86866040516115a9929190612ff9565b60405180910390a46115cf81856000868660405180602001604052806000815250611b24565b50505050565b6000600360009054906101000a900473ffffffffffffffffffffffffffffffffffffffff16905081600360006101000a81548173ffffffffffffffffffffffffffffffffffffffff021916908373ffffffffffffffffffffffffffffffffffffffff1602179055508173ffffffffffffffffffffffffffffffffffffffff168173ffffffffffffffffffffffffffffffffffffffff167f8be0079c531659141344cd1fd0a4f28419497f9722a3daafe3b4186f6b6457e060405160405180910390a35050565b8173ffffffffffffffffffffffffffffffffffffffff168373ffffffffffffffffffffffffffffffffffffffff1603611709576040517f08c379a0000000000000000000000000000000000000000000000000000000008152600401611700906131c6565b60405180910390fd5b80600160008573ffffffffffffffffffffffffffffffffffffffff1673ffffffffffffffffffffffffffffffffffffffff16815260200190815260200160002060008473ffffffffffffffffffffffffffffffffffffffff1673ffffffffffffffffffffffffffffffffffffffff16815260200190815260200160002060006101000a81548160ff0219169083151502179055508173ffffffffffffffffffffffffffffffffffffffff168373ffffffffffffffffffffffffffffffffffffffff167f17307eab39ab6107e8899845ad3d59bd9653f200f220920489ca2b5937696c31836040516117fa91906120af565b60405180910390a3505050565b600073ffffffffffffffffffffffffffffffffffffffff168473ffffffffffffffffffffffffffffffffffffffff1603611876576040517f08c379a000000000000000000000000000000000000000000000000000000000815260040161186d90612f47565b60405180910390fd5b6000611880610d98565b9050600061188d85611aa2565b9050600061189a85611aa2565b90506118aa838989858589611b1c565b600080600088815260200190815260200160002060008a73ffffffffffffffffffffffffffffffffffffffff1673ffffffffffffffffffffffffffffffffffffffff16815260200190815260200160002054905085811015611941576040517f08c379a000000000000000000000000000000000000000000000000000000000815260040161193890612fd9565b60405180910390fd5b85810360008089815260200190815260200160002060008b73ffffffffffffffffffffffffffffffffffffffff1673ffffffffffffffffffffffffffffffffffffffff168152602001908152602001600020819055508560008089815260200190815260200160002060008a73ffffffffffffffffffffffffffffffffffffffff1673ffffffffffffffffffffffffffffffffffffffff16815260200190815260200160002060008282546119f69190612de6565b925050819055508773ffffffffffffffffffffffffffffffffffffffff168973ffffffffffffffffffffffffffffffffffffffff168573ffffffffffffffffffffffffffffffffffffffff167fc3d58168c5ae7397731d063d5bbf3d657854427343f4c083240f7aacaa2d0f628a8a604051611a73929190612e1a565b60405180910390a4611a89848a8a86868a611b24565b611a97848a8a8a8a8a611b2c565b505050505050505050565b60606000600167ffffffffffffffff811115611ac157611ac0612201565b5b604051908082528060200260200182016040528015611aef5781602001602082028036833780820191505090505b5090508281600081518110611b0757611b06612b1e565b5b60200260200101818152505080915050919050565b505050505050565b505050505050565b611b4b8473ffffffffffffffffffffffffffffffffffffffff16611eda565b15611cfb578373ffffffffffffffffffffffffffffffffffffffff1663f23a6e6187878686866040518663ffffffff1660e01b8152600401611b9195949392919061323b565b6020604051808303816000875af1925050508015611bcd57506040513d601f19601f82011682018060405250810190611bca91906132aa565b60015b611c7257611bd96132e4565b806308c379a003611c355750611bed613306565b80611bf85750611c37565b806040517f08c379a0000000000000000000000000000000000000000000000000000000008152600401611c2c9190612187565b60405180910390fd5b505b6040517f08c379a0000000000000000000000000000000000000000000000000000000008152600401611c6990613408565b60405180910390fd5b63f23a6e6160e01b7bffffffffffffffffffffffffffffffffffffffffffffffffffffffff1916817bffffffffffffffffffffffffffffffffffffffffffffffffffffffff191614611cf9576040517f08c379a0000000000000000000000000000000000000000000000000000000008152600401611cf09061349a565b60405180910390fd5b505b505050505050565b611d228473ffffffffffffffffffffffffffffffffffffffff16611eda565b15611ed2578373ffffffffffffffffffffffffffffffffffffffff1663bc197c8187878686866040518663ffffffff1660e01b8152600401611d689594939291906134ba565b6020604051808303816000875af1925050508015611da457506040513d601f19601f82011682018060405250810190611da191906132aa565b60015b611e4957611db06132e4565b806308c379a003611e0c5750611dc4613306565b80611dcf5750611e0e565b806040517f08c379a0000000000000000000000000000000000000000000000000000000008152600401611e039190612187565b60405180910390fd5b505b6040517f08c379a0000000000000000000000000000000000000000000000000000000008152600401611e4090613408565b60405180910390fd5b63bc197c8160e01b7bffffffffffffffffffffffffffffffffffffffffffffffffffffffff1916817bffffffffffffffffffffffffffffffffffffffffffffffffffffffff191614611ed0576040517f08c379a0000000000000000000000000000000000000000000000000000000008152600401611ec79061349a565b60405180910390fd5b505b505050505050565b6000808273ffffffffffffffffffffffffffffffffffffffff163b119050919050565b6000604051905090565b600080fd5b600080fd5b600073ffffffffffffffffffffffffffffffffffffffff82169050919050565b6000611f3c82611f11565b9050919050565b611f4c81611f31565b8114611f5757600080fd5b50565b600081359050611f6981611f43565b92915050565b6000819050919050565b611f8281611f6f565b8114611f8d57600080fd5b50565b600081359050611f9f81611f79565b92915050565b60008060408385031215611fbc57611fbb611f07565b5b6000611fca85828601611f5a565b9250506020611fdb85828601611f90565b9150509250929050565b611fee81611f6f565b82525050565b60006020820190506120096000830184611fe5565b92915050565b60007fffffffff0000000000000000000000000000000000000000000000000000000082169050919050565b6120448161200f565b811461204f57600080fd5b50565b6000813590506120618161203b565b92915050565b60006020828403121561207d5761207c611f07565b5b600061208b84828501612052565b91505092915050565b60008115159050919050565b6120a981612094565b82525050565b60006020820190506120c460008301846120a0565b92915050565b6000602082840312156120e0576120df611f07565b5b60006120ee84828501611f90565b91505092915050565b600081519050919050565b600082825260208201905092915050565b60005b83811015612131578082015181840152602081019050612116565b60008484015250505050565b6000601f19601f8301169050919050565b6000612159826120f7565b6121638185612102565b9350612173818560208601612113565b61217c8161213d565b840191505092915050565b600060208201905081810360008301526121a1818461214e565b905092915050565b6000806000606084860312156121c2576121c1611f07565b5b60006121d086828701611f5a565b93505060206121e186828701611f90565b92505060406121f286828701611f90565b9150509250925092565b600080fd5b7f4e487b7100000000000000000000000000000000000000000000000000000000600052604160045260246000fd5b6122398261213d565b810181811067ffffffffffffffff8211171561225857612257612201565b5b80604052505050565b600061226b611efd565b90506122778282612230565b919050565b600067ffffffffffffffff82111561229757612296612201565b5b602082029050602081019050919050565b600080fd5b60006122c06122bb8461227c565b612261565b905080838252602082019050602084028301858111156122e3576122e26122a8565b5b835b8181101561230c57806122f88882611f90565b8452602084019350506020810190506122e5565b5050509392505050565b600082601f83011261232b5761232a6121fc565b5b813561233b8482602086016122ad565b91505092915050565b600080fd5b600067ffffffffffffffff82111561236457612363612201565b5b61236d8261213d565b9050602081019050919050565b82818337600083830152505050565b600061239c61239784612349565b612261565b9050828152602081018484840111156123b8576123b7612344565b5b6123c384828561237a565b509392505050565b600082601f8301126123e0576123df6121fc565b5b81356123f0848260208601612389565b91505092915050565b600080600080600060a0868803121561241557612414611f07565b5b600061242388828901611f5a565b955050602061243488828901611f5a565b945050604086013567ffffffffffffffff81111561245557612454611f0c565b5b61246188828901612316565b935050606086013567ffffffffffffffff81111561248257612481611f0c565b5b61248e88828901612316565b925050608086013567ffffffffffffffff8111156124af576124ae611f0c565b5b6124bb888289016123cb565b9150509295509295909350565b600067ffffffffffffffff8211156124e3576124e2612201565b5b602082029050602081019050919050565b6000612507612502846124c8565b612261565b9050808382526020820190506020840283018581111561252a576125296122a8565b5b835b81811015612553578061253f8882611f5a565b84526020840193505060208101905061252c565b5050509392505050565b600082601f830112612572576125716121fc565b5b81356125828482602086016124f4565b91505092915050565b600080604083850312156125a2576125a1611f07565b5b600083013567ffffffffffffffff8111156125c0576125bf611f0c565b5b6125cc8582860161255d565b925050602083013567ffffffffffffffff8111156125ed576125ec611f0c565b5b6125f985828601612316565b9150509250929050565b600081519050919050565b600082825260208201905092915050565b6000819050602082019050919050565b61263881611f6f565b82525050565b600061264a838361262f565b60208301905092915050565b6000602082019050919050565b600061266e82612603565b612678818561260e565b93506126838361261f565b8060005b838110156126b457815161269b888261263e565b97506126a683612656565b925050600181019050612687565b5085935050505092915050565b600060208201905081810360008301526126db8184612663565b905092915050565b6000806000606084860312156126fc576126fb611f07565b5b600061270a86828701611f5a565b935050602084013567ffffffffffffffff81111561272b5761272a611f0c565b5b61273786828701612316565b925050604084013567ffffffffffffffff81111561275857612757611f0c565b5b61276486828701612316565b9150509250925092565b61277781611f31565b82525050565b6000602082019050612792600083018461276e565b92915050565b6127a181612094565b81146127ac57600080fd5b50565b6000813590506127be81612798565b92915050565b600080604083850312156127db576127da611f07565b5b60006127e985828601611f5a565b92505060206127fa858286016127af565b9150509250929050565b6000806040838503121561281b5761281a611f07565b5b600061282985828601611f5a565b925050602061283a85828601611f5a565b9150509250929050565b600080600080600060a086880312156128605761285f611f07565b5b600061286e88828901611f5a565b955050602061287f88828901611f5a565b945050604061289088828901611f90565b93505060606128a188828901611f90565b925050608086013567ffffffffffffffff8111156128c2576128c1611f0c565b5b6128ce888289016123cb565b9150509295509295909350565b6000602082840312156128f1576128f0611f07565b5b60006128ff84828501611f5a565b91505092915050565b7f455243313135353a2062616c616e636520717565727920666f7220746865207a60008201527f65726f2061646472657373000000000000000000000000000000000000000000602082015250565b6000612964602b83612102565b915061296f82612908565b604082019050919050565b6000602082019050818103600083015261299381612957565b9050919050565b7f4e487b7100000000000000000000000000000000000000000000000000000000600052602260045260246000fd5b600060028204905060018216806129e157607f821691505b6020821081036129f4576129f361299a565b5b50919050565b7f455243313135353a207472616e736665722063616c6c6572206973206e6f742060008201527f6f776e6572206e6f7220617070726f7665640000000000000000000000000000602082015250565b6000612a56603283612102565b9150612a61826129fa565b604082019050919050565b60006020820190508181036000830152612a8581612a49565b9050919050565b7f455243313135353a206163636f756e747320616e6420696473206c656e67746860008201527f206d69736d617463680000000000000000000000000000000000000000000000602082015250565b6000612ae8602983612102565b9150612af382612a8c565b604082019050919050565b60006020820190508181036000830152612b1781612adb565b9050919050565b7f4e487b7100000000000000000000000000000000000000000000000000000000600052603260045260246000fd5b7f4e487b7100000000000000000000000000000000000000000000000000000000600052601160045260246000fd5b6000612b8782611f6f565b91507fffffffffffffffffffffffffffffffffffffffffffffffffffffffffffffffff8203612bb957612bb8612b4d565b5b600182019050919050565b7f455243313135353a2063616c6c6572206973206e6f74206f776e6572206e6f7260008201527f20617070726f7665640000000000000000000000000000000000000000000000602082015250565b6000612c20602983612102565b9150612c2b82612bc4565b604082019050919050565b60006020820190508181036000830152612c4f81612c13565b9050919050565b7f4f776e61626c653a2063616c6c6572206973206e6f7420746865206f776e6572600082015250565b6000612c8c602083612102565b9150612c9782612c56565b602082019050919050565b60006020820190508181036000830152612cbb81612c7f565b9050919050565b7f4f776e61626c653a206e6577206f776e657220697320746865207a65726f206160008201527f6464726573730000000000000000000000000000000000000000000000000000602082015250565b6000612d1e602683612102565b9150612d2982612cc2565b604082019050919050565b60006020820190508181036000830152612d4d81612d11565b9050919050565b7f455243313135353a206d696e7420746f20746865207a65726f2061646472657360008201527f7300000000000000000000000000000000000000000000000000000000000000602082015250565b6000612db0602183612102565b9150612dbb82612d54565b604082019050919050565b60006020820190508181036000830152612ddf81612da3565b9050919050565b6000612df182611f6f565b9150612dfc83611f6f565b9250828201905080821115612e1457612e13612b4d565b5b92915050565b6000604082019050612e2f6000830185611fe5565b612e3c6020830184611fe5565b9392505050565b7f455243313135353a2069647320616e6420616d6f756e7473206c656e6774682060008201527f6d69736d61746368000000000000000000000000000000000000000000000000602082015250565b6000612e9f602883612102565b9150612eaa82612e43565b604082019050919050565b60006020820190508181036000830152612ece81612e92565b9050919050565b7f455243313135353a207472616e7366657220746f20746865207a65726f20616460008201527f6472657373000000000000000000000000000000000000000000000000000000602082015250565b6000612f31602583612102565b9150612f3c82612ed5565b604082019050919050565b60006020820190508181036000830152612f6081612f24565b9050919050565b7f455243313135353a20696e73756666696369656e742062616c616e636520666f60008201527f72207472616e7366657200000000000000000000000000000000000000000000602082015250565b6000612fc3602a83612102565b9150612fce82612f67565b604082019050919050565b60006020820190508181036000830152612ff281612fb6565b9050919050565b600060408201905081810360008301526130138185612663565b905081810360208301526130278184612663565b90509392505050565b7f455243313135353a206275726e2066726f6d20746865207a65726f206164647260008201527f6573730000000000000000000000000000000000000000000000000000000000602082015250565b600061308c602383612102565b915061309782613030565b604082019050919050565b600060208201905081810360008301526130bb8161307f565b9050919050565b7f455243313135353a206275726e20616d6f756e7420657863656564732062616c60008201527f616e636500000000000000000000000000000000000000000000000000000000602082015250565b600061311e602483612102565b9150613129826130c2565b604082019050919050565b6000602082019050818103600083015261314d81613111565b9050919050565b7f455243313135353a2073657474696e6720617070726f76616c2073746174757360008201527f20666f722073656c660000000000000000000000000000000000000000000000602082015250565b60006131b0602983612102565b91506131bb82613154565b604082019050919050565b600060208201905081810360008301526131df816131a3565b9050919050565b600081519050919050565b600082825260208201905092915050565b600061320d826131e6565b61321781856131f1565b9350613227818560208601612113565b6132308161213d565b840191505092915050565b600060a082019050613250600083018861276e565b61325d602083018761276e565b61326a6040830186611fe5565b6132776060830185611fe5565b81810360808301526132898184613202565b90509695505050505050565b6000815190506132a48161203b565b92915050565b6000602082840312156132c0576132bf611f07565b5b60006132ce84828501613295565b91505092915050565b60008160e01c9050919050565b600060033d11156133035760046000803e6133006000516132d7565b90505b90565b600060443d1061339357613318611efd565b60043d036004823e80513d602482011167ffffffffffffffff82111715613340575050613393565b808201805167ffffffffffffffff81111561335e5750505050613393565b80602083010160043d03850181111561337b575050505050613393565b61338a82602001850186612230565b82955050505050505b90565b7f455243313135353a207472616e7366657220746f206e6f6e204552433131353560008201527f526563656976657220696d706c656d656e746572000000000000000000000000602082015250565b60006133f2603483612102565b91506133fd82613396565b604082019050919050565b60006020820190508181036000830152613421816133e5565b9050919050565b7f455243313135353a204552433131353552656365697665722072656a6563746560008201527f6420746f6b656e73000000000000000000000000000000000000000000000000602082015250565b6000613484602883612102565b915061348f82613428565b604082019050919050565b600060208201905081810360008301526134b381613477565b9050919050565b600060a0820190506134cf600083018861276e565b6134dc602083018761276e565b81810360408301526134ee8186612663565b905081810360608301526135028185612663565b905081810360808301526135168184613202565b9050969550505050505056fea2646970667358221220b3b5626ba6611d82c221ff0cdfdafb2b52fbac6f2b118ff6f0897a00d4989ad464736f6c6343000811003368747470733a2f2f676174657761792e70696e6174612e636c6f75642f697066732f516d595848724c4c6178343453704e62646a66364d69774b316259544364783957756734686441556a5a423236583f5f676c3d312a31776a75386a682a5f67612a4d54417a4f4459784d5463344d6934784e6a63334d7a55304e4445772a5f67615f35524d505847313454452a4d5459334e7a6b7a4e6a55354e7934334c6a41754d5459334e7a6b7a4e6a55354e7934324d4334774c6a412f7b69647d2e6a736f6e",
  "linkReferences": {},
  "deployedLinkReferences": {}
}