{
  "_format": "hh-sol-artifact-1",
  "contractName": "staking",
  "sourceName": "contracts/staking.sol",
  "abi": [
    {
      "inputs": [
        {
          "internalType": "contract stakingErc20",
          "name": "_token",
          "type": "address"
        },
        {
          "internalType": "contract stakingErc721",
          "name": "_nft",
          "type": "address"
        }
      ],
      "stateMutability": "nonpayable",
      "type": "constructor"
    },
    {
      "inputs": [
        {
          "internalType": "address",
          "name": "",
          "type": "address"
        },
        {
          "internalType": "address",
          "name": "from",
          "type": "address"
        },
        {
          "internalType": "uint256",
          "name": "",
          "type": "uint256"
        },
        {
          "internalType": "bytes",
          "name": "",
          "type": "bytes"
        }
      ],
      "name": "onERC721Received",
      "outputs": [
        {
          "internalType": "bytes4",
          "name": "",
          "type": "bytes4"
        }
      ],
      "stateMutability": "pure",
      "type": "function"
    },
    {
      "inputs": [
        {
          "internalType": "uint256",
          "name": "tokenId",
          "type": "uint256"
        }
      ],
      "name": "stake",
      "outputs": [],
      "stateMutability": "nonpayable",
      "type": "function"
    },
    {
      "inputs": [
        {
          "internalType": "address",
          "name": "account",
          "type": "address"
        },
        {
          "internalType": "uint256",
          "name": "tokenId",
          "type": "uint256"
        }
      ],
      "name": "unstake",
      "outputs": [],
      "stateMutability": "nonpayable",
      "type": "function"
    },
    {
      "inputs": [
        {
          "internalType": "uint256",
          "name": "",
          "type": "uint256"
        }
      ],
      "name": "vault",
      "outputs": [
        {
          "internalType": "uint256",
          "name": "tokenId",
          "type": "uint256"
        },
        {
          "internalType": "uint256",
          "name": "timestamp",
          "type": "uint256"
        },
        {
          "internalType": "address",
          "name": "owner",
          "type": "address"
        },
        {
          "internalType": "bool",
          "name": "stakedBool",
          "type": "bool"
        }
      ],
      "stateMutability": "view",
      "type": "function"
    },
    {
      "inputs": [
        {
          "internalType": "uint256",
          "name": "tokenId",
          "type": "uint256"
        }
      ],
      "name": "withdraw",
      "outputs": [],
      "stateMutability": "nonpayable",
      "type": "function"
    }
  ],
  "bytecode": "0x6080604052603c806018678ac7230489e800006200001e919062000135565b6200002a919062000135565b62000036919062000135565b6004553480156200004657600080fd5b50604051620015c3380380620015c383398181016040528101906200006c919062000230565b816000806101000a81548173ffffffffffffffffffffffffffffffffffffffff021916908373ffffffffffffffffffffffffffffffffffffffff16021790555080600160006101000a81548173ffffffffffffffffffffffffffffffffffffffff021916908373ffffffffffffffffffffffffffffffffffffffff16021790555042600381905550505062000277565b6000819050919050565b7f4e487b7100000000000000000000000000000000000000000000000000000000600052601260045260246000fd5b60006200014282620000fc565b91506200014f83620000fc565b92508262000162576200016162000106565b5b828204905092915050565b600080fd5b600073ffffffffffffffffffffffffffffffffffffffff82169050919050565b60006200019f8262000172565b9050919050565b6000620001b38262000192565b9050919050565b620001c581620001a6565b8114620001d157600080fd5b50565b600081519050620001e581620001ba565b92915050565b6000620001f88262000192565b9050919050565b6200020a81620001eb565b81146200021657600080fd5b50565b6000815190506200022a81620001ff565b92915050565b600080604083850312156200024a57620002496200016d565b5b60006200025a85828601620001d4565b92505060206200026d8582860162000219565b9150509250929050565b61133c80620002876000396000f3fe608060405234801561001057600080fd5b50600436106100575760003560e01c8063150b7a021461005c5780632e1a7d4d1461008c57806381a36fb6146100a8578063a694fc3a146100db578063c2a672e0146100f7575b600080fd5b61007660048036038101906100719190610c59565b610113565b6040516100839190610d1c565b60405180910390f35b6100a660048036038101906100a19190610d37565b610196565b005b6100c260048036038101906100bd9190610d37565b6103b9565b6040516100d29493929190610d9d565b60405180910390f35b6100f560048036038101906100f09190610d37565b610416565b005b610111600480360381019061010c9190610de2565b6106e8565b005b60008073ffffffffffffffffffffffffffffffffffffffff168573ffffffffffffffffffffffffffffffffffffffff1614610183576040517f08c379a000000000000000000000000000000000000000000000000000000000815260040161017a90610ea5565b60405180910390fd5b63150b7a0260e01b905095945050505050565b60006002600083815260200190815260200160002060405180608001604052908160008201548152602001600182015481526020016002820160009054906101000a900473ffffffffffffffffffffffffffffffffffffffff1673ffffffffffffffffffffffffffffffffffffffff1673ffffffffffffffffffffffffffffffffffffffff1681526020016002820160149054906101000a900460ff16151515158152505090503373ffffffffffffffffffffffffffffffffffffffff16816040015173ffffffffffffffffffffffffffffffffffffffff16146102af576040517f08c379a00000000000000000000000000000000000000000000000000000000081526004016102a690610f11565b60405180910390fd5b600081602001519050600081426102c69190610f60565b9050601e81101561030c576040517f08c379a000000000000000000000000000000000000000000000000000000000815260040161030390610fe0565b60405180910390fd5b60008054906101000a900473ffffffffffffffffffffffffffffffffffffffff1673ffffffffffffffffffffffffffffffffffffffff166340c10f1984604001518360045461035b9190611000565b6040518363ffffffff1660e01b8152600401610378929190611042565b600060405180830381600087803b15801561039257600080fd5b505af11580156103a6573d6000803e3d6000fd5b5050505060008360200151505050505050565b60026020528060005260406000206000915090508060000154908060010154908060020160009054906101000a900473ffffffffffffffffffffffffffffffffffffffff16908060020160149054906101000a900460ff16905084565b3373ffffffffffffffffffffffffffffffffffffffff16600160009054906101000a900473ffffffffffffffffffffffffffffffffffffffff1673ffffffffffffffffffffffffffffffffffffffff16636352211e836040518263ffffffff1660e01b8152600401610488919061106b565b602060405180830381865afa1580156104a5573d6000803e3d6000fd5b505050506040513d601f19601f820116820180604052508101906104c9919061109b565b73ffffffffffffffffffffffffffffffffffffffff161461051f576040517f08c379a000000000000000000000000000000000000000000000000000000000815260040161051690611114565b60405180910390fd5b600015156002600083815260200190815260200160002060020160149054906101000a900460ff16151514610589576040517f08c379a000000000000000000000000000000000000000000000000000000000815260040161058090611180565b60405180910390fd5b600160009054906101000a900473ffffffffffffffffffffffffffffffffffffffff1673ffffffffffffffffffffffffffffffffffffffff166323b872dd3330846040518463ffffffff1660e01b81526004016105e8939291906111a0565b600060405180830381600087803b15801561060257600080fd5b505af1158015610616573d6000803e3d6000fd5b5050505060405180608001604052808281526020014281526020013373ffffffffffffffffffffffffffffffffffffffff1681526020016001151581525060026000838152602001908152602001600020600082015181600001556020820151816001015560408201518160020160006101000a81548173ffffffffffffffffffffffffffffffffffffffff021916908373ffffffffffffffffffffffffffffffffffffffff16021790555060608201518160020160146101000a81548160ff02191690831515021790555090505050565b60006002600083815260200190815260200160002060405180608001604052908160008201548152602001600182015481526020016002820160009054906101000a900473ffffffffffffffffffffffffffffffffffffffff1673ffffffffffffffffffffffffffffffffffffffff1673ffffffffffffffffffffffffffffffffffffffff1681526020016002820160149054906101000a900460ff16151515158152505090503373ffffffffffffffffffffffffffffffffffffffff16816040015173ffffffffffffffffffffffffffffffffffffffff1614610801576040517f08c379a00000000000000000000000000000000000000000000000000000000081526004016107f890610f11565b60405180910390fd5b610809610b16565b9050600160009054906101000a900473ffffffffffffffffffffffffffffffffffffffff1673ffffffffffffffffffffffffffffffffffffffff166323b872dd3085856040518463ffffffff1660e01b815260040161086a939291906111a0565b600060405180830381600087803b15801561088457600080fd5b505af1158015610898573d6000803e3d6000fd5b50505050610a466040518060400160405280600781526020017f746f6b656e733a0000000000000000000000000000000000000000000000000081525060008054906101000a900473ffffffffffffffffffffffffffffffffffffffff1673ffffffffffffffffffffffffffffffffffffffff166370a08231306040518263ffffffff1660e01b815260040161092e91906111d7565b602060405180830381865afa15801561094b573d6000803e3d6000fd5b505050506040513d601f19601f8201168201806040525081019061096f9190611207565b6040518060400160405280600681526020017f6e6674733a200000000000000000000000000000000000000000000000000000815250600160009054906101000a900473ffffffffffffffffffffffffffffffffffffffff1673ffffffffffffffffffffffffffffffffffffffff166370a08231306040518263ffffffff1660e01b8152600401610a0091906111d7565b602060405180830381865afa158015610a1d573d6000803e3d6000fd5b505050506040513d601f19601f82011682018060405250810190610a419190611207565b610a4b565b505050565b610ae784848484604051602401610a6594939291906112b3565b6040516020818303038152906040527fc67ea9d1000000000000000000000000000000000000000000000000000000007bffffffffffffffffffffffffffffffffffffffffffffffffffffffff19166020820180517bffffffffffffffffffffffffffffffffffffffffffffffffffffffff8381831617835250505050610aed565b50505050565b60008151905060006a636f6e736f6c652e6c6f679050602083016000808483855afa5050505050565b60405180608001604052806000815260200160008152602001600073ffffffffffffffffffffffffffffffffffffffff1681526020016000151581525090565b600080fd5b600080fd5b600073ffffffffffffffffffffffffffffffffffffffff82169050919050565b6000610b8b82610b60565b9050919050565b610b9b81610b80565b8114610ba657600080fd5b50565b600081359050610bb881610b92565b92915050565b6000819050919050565b610bd181610bbe565b8114610bdc57600080fd5b50565b600081359050610bee81610bc8565b92915050565b600080fd5b600080fd5b600080fd5b60008083601f840112610c1957610c18610bf4565b5b8235905067ffffffffffffffff811115610c3657610c35610bf9565b5b602083019150836001820283011115610c5257610c51610bfe565b5b9250929050565b600080600080600060808688031215610c7557610c74610b56565b5b6000610c8388828901610ba9565b9550506020610c9488828901610ba9565b9450506040610ca588828901610bdf565b935050606086013567ffffffffffffffff811115610cc657610cc5610b5b565b5b610cd288828901610c03565b92509250509295509295909350565b60007fffffffff0000000000000000000000000000000000000000000000000000000082169050919050565b610d1681610ce1565b82525050565b6000602082019050610d316000830184610d0d565b92915050565b600060208284031215610d4d57610d4c610b56565b5b6000610d5b84828501610bdf565b91505092915050565b610d6d81610bbe565b82525050565b610d7c81610b80565b82525050565b60008115159050919050565b610d9781610d82565b82525050565b6000608082019050610db26000830187610d64565b610dbf6020830186610d64565b610dcc6040830185610d73565b610dd96060830184610d8e565b95945050505050565b60008060408385031215610df957610df8610b56565b5b6000610e0785828601610ba9565b9250506020610e1885828601610bdf565b9150509250929050565b600082825260208201905092915050565b7f43616e6e6f742073656e64206e66747320746f205661756c742064697265637460008201527f6c79000000000000000000000000000000000000000000000000000000000000602082015250565b6000610e8f602283610e22565b9150610e9a82610e33565b604082019050919050565b60006020820190508181036000830152610ebe81610e82565b9050919050565b7f6e6f7420616e206f776e65720000000000000000000000000000000000000000600082015250565b6000610efb600c83610e22565b9150610f0682610ec5565b602082019050919050565b60006020820190508181036000830152610f2a81610eee565b9050919050565b7f4e487b7100000000000000000000000000000000000000000000000000000000600052601160045260246000fd5b6000610f6b82610bbe565b9150610f7683610bbe565b9250828203905081811115610f8e57610f8d610f31565b5b92915050565b7f4120646179206861736e27742070617373656400000000000000000000000000600082015250565b6000610fca601383610e22565b9150610fd582610f94565b602082019050919050565b60006020820190508181036000830152610ff981610fbd565b9050919050565b600061100b82610bbe565b915061101683610bbe565b925082820261102481610bbe565b9150828204841483151761103b5761103a610f31565b5b5092915050565b60006040820190506110576000830185610d73565b6110646020830184610d64565b9392505050565b60006020820190506110806000830184610d64565b92915050565b60008151905061109581610b92565b92915050565b6000602082840312156110b1576110b0610b56565b5b60006110bf84828501611086565b91505092915050565b7f6e6f7420796f757220746f6b656e000000000000000000000000000000000000600082015250565b60006110fe600e83610e22565b9150611109826110c8565b602082019050919050565b6000602082019050818103600083015261112d816110f1565b9050919050565b7f616c7265616479207374616b6564000000000000000000000000000000000000600082015250565b600061116a600e83610e22565b915061117582611134565b602082019050919050565b600060208201905081810360008301526111998161115d565b9050919050565b60006060820190506111b56000830186610d73565b6111c26020830185610d73565b6111cf6040830184610d64565b949350505050565b60006020820190506111ec6000830184610d73565b92915050565b60008151905061120181610bc8565b92915050565b60006020828403121561121d5761121c610b56565b5b600061122b848285016111f2565b91505092915050565b600081519050919050565b60005b8381101561125d578082015181840152602081019050611242565b60008484015250505050565b6000601f19601f8301169050919050565b600061128582611234565b61128f8185610e22565b935061129f81856020860161123f565b6112a881611269565b840191505092915050565b600060808201905081810360008301526112cd818761127a565b90506112dc6020830186610d64565b81810360408301526112ee818561127a565b90506112fd6060830184610d64565b9594505050505056fea26469706673582212201bf1f644e6a4ca5040cfdc083d1f50022061eeb36dee348699e80090b4caeec664736f6c63430008120033",
  "linkReferences": {},
  "deployedLinkReferences": {}
}