{
  "_format": "hh-sol-artifact-1",
  "contractName": "staking",
  "sourceName": "contracts/staking.sol",
  "abi": [
    {
      "inputs": [
        {
          "internalType": "contract stakingErc20",
          "name": "_token",
          "type": "address"
        },
        {
          "internalType": "contract stakingErc721",
          "name": "_nft",
          "type": "address"
        }
      ],
      "stateMutability": "nonpayable",
      "type": "constructor"
    },
    {
      "inputs": [
        {
          "internalType": "address",
          "name": "",
          "type": "address"
        },
        {
          "internalType": "address",
          "name": "from",
          "type": "address"
        },
        {
          "internalType": "uint256",
          "name": "",
          "type": "uint256"
        },
        {
          "internalType": "bytes",
          "name": "",
          "type": "bytes"
        }
      ],
      "name": "onERC721Received",
      "outputs": [
        {
          "internalType": "bytes4",
          "name": "",
          "type": "bytes4"
        }
      ],
      "stateMutability": "pure",
      "type": "function"
    },
    {
      "inputs": [
        {
          "internalType": "uint256",
          "name": "tokenId",
          "type": "uint256"
        }
      ],
      "name": "stake",
      "outputs": [],
      "stateMutability": "nonpayable",
      "type": "function"
    },
    {
      "inputs": [
        {
          "internalType": "address",
          "name": "account",
          "type": "address"
        },
        {
          "internalType": "uint256",
          "name": "tokenId",
          "type": "uint256"
        }
      ],
      "name": "unstake",
      "outputs": [],
      "stateMutability": "nonpayable",
      "type": "function"
    },
    {
      "inputs": [
        {
          "internalType": "uint256",
          "name": "",
          "type": "uint256"
        }
      ],
      "name": "vault",
      "outputs": [
        {
          "internalType": "uint256",
          "name": "tokenId",
          "type": "uint256"
        },
        {
          "internalType": "uint256",
          "name": "timestamp",
          "type": "uint256"
        },
        {
          "internalType": "address",
          "name": "owner",
          "type": "address"
        },
        {
          "internalType": "bool",
          "name": "stakedBool",
          "type": "bool"
        }
      ],
      "stateMutability": "view",
      "type": "function"
    },
    {
      "inputs": [
        {
          "internalType": "uint256",
          "name": "tokenId",
          "type": "uint256"
        }
      ],
      "name": "withdraw",
      "outputs": [],
      "stateMutability": "nonpayable",
      "type": "function"
    }
  ],
  "bytecode": "0x6080604052603c806018678ac7230489e800006200001e9190620001a8565b6200002a9190620001a8565b620000369190620001a8565b6004553480156200004657600080fd5b5060405162001a0e38038062001a0e83398181016040528101906200006c9190620002a3565b62000088679390cf6f53a927c160c01b6200016c60201b60201c565b620000a46757de415f2fba873260c01b6200016c60201b60201c565b816000806101000a81548173ffffffffffffffffffffffffffffffffffffffff021916908373ffffffffffffffffffffffffffffffffffffffff16021790555062000100678e098c760ba513db60c01b6200016c60201b60201c565b80600160006101000a81548173ffffffffffffffffffffffffffffffffffffffff021916908373ffffffffffffffffffffffffffffffffffffffff1602179055506200015d67368987f25faa2b2960c01b6200016c60201b60201c565b426003819055505050620002ea565b50565b6000819050919050565b7f4e487b7100000000000000000000000000000000000000000000000000000000600052601260045260246000fd5b6000620001b5826200016f565b9150620001c2836200016f565b925082620001d557620001d462000179565b5b828204905092915050565b600080fd5b600073ffffffffffffffffffffffffffffffffffffffff82169050919050565b60006200021282620001e5565b9050919050565b6000620002268262000205565b9050919050565b620002388162000219565b81146200024457600080fd5b50565b60008151905062000258816200022d565b92915050565b60006200026b8262000205565b9050919050565b6200027d816200025e565b81146200028957600080fd5b50565b6000815190506200029d8162000272565b92915050565b60008060408385031215620002bd57620002bc620001e0565b5b6000620002cd8582860162000247565b9250506020620002e0858286016200028c565b9150509250929050565b61171480620002fa6000396000f3fe608060405234801561001057600080fd5b50600436106100575760003560e01c8063150b7a021461005c5780632e1a7d4d1461008c57806381a36fb6146100a8578063a694fc3a146100db578063c2a672e0146100f7575b600080fd5b61007660048036038101906100719190611031565b610113565b60405161008391906110f4565b60405180910390f35b6100a660048036038101906100a1919061110f565b610223565b005b6100c260048036038101906100bd919061110f565b6105ae565b6040516100d29493929190611175565b60405180910390f35b6100f560048036038101906100f0919061110f565b61060b565b005b610111600480360381019061010c91906111ba565b6109cd565b005b6000610129673e35b4745ae8941160c01b610e20565b61013d67d2437df6e346635b60c01b610e20565b610151674d609b97326e9d2960c01b610e20565b61016567ec1bdb5425f1d3ff60c01b610e20565b600073ffffffffffffffffffffffffffffffffffffffff168573ffffffffffffffffffffffffffffffffffffffff16146101d4576040517f08c379a00000000000000000000000000000000000000000000000000000000081526004016101cb9061127d565b60405180910390fd5b6101e8678b02b4a5f8d3063960c01b610e20565b6101fc67666de8f1d4d80dcf60c01b610e20565b61021067e7f5142dec82d9e160c01b610e20565b63150b7a0260e01b905095945050505050565b61023767b2d3e26a0c0db8cf60c01b610e20565b61024b673843b8cc8a8b51fd60c01b610e20565b61025f6739f95badd6731d1f60c01b610e20565b60006002600083815260200190815260200160002060405180608001604052908160008201548152602001600182015481526020016002820160009054906101000a900473ffffffffffffffffffffffffffffffffffffffff1673ffffffffffffffffffffffffffffffffffffffff1673ffffffffffffffffffffffffffffffffffffffff1681526020016002820160149054906101000a900460ff161515151581525050905061031a674e5b35d8603a9d6260c01b610e20565b61032e675043a85308f85d6c60c01b610e20565b610342677508e21a826a207f60c01b610e20565b3373ffffffffffffffffffffffffffffffffffffffff16816040015173ffffffffffffffffffffffffffffffffffffffff16146103b4576040517f08c379a00000000000000000000000000000000000000000000000000000000081526004016103ab906112e9565b60405180910390fd5b6103c86741f2e33ddf4df29860c01b610e20565b6103dc671b48466872f541bd60c01b610e20565b6103f067e40540e9101d287360c01b610e20565b60008160200151905061040d67a0c60efb75f4ef8160c01b610e20565b61042167d3d5c72c5820839160c01b610e20565b6000814261042f9190611338565b905061044567a324c975d628c74060c01b610e20565b61045967cf066d13ac981b2160c01b610e20565b61046d67938e8d7f5479a11160c01b610e20565b601e8110156104b1576040517f08c379a00000000000000000000000000000000000000000000000000000000081526004016104a8906113b8565b60405180910390fd5b6104c567a246675008e2716d60c01b610e20565b6104d96753499162d0c0fac460c01b610e20565b6104ed679954cdf27d40c19760c01b610e20565b60008054906101000a900473ffffffffffffffffffffffffffffffffffffffff1673ffffffffffffffffffffffffffffffffffffffff166340c10f1984604001518360045461053c91906113d8565b6040518363ffffffff1660e01b815260040161055992919061141a565b600060405180830381600087803b15801561057357600080fd5b505af1158015610587573d6000803e3d6000fd5b5050505061059f676c37dc30a06adf8e60c01b610e20565b60008360200151505050505050565b60026020528060005260406000206000915090508060000154908060010154908060020160009054906101000a900473ffffffffffffffffffffffffffffffffffffffff16908060020160149054906101000a900460ff16905084565b61061f67677b4beedb3d4a1460c01b610e20565b61063367b71aaf92e14b301960c01b610e20565b610647671ca3b1dba0afc28e60c01b610e20565b61065b67d58e62dbcf297f5160c01b610e20565b3373ffffffffffffffffffffffffffffffffffffffff16600160009054906101000a900473ffffffffffffffffffffffffffffffffffffffff1673ffffffffffffffffffffffffffffffffffffffff16636352211e836040518263ffffffff1660e01b81526004016106cd9190611443565b602060405180830381865afa1580156106ea573d6000803e3d6000fd5b505050506040513d601f19601f8201168201806040525081019061070e9190611473565b73ffffffffffffffffffffffffffffffffffffffff1614610764576040517f08c379a000000000000000000000000000000000000000000000000000000000815260040161075b906114ec565b60405180910390fd5b6107786780f283503bb83eac60c01b610e20565b61078c67bd67bef0a57dd48c60c01b610e20565b6107a06797ac4994dbc504e160c01b610e20565b6107b467df3015bd2c2fc4bc60c01b610e20565b600015156002600083815260200190815260200160002060020160149054906101000a900460ff1615151461081e576040517f08c379a000000000000000000000000000000000000000000000000000000000815260040161081590611558565b60405180910390fd5b61083267aa4582fe7c135f6d60c01b610e20565b61084667a3dc1a766544f59e60c01b610e20565b61085a670dd4cd2abc9e5b5e60c01b610e20565b600160009054906101000a900473ffffffffffffffffffffffffffffffffffffffff1673ffffffffffffffffffffffffffffffffffffffff166323b872dd3330846040518463ffffffff1660e01b81526004016108b993929190611578565b600060405180830381600087803b1580156108d357600080fd5b505af11580156108e7573d6000803e3d6000fd5b505050506108ff67628de54f0f96edf160c01b610e20565b60405180608001604052808281526020014281526020013373ffffffffffffffffffffffffffffffffffffffff1681526020016001151581525060026000838152602001908152602001600020600082015181600001556020820151816001015560408201518160020160006101000a81548173ffffffffffffffffffffffffffffffffffffffff021916908373ffffffffffffffffffffffffffffffffffffffff16021790555060608201518160020160146101000a81548160ff02191690831515021790555090505050565b6109e16771f6192b3f7c7ee660c01b610e20565b6109f567c7ff9f155ad80b1c60c01b610e20565b610a0967aa4b1455992b8f2360c01b610e20565b60006002600083815260200190815260200160002060405180608001604052908160008201548152602001600182015481526020016002820160009054906101000a900473ffffffffffffffffffffffffffffffffffffffff1673ffffffffffffffffffffffffffffffffffffffff1673ffffffffffffffffffffffffffffffffffffffff1681526020016002820160149054906101000a900460ff1615151515815250509050610ac4676ebd7012d315257460c01b610e20565b610ad867b2ee94057d1762b960c01b610e20565b610aec679f7b68e9ce751f2760c01b610e20565b3373ffffffffffffffffffffffffffffffffffffffff16816040015173ffffffffffffffffffffffffffffffffffffffff1614610b5e576040517f08c379a0000000000000000000000000000000000000000000000000000000008152600401610b55906112e9565b60405180910390fd5b610b7267036bab011f4088b160c01b610e20565b610b8667708d50fa33d0075760c01b610e20565b610b8e610eee565b9050610ba467876bd5fbd67e893b60c01b610e20565b610bb867f4ca08a97fbb3f5c60c01b610e20565b600160009054906101000a900473ffffffffffffffffffffffffffffffffffffffff1673ffffffffffffffffffffffffffffffffffffffff166323b872dd3085856040518463ffffffff1660e01b8152600401610c1793929190611578565b600060405180830381600087803b158015610c3157600080fd5b505af1158015610c45573d6000803e3d6000fd5b50505050610c5d67db389da12f7f2e0f60c01b610e20565b610c71674033145e877ad0c060c01b610e20565b610e1b6040518060400160405280600781526020017f746f6b656e733a0000000000000000000000000000000000000000000000000081525060008054906101000a900473ffffffffffffffffffffffffffffffffffffffff1673ffffffffffffffffffffffffffffffffffffffff166370a08231306040518263ffffffff1660e01b8152600401610d0391906115af565b602060405180830381865afa158015610d20573d6000803e3d6000fd5b505050506040513d601f19601f82011682018060405250810190610d4491906115df565b6040518060400160405280600681526020017f6e6674733a200000000000000000000000000000000000000000000000000000815250600160009054906101000a900473ffffffffffffffffffffffffffffffffffffffff1673ffffffffffffffffffffffffffffffffffffffff166370a08231306040518263ffffffff1660e01b8152600401610dd591906115af565b602060405180830381865afa158015610df2573d6000803e3d6000fd5b505050506040513d601f19601f82011682018060405250810190610e1691906115df565b610e23565b505050565b50565b610ebf84848484604051602401610e3d949392919061168b565b6040516020818303038152906040527fc67ea9d1000000000000000000000000000000000000000000000000000000007bffffffffffffffffffffffffffffffffffffffffffffffffffffffff19166020820180517bffffffffffffffffffffffffffffffffffffffffffffffffffffffff8381831617835250505050610ec5565b50505050565b60008151905060006a636f6e736f6c652e6c6f679050602083016000808483855afa5050505050565b60405180608001604052806000815260200160008152602001600073ffffffffffffffffffffffffffffffffffffffff1681526020016000151581525090565b600080fd5b600080fd5b600073ffffffffffffffffffffffffffffffffffffffff82169050919050565b6000610f6382610f38565b9050919050565b610f7381610f58565b8114610f7e57600080fd5b50565b600081359050610f9081610f6a565b92915050565b6000819050919050565b610fa981610f96565b8114610fb457600080fd5b50565b600081359050610fc681610fa0565b92915050565b600080fd5b600080fd5b600080fd5b60008083601f840112610ff157610ff0610fcc565b5b8235905067ffffffffffffffff81111561100e5761100d610fd1565b5b60208301915083600182028301111561102a57611029610fd6565b5b9250929050565b60008060008060006080868803121561104d5761104c610f2e565b5b600061105b88828901610f81565b955050602061106c88828901610f81565b945050604061107d88828901610fb7565b935050606086013567ffffffffffffffff81111561109e5761109d610f33565b5b6110aa88828901610fdb565b92509250509295509295909350565b60007fffffffff0000000000000000000000000000000000000000000000000000000082169050919050565b6110ee816110b9565b82525050565b600060208201905061110960008301846110e5565b92915050565b60006020828403121561112557611124610f2e565b5b600061113384828501610fb7565b91505092915050565b61114581610f96565b82525050565b61115481610f58565b82525050565b60008115159050919050565b61116f8161115a565b82525050565b600060808201905061118a600083018761113c565b611197602083018661113c565b6111a4604083018561114b565b6111b16060830184611166565b95945050505050565b600080604083850312156111d1576111d0610f2e565b5b60006111df85828601610f81565b92505060206111f085828601610fb7565b9150509250929050565b600082825260208201905092915050565b7f43616e6e6f742073656e64206e66747320746f205661756c742064697265637460008201527f6c79000000000000000000000000000000000000000000000000000000000000602082015250565b60006112676022836111fa565b91506112728261120b565b604082019050919050565b600060208201905081810360008301526112968161125a565b9050919050565b7f6e6f7420616e206f776e65720000000000000000000000000000000000000000600082015250565b60006112d3600c836111fa565b91506112de8261129d565b602082019050919050565b60006020820190508181036000830152611302816112c6565b9050919050565b7f4e487b7100000000000000000000000000000000000000000000000000000000600052601160045260246000fd5b600061134382610f96565b915061134e83610f96565b925082820390508181111561136657611365611309565b5b92915050565b7f4120646179206861736e27742070617373656400000000000000000000000000600082015250565b60006113a26013836111fa565b91506113ad8261136c565b602082019050919050565b600060208201905081810360008301526113d181611395565b9050919050565b60006113e382610f96565b91506113ee83610f96565b92508282026113fc81610f96565b9150828204841483151761141357611412611309565b5b5092915050565b600060408201905061142f600083018561114b565b61143c602083018461113c565b9392505050565b6000602082019050611458600083018461113c565b92915050565b60008151905061146d81610f6a565b92915050565b60006020828403121561148957611488610f2e565b5b60006114978482850161145e565b91505092915050565b7f6e6f7420796f757220746f6b656e000000000000000000000000000000000000600082015250565b60006114d6600e836111fa565b91506114e1826114a0565b602082019050919050565b60006020820190508181036000830152611505816114c9565b9050919050565b7f616c7265616479207374616b6564000000000000000000000000000000000000600082015250565b6000611542600e836111fa565b915061154d8261150c565b602082019050919050565b6000602082019050818103600083015261157181611535565b9050919050565b600060608201905061158d600083018661114b565b61159a602083018561114b565b6115a7604083018461113c565b949350505050565b60006020820190506115c4600083018461114b565b92915050565b6000815190506115d981610fa0565b92915050565b6000602082840312156115f5576115f4610f2e565b5b6000611603848285016115ca565b91505092915050565b600081519050919050565b60005b8381101561163557808201518184015260208101905061161a565b60008484015250505050565b6000601f19601f8301169050919050565b600061165d8261160c565b61166781856111fa565b9350611677818560208601611617565b61168081611641565b840191505092915050565b600060808201905081810360008301526116a58187611652565b90506116b4602083018661113c565b81810360408301526116c68185611652565b90506116d5606083018461113c565b9594505050505056fea264697066735822122010926b3b999734ccf85dd19386ef8d278c7c65b1d407b1203d21baa57ad89ca264736f6c63430008120033",
  "linkReferences": {},
  "deployedLinkReferences": {}
}