{
  "_format": "hh-sol-artifact-1",
  "contractName": "staking",
  "sourceName": "contracts/staking.sol",
  "abi": [
    {
      "inputs": [
        {
          "internalType": "contract stakingErc20",
          "name": "_token",
          "type": "address"
        },
        {
          "internalType": "contract stakingErc721",
          "name": "_nft",
          "type": "address"
        }
      ],
      "stateMutability": "nonpayable",
      "type": "constructor"
    },
    {
      "anonymous": false,
      "inputs": [
        {
          "indexed": true,
          "internalType": "address",
          "name": "previousOwner",
          "type": "address"
        },
        {
          "indexed": true,
          "internalType": "address",
          "name": "newOwner",
          "type": "address"
        }
      ],
      "name": "OwnershipTransferred",
      "type": "event"
    },
    {
      "inputs": [
        {
          "internalType": "address",
          "name": "",
          "type": "address"
        },
        {
          "internalType": "address",
          "name": "from",
          "type": "address"
        },
        {
          "internalType": "uint256",
          "name": "",
          "type": "uint256"
        },
        {
          "internalType": "bytes",
          "name": "",
          "type": "bytes"
        }
      ],
      "name": "onERC721Received",
      "outputs": [
        {
          "internalType": "bytes4",
          "name": "",
          "type": "bytes4"
        }
      ],
      "stateMutability": "pure",
      "type": "function"
    },
    {
      "inputs": [],
      "name": "owner",
      "outputs": [
        {
          "internalType": "address",
          "name": "",
          "type": "address"
        }
      ],
      "stateMutability": "view",
      "type": "function"
    },
    {
      "inputs": [],
      "name": "renounceOwnership",
      "outputs": [],
      "stateMutability": "nonpayable",
      "type": "function"
    },
    {
      "inputs": [
        {
          "internalType": "uint256",
          "name": "tokenId",
          "type": "uint256"
        }
      ],
      "name": "stake",
      "outputs": [],
      "stateMutability": "nonpayable",
      "type": "function"
    },
    {
      "inputs": [
        {
          "internalType": "address",
          "name": "newOwner",
          "type": "address"
        }
      ],
      "name": "transferOwnership",
      "outputs": [],
      "stateMutability": "nonpayable",
      "type": "function"
    },
    {
      "inputs": [
        {
          "internalType": "address",
          "name": "account",
          "type": "address"
        },
        {
          "internalType": "uint256",
          "name": "tokenId",
          "type": "uint256"
        }
      ],
      "name": "unstake",
      "outputs": [],
      "stateMutability": "nonpayable",
      "type": "function"
    },
    {
      "inputs": [
        {
          "internalType": "uint256",
          "name": "",
          "type": "uint256"
        }
      ],
      "name": "vault",
      "outputs": [
        {
          "internalType": "uint256",
          "name": "tokenId",
          "type": "uint256"
        },
        {
          "internalType": "uint256",
          "name": "timestamp",
          "type": "uint256"
        },
        {
          "internalType": "address",
          "name": "owner",
          "type": "address"
        },
        {
          "internalType": "bool",
          "name": "stakedBool",
          "type": "bool"
        }
      ],
      "stateMutability": "view",
      "type": "function"
    },
    {
      "inputs": [
        {
          "internalType": "address",
          "name": "to",
          "type": "address"
        },
        {
          "internalType": "uint256",
          "name": "tokenId",
          "type": "uint256"
        }
      ],
      "name": "withdraw",
      "outputs": [],
      "stateMutability": "nonpayable",
      "type": "function"
    }
  ],
  "bytecode": "0x6080604052603c806018678ac7230489e800006200001e919062000222565b6200002a919062000222565b62000036919062000222565b6005553480156200004657600080fd5b506040516200173c3803806200173c83398181016040528101906200006c91906200031d565b6200008c620000806200011d60201b60201c565b6200012560201b60201c565b81600160006101000a81548173ffffffffffffffffffffffffffffffffffffffff021916908373ffffffffffffffffffffffffffffffffffffffff16021790555080600260006101000a81548173ffffffffffffffffffffffffffffffffffffffff021916908373ffffffffffffffffffffffffffffffffffffffff16021790555042600481905550505062000364565b600033905090565b60008060009054906101000a900473ffffffffffffffffffffffffffffffffffffffff169050816000806101000a81548173ffffffffffffffffffffffffffffffffffffffff021916908373ffffffffffffffffffffffffffffffffffffffff1602179055508173ffffffffffffffffffffffffffffffffffffffff168173ffffffffffffffffffffffffffffffffffffffff167f8be0079c531659141344cd1fd0a4f28419497f9722a3daafe3b4186f6b6457e060405160405180910390a35050565b6000819050919050565b7f4e487b7100000000000000000000000000000000000000000000000000000000600052601260045260246000fd5b60006200022f82620001e9565b91506200023c83620001e9565b9250826200024f576200024e620001f3565b5b828204905092915050565b600080fd5b600073ffffffffffffffffffffffffffffffffffffffff82169050919050565b60006200028c826200025f565b9050919050565b6000620002a0826200027f565b9050919050565b620002b28162000293565b8114620002be57600080fd5b50565b600081519050620002d281620002a7565b92915050565b6000620002e5826200027f565b9050919050565b620002f781620002d8565b81146200030357600080fd5b50565b6000815190506200031781620002ec565b92915050565b600080604083850312156200033757620003366200025a565b5b60006200034785828601620002c1565b92505060206200035a8582860162000306565b9150509250929050565b6113c880620003746000396000f3fe608060405234801561001057600080fd5b50600436106100885760003560e01c8063a694fc3a1161005b578063a694fc3a14610118578063c2a672e014610134578063f2fde38b14610150578063f3fef3a31461016c57610088565b8063150b7a021461008d578063715018a6146100bd57806381a36fb6146100c75780638da5cb5b146100fa575b600080fd5b6100a760048036038101906100a29190610cce565b610188565b6040516100b49190610d91565b60405180910390f35b6100c561020b565b005b6100e160048036038101906100dc9190610dac565b610293565b6040516100f19493929190610e12565b60405180910390f35b6101026102f0565b60405161010f9190610e57565b60405180910390f35b610132600480360381019061012d9190610dac565b610319565b005b61014e60048036038101906101499190610e72565b6105eb565b005b61016a60048036038101906101659190610eb2565b6107a4565b005b61018660048036038101906101819190610e72565b61089b565b005b60008073ffffffffffffffffffffffffffffffffffffffff168573ffffffffffffffffffffffffffffffffffffffff16146101f8576040517f08c379a00000000000000000000000000000000000000000000000000000000081526004016101ef90610f62565b60405180910390fd5b63150b7a0260e01b905095945050505050565b610213610abf565b73ffffffffffffffffffffffffffffffffffffffff166102316102f0565b73ffffffffffffffffffffffffffffffffffffffff1614610287576040517f08c379a000000000000000000000000000000000000000000000000000000000815260040161027e90610fce565b60405180910390fd5b6102916000610ac7565b565b60036020528060005260406000206000915090508060000154908060010154908060020160009054906101000a900473ffffffffffffffffffffffffffffffffffffffff16908060020160149054906101000a900460ff16905084565b60008060009054906101000a900473ffffffffffffffffffffffffffffffffffffffff16905090565b3373ffffffffffffffffffffffffffffffffffffffff16600260009054906101000a900473ffffffffffffffffffffffffffffffffffffffff1673ffffffffffffffffffffffffffffffffffffffff16636352211e836040518263ffffffff1660e01b815260040161038b9190610fee565b602060405180830381865afa1580156103a8573d6000803e3d6000fd5b505050506040513d601f19601f820116820180604052508101906103cc919061101e565b73ffffffffffffffffffffffffffffffffffffffff1614610422576040517f08c379a000000000000000000000000000000000000000000000000000000000815260040161041990611097565b60405180910390fd5b600015156003600083815260200190815260200160002060020160149054906101000a900460ff1615151461048c576040517f08c379a000000000000000000000000000000000000000000000000000000000815260040161048390611103565b60405180910390fd5b600260009054906101000a900473ffffffffffffffffffffffffffffffffffffffff1673ffffffffffffffffffffffffffffffffffffffff166323b872dd3330846040518463ffffffff1660e01b81526004016104eb93929190611123565b600060405180830381600087803b15801561050557600080fd5b505af1158015610519573d6000803e3d6000fd5b5050505060405180608001604052808281526020014281526020013373ffffffffffffffffffffffffffffffffffffffff1681526020016001151581525060036000838152602001908152602001600020600082015181600001556020820151816001015560408201518160020160006101000a81548173ffffffffffffffffffffffffffffffffffffffff021916908373ffffffffffffffffffffffffffffffffffffffff16021790555060608201518160020160146101000a81548160ff02191690831515021790555090505050565b60006003600083815260200190815260200160002060405180608001604052908160008201548152602001600182015481526020016002820160009054906101000a900473ffffffffffffffffffffffffffffffffffffffff1673ffffffffffffffffffffffffffffffffffffffff1673ffffffffffffffffffffffffffffffffffffffff1681526020016002820160149054906101000a900460ff16151515158152505090503373ffffffffffffffffffffffffffffffffffffffff16816040015173ffffffffffffffffffffffffffffffffffffffff1614610704576040517f08c379a00000000000000000000000000000000000000000000000000000000081526004016106fb906111a6565b60405180910390fd5b61070c610b8b565b9050600260009054906101000a900473ffffffffffffffffffffffffffffffffffffffff1673ffffffffffffffffffffffffffffffffffffffff166323b872dd3085856040518463ffffffff1660e01b815260040161076d93929190611123565b600060405180830381600087803b15801561078757600080fd5b505af115801561079b573d6000803e3d6000fd5b50505050505050565b6107ac610abf565b73ffffffffffffffffffffffffffffffffffffffff166107ca6102f0565b73ffffffffffffffffffffffffffffffffffffffff1614610820576040517f08c379a000000000000000000000000000000000000000000000000000000000815260040161081790610fce565b60405180910390fd5b600073ffffffffffffffffffffffffffffffffffffffff168173ffffffffffffffffffffffffffffffffffffffff160361088f576040517f08c379a000000000000000000000000000000000000000000000000000000000815260040161088690611238565b60405180910390fd5b61089881610ac7565b50565b60006003600083815260200190815260200160002060405180608001604052908160008201548152602001600182015481526020016002820160009054906101000a900473ffffffffffffffffffffffffffffffffffffffff1673ffffffffffffffffffffffffffffffffffffffff1673ffffffffffffffffffffffffffffffffffffffff1681526020016002820160149054906101000a900460ff16151515158152505090503373ffffffffffffffffffffffffffffffffffffffff16816040015173ffffffffffffffffffffffffffffffffffffffff16146109b4576040517f08c379a00000000000000000000000000000000000000000000000000000000081526004016109ab906111a6565b60405180910390fd5b600081602001519050600081426109cb9190611287565b905062015180811015610a13576040517f08c379a0000000000000000000000000000000000000000000000000000000008152600401610a0a90611307565b60405180910390fd5b600160009054906101000a900473ffffffffffffffffffffffffffffffffffffffff1673ffffffffffffffffffffffffffffffffffffffff166340c10f198683600554610a609190611327565b6040518363ffffffff1660e01b8152600401610a7d929190611369565b600060405180830381600087803b158015610a9757600080fd5b505af1158015610aab573d6000803e3d6000fd5b505050506000836020015150505050505050565b600033905090565b60008060009054906101000a900473ffffffffffffffffffffffffffffffffffffffff169050816000806101000a81548173ffffffffffffffffffffffffffffffffffffffff021916908373ffffffffffffffffffffffffffffffffffffffff1602179055508173ffffffffffffffffffffffffffffffffffffffff168173ffffffffffffffffffffffffffffffffffffffff167f8be0079c531659141344cd1fd0a4f28419497f9722a3daafe3b4186f6b6457e060405160405180910390a35050565b60405180608001604052806000815260200160008152602001600073ffffffffffffffffffffffffffffffffffffffff1681526020016000151581525090565b600080fd5b600080fd5b600073ffffffffffffffffffffffffffffffffffffffff82169050919050565b6000610c0082610bd5565b9050919050565b610c1081610bf5565b8114610c1b57600080fd5b50565b600081359050610c2d81610c07565b92915050565b6000819050919050565b610c4681610c33565b8114610c5157600080fd5b50565b600081359050610c6381610c3d565b92915050565b600080fd5b600080fd5b600080fd5b60008083601f840112610c8e57610c8d610c69565b5b8235905067ffffffffffffffff811115610cab57610caa610c6e565b5b602083019150836001820283011115610cc757610cc6610c73565b5b9250929050565b600080600080600060808688031215610cea57610ce9610bcb565b5b6000610cf888828901610c1e565b9550506020610d0988828901610c1e565b9450506040610d1a88828901610c54565b935050606086013567ffffffffffffffff811115610d3b57610d3a610bd0565b5b610d4788828901610c78565b92509250509295509295909350565b60007fffffffff0000000000000000000000000000000000000000000000000000000082169050919050565b610d8b81610d56565b82525050565b6000602082019050610da66000830184610d82565b92915050565b600060208284031215610dc257610dc1610bcb565b5b6000610dd084828501610c54565b91505092915050565b610de281610c33565b82525050565b610df181610bf5565b82525050565b60008115159050919050565b610e0c81610df7565b82525050565b6000608082019050610e276000830187610dd9565b610e346020830186610dd9565b610e416040830185610de8565b610e4e6060830184610e03565b95945050505050565b6000602082019050610e6c6000830184610de8565b92915050565b60008060408385031215610e8957610e88610bcb565b5b6000610e9785828601610c1e565b9250506020610ea885828601610c54565b9150509250929050565b600060208284031215610ec857610ec7610bcb565b5b6000610ed684828501610c1e565b91505092915050565b600082825260208201905092915050565b7f43616e6e6f742073656e64206e66747320746f205661756c742064697265637460008201527f6c79000000000000000000000000000000000000000000000000000000000000602082015250565b6000610f4c602283610edf565b9150610f5782610ef0565b604082019050919050565b60006020820190508181036000830152610f7b81610f3f565b9050919050565b7f4f776e61626c653a2063616c6c6572206973206e6f7420746865206f776e6572600082015250565b6000610fb8602083610edf565b9150610fc382610f82565b602082019050919050565b60006020820190508181036000830152610fe781610fab565b9050919050565b60006020820190506110036000830184610dd9565b92915050565b60008151905061101881610c07565b92915050565b60006020828403121561103457611033610bcb565b5b600061104284828501611009565b91505092915050565b7f6e6f7420796f757220746f6b656e000000000000000000000000000000000000600082015250565b6000611081600e83610edf565b915061108c8261104b565b602082019050919050565b600060208201905081810360008301526110b081611074565b9050919050565b7f616c7265616479207374616b6564000000000000000000000000000000000000600082015250565b60006110ed600e83610edf565b91506110f8826110b7565b602082019050919050565b6000602082019050818103600083015261111c816110e0565b9050919050565b60006060820190506111386000830186610de8565b6111456020830185610de8565b6111526040830184610dd9565b949350505050565b7f6e6f7420616e206f776e65720000000000000000000000000000000000000000600082015250565b6000611190600c83610edf565b915061119b8261115a565b602082019050919050565b600060208201905081810360008301526111bf81611183565b9050919050565b7f4f776e61626c653a206e6577206f776e657220697320746865207a65726f206160008201527f6464726573730000000000000000000000000000000000000000000000000000602082015250565b6000611222602683610edf565b915061122d826111c6565b604082019050919050565b6000602082019050818103600083015261125181611215565b9050919050565b7f4e487b7100000000000000000000000000000000000000000000000000000000600052601160045260246000fd5b600061129282610c33565b915061129d83610c33565b92508282039050818111156112b5576112b4611258565b5b92915050565b7f4120646179206861736e27742070617373656400000000000000000000000000600082015250565b60006112f1601383610edf565b91506112fc826112bb565b602082019050919050565b60006020820190508181036000830152611320816112e4565b9050919050565b600061133282610c33565b915061133d83610c33565b925082820261134b81610c33565b9150828204841483151761136257611361611258565b5b5092915050565b600060408201905061137e6000830185610de8565b61138b6020830184610dd9565b939250505056fea2646970667358221220924b079b3ac6038eee815a46c4c0bacbc18a8b12a8563d57d17901aa000f66bf64736f6c63430008120033",
  "linkReferences": {},
  "deployedLinkReferences": {}
}