{
  "_format": "hh-sol-artifact-1",
  "contractName": "staking",
  "sourceName": "contracts/staking.sol",
  "abi": [
    {
      "inputs": [
        {
          "internalType": "contract stakingErc20",
          "name": "_token",
          "type": "address"
        },
        {
          "internalType": "contract stakingErc721",
          "name": "_nft",
          "type": "address"
        }
      ],
      "stateMutability": "nonpayable",
      "type": "constructor"
    },
    {
      "anonymous": false,
      "inputs": [
        {
          "indexed": true,
          "internalType": "address",
          "name": "previousOwner",
          "type": "address"
        },
        {
          "indexed": true,
          "internalType": "address",
          "name": "newOwner",
          "type": "address"
        }
      ],
      "name": "OwnershipTransferred",
      "type": "event"
    },
    {
      "inputs": [
        {
          "internalType": "address",
          "name": "",
          "type": "address"
        },
        {
          "internalType": "address",
          "name": "from",
          "type": "address"
        },
        {
          "internalType": "uint256",
          "name": "",
          "type": "uint256"
        },
        {
          "internalType": "bytes",
          "name": "",
          "type": "bytes"
        }
      ],
      "name": "onERC721Received",
      "outputs": [
        {
          "internalType": "bytes4",
          "name": "",
          "type": "bytes4"
        }
      ],
      "stateMutability": "pure",
      "type": "function"
    },
    {
      "inputs": [],
      "name": "owner",
      "outputs": [
        {
          "internalType": "address",
          "name": "",
          "type": "address"
        }
      ],
      "stateMutability": "view",
      "type": "function"
    },
    {
      "inputs": [],
      "name": "renounceOwnership",
      "outputs": [],
      "stateMutability": "nonpayable",
      "type": "function"
    },
    {
      "inputs": [
        {
          "internalType": "uint256",
          "name": "tokenId",
          "type": "uint256"
        }
      ],
      "name": "stake",
      "outputs": [],
      "stateMutability": "nonpayable",
      "type": "function"
    },
    {
      "inputs": [
        {
          "internalType": "address",
          "name": "newOwner",
          "type": "address"
        }
      ],
      "name": "transferOwnership",
      "outputs": [],
      "stateMutability": "nonpayable",
      "type": "function"
    },
    {
      "inputs": [
        {
          "internalType": "address",
          "name": "account",
          "type": "address"
        },
        {
          "internalType": "uint256",
          "name": "tokenId",
          "type": "uint256"
        }
      ],
      "name": "unstake",
      "outputs": [],
      "stateMutability": "nonpayable",
      "type": "function"
    },
    {
      "inputs": [
        {
          "internalType": "uint256",
          "name": "",
          "type": "uint256"
        }
      ],
      "name": "vault",
      "outputs": [
        {
          "internalType": "uint256",
          "name": "tokenId",
          "type": "uint256"
        },
        {
          "internalType": "uint256",
          "name": "timestamp",
          "type": "uint256"
        },
        {
          "internalType": "address",
          "name": "owner",
          "type": "address"
        },
        {
          "internalType": "bool",
          "name": "stakedBool",
          "type": "bool"
        }
      ],
      "stateMutability": "view",
      "type": "function"
    },
    {
      "inputs": [
        {
          "internalType": "address",
          "name": "to",
          "type": "address"
        },
        {
          "internalType": "uint256",
          "name": "tokenId",
          "type": "uint256"
        }
      ],
      "name": "withdraw",
      "outputs": [],
      "stateMutability": "nonpayable",
      "type": "function"
    }
  ],
  "bytecode": "0x6080604052603c806018678ac7230489e800006200001e919062000295565b6200002a919062000295565b62000036919062000295565b6005553480156200004657600080fd5b5060405162001b5f38038062001b5f83398181016040528101906200006c919062000390565b6200008c620000806200018d60201b60201c565b6200019560201b60201c565b620000a8677578f7f6a6f425ea60c01b6200025960201b60201c565b620000c467fa1314c19a00787960c01b6200025960201b60201c565b81600160006101000a81548173ffffffffffffffffffffffffffffffffffffffff021916908373ffffffffffffffffffffffffffffffffffffffff1602179055506200012167bb2f8b982c1aa4e960c01b6200025960201b60201c565b80600260006101000a81548173ffffffffffffffffffffffffffffffffffffffff021916908373ffffffffffffffffffffffffffffffffffffffff1602179055506200017e670d922120f2b1fc4e60c01b6200025960201b60201c565b426004819055505050620003d7565b600033905090565b60008060009054906101000a900473ffffffffffffffffffffffffffffffffffffffff169050816000806101000a81548173ffffffffffffffffffffffffffffffffffffffff021916908373ffffffffffffffffffffffffffffffffffffffff1602179055508173ffffffffffffffffffffffffffffffffffffffff168173ffffffffffffffffffffffffffffffffffffffff167f8be0079c531659141344cd1fd0a4f28419497f9722a3daafe3b4186f6b6457e060405160405180910390a35050565b50565b6000819050919050565b7f4e487b7100000000000000000000000000000000000000000000000000000000600052601260045260246000fd5b6000620002a2826200025c565b9150620002af836200025c565b925082620002c257620002c162000266565b5b828204905092915050565b600080fd5b600073ffffffffffffffffffffffffffffffffffffffff82169050919050565b6000620002ff82620002d2565b9050919050565b60006200031382620002f2565b9050919050565b620003258162000306565b81146200033157600080fd5b50565b60008151905062000345816200031a565b92915050565b60006200035882620002f2565b9050919050565b6200036a816200034b565b81146200037657600080fd5b50565b6000815190506200038a816200035f565b92915050565b60008060408385031215620003aa57620003a9620002cd565b5b6000620003ba8582860162000334565b9250506020620003cd8582860162000379565b9150509250929050565b61177880620003e76000396000f3fe608060405234801561001057600080fd5b50600436106100885760003560e01c8063a694fc3a1161005b578063a694fc3a14610118578063c2a672e014610134578063f2fde38b14610150578063f3fef3a31461016c57610088565b8063150b7a021461008d578063715018a6146100bd57806381a36fb6146100c75780638da5cb5b146100fa575b600080fd5b6100a760048036038101906100a2919061107e565b610188565b6040516100b49190611141565b60405180910390f35b6100c5610298565b005b6100e160048036038101906100dc919061115c565b610320565b6040516100f194939291906111c2565b60405180910390f35b61010261037d565b60405161010f9190611207565b60405180910390f35b610132600480360381019061012d919061115c565b6103a6565b005b61014e60048036038101906101499190611222565b610768565b005b61016a60048036038101906101659190611262565b6109e9565b005b61018660048036038101906101819190611222565b610ae0565b005b600061019e67a324c975d628c74060c01b610e6c565b6101b267cf066d13ac981b2160c01b610e6c565b6101c667938e8d7f5479a11160c01b610e6c565b6101da67a246675008e2716d60c01b610e6c565b600073ffffffffffffffffffffffffffffffffffffffff168573ffffffffffffffffffffffffffffffffffffffff1614610249576040517f08c379a000000000000000000000000000000000000000000000000000000000815260040161024090611312565b60405180910390fd5b61025d6753499162d0c0fac460c01b610e6c565b610271679954cdf27d40c19760c01b610e6c565b610285676c37dc30a06adf8e60c01b610e6c565b63150b7a0260e01b905095945050505050565b6102a0610e6f565b73ffffffffffffffffffffffffffffffffffffffff166102be61037d565b73ffffffffffffffffffffffffffffffffffffffff1614610314576040517f08c379a000000000000000000000000000000000000000000000000000000000815260040161030b9061137e565b60405180910390fd5b61031e6000610e77565b565b60036020528060005260406000206000915090508060000154908060010154908060020160009054906101000a900473ffffffffffffffffffffffffffffffffffffffff16908060020160149054906101000a900460ff16905084565b60008060009054906101000a900473ffffffffffffffffffffffffffffffffffffffff16905090565b6103ba67e6d59419ee842d3a60c01b610e6c565b6103ce679390cf6f53a927c160c01b610e6c565b6103e26757de415f2fba873260c01b610e6c565b6103f6678e098c760ba513db60c01b610e6c565b3373ffffffffffffffffffffffffffffffffffffffff16600260009054906101000a900473ffffffffffffffffffffffffffffffffffffffff1673ffffffffffffffffffffffffffffffffffffffff16636352211e836040518263ffffffff1660e01b8152600401610468919061139e565b602060405180830381865afa158015610485573d6000803e3d6000fd5b505050506040513d601f19601f820116820180604052508101906104a991906113ce565b73ffffffffffffffffffffffffffffffffffffffff16146104ff576040517f08c379a00000000000000000000000000000000000000000000000000000000081526004016104f690611447565b60405180910390fd5b61051367368987f25faa2b2960c01b610e6c565b61052767677b4beedb3d4a1460c01b610e6c565b61053b67b71aaf92e14b301960c01b610e6c565b61054f671ca3b1dba0afc28e60c01b610e6c565b600015156003600083815260200190815260200160002060020160149054906101000a900460ff161515146105b9576040517f08c379a00000000000000000000000000000000000000000000000000000000081526004016105b0906114b3565b60405180910390fd5b6105cd67d58e62dbcf297f5160c01b610e6c565b6105e16780f283503bb83eac60c01b610e6c565b6105f567bd67bef0a57dd48c60c01b610e6c565b600260009054906101000a900473ffffffffffffffffffffffffffffffffffffffff1673ffffffffffffffffffffffffffffffffffffffff166323b872dd3330846040518463ffffffff1660e01b8152600401610654939291906114d3565b600060405180830381600087803b15801561066e57600080fd5b505af1158015610682573d6000803e3d6000fd5b5050505061069a6797ac4994dbc504e160c01b610e6c565b60405180608001604052808281526020014281526020013373ffffffffffffffffffffffffffffffffffffffff1681526020016001151581525060036000838152602001908152602001600020600082015181600001556020820151816001015560408201518160020160006101000a81548173ffffffffffffffffffffffffffffffffffffffff021916908373ffffffffffffffffffffffffffffffffffffffff16021790555060608201518160020160146101000a81548160ff02191690831515021790555090505050565b61077c67df3015bd2c2fc4bc60c01b610e6c565b61079067aa4582fe7c135f6d60c01b610e6c565b6107a467a3dc1a766544f59e60c01b610e6c565b60006003600083815260200190815260200160002060405180608001604052908160008201548152602001600182015481526020016002820160009054906101000a900473ffffffffffffffffffffffffffffffffffffffff1673ffffffffffffffffffffffffffffffffffffffff1673ffffffffffffffffffffffffffffffffffffffff1681526020016002820160149054906101000a900460ff161515151581525050905061085f670dd4cd2abc9e5b5e60c01b610e6c565b61087367628de54f0f96edf160c01b610e6c565b6108876771f6192b3f7c7ee660c01b610e6c565b3373ffffffffffffffffffffffffffffffffffffffff16816040015173ffffffffffffffffffffffffffffffffffffffff16146108f9576040517f08c379a00000000000000000000000000000000000000000000000000000000081526004016108f090611556565b60405180910390fd5b61090d67c7ff9f155ad80b1c60c01b610e6c565b61092167aa4b1455992b8f2360c01b610e6c565b610929610f3b565b905061093f676ebd7012d315257460c01b610e6c565b61095367b2ee94057d1762b960c01b610e6c565b600260009054906101000a900473ffffffffffffffffffffffffffffffffffffffff1673ffffffffffffffffffffffffffffffffffffffff166323b872dd3085856040518463ffffffff1660e01b81526004016109b2939291906114d3565b600060405180830381600087803b1580156109cc57600080fd5b505af11580156109e0573d6000803e3d6000fd5b50505050505050565b6109f1610e6f565b73ffffffffffffffffffffffffffffffffffffffff16610a0f61037d565b73ffffffffffffffffffffffffffffffffffffffff1614610a65576040517f08c379a0000000000000000000000000000000000000000000000000000000008152600401610a5c9061137e565b60405180910390fd5b600073ffffffffffffffffffffffffffffffffffffffff168173ffffffffffffffffffffffffffffffffffffffff1603610ad4576040517f08c379a0000000000000000000000000000000000000000000000000000000008152600401610acb906115e8565b60405180910390fd5b610add81610e77565b50565b610af4679f7b68e9ce751f2760c01b610e6c565b610b0867036bab011f4088b160c01b610e6c565b610b1c67708d50fa33d0075760c01b610e6c565b60006003600083815260200190815260200160002060405180608001604052908160008201548152602001600182015481526020016002820160009054906101000a900473ffffffffffffffffffffffffffffffffffffffff1673ffffffffffffffffffffffffffffffffffffffff1673ffffffffffffffffffffffffffffffffffffffff1681526020016002820160149054906101000a900460ff1615151515815250509050610bd767876bd5fbd67e893b60c01b610e6c565b610beb67f4ca08a97fbb3f5c60c01b610e6c565b610bff67db389da12f7f2e0f60c01b610e6c565b3373ffffffffffffffffffffffffffffffffffffffff16816040015173ffffffffffffffffffffffffffffffffffffffff1614610c71576040517f08c379a0000000000000000000000000000000000000000000000000000000008152600401610c6890611556565b60405180910390fd5b610c85674033145e877ad0c060c01b610e6c565b610c9967b2d3e26a0c0db8cf60c01b610e6c565b610cad673843b8cc8a8b51fd60c01b610e6c565b600081602001519050610cca6739f95badd6731d1f60c01b610e6c565b610cde674e5b35d8603a9d6260c01b610e6c565b60008142610cec9190611637565b9050610d02675043a85308f85d6c60c01b610e6c565b610d16677508e21a826a207f60c01b610e6c565b610d2a6741f2e33ddf4df29860c01b610e6c565b62015180811015610d70576040517f08c379a0000000000000000000000000000000000000000000000000000000008152600401610d67906116b7565b60405180910390fd5b610d84671b48466872f541bd60c01b610e6c565b610d9867e40540e9101d287360c01b610e6c565b610dac67a0c60efb75f4ef8160c01b610e6c565b600160009054906101000a900473ffffffffffffffffffffffffffffffffffffffff1673ffffffffffffffffffffffffffffffffffffffff166340c10f198683600554610df991906116d7565b6040518363ffffffff1660e01b8152600401610e16929190611719565b600060405180830381600087803b158015610e3057600080fd5b505af1158015610e44573d6000803e3d6000fd5b50505050610e5c67d3d5c72c5820839160c01b610e6c565b6000836020015150505050505050565b50565b600033905090565b60008060009054906101000a900473ffffffffffffffffffffffffffffffffffffffff169050816000806101000a81548173ffffffffffffffffffffffffffffffffffffffff021916908373ffffffffffffffffffffffffffffffffffffffff1602179055508173ffffffffffffffffffffffffffffffffffffffff168173ffffffffffffffffffffffffffffffffffffffff167f8be0079c531659141344cd1fd0a4f28419497f9722a3daafe3b4186f6b6457e060405160405180910390a35050565b60405180608001604052806000815260200160008152602001600073ffffffffffffffffffffffffffffffffffffffff1681526020016000151581525090565b600080fd5b600080fd5b600073ffffffffffffffffffffffffffffffffffffffff82169050919050565b6000610fb082610f85565b9050919050565b610fc081610fa5565b8114610fcb57600080fd5b50565b600081359050610fdd81610fb7565b92915050565b6000819050919050565b610ff681610fe3565b811461100157600080fd5b50565b60008135905061101381610fed565b92915050565b600080fd5b600080fd5b600080fd5b60008083601f84011261103e5761103d611019565b5b8235905067ffffffffffffffff81111561105b5761105a61101e565b5b60208301915083600182028301111561107757611076611023565b5b9250929050565b60008060008060006080868803121561109a57611099610f7b565b5b60006110a888828901610fce565b95505060206110b988828901610fce565b94505060406110ca88828901611004565b935050606086013567ffffffffffffffff8111156110eb576110ea610f80565b5b6110f788828901611028565b92509250509295509295909350565b60007fffffffff0000000000000000000000000000000000000000000000000000000082169050919050565b61113b81611106565b82525050565b60006020820190506111566000830184611132565b92915050565b60006020828403121561117257611171610f7b565b5b600061118084828501611004565b91505092915050565b61119281610fe3565b82525050565b6111a181610fa5565b82525050565b60008115159050919050565b6111bc816111a7565b82525050565b60006080820190506111d76000830187611189565b6111e46020830186611189565b6111f16040830185611198565b6111fe60608301846111b3565b95945050505050565b600060208201905061121c6000830184611198565b92915050565b6000806040838503121561123957611238610f7b565b5b600061124785828601610fce565b925050602061125885828601611004565b9150509250929050565b60006020828403121561127857611277610f7b565b5b600061128684828501610fce565b91505092915050565b600082825260208201905092915050565b7f43616e6e6f742073656e64206e66747320746f205661756c742064697265637460008201527f6c79000000000000000000000000000000000000000000000000000000000000602082015250565b60006112fc60228361128f565b9150611307826112a0565b604082019050919050565b6000602082019050818103600083015261132b816112ef565b9050919050565b7f4f776e61626c653a2063616c6c6572206973206e6f7420746865206f776e6572600082015250565b600061136860208361128f565b915061137382611332565b602082019050919050565b600060208201905081810360008301526113978161135b565b9050919050565b60006020820190506113b36000830184611189565b92915050565b6000815190506113c881610fb7565b92915050565b6000602082840312156113e4576113e3610f7b565b5b60006113f2848285016113b9565b91505092915050565b7f6e6f7420796f757220746f6b656e000000000000000000000000000000000000600082015250565b6000611431600e8361128f565b915061143c826113fb565b602082019050919050565b6000602082019050818103600083015261146081611424565b9050919050565b7f616c7265616479207374616b6564000000000000000000000000000000000000600082015250565b600061149d600e8361128f565b91506114a882611467565b602082019050919050565b600060208201905081810360008301526114cc81611490565b9050919050565b60006060820190506114e86000830186611198565b6114f56020830185611198565b6115026040830184611189565b949350505050565b7f6e6f7420616e206f776e65720000000000000000000000000000000000000000600082015250565b6000611540600c8361128f565b915061154b8261150a565b602082019050919050565b6000602082019050818103600083015261156f81611533565b9050919050565b7f4f776e61626c653a206e6577206f776e657220697320746865207a65726f206160008201527f6464726573730000000000000000000000000000000000000000000000000000602082015250565b60006115d260268361128f565b91506115dd82611576565b604082019050919050565b60006020820190508181036000830152611601816115c5565b9050919050565b7f4e487b7100000000000000000000000000000000000000000000000000000000600052601160045260246000fd5b600061164282610fe3565b915061164d83610fe3565b925082820390508181111561166557611664611608565b5b92915050565b7f4120646179206861736e27742070617373656400000000000000000000000000600082015250565b60006116a160138361128f565b91506116ac8261166b565b602082019050919050565b600060208201905081810360008301526116d081611694565b9050919050565b60006116e282610fe3565b91506116ed83610fe3565b92508282026116fb81610fe3565b9150828204841483151761171257611711611608565b5b5092915050565b600060408201905061172e6000830185611198565b61173b6020830184611189565b939250505056fea2646970667358221220798166b211cb843f863728e074e617457882404629b17b4b455a9c27c3e5321e64736f6c63430008120033",
  "linkReferences": {},
  "deployedLinkReferences": {}
}