{
  "_format": "hh-sol-artifact-1",
  "contractName": "erc20liz",
  "sourceName": "contracts/nft_erc20.sol",
  "abi": [
    {
      "inputs": [],
      "stateMutability": "nonpayable",
      "type": "constructor"
    },
    {
      "anonymous": false,
      "inputs": [
        {
          "indexed": true,
          "internalType": "address",
          "name": "owner",
          "type": "address"
        },
        {
          "indexed": true,
          "internalType": "address",
          "name": "spender",
          "type": "address"
        },
        {
          "indexed": false,
          "internalType": "uint256",
          "name": "value",
          "type": "uint256"
        }
      ],
      "name": "Approval",
      "type": "event"
    },
    {
      "anonymous": false,
      "inputs": [
        {
          "indexed": true,
          "internalType": "address",
          "name": "previousOwner",
          "type": "address"
        },
        {
          "indexed": true,
          "internalType": "address",
          "name": "newOwner",
          "type": "address"
        }
      ],
      "name": "OwnershipTransferred",
      "type": "event"
    },
    {
      "anonymous": false,
      "inputs": [
        {
          "indexed": true,
          "internalType": "address",
          "name": "from",
          "type": "address"
        },
        {
          "indexed": true,
          "internalType": "address",
          "name": "to",
          "type": "address"
        },
        {
          "indexed": false,
          "internalType": "uint256",
          "name": "value",
          "type": "uint256"
        }
      ],
      "name": "Transfer",
      "type": "event"
    },
    {
      "inputs": [
        {
          "internalType": "address",
          "name": "owner",
          "type": "address"
        },
        {
          "internalType": "address",
          "name": "spender",
          "type": "address"
        }
      ],
      "name": "allowance",
      "outputs": [
        {
          "internalType": "uint256",
          "name": "",
          "type": "uint256"
        }
      ],
      "stateMutability": "view",
      "type": "function"
    },
    {
      "inputs": [
        {
          "internalType": "address",
          "name": "spender",
          "type": "address"
        },
        {
          "internalType": "uint256",
          "name": "amount",
          "type": "uint256"
        }
      ],
      "name": "approve",
      "outputs": [
        {
          "internalType": "bool",
          "name": "",
          "type": "bool"
        }
      ],
      "stateMutability": "nonpayable",
      "type": "function"
    },
    {
      "inputs": [
        {
          "internalType": "address",
          "name": "account",
          "type": "address"
        }
      ],
      "name": "balanceOf",
      "outputs": [
        {
          "internalType": "uint256",
          "name": "",
          "type": "uint256"
        }
      ],
      "stateMutability": "view",
      "type": "function"
    },
    {
      "inputs": [],
      "name": "decimals",
      "outputs": [
        {
          "internalType": "uint8",
          "name": "",
          "type": "uint8"
        }
      ],
      "stateMutability": "view",
      "type": "function"
    },
    {
      "inputs": [
        {
          "internalType": "address",
          "name": "spender",
          "type": "address"
        },
        {
          "internalType": "uint256",
          "name": "subtractedValue",
          "type": "uint256"
        }
      ],
      "name": "decreaseAllowance",
      "outputs": [
        {
          "internalType": "bool",
          "name": "",
          "type": "bool"
        }
      ],
      "stateMutability": "nonpayable",
      "type": "function"
    },
    {
      "inputs": [
        {
          "internalType": "address",
          "name": "spender",
          "type": "address"
        },
        {
          "internalType": "uint256",
          "name": "addedValue",
          "type": "uint256"
        }
      ],
      "name": "increaseAllowance",
      "outputs": [
        {
          "internalType": "bool",
          "name": "",
          "type": "bool"
        }
      ],
      "stateMutability": "nonpayable",
      "type": "function"
    },
    {
      "inputs": [],
      "name": "name",
      "outputs": [
        {
          "internalType": "string",
          "name": "",
          "type": "string"
        }
      ],
      "stateMutability": "view",
      "type": "function"
    },
    {
      "inputs": [],
      "name": "owner",
      "outputs": [
        {
          "internalType": "address",
          "name": "",
          "type": "address"
        }
      ],
      "stateMutability": "view",
      "type": "function"
    },
    {
      "inputs": [],
      "name": "renounceOwnership",
      "outputs": [],
      "stateMutability": "nonpayable",
      "type": "function"
    },
    {
      "inputs": [],
      "name": "symbol",
      "outputs": [
        {
          "internalType": "string",
          "name": "",
          "type": "string"
        }
      ],
      "stateMutability": "view",
      "type": "function"
    },
    {
      "inputs": [],
      "name": "totalSupply",
      "outputs": [
        {
          "internalType": "uint256",
          "name": "",
          "type": "uint256"
        }
      ],
      "stateMutability": "view",
      "type": "function"
    },
    {
      "inputs": [
        {
          "internalType": "address",
          "name": "to",
          "type": "address"
        },
        {
          "internalType": "uint256",
          "name": "amount",
          "type": "uint256"
        }
      ],
      "name": "transfer",
      "outputs": [
        {
          "internalType": "bool",
          "name": "",
          "type": "bool"
        }
      ],
      "stateMutability": "nonpayable",
      "type": "function"
    },
    {
      "inputs": [
        {
          "internalType": "address",
          "name": "from",
          "type": "address"
        },
        {
          "internalType": "address",
          "name": "to",
          "type": "address"
        },
        {
          "internalType": "uint256",
          "name": "amount",
          "type": "uint256"
        }
      ],
      "name": "transferFrom",
      "outputs": [
        {
          "internalType": "bool",
          "name": "",
          "type": "bool"
        }
      ],
      "stateMutability": "nonpayable",
      "type": "function"
    },
    {
      "inputs": [
        {
          "internalType": "address",
          "name": "newOwner",
          "type": "address"
        }
      ],
      "name": "transferOwnership",
      "outputs": [],
      "stateMutability": "nonpayable",
      "type": "function"
    },
    {
      "inputs": [
        {
          "internalType": "address",
          "name": "to",
          "type": "address"
        },
        {
          "internalType": "uint256",
          "name": "amount",
          "type": "uint256"
        }
      ],
      "name": "transferToken",
      "outputs": [],
      "stateMutability": "payable",
      "type": "function"
    }
  ],
  "bytecode": "0x60806040523480156200001157600080fd5b506040518060400160405280600481526020017f4c697a61000000000000000000000000000000000000000000000000000000008152506040518060400160405280600381526020017f4c495a000000000000000000000000000000000000000000000000000000000081525081600390816200008f919062000632565b508060049081620000a1919062000632565b505050620000c4620000b86200015c60201b60201c565b6200016460201b60201c565b620000e067f3ba9091f0dc721760c01b6200022a60201b60201c565b620000fc67669ce6b694491ba160c01b6200022a60201b60201c565b62000118678f2248f79e5c0fd560c01b6200022a60201b60201c565b62000156336200012d6200022d60201b60201c565b600a6200013b9190620008a9565b61012c6200014a9190620008fa565b6200023660201b60201c565b62000a31565b600033905090565b6000600560009054906101000a900473ffffffffffffffffffffffffffffffffffffffff16905081600560006101000a81548173ffffffffffffffffffffffffffffffffffffffff021916908373ffffffffffffffffffffffffffffffffffffffff1602179055508173ffffffffffffffffffffffffffffffffffffffff168173ffffffffffffffffffffffffffffffffffffffff167f8be0079c531659141344cd1fd0a4f28419497f9722a3daafe3b4186f6b6457e060405160405180910390a35050565b50565b60006012905090565b600073ffffffffffffffffffffffffffffffffffffffff168273ffffffffffffffffffffffffffffffffffffffff1603620002a8576040517f08c379a00000000000000000000000000000000000000000000000000000000081526004016200029f90620009a6565b60405180910390fd5b620002bc60008383620003ae60201b60201c565b8060026000828254620002d09190620009c8565b92505081905550806000808473ffffffffffffffffffffffffffffffffffffffff1673ffffffffffffffffffffffffffffffffffffffff1681526020019081526020016000206000828254620003279190620009c8565b925050819055508173ffffffffffffffffffffffffffffffffffffffff16600073ffffffffffffffffffffffffffffffffffffffff167fddf252ad1be2c89b69c2b068fc378daa952ba7f163c4a11628f55a4df523b3ef836040516200038e919062000a14565b60405180910390a3620003aa60008383620003b360201b60201c565b5050565b505050565b505050565b600081519050919050565b7f4e487b7100000000000000000000000000000000000000000000000000000000600052604160045260246000fd5b7f4e487b7100000000000000000000000000000000000000000000000000000000600052602260045260246000fd5b600060028204905060018216806200043a57607f821691505b60208210810362000450576200044f620003f2565b5b50919050565b60008190508160005260206000209050919050565b60006020601f8301049050919050565b600082821b905092915050565b600060088302620004ba7fffffffffffffffffffffffffffffffffffffffffffffffffffffffffffffffff826200047b565b620004c686836200047b565b95508019841693508086168417925050509392505050565b6000819050919050565b6000819050919050565b6000620005136200050d6200050784620004de565b620004e8565b620004de565b9050919050565b6000819050919050565b6200052f83620004f2565b620005476200053e826200051a565b84845462000488565b825550505050565b600090565b6200055e6200054f565b6200056b81848462000524565b505050565b5b8181101562000593576200058760008262000554565b60018101905062000571565b5050565b601f821115620005e257620005ac8162000456565b620005b7846200046b565b81016020851015620005c7578190505b620005df620005d6856200046b565b83018262000570565b50505b505050565b600082821c905092915050565b60006200060760001984600802620005e7565b1980831691505092915050565b6000620006228383620005f4565b9150826002028217905092915050565b6200063d82620003b8565b67ffffffffffffffff811115620006595762000658620003c3565b5b62000665825462000421565b6200067282828562000597565b600060209050601f831160018114620006aa576000841562000695578287015190505b620006a1858262000614565b86555062000711565b601f198416620006ba8662000456565b60005b82811015620006e457848901518255600182019150602085019450602081019050620006bd565b8683101562000704578489015162000700601f891682620005f4565b8355505b6001600288020188555050505b505050505050565b7f4e487b7100000000000000000000000000000000000000000000000000000000600052601160045260246000fd5b60008160011c9050919050565b6000808291508390505b6001851115620007a7578086048111156200077f576200077e62000719565b5b60018516156200078f5780820291505b80810290506200079f8562000748565b94506200075f565b94509492505050565b600082620007c2576001905062000895565b81620007d2576000905062000895565b8160018114620007eb5760028114620007f6576200082c565b600191505062000895565b60ff8411156200080b576200080a62000719565b5b8360020a91508482111562000825576200082462000719565b5b5062000895565b5060208310610133831016604e8410600b8410161715620008665782820a90508381111562000860576200085f62000719565b5b62000895565b62000875848484600162000755565b925090508184048111156200088f576200088e62000719565b5b81810290505b9392505050565b600060ff82169050919050565b6000620008b682620004de565b9150620008c3836200089c565b9250620008f27fffffffffffffffffffffffffffffffffffffffffffffffffffffffffffffffff8484620007b0565b905092915050565b60006200090782620004de565b91506200091483620004de565b92508282026200092481620004de565b915082820484148315176200093e576200093d62000719565b5b5092915050565b600082825260208201905092915050565b7f45524332303a206d696e7420746f20746865207a65726f206164647265737300600082015250565b60006200098e601f8362000945565b91506200099b8262000956565b602082019050919050565b60006020820190508181036000830152620009c1816200097f565b9050919050565b6000620009d582620004de565b9150620009e283620004de565b9250828201905080821115620009fd57620009fc62000719565b5b92915050565b62000a0e81620004de565b82525050565b600060208201905062000a2b600083018462000a03565b92915050565b6119f48062000a416000396000f3fe6080604052600436106100e85760003560e01c806370a082311161008a578063a457c2d711610059578063a457c2d7146102eb578063a9059cbb14610328578063dd62ed3e14610365578063f2fde38b146103a2576100e8565b806370a0823114610241578063715018a61461027e5780638da5cb5b1461029557806395d89b41146102c0576100e8565b806318160ddd116100c657806318160ddd1461017157806323b872dd1461019c578063313ce567146101d95780633950935114610204576100e8565b806306fdde03146100ed578063095ea7b3146101185780631072cbea14610155575b600080fd5b3480156100f957600080fd5b506101026103cb565b60405161010f9190610fe9565b60405180910390f35b34801561012457600080fd5b5061013f600480360381019061013a91906110a4565b61045d565b60405161014c91906110ff565b60405180910390f35b61016f600480360381019061016a91906110a4565b610480565b005b34801561017d57600080fd5b5061018661058d565b6040516101939190611129565b60405180910390f35b3480156101a857600080fd5b506101c360048036038101906101be9190611144565b610597565b6040516101d091906110ff565b60405180910390f35b3480156101e557600080fd5b506101ee6105c6565b6040516101fb91906111b3565b60405180910390f35b34801561021057600080fd5b5061022b600480360381019061022691906110a4565b6105cf565b60405161023891906110ff565b60405180910390f35b34801561024d57600080fd5b50610268600480360381019061026391906111ce565b610606565b6040516102759190611129565b60405180910390f35b34801561028a57600080fd5b5061029361064e565b005b3480156102a157600080fd5b506102aa6106d6565b6040516102b7919061120a565b60405180910390f35b3480156102cc57600080fd5b506102d5610700565b6040516102e29190610fe9565b60405180910390f35b3480156102f757600080fd5b50610312600480360381019061030d91906110a4565b610792565b60405161031f91906110ff565b60405180910390f35b34801561033457600080fd5b5061034f600480360381019061034a91906110a4565b610809565b60405161035c91906110ff565b60405180910390f35b34801561037157600080fd5b5061038c60048036038101906103879190611225565b61082c565b6040516103999190611129565b60405180910390f35b3480156103ae57600080fd5b506103c960048036038101906103c491906111ce565b6108b3565b005b6060600380546103da90611294565b80601f016020809104026020016040519081016040528092919081815260200182805461040690611294565b80156104535780601f1061042857610100808354040283529160200191610453565b820191906000526020600020905b81548152906001019060200180831161043657829003601f168201915b5050505050905090565b6000806104686109aa565b90506104758185856109b2565b600191505092915050565b61049467116d39be3cfeed9960c01b610b7b565b61049c6109aa565b73ffffffffffffffffffffffffffffffffffffffff166104ba6106d6565b73ffffffffffffffffffffffffffffffffffffffff1614610510576040517f08c379a000000000000000000000000000000000000000000000000000000000815260040161050790611311565b60405180910390fd5b6105246765f721980112414b60c01b610b7b565b6105386798f9b6dbb7298aac60c01b610b7b565b61054c67667e7a2f5da13e4260c01b610b7b565b610560677e27984c857d2b4f60c01b610b7b565b610589338361056d6105c6565b600a6105799190611493565b8461058491906114de565b610b7e565b5050565b6000600254905090565b6000806105a26109aa565b90506105af858285610dfd565b6105ba858585610b7e565b60019150509392505050565b60006012905090565b6000806105da6109aa565b90506105fb8185856105ec858961082c565b6105f69190611520565b6109b2565b600191505092915050565b60008060008373ffffffffffffffffffffffffffffffffffffffff1673ffffffffffffffffffffffffffffffffffffffff168152602001908152602001600020549050919050565b6106566109aa565b73ffffffffffffffffffffffffffffffffffffffff166106746106d6565b73ffffffffffffffffffffffffffffffffffffffff16146106ca576040517f08c379a00000000000000000000000000000000000000000000000000000000081526004016106c190611311565b60405180910390fd5b6106d46000610e89565b565b6000600560009054906101000a900473ffffffffffffffffffffffffffffffffffffffff16905090565b60606004805461070f90611294565b80601f016020809104026020016040519081016040528092919081815260200182805461073b90611294565b80156107885780601f1061075d57610100808354040283529160200191610788565b820191906000526020600020905b81548152906001019060200180831161076b57829003601f168201915b5050505050905090565b60008061079d6109aa565b905060006107ab828661082c565b9050838110156107f0576040517f08c379a00000000000000000000000000000000000000000000000000000000081526004016107e7906115c6565b60405180910390fd5b6107fd82868684036109b2565b60019250505092915050565b6000806108146109aa565b9050610821818585610b7e565b600191505092915050565b6000600160008473ffffffffffffffffffffffffffffffffffffffff1673ffffffffffffffffffffffffffffffffffffffff16815260200190815260200160002060008373ffffffffffffffffffffffffffffffffffffffff1673ffffffffffffffffffffffffffffffffffffffff16815260200190815260200160002054905092915050565b6108bb6109aa565b73ffffffffffffffffffffffffffffffffffffffff166108d96106d6565b73ffffffffffffffffffffffffffffffffffffffff161461092f576040517f08c379a000000000000000000000000000000000000000000000000000000000815260040161092690611311565b60405180910390fd5b600073ffffffffffffffffffffffffffffffffffffffff168173ffffffffffffffffffffffffffffffffffffffff160361099e576040517f08c379a000000000000000000000000000000000000000000000000000000000815260040161099590611658565b60405180910390fd5b6109a781610e89565b50565b600033905090565b600073ffffffffffffffffffffffffffffffffffffffff168373ffffffffffffffffffffffffffffffffffffffff1603610a21576040517f08c379a0000000000000000000000000000000000000000000000000000000008152600401610a18906116ea565b60405180910390fd5b600073ffffffffffffffffffffffffffffffffffffffff168273ffffffffffffffffffffffffffffffffffffffff1603610a90576040517f08c379a0000000000000000000000000000000000000000000000000000000008152600401610a879061177c565b60405180910390fd5b80600160008573ffffffffffffffffffffffffffffffffffffffff1673ffffffffffffffffffffffffffffffffffffffff16815260200190815260200160002060008473ffffffffffffffffffffffffffffffffffffffff1673ffffffffffffffffffffffffffffffffffffffff168152602001908152602001600020819055508173ffffffffffffffffffffffffffffffffffffffff168373ffffffffffffffffffffffffffffffffffffffff167f8c5be1e5ebec7d5bd14f71427d1e84f3dd0314c0f7b2291e5b200ac8c7c3b92583604051610b6e9190611129565b60405180910390a3505050565b50565b600073ffffffffffffffffffffffffffffffffffffffff168373ffffffffffffffffffffffffffffffffffffffff1603610bed576040517f08c379a0000000000000000000000000000000000000000000000000000000008152600401610be49061180e565b60405180910390fd5b600073ffffffffffffffffffffffffffffffffffffffff168273ffffffffffffffffffffffffffffffffffffffff1603610c5c576040517f08c379a0000000000000000000000000000000000000000000000000000000008152600401610c53906118a0565b60405180910390fd5b610c67838383610f4f565b60008060008573ffffffffffffffffffffffffffffffffffffffff1673ffffffffffffffffffffffffffffffffffffffff16815260200190815260200160002054905081811015610ced576040517f08c379a0000000000000000000000000000000000000000000000000000000008152600401610ce490611932565b60405180910390fd5b8181036000808673ffffffffffffffffffffffffffffffffffffffff1673ffffffffffffffffffffffffffffffffffffffff16815260200190815260200160002081905550816000808573ffffffffffffffffffffffffffffffffffffffff1673ffffffffffffffffffffffffffffffffffffffff1681526020019081526020016000206000828254610d809190611520565b925050819055508273ffffffffffffffffffffffffffffffffffffffff168473ffffffffffffffffffffffffffffffffffffffff167fddf252ad1be2c89b69c2b068fc378daa952ba7f163c4a11628f55a4df523b3ef84604051610de49190611129565b60405180910390a3610df7848484610f54565b50505050565b6000610e09848461082c565b90507fffffffffffffffffffffffffffffffffffffffffffffffffffffffffffffffff8114610e835781811015610e75576040517f08c379a0000000000000000000000000000000000000000000000000000000008152600401610e6c9061199e565b60405180910390fd5b610e8284848484036109b2565b5b50505050565b6000600560009054906101000a900473ffffffffffffffffffffffffffffffffffffffff16905081600560006101000a81548173ffffffffffffffffffffffffffffffffffffffff021916908373ffffffffffffffffffffffffffffffffffffffff1602179055508173ffffffffffffffffffffffffffffffffffffffff168173ffffffffffffffffffffffffffffffffffffffff167f8be0079c531659141344cd1fd0a4f28419497f9722a3daafe3b4186f6b6457e060405160405180910390a35050565b505050565b505050565b600081519050919050565b600082825260208201905092915050565b60005b83811015610f93578082015181840152602081019050610f78565b60008484015250505050565b6000601f19601f8301169050919050565b6000610fbb82610f59565b610fc58185610f64565b9350610fd5818560208601610f75565b610fde81610f9f565b840191505092915050565b600060208201905081810360008301526110038184610fb0565b905092915050565b600080fd5b600073ffffffffffffffffffffffffffffffffffffffff82169050919050565b600061103b82611010565b9050919050565b61104b81611030565b811461105657600080fd5b50565b60008135905061106881611042565b92915050565b6000819050919050565b6110818161106e565b811461108c57600080fd5b50565b60008135905061109e81611078565b92915050565b600080604083850312156110bb576110ba61100b565b5b60006110c985828601611059565b92505060206110da8582860161108f565b9150509250929050565b60008115159050919050565b6110f9816110e4565b82525050565b600060208201905061111460008301846110f0565b92915050565b6111238161106e565b82525050565b600060208201905061113e600083018461111a565b92915050565b60008060006060848603121561115d5761115c61100b565b5b600061116b86828701611059565b935050602061117c86828701611059565b925050604061118d8682870161108f565b9150509250925092565b600060ff82169050919050565b6111ad81611197565b82525050565b60006020820190506111c860008301846111a4565b92915050565b6000602082840312156111e4576111e361100b565b5b60006111f284828501611059565b91505092915050565b61120481611030565b82525050565b600060208201905061121f60008301846111fb565b92915050565b6000806040838503121561123c5761123b61100b565b5b600061124a85828601611059565b925050602061125b85828601611059565b9150509250929050565b7f4e487b7100000000000000000000000000000000000000000000000000000000600052602260045260246000fd5b600060028204905060018216806112ac57607f821691505b6020821081036112bf576112be611265565b5b50919050565b7f4f776e61626c653a2063616c6c6572206973206e6f7420746865206f776e6572600082015250565b60006112fb602083610f64565b9150611306826112c5565b602082019050919050565b6000602082019050818103600083015261132a816112ee565b9050919050565b7f4e487b7100000000000000000000000000000000000000000000000000000000600052601160045260246000fd5b60008160011c9050919050565b6000808291508390505b60018511156113b75780860481111561139357611392611331565b5b60018516156113a25780820291505b80810290506113b085611360565b9450611377565b94509492505050565b6000826113d0576001905061148c565b816113de576000905061148c565b81600181146113f457600281146113fe5761142d565b600191505061148c565b60ff8411156114105761140f611331565b5b8360020a91508482111561142757611426611331565b5b5061148c565b5060208310610133831016604e8410600b84101617156114625782820a90508381111561145d5761145c611331565b5b61148c565b61146f848484600161136d565b9250905081840481111561148657611485611331565b5b81810290505b9392505050565b600061149e8261106e565b91506114a983611197565b92506114d67fffffffffffffffffffffffffffffffffffffffffffffffffffffffffffffffff84846113c0565b905092915050565b60006114e98261106e565b91506114f48361106e565b92508282026115028161106e565b9150828204841483151761151957611518611331565b5b5092915050565b600061152b8261106e565b91506115368361106e565b925082820190508082111561154e5761154d611331565b5b92915050565b7f45524332303a2064656372656173656420616c6c6f77616e63652062656c6f7760008201527f207a65726f000000000000000000000000000000000000000000000000000000602082015250565b60006115b0602583610f64565b91506115bb82611554565b604082019050919050565b600060208201905081810360008301526115df816115a3565b9050919050565b7f4f776e61626c653a206e6577206f776e657220697320746865207a65726f206160008201527f6464726573730000000000000000000000000000000000000000000000000000602082015250565b6000611642602683610f64565b915061164d826115e6565b604082019050919050565b6000602082019050818103600083015261167181611635565b9050919050565b7f45524332303a20617070726f76652066726f6d20746865207a65726f2061646460008201527f7265737300000000000000000000000000000000000000000000000000000000602082015250565b60006116d4602483610f64565b91506116df82611678565b604082019050919050565b60006020820190508181036000830152611703816116c7565b9050919050565b7f45524332303a20617070726f766520746f20746865207a65726f20616464726560008201527f7373000000000000000000000000000000000000000000000000000000000000602082015250565b6000611766602283610f64565b91506117718261170a565b604082019050919050565b6000602082019050818103600083015261179581611759565b9050919050565b7f45524332303a207472616e736665722066726f6d20746865207a65726f20616460008201527f6472657373000000000000000000000000000000000000000000000000000000602082015250565b60006117f8602583610f64565b91506118038261179c565b604082019050919050565b60006020820190508181036000830152611827816117eb565b9050919050565b7f45524332303a207472616e7366657220746f20746865207a65726f206164647260008201527f6573730000000000000000000000000000000000000000000000000000000000602082015250565b600061188a602383610f64565b91506118958261182e565b604082019050919050565b600060208201905081810360008301526118b98161187d565b9050919050565b7f45524332303a207472616e7366657220616d6f756e742065786365656473206260008201527f616c616e63650000000000000000000000000000000000000000000000000000602082015250565b600061191c602683610f64565b9150611927826118c0565b604082019050919050565b6000602082019050818103600083015261194b8161190f565b9050919050565b7f45524332303a20696e73756666696369656e7420616c6c6f77616e6365000000600082015250565b6000611988601d83610f64565b915061199382611952565b602082019050919050565b600060208201905081810360008301526119b78161197b565b905091905056fea264697066735822122099953391da8b7ca0691979c38ca9faf921929e87676397b3886f5c3e2ab5880d64736f6c63430008120033",
  "linkReferences": {},
  "deployedLinkReferences": {}
}