{
  "_format": "hh-sol-artifact-1",
  "contractName": "erc721liz",
  "sourceName": "contracts/nft_erc20.sol",
  "abi": [
    {
      "inputs": [],
      "stateMutability": "nonpayable",
      "type": "constructor"
    },
    {
      "anonymous": false,
      "inputs": [
        {
          "indexed": true,
          "internalType": "address",
          "name": "owner",
          "type": "address"
        },
        {
          "indexed": true,
          "internalType": "address",
          "name": "approved",
          "type": "address"
        },
        {
          "indexed": true,
          "internalType": "uint256",
          "name": "tokenId",
          "type": "uint256"
        }
      ],
      "name": "Approval",
      "type": "event"
    },
    {
      "anonymous": false,
      "inputs": [
        {
          "indexed": true,
          "internalType": "address",
          "name": "owner",
          "type": "address"
        },
        {
          "indexed": true,
          "internalType": "address",
          "name": "operator",
          "type": "address"
        },
        {
          "indexed": false,
          "internalType": "bool",
          "name": "approved",
          "type": "bool"
        }
      ],
      "name": "ApprovalForAll",
      "type": "event"
    },
    {
      "anonymous": false,
      "inputs": [
        {
          "indexed": true,
          "internalType": "address",
          "name": "from",
          "type": "address"
        },
        {
          "indexed": true,
          "internalType": "address",
          "name": "to",
          "type": "address"
        },
        {
          "indexed": true,
          "internalType": "uint256",
          "name": "tokenId",
          "type": "uint256"
        }
      ],
      "name": "Transfer",
      "type": "event"
    },
    {
      "inputs": [
        {
          "internalType": "address",
          "name": "to",
          "type": "address"
        },
        {
          "internalType": "uint256",
          "name": "tokenId",
          "type": "uint256"
        }
      ],
      "name": "approve",
      "outputs": [],
      "stateMutability": "nonpayable",
      "type": "function"
    },
    {
      "inputs": [
        {
          "internalType": "address",
          "name": "owner",
          "type": "address"
        }
      ],
      "name": "balanceOf",
      "outputs": [
        {
          "internalType": "uint256",
          "name": "",
          "type": "uint256"
        }
      ],
      "stateMutability": "view",
      "type": "function"
    },
    {
      "inputs": [
        {
          "internalType": "uint256",
          "name": "tokenId",
          "type": "uint256"
        }
      ],
      "name": "getApproved",
      "outputs": [
        {
          "internalType": "address",
          "name": "",
          "type": "address"
        }
      ],
      "stateMutability": "view",
      "type": "function"
    },
    {
      "inputs": [
        {
          "internalType": "address",
          "name": "owner",
          "type": "address"
        },
        {
          "internalType": "address",
          "name": "operator",
          "type": "address"
        }
      ],
      "name": "isApprovedForAll",
      "outputs": [
        {
          "internalType": "bool",
          "name": "",
          "type": "bool"
        }
      ],
      "stateMutability": "view",
      "type": "function"
    },
    {
      "inputs": [],
      "name": "name",
      "outputs": [
        {
          "internalType": "string",
          "name": "",
          "type": "string"
        }
      ],
      "stateMutability": "view",
      "type": "function"
    },
    {
      "inputs": [
        {
          "internalType": "uint256",
          "name": "tokenId",
          "type": "uint256"
        }
      ],
      "name": "ownerOf",
      "outputs": [
        {
          "internalType": "address",
          "name": "",
          "type": "address"
        }
      ],
      "stateMutability": "view",
      "type": "function"
    },
    {
      "inputs": [
        {
          "internalType": "address",
          "name": "to",
          "type": "address"
        }
      ],
      "name": "safeMint",
      "outputs": [],
      "stateMutability": "nonpayable",
      "type": "function"
    },
    {
      "inputs": [
        {
          "internalType": "address",
          "name": "from",
          "type": "address"
        },
        {
          "internalType": "address",
          "name": "to",
          "type": "address"
        },
        {
          "internalType": "uint256",
          "name": "tokenId",
          "type": "uint256"
        }
      ],
      "name": "safeTransferFrom",
      "outputs": [],
      "stateMutability": "nonpayable",
      "type": "function"
    },
    {
      "inputs": [
        {
          "internalType": "address",
          "name": "from",
          "type": "address"
        },
        {
          "internalType": "address",
          "name": "to",
          "type": "address"
        },
        {
          "internalType": "uint256",
          "name": "tokenId",
          "type": "uint256"
        },
        {
          "internalType": "bytes",
          "name": "_data",
          "type": "bytes"
        }
      ],
      "name": "safeTransferFrom",
      "outputs": [],
      "stateMutability": "nonpayable",
      "type": "function"
    },
    {
      "inputs": [
        {
          "internalType": "address",
          "name": "operator",
          "type": "address"
        },
        {
          "internalType": "bool",
          "name": "approved",
          "type": "bool"
        }
      ],
      "name": "setApprovalForAll",
      "outputs": [],
      "stateMutability": "nonpayable",
      "type": "function"
    },
    {
      "inputs": [
        {
          "internalType": "bytes4",
          "name": "interfaceId",
          "type": "bytes4"
        }
      ],
      "name": "supportsInterface",
      "outputs": [
        {
          "internalType": "bool",
          "name": "",
          "type": "bool"
        }
      ],
      "stateMutability": "view",
      "type": "function"
    },
    {
      "inputs": [],
      "name": "symbol",
      "outputs": [
        {
          "internalType": "string",
          "name": "",
          "type": "string"
        }
      ],
      "stateMutability": "view",
      "type": "function"
    },
    {
      "inputs": [
        {
          "internalType": "uint256",
          "name": "tokenId",
          "type": "uint256"
        }
      ],
      "name": "tokenURI",
      "outputs": [
        {
          "internalType": "string",
          "name": "",
          "type": "string"
        }
      ],
      "stateMutability": "view",
      "type": "function"
    },
    {
      "inputs": [
        {
          "internalType": "address",
          "name": "from",
          "type": "address"
        },
        {
          "internalType": "address",
          "name": "to",
          "type": "address"
        },
        {
          "internalType": "uint256",
          "name": "tokenId",
          "type": "uint256"
        }
      ],
      "name": "transferFrom",
      "outputs": [],
      "stateMutability": "nonpayable",
      "type": "function"
    }
  ],
  "bytecode": "0x60806040523480156200001157600080fd5b506040518060400160405280600481526020017f4c697a61000000000000000000000000000000000000000000000000000000008152506040518060400160405280600381526020017f4c495a000000000000000000000000000000000000000000000000000000000081525081600090816200008f919062000324565b508060019081620000a1919062000324565b5050506200040b565b600081519050919050565b7f4e487b7100000000000000000000000000000000000000000000000000000000600052604160045260246000fd5b7f4e487b7100000000000000000000000000000000000000000000000000000000600052602260045260246000fd5b600060028204905060018216806200012c57607f821691505b602082108103620001425762000141620000e4565b5b50919050565b60008190508160005260206000209050919050565b60006020601f8301049050919050565b600082821b905092915050565b600060088302620001ac7fffffffffffffffffffffffffffffffffffffffffffffffffffffffffffffffff826200016d565b620001b886836200016d565b95508019841693508086168417925050509392505050565b6000819050919050565b6000819050919050565b600062000205620001ff620001f984620001d0565b620001da565b620001d0565b9050919050565b6000819050919050565b6200022183620001e4565b6200023962000230826200020c565b8484546200017a565b825550505050565b600090565b6200025062000241565b6200025d81848462000216565b505050565b5b8181101562000285576200027960008262000246565b60018101905062000263565b5050565b601f821115620002d4576200029e8162000148565b620002a9846200015d565b81016020851015620002b9578190505b620002d1620002c8856200015d565b83018262000262565b50505b505050565b600082821c905092915050565b6000620002f960001984600802620002d9565b1980831691505092915050565b6000620003148383620002e6565b9150826002028217905092915050565b6200032f82620000aa565b67ffffffffffffffff8111156200034b576200034a620000b5565b5b62000357825462000113565b6200036482828562000289565b600060209050601f8311600181146200039c576000841562000387578287015190505b62000393858262000306565b86555062000403565b601f198416620003ac8662000148565b60005b82811015620003d657848901518255600182019150602085019450602081019050620003af565b86831015620003f65784890151620003f2601f891682620002e6565b8355505b6001600288020188555050505b505050505050565b612756806200041b6000396000f3fe608060405234801561001057600080fd5b50600436106100ea5760003560e01c80636352211e1161008c578063a22cb46511610066578063a22cb4651461025b578063b88d4fde14610277578063c87b56dd14610293578063e985e9c5146102c3576100ea565b80636352211e146101dd57806370a082311461020d57806395d89b411461023d576100ea565b8063095ea7b3116100c8578063095ea7b31461016d57806323b872dd1461018957806340d097c3146101a557806342842e0e146101c1576100ea565b806301ffc9a7146100ef57806306fdde031461011f578063081812fc1461013d575b600080fd5b61010960048036038101906101049190611706565b6102f3565b604051610116919061174e565b60405180910390f35b6101276103d5565b60405161013491906117f9565b60405180910390f35b61015760048036038101906101529190611851565b610467565b60405161016491906118bf565b60405180910390f35b61018760048036038101906101829190611906565b6104ec565b005b6101a3600480360381019061019e9190611946565b610603565b005b6101bf60048036038101906101ba9190611999565b610663565b005b6101db60048036038101906101d69190611946565b610689565b005b6101f760048036038101906101f29190611851565b6106a9565b60405161020491906118bf565b60405180910390f35b61022760048036038101906102229190611999565b61075a565b60405161023491906119d5565b60405180910390f35b610245610811565b60405161025291906117f9565b60405180910390f35b61027560048036038101906102709190611a1c565b6108a3565b005b610291600480360381019061028c9190611b91565b6108b9565b005b6102ad60048036038101906102a89190611851565b61091b565b6040516102ba91906117f9565b60405180910390f35b6102dd60048036038101906102d89190611c14565b6109c2565b6040516102ea919061174e565b60405180910390f35b60007f80ac58cd000000000000000000000000000000000000000000000000000000007bffffffffffffffffffffffffffffffffffffffffffffffffffffffff1916827bffffffffffffffffffffffffffffffffffffffffffffffffffffffff191614806103be57507f5b5e139f000000000000000000000000000000000000000000000000000000007bffffffffffffffffffffffffffffffffffffffffffffffffffffffff1916827bffffffffffffffffffffffffffffffffffffffffffffffffffffffff1916145b806103ce57506103cd82610a56565b5b9050919050565b6060600080546103e490611c83565b80601f016020809104026020016040519081016040528092919081815260200182805461041090611c83565b801561045d5780601f106104325761010080835404028352916020019161045d565b820191906000526020600020905b81548152906001019060200180831161044057829003601f168201915b5050505050905090565b600061047282610ac0565b6104b1576040517f08c379a00000000000000000000000000000000000000000000000000000000081526004016104a890611d26565b60405180910390fd5b6004600083815260200190815260200160002060009054906101000a900473ffffffffffffffffffffffffffffffffffffffff169050919050565b60006104f7826106a9565b90508073ffffffffffffffffffffffffffffffffffffffff168373ffffffffffffffffffffffffffffffffffffffff1603610567576040517f08c379a000000000000000000000000000000000000000000000000000000000815260040161055e90611db8565b60405180910390fd5b8073ffffffffffffffffffffffffffffffffffffffff16610586610b2c565b73ffffffffffffffffffffffffffffffffffffffff1614806105b557506105b4816105af610b2c565b6109c2565b5b6105f4576040517f08c379a00000000000000000000000000000000000000000000000000000000081526004016105eb90611e4a565b60405180910390fd5b6105fe8383610b34565b505050565b61061461060e610b2c565b82610bed565b610653576040517f08c379a000000000000000000000000000000000000000000000000000000000815260040161064a90611edc565b60405180910390fd5b61065e838383610ccb565b505050565b600061066f6006610f31565b905061067b6006610f3f565b6106858282610f55565b5050565b6106a4838383604051806020016040528060008152506108b9565b505050565b6000806002600084815260200190815260200160002060009054906101000a900473ffffffffffffffffffffffffffffffffffffffff169050600073ffffffffffffffffffffffffffffffffffffffff168173ffffffffffffffffffffffffffffffffffffffff1603610751576040517f08c379a000000000000000000000000000000000000000000000000000000000815260040161074890611f6e565b60405180910390fd5b80915050919050565b60008073ffffffffffffffffffffffffffffffffffffffff168273ffffffffffffffffffffffffffffffffffffffff16036107ca576040517f08c379a00000000000000000000000000000000000000000000000000000000081526004016107c190612000565b60405180910390fd5b600360008373ffffffffffffffffffffffffffffffffffffffff1673ffffffffffffffffffffffffffffffffffffffff168152602001908152602001600020549050919050565b60606001805461082090611c83565b80601f016020809104026020016040519081016040528092919081815260200182805461084c90611c83565b80156108995780601f1061086e57610100808354040283529160200191610899565b820191906000526020600020905b81548152906001019060200180831161087c57829003601f168201915b5050505050905090565b6108b56108ae610b2c565b8383610f73565b5050565b6108ca6108c4610b2c565b83610bed565b610909576040517f08c379a000000000000000000000000000000000000000000000000000000000815260040161090090611edc565b60405180910390fd5b610915848484846110df565b50505050565b606061092682610ac0565b610965576040517f08c379a000000000000000000000000000000000000000000000000000000000815260040161095c90612092565b60405180910390fd5b600061096f61113b565b9050600081511161098f57604051806020016040528060008152506109ba565b8061099984611152565b6040516020016109aa9291906120ee565b6040516020818303038152906040525b915050919050565b6000600560008473ffffffffffffffffffffffffffffffffffffffff1673ffffffffffffffffffffffffffffffffffffffff16815260200190815260200160002060008373ffffffffffffffffffffffffffffffffffffffff1673ffffffffffffffffffffffffffffffffffffffff16815260200190815260200160002060009054906101000a900460ff16905092915050565b60007f01ffc9a7000000000000000000000000000000000000000000000000000000007bffffffffffffffffffffffffffffffffffffffffffffffffffffffff1916827bffffffffffffffffffffffffffffffffffffffffffffffffffffffff1916149050919050565b60008073ffffffffffffffffffffffffffffffffffffffff166002600084815260200190815260200160002060009054906101000a900473ffffffffffffffffffffffffffffffffffffffff1673ffffffffffffffffffffffffffffffffffffffff1614159050919050565b600033905090565b816004600083815260200190815260200160002060006101000a81548173ffffffffffffffffffffffffffffffffffffffff021916908373ffffffffffffffffffffffffffffffffffffffff160217905550808273ffffffffffffffffffffffffffffffffffffffff16610ba7836106a9565b73ffffffffffffffffffffffffffffffffffffffff167f8c5be1e5ebec7d5bd14f71427d1e84f3dd0314c0f7b2291e5b200ac8c7c3b92560405160405180910390a45050565b6000610bf882610ac0565b610c37576040517f08c379a0000000000000000000000000000000000000000000000000000000008152600401610c2e90612184565b60405180910390fd5b6000610c42836106a9565b90508073ffffffffffffffffffffffffffffffffffffffff168473ffffffffffffffffffffffffffffffffffffffff161480610c845750610c8381856109c2565b5b80610cc257508373ffffffffffffffffffffffffffffffffffffffff16610caa84610467565b73ffffffffffffffffffffffffffffffffffffffff16145b91505092915050565b8273ffffffffffffffffffffffffffffffffffffffff16610ceb826106a9565b73ffffffffffffffffffffffffffffffffffffffff1614610d41576040517f08c379a0000000000000000000000000000000000000000000000000000000008152600401610d3890612216565b60405180910390fd5b600073ffffffffffffffffffffffffffffffffffffffff168273ffffffffffffffffffffffffffffffffffffffff1603610db0576040517f08c379a0000000000000000000000000000000000000000000000000000000008152600401610da7906122a8565b60405180910390fd5b610dbb8383836112b2565b610dc6600082610b34565b6001600360008573ffffffffffffffffffffffffffffffffffffffff1673ffffffffffffffffffffffffffffffffffffffff1681526020019081526020016000206000828254610e1691906122f7565b925050819055506001600360008473ffffffffffffffffffffffffffffffffffffffff1673ffffffffffffffffffffffffffffffffffffffff1681526020019081526020016000206000828254610e6d919061232b565b92505081905550816002600083815260200190815260200160002060006101000a81548173ffffffffffffffffffffffffffffffffffffffff021916908373ffffffffffffffffffffffffffffffffffffffff160217905550808273ffffffffffffffffffffffffffffffffffffffff168473ffffffffffffffffffffffffffffffffffffffff167fddf252ad1be2c89b69c2b068fc378daa952ba7f163c4a11628f55a4df523b3ef60405160405180910390a4610f2c8383836112b7565b505050565b600081600001549050919050565b6001816000016000828254019250508190555050565b610f6f8282604051806020016040528060008152506112bc565b5050565b8173ffffffffffffffffffffffffffffffffffffffff168373ffffffffffffffffffffffffffffffffffffffff1603610fe1576040517f08c379a0000000000000000000000000000000000000000000000000000000008152600401610fd8906123ab565b60405180910390fd5b80600560008573ffffffffffffffffffffffffffffffffffffffff1673ffffffffffffffffffffffffffffffffffffffff16815260200190815260200160002060008473ffffffffffffffffffffffffffffffffffffffff1673ffffffffffffffffffffffffffffffffffffffff16815260200190815260200160002060006101000a81548160ff0219169083151502179055508173ffffffffffffffffffffffffffffffffffffffff168373ffffffffffffffffffffffffffffffffffffffff167f17307eab39ab6107e8899845ad3d59bd9653f200f220920489ca2b5937696c31836040516110d2919061174e565b60405180910390a3505050565b6110ea848484610ccb565b6110f684848484611317565b611135576040517f08c379a000000000000000000000000000000000000000000000000000000000815260040161112c9061243d565b60405180910390fd5b50505050565b606060405180602001604052806000815250905090565b606060008203611199576040518060400160405280600181526020017f300000000000000000000000000000000000000000000000000000000000000081525090506112ad565b600082905060005b600082146111cb5780806111b49061245d565b915050600a826111c491906124d4565b91506111a1565b60008167ffffffffffffffff8111156111e7576111e6611a66565b5b6040519080825280601f01601f1916602001820160405280156112195781602001600182028036833780820191505090505b5090505b600085146112a65760018261123291906122f7565b9150600a856112419190612505565b603061124d919061232b565b60f81b81838151811061126357611262612536565b5b60200101907effffffffffffffffffffffffffffffffffffffffffffffffffffffffffffff1916908160001a905350600a8561129f91906124d4565b945061121d565b8093505050505b919050565b505050565b505050565b6112c6838361149e565b6112d36000848484611317565b611312576040517f08c379a00000000000000000000000000000000000000000000000000000000081526004016113099061243d565b60405180910390fd5b505050565b60006113388473ffffffffffffffffffffffffffffffffffffffff16611677565b15611491578373ffffffffffffffffffffffffffffffffffffffff1663150b7a02611361610b2c565b8786866040518563ffffffff1660e01b815260040161138394939291906125ba565b6020604051808303816000875af19250505080156113bf57506040513d601f19601f820116820180604052508101906113bc919061261b565b60015b611441573d80600081146113ef576040519150601f19603f3d011682016040523d82523d6000602084013e6113f4565b606091505b506000815103611439576040517f08c379a00000000000000000000000000000000000000000000000000000000081526004016114309061243d565b60405180910390fd5b805181602001fd5b63150b7a0260e01b7bffffffffffffffffffffffffffffffffffffffffffffffffffffffff1916817bffffffffffffffffffffffffffffffffffffffffffffffffffffffff191614915050611496565b600190505b949350505050565b600073ffffffffffffffffffffffffffffffffffffffff168273ffffffffffffffffffffffffffffffffffffffff160361150d576040517f08c379a000000000000000000000000000000000000000000000000000000000815260040161150490612694565b60405180910390fd5b61151681610ac0565b15611556576040517f08c379a000000000000000000000000000000000000000000000000000000000815260040161154d90612700565b60405180910390fd5b611562600083836112b2565b6001600360008473ffffffffffffffffffffffffffffffffffffffff1673ffffffffffffffffffffffffffffffffffffffff16815260200190815260200160002060008282546115b2919061232b565b92505081905550816002600083815260200190815260200160002060006101000a81548173ffffffffffffffffffffffffffffffffffffffff021916908373ffffffffffffffffffffffffffffffffffffffff160217905550808273ffffffffffffffffffffffffffffffffffffffff16600073ffffffffffffffffffffffffffffffffffffffff167fddf252ad1be2c89b69c2b068fc378daa952ba7f163c4a11628f55a4df523b3ef60405160405180910390a4611673600083836112b7565b5050565b6000808273ffffffffffffffffffffffffffffffffffffffff163b119050919050565b6000604051905090565b600080fd5b600080fd5b60007fffffffff0000000000000000000000000000000000000000000000000000000082169050919050565b6116e3816116ae565b81146116ee57600080fd5b50565b600081359050611700816116da565b92915050565b60006020828403121561171c5761171b6116a4565b5b600061172a848285016116f1565b91505092915050565b60008115159050919050565b61174881611733565b82525050565b6000602082019050611763600083018461173f565b92915050565b600081519050919050565b600082825260208201905092915050565b60005b838110156117a3578082015181840152602081019050611788565b60008484015250505050565b6000601f19601f8301169050919050565b60006117cb82611769565b6117d58185611774565b93506117e5818560208601611785565b6117ee816117af565b840191505092915050565b6000602082019050818103600083015261181381846117c0565b905092915050565b6000819050919050565b61182e8161181b565b811461183957600080fd5b50565b60008135905061184b81611825565b92915050565b600060208284031215611867576118666116a4565b5b60006118758482850161183c565b91505092915050565b600073ffffffffffffffffffffffffffffffffffffffff82169050919050565b60006118a98261187e565b9050919050565b6118b98161189e565b82525050565b60006020820190506118d460008301846118b0565b92915050565b6118e38161189e565b81146118ee57600080fd5b50565b600081359050611900816118da565b92915050565b6000806040838503121561191d5761191c6116a4565b5b600061192b858286016118f1565b925050602061193c8582860161183c565b9150509250929050565b60008060006060848603121561195f5761195e6116a4565b5b600061196d868287016118f1565b935050602061197e868287016118f1565b925050604061198f8682870161183c565b9150509250925092565b6000602082840312156119af576119ae6116a4565b5b60006119bd848285016118f1565b91505092915050565b6119cf8161181b565b82525050565b60006020820190506119ea60008301846119c6565b92915050565b6119f981611733565b8114611a0457600080fd5b50565b600081359050611a16816119f0565b92915050565b60008060408385031215611a3357611a326116a4565b5b6000611a41858286016118f1565b9250506020611a5285828601611a07565b9150509250929050565b600080fd5b600080fd5b7f4e487b7100000000000000000000000000000000000000000000000000000000600052604160045260246000fd5b611a9e826117af565b810181811067ffffffffffffffff82111715611abd57611abc611a66565b5b80604052505050565b6000611ad061169a565b9050611adc8282611a95565b919050565b600067ffffffffffffffff821115611afc57611afb611a66565b5b611b05826117af565b9050602081019050919050565b82818337600083830152505050565b6000611b34611b2f84611ae1565b611ac6565b905082815260208101848484011115611b5057611b4f611a61565b5b611b5b848285611b12565b509392505050565b600082601f830112611b7857611b77611a5c565b5b8135611b88848260208601611b21565b91505092915050565b60008060008060808587031215611bab57611baa6116a4565b5b6000611bb9878288016118f1565b9450506020611bca878288016118f1565b9350506040611bdb8782880161183c565b925050606085013567ffffffffffffffff811115611bfc57611bfb6116a9565b5b611c0887828801611b63565b91505092959194509250565b60008060408385031215611c2b57611c2a6116a4565b5b6000611c39858286016118f1565b9250506020611c4a858286016118f1565b9150509250929050565b7f4e487b7100000000000000000000000000000000000000000000000000000000600052602260045260246000fd5b60006002820490506001821680611c9b57607f821691505b602082108103611cae57611cad611c54565b5b50919050565b7f4552433732313a20617070726f76656420717565727920666f72206e6f6e657860008201527f697374656e7420746f6b656e0000000000000000000000000000000000000000602082015250565b6000611d10602c83611774565b9150611d1b82611cb4565b604082019050919050565b60006020820190508181036000830152611d3f81611d03565b9050919050565b7f4552433732313a20617070726f76616c20746f2063757272656e74206f776e6560008201527f7200000000000000000000000000000000000000000000000000000000000000602082015250565b6000611da2602183611774565b9150611dad82611d46565b604082019050919050565b60006020820190508181036000830152611dd181611d95565b9050919050565b7f4552433732313a20617070726f76652063616c6c6572206973206e6f74206f7760008201527f6e6572206e6f7220617070726f76656420666f7220616c6c0000000000000000602082015250565b6000611e34603883611774565b9150611e3f82611dd8565b604082019050919050565b60006020820190508181036000830152611e6381611e27565b9050919050565b7f4552433732313a207472616e736665722063616c6c6572206973206e6f74206f60008201527f776e6572206e6f7220617070726f766564000000000000000000000000000000602082015250565b6000611ec6603183611774565b9150611ed182611e6a565b604082019050919050565b60006020820190508181036000830152611ef581611eb9565b9050919050565b7f4552433732313a206f776e657220717565727920666f72206e6f6e657869737460008201527f656e7420746f6b656e0000000000000000000000000000000000000000000000602082015250565b6000611f58602983611774565b9150611f6382611efc565b604082019050919050565b60006020820190508181036000830152611f8781611f4b565b9050919050565b7f4552433732313a2062616c616e636520717565727920666f7220746865207a6560008201527f726f206164647265737300000000000000000000000000000000000000000000602082015250565b6000611fea602a83611774565b9150611ff582611f8e565b604082019050919050565b6000602082019050818103600083015261201981611fdd565b9050919050565b7f4552433732314d657461646174613a2055524920717565727920666f72206e6f60008201527f6e6578697374656e7420746f6b656e0000000000000000000000000000000000602082015250565b600061207c602f83611774565b915061208782612020565b604082019050919050565b600060208201905081810360008301526120ab8161206f565b9050919050565b600081905092915050565b60006120c882611769565b6120d281856120b2565b93506120e2818560208601611785565b80840191505092915050565b60006120fa82856120bd565b915061210682846120bd565b91508190509392505050565b7f4552433732313a206f70657261746f7220717565727920666f72206e6f6e657860008201527f697374656e7420746f6b656e0000000000000000000000000000000000000000602082015250565b600061216e602c83611774565b915061217982612112565b604082019050919050565b6000602082019050818103600083015261219d81612161565b9050919050565b7f4552433732313a207472616e736665722066726f6d20696e636f72726563742060008201527f6f776e6572000000000000000000000000000000000000000000000000000000602082015250565b6000612200602583611774565b915061220b826121a4565b604082019050919050565b6000602082019050818103600083015261222f816121f3565b9050919050565b7f4552433732313a207472616e7366657220746f20746865207a65726f2061646460008201527f7265737300000000000000000000000000000000000000000000000000000000602082015250565b6000612292602483611774565b915061229d82612236565b604082019050919050565b600060208201905081810360008301526122c181612285565b9050919050565b7f4e487b7100000000000000000000000000000000000000000000000000000000600052601160045260246000fd5b60006123028261181b565b915061230d8361181b565b9250828203905081811115612325576123246122c8565b5b92915050565b60006123368261181b565b91506123418361181b565b9250828201905080821115612359576123586122c8565b5b92915050565b7f4552433732313a20617070726f766520746f2063616c6c657200000000000000600082015250565b6000612395601983611774565b91506123a08261235f565b602082019050919050565b600060208201905081810360008301526123c481612388565b9050919050565b7f4552433732313a207472616e7366657220746f206e6f6e20455243373231526560008201527f63656976657220696d706c656d656e7465720000000000000000000000000000602082015250565b6000612427603283611774565b9150612432826123cb565b604082019050919050565b600060208201905081810360008301526124568161241a565b9050919050565b60006124688261181b565b91507fffffffffffffffffffffffffffffffffffffffffffffffffffffffffffffffff820361249a576124996122c8565b5b600182019050919050565b7f4e487b7100000000000000000000000000000000000000000000000000000000600052601260045260246000fd5b60006124df8261181b565b91506124ea8361181b565b9250826124fa576124f96124a5565b5b828204905092915050565b60006125108261181b565b915061251b8361181b565b92508261252b5761252a6124a5565b5b828206905092915050565b7f4e487b7100000000000000000000000000000000000000000000000000000000600052603260045260246000fd5b600081519050919050565b600082825260208201905092915050565b600061258c82612565565b6125968185612570565b93506125a6818560208601611785565b6125af816117af565b840191505092915050565b60006080820190506125cf60008301876118b0565b6125dc60208301866118b0565b6125e960408301856119c6565b81810360608301526125fb8184612581565b905095945050505050565b600081519050612615816116da565b92915050565b600060208284031215612631576126306116a4565b5b600061263f84828501612606565b91505092915050565b7f4552433732313a206d696e7420746f20746865207a65726f2061646472657373600082015250565b600061267e602083611774565b915061268982612648565b602082019050919050565b600060208201905081810360008301526126ad81612671565b9050919050565b7f4552433732313a20746f6b656e20616c7265616479206d696e74656400000000600082015250565b60006126ea601c83611774565b91506126f5826126b4565b602082019050919050565b60006020820190508181036000830152612719816126dd565b905091905056fea26469706673582212208d926205ff1591d8c299edfa4b506a33644cdcd766fe05511ec64817fad2c57364736f6c63430008120033",
  "linkReferences": {},
  "deployedLinkReferences": {}
}