{
  "_format": "hh-sol-artifact-1",
  "contractName": "nft_erc20",
  "sourceName": "contracts/nft_erc20.sol",
  "abi": [
    {
      "anonymous": false,
      "inputs": [
        {
          "indexed": true,
          "internalType": "address",
          "name": "owner",
          "type": "address"
        },
        {
          "indexed": true,
          "internalType": "address",
          "name": "approved",
          "type": "address"
        },
        {
          "indexed": true,
          "internalType": "uint256",
          "name": "tokenId",
          "type": "uint256"
        }
      ],
      "name": "Approval",
      "type": "event"
    },
    {
      "anonymous": false,
      "inputs": [
        {
          "indexed": true,
          "internalType": "address",
          "name": "owner",
          "type": "address"
        },
        {
          "indexed": true,
          "internalType": "address",
          "name": "operator",
          "type": "address"
        },
        {
          "indexed": false,
          "internalType": "bool",
          "name": "approved",
          "type": "bool"
        }
      ],
      "name": "ApprovalForAll",
      "type": "event"
    },
    {
      "anonymous": false,
      "inputs": [
        {
          "indexed": true,
          "internalType": "address",
          "name": "previousOwner",
          "type": "address"
        },
        {
          "indexed": true,
          "internalType": "address",
          "name": "newOwner",
          "type": "address"
        }
      ],
      "name": "OwnershipTransferred",
      "type": "event"
    },
    {
      "anonymous": false,
      "inputs": [
        {
          "indexed": true,
          "internalType": "address",
          "name": "from",
          "type": "address"
        },
        {
          "indexed": true,
          "internalType": "address",
          "name": "to",
          "type": "address"
        },
        {
          "indexed": true,
          "internalType": "uint256",
          "name": "tokenId",
          "type": "uint256"
        }
      ],
      "name": "Transfer",
      "type": "event"
    },
    {
      "inputs": [
        {
          "internalType": "address",
          "name": "to",
          "type": "address"
        },
        {
          "internalType": "uint256",
          "name": "tokenId",
          "type": "uint256"
        }
      ],
      "name": "approve",
      "outputs": [],
      "stateMutability": "nonpayable",
      "type": "function"
    },
    {
      "inputs": [
        {
          "internalType": "address",
          "name": "owner",
          "type": "address"
        }
      ],
      "name": "balanceOf",
      "outputs": [
        {
          "internalType": "uint256",
          "name": "",
          "type": "uint256"
        }
      ],
      "stateMutability": "view",
      "type": "function"
    },
    {
      "inputs": [
        {
          "internalType": "uint256",
          "name": "tokenId",
          "type": "uint256"
        }
      ],
      "name": "getApproved",
      "outputs": [
        {
          "internalType": "address",
          "name": "",
          "type": "address"
        }
      ],
      "stateMutability": "view",
      "type": "function"
    },
    {
      "inputs": [
        {
          "internalType": "contract IERC20",
          "name": "token",
          "type": "address"
        }
      ],
      "name": "getContractBalance",
      "outputs": [
        {
          "internalType": "uint256",
          "name": "",
          "type": "uint256"
        }
      ],
      "stateMutability": "view",
      "type": "function"
    },
    {
      "inputs": [
        {
          "internalType": "address",
          "name": "owner",
          "type": "address"
        },
        {
          "internalType": "address",
          "name": "operator",
          "type": "address"
        }
      ],
      "name": "isApprovedForAll",
      "outputs": [
        {
          "internalType": "bool",
          "name": "",
          "type": "bool"
        }
      ],
      "stateMutability": "view",
      "type": "function"
    },
    {
      "inputs": [
        {
          "internalType": "contract IERC20",
          "name": "token",
          "type": "address"
        }
      ],
      "name": "minting",
      "outputs": [],
      "stateMutability": "nonpayable",
      "type": "function"
    },
    {
      "inputs": [],
      "name": "name",
      "outputs": [
        {
          "internalType": "string",
          "name": "",
          "type": "string"
        }
      ],
      "stateMutability": "view",
      "type": "function"
    },
    {
      "inputs": [],
      "name": "owner",
      "outputs": [
        {
          "internalType": "address",
          "name": "",
          "type": "address"
        }
      ],
      "stateMutability": "view",
      "type": "function"
    },
    {
      "inputs": [
        {
          "internalType": "uint256",
          "name": "tokenId",
          "type": "uint256"
        }
      ],
      "name": "ownerOf",
      "outputs": [
        {
          "internalType": "address",
          "name": "",
          "type": "address"
        }
      ],
      "stateMutability": "view",
      "type": "function"
    },
    {
      "inputs": [],
      "name": "renounceOwnership",
      "outputs": [],
      "stateMutability": "nonpayable",
      "type": "function"
    },
    {
      "inputs": [
        {
          "internalType": "address",
          "name": "to",
          "type": "address"
        }
      ],
      "name": "safeMint",
      "outputs": [],
      "stateMutability": "nonpayable",
      "type": "function"
    },
    {
      "inputs": [
        {
          "internalType": "address",
          "name": "from",
          "type": "address"
        },
        {
          "internalType": "address",
          "name": "to",
          "type": "address"
        },
        {
          "internalType": "uint256",
          "name": "tokenId",
          "type": "uint256"
        }
      ],
      "name": "safeTransferFrom",
      "outputs": [],
      "stateMutability": "nonpayable",
      "type": "function"
    },
    {
      "inputs": [
        {
          "internalType": "address",
          "name": "from",
          "type": "address"
        },
        {
          "internalType": "address",
          "name": "to",
          "type": "address"
        },
        {
          "internalType": "uint256",
          "name": "tokenId",
          "type": "uint256"
        },
        {
          "internalType": "bytes",
          "name": "_data",
          "type": "bytes"
        }
      ],
      "name": "safeTransferFrom",
      "outputs": [],
      "stateMutability": "nonpayable",
      "type": "function"
    },
    {
      "inputs": [
        {
          "internalType": "address",
          "name": "operator",
          "type": "address"
        },
        {
          "internalType": "bool",
          "name": "approved",
          "type": "bool"
        }
      ],
      "name": "setApprovalForAll",
      "outputs": [],
      "stateMutability": "nonpayable",
      "type": "function"
    },
    {
      "inputs": [
        {
          "internalType": "bytes4",
          "name": "interfaceId",
          "type": "bytes4"
        }
      ],
      "name": "supportsInterface",
      "outputs": [
        {
          "internalType": "bool",
          "name": "",
          "type": "bool"
        }
      ],
      "stateMutability": "view",
      "type": "function"
    },
    {
      "inputs": [],
      "name": "symbol",
      "outputs": [
        {
          "internalType": "string",
          "name": "",
          "type": "string"
        }
      ],
      "stateMutability": "view",
      "type": "function"
    },
    {
      "inputs": [
        {
          "internalType": "uint256",
          "name": "tokenId",
          "type": "uint256"
        }
      ],
      "name": "tokenURI",
      "outputs": [
        {
          "internalType": "string",
          "name": "",
          "type": "string"
        }
      ],
      "stateMutability": "view",
      "type": "function"
    },
    {
      "inputs": [
        {
          "internalType": "address",
          "name": "from",
          "type": "address"
        },
        {
          "internalType": "address",
          "name": "to",
          "type": "address"
        },
        {
          "internalType": "uint256",
          "name": "tokenId",
          "type": "uint256"
        }
      ],
      "name": "transferFrom",
      "outputs": [],
      "stateMutability": "nonpayable",
      "type": "function"
    },
    {
      "inputs": [
        {
          "internalType": "address",
          "name": "newOwner",
          "type": "address"
        }
      ],
      "name": "transferOwnership",
      "outputs": [],
      "stateMutability": "nonpayable",
      "type": "function"
    }
  ],
  "bytecode": "0x6080604052678ac7230489e800006008553480156200001d57600080fd5b506040518060400160405280600481526020017f4c697a61000000000000000000000000000000000000000000000000000000008152506040518060400160405280600381526020017f4c495a000000000000000000000000000000000000000000000000000000000081525081600090816200009b91906200041e565b508060019081620000ad91906200041e565b505050620000d0620000c4620000d660201b60201c565b620000de60201b60201c565b62000505565b600033905090565b6000600660009054906101000a900473ffffffffffffffffffffffffffffffffffffffff16905081600660006101000a81548173ffffffffffffffffffffffffffffffffffffffff021916908373ffffffffffffffffffffffffffffffffffffffff1602179055508173ffffffffffffffffffffffffffffffffffffffff168173ffffffffffffffffffffffffffffffffffffffff167f8be0079c531659141344cd1fd0a4f28419497f9722a3daafe3b4186f6b6457e060405160405180910390a35050565b600081519050919050565b7f4e487b7100000000000000000000000000000000000000000000000000000000600052604160045260246000fd5b7f4e487b7100000000000000000000000000000000000000000000000000000000600052602260045260246000fd5b600060028204905060018216806200022657607f821691505b6020821081036200023c576200023b620001de565b5b50919050565b60008190508160005260206000209050919050565b60006020601f8301049050919050565b600082821b905092915050565b600060088302620002a67fffffffffffffffffffffffffffffffffffffffffffffffffffffffffffffffff8262000267565b620002b2868362000267565b95508019841693508086168417925050509392505050565b6000819050919050565b6000819050919050565b6000620002ff620002f9620002f384620002ca565b620002d4565b620002ca565b9050919050565b6000819050919050565b6200031b83620002de565b620003336200032a8262000306565b84845462000274565b825550505050565b600090565b6200034a6200033b565b6200035781848462000310565b505050565b5b818110156200037f576200037360008262000340565b6001810190506200035d565b5050565b601f821115620003ce57620003988162000242565b620003a38462000257565b81016020851015620003b3578190505b620003cb620003c28562000257565b8301826200035c565b50505b505050565b600082821c905092915050565b6000620003f360001984600802620003d3565b1980831691505092915050565b60006200040e8383620003e0565b9150826002028217905092915050565b6200042982620001a4565b67ffffffffffffffff811115620004455762000444620001af565b5b6200045182546200020d565b6200045e82828562000383565b600060209050601f83116001811462000496576000841562000481578287015190505b6200048d858262000400565b865550620004fd565b601f198416620004a68662000242565b60005b82811015620004d057848901518255600182019150602085019450602081019050620004a9565b86831015620004f05784890151620004ec601f891682620003e0565b8355505b6001600288020188555050505b505050505050565b612e6c80620005156000396000f3fe608060405234801561001057600080fd5b50600436106101215760003560e01c80636352211e116100ad578063a22cb46511610071578063a22cb46514610306578063b88d4fde14610322578063c87b56dd1461033e578063e985e9c51461036e578063f2fde38b1461039e57610121565b80636352211e1461026057806370a0823114610290578063715018a6146102c05780638da5cb5b146102ca57806395d89b41146102e857610121565b806323b872dd116100f457806323b872dd146101c057806340d097c3146101dc57806342842e0e146101f857806343ab265f1461021457806350e045981461024457610121565b806301ffc9a71461012657806306fdde0314610156578063081812fc14610174578063095ea7b3146101a4575b600080fd5b610140600480360381019061013b9190611c05565b6103ba565b60405161014d9190611c4d565b60405180910390f35b61015e61049c565b60405161016b9190611cf8565b60405180910390f35b61018e60048036038101906101899190611d50565b61052e565b60405161019b9190611dbe565b60405180910390f35b6101be60048036038101906101b99190611e05565b6105b3565b005b6101da60048036038101906101d59190611e45565b6106ca565b005b6101f660048036038101906101f19190611e98565b61072a565b005b610212600480360381019061020d9190611e45565b6107cc565b005b61022e60048036038101906102299190611f03565b6107ec565b60405161023b9190611f3f565b60405180910390f35b61025e60048036038101906102599190611f03565b61086f565b005b61027a60048036038101906102759190611d50565b610939565b6040516102879190611dbe565b60405180910390f35b6102aa60048036038101906102a59190611e98565b6109ea565b6040516102b79190611f3f565b60405180910390f35b6102c8610aa1565b005b6102d2610b29565b6040516102df9190611dbe565b60405180910390f35b6102f0610b53565b6040516102fd9190611cf8565b60405180910390f35b610320600480360381019061031b9190611f86565b610be5565b005b61033c600480360381019061033791906120fb565b610bfb565b005b61035860048036038101906103539190611d50565b610c5d565b6040516103659190611cf8565b60405180910390f35b6103886004803603810190610383919061217e565b610d04565b6040516103959190611c4d565b60405180910390f35b6103b860048036038101906103b39190611e98565b610d98565b005b60007f80ac58cd000000000000000000000000000000000000000000000000000000007bffffffffffffffffffffffffffffffffffffffffffffffffffffffff1916827bffffffffffffffffffffffffffffffffffffffffffffffffffffffff1916148061048557507f5b5e139f000000000000000000000000000000000000000000000000000000007bffffffffffffffffffffffffffffffffffffffffffffffffffffffff1916827bffffffffffffffffffffffffffffffffffffffffffffffffffffffff1916145b80610495575061049482610e8f565b5b9050919050565b6060600080546104ab906121ed565b80601f01602080910402602001604051908101604052809291908181526020018280546104d7906121ed565b80156105245780601f106104f957610100808354040283529160200191610524565b820191906000526020600020905b81548152906001019060200180831161050757829003601f168201915b5050505050905090565b600061053982610ef9565b610578576040517f08c379a000000000000000000000000000000000000000000000000000000000815260040161056f90612290565b60405180910390fd5b6004600083815260200190815260200160002060009054906101000a900473ffffffffffffffffffffffffffffffffffffffff169050919050565b60006105be82610939565b90508073ffffffffffffffffffffffffffffffffffffffff168373ffffffffffffffffffffffffffffffffffffffff160361062e576040517f08c379a000000000000000000000000000000000000000000000000000000000815260040161062590612322565b60405180910390fd5b8073ffffffffffffffffffffffffffffffffffffffff1661064d610f65565b73ffffffffffffffffffffffffffffffffffffffff16148061067c575061067b81610676610f65565b610d04565b5b6106bb576040517f08c379a00000000000000000000000000000000000000000000000000000000081526004016106b2906123b4565b60405180910390fd5b6106c58383610f6d565b505050565b6106db6106d5610f65565b82611026565b61071a576040517f08c379a000000000000000000000000000000000000000000000000000000000815260040161071190612446565b60405180910390fd5b610725838383611104565b505050565b610732610f65565b73ffffffffffffffffffffffffffffffffffffffff16610750610b29565b73ffffffffffffffffffffffffffffffffffffffff16146107a6576040517f08c379a000000000000000000000000000000000000000000000000000000000815260040161079d906124b2565b60405180910390fd5b60006107b2600761136a565b90506107be6007611378565b6107c8828261138e565b5050565b6107e783838360405180602001604052806000815250610bfb565b505050565b60008173ffffffffffffffffffffffffffffffffffffffff166370a08231306040518263ffffffff1660e01b81526004016108279190611dbe565b602060405180830381865afa158015610844573d6000803e3d6000fd5b505050506040513d601f19601f8201168201806040525081019061086891906124e7565b9050919050565b6008548173ffffffffffffffffffffffffffffffffffffffff166370a08231306040518263ffffffff1660e01b81526004016108ab9190611dbe565b602060405180830381865afa1580156108c8573d6000803e3d6000fd5b505050506040513d601f19601f820116820180604052508101906108ec91906124e7565b101561092d576040517f08c379a000000000000000000000000000000000000000000000000000000000815260040161092490612560565b60405180910390fd5b6109363361072a565b50565b6000806002600084815260200190815260200160002060009054906101000a900473ffffffffffffffffffffffffffffffffffffffff169050600073ffffffffffffffffffffffffffffffffffffffff168173ffffffffffffffffffffffffffffffffffffffff16036109e1576040517f08c379a00000000000000000000000000000000000000000000000000000000081526004016109d8906125f2565b60405180910390fd5b80915050919050565b60008073ffffffffffffffffffffffffffffffffffffffff168273ffffffffffffffffffffffffffffffffffffffff1603610a5a576040517f08c379a0000000000000000000000000000000000000000000000000000000008152600401610a5190612684565b60405180910390fd5b600360008373ffffffffffffffffffffffffffffffffffffffff1673ffffffffffffffffffffffffffffffffffffffff168152602001908152602001600020549050919050565b610aa9610f65565b73ffffffffffffffffffffffffffffffffffffffff16610ac7610b29565b73ffffffffffffffffffffffffffffffffffffffff1614610b1d576040517f08c379a0000000000000000000000000000000000000000000000000000000008152600401610b14906124b2565b60405180910390fd5b610b2760006113ac565b565b6000600660009054906101000a900473ffffffffffffffffffffffffffffffffffffffff16905090565b606060018054610b62906121ed565b80601f0160208091040260200160405190810160405280929190818152602001828054610b8e906121ed565b8015610bdb5780601f10610bb057610100808354040283529160200191610bdb565b820191906000526020600020905b815481529060010190602001808311610bbe57829003601f168201915b5050505050905090565b610bf7610bf0610f65565b8383611472565b5050565b610c0c610c06610f65565b83611026565b610c4b576040517f08c379a0000000000000000000000000000000000000000000000000000000008152600401610c4290612446565b60405180910390fd5b610c57848484846115de565b50505050565b6060610c6882610ef9565b610ca7576040517f08c379a0000000000000000000000000000000000000000000000000000000008152600401610c9e90612716565b60405180910390fd5b6000610cb161163a565b90506000815111610cd15760405180602001604052806000815250610cfc565b80610cdb84611651565b604051602001610cec929190612772565b6040516020818303038152906040525b915050919050565b6000600560008473ffffffffffffffffffffffffffffffffffffffff1673ffffffffffffffffffffffffffffffffffffffff16815260200190815260200160002060008373ffffffffffffffffffffffffffffffffffffffff1673ffffffffffffffffffffffffffffffffffffffff16815260200190815260200160002060009054906101000a900460ff16905092915050565b610da0610f65565b73ffffffffffffffffffffffffffffffffffffffff16610dbe610b29565b73ffffffffffffffffffffffffffffffffffffffff1614610e14576040517f08c379a0000000000000000000000000000000000000000000000000000000008152600401610e0b906124b2565b60405180910390fd5b600073ffffffffffffffffffffffffffffffffffffffff168173ffffffffffffffffffffffffffffffffffffffff1603610e83576040517f08c379a0000000000000000000000000000000000000000000000000000000008152600401610e7a90612808565b60405180910390fd5b610e8c816113ac565b50565b60007f01ffc9a7000000000000000000000000000000000000000000000000000000007bffffffffffffffffffffffffffffffffffffffffffffffffffffffff1916827bffffffffffffffffffffffffffffffffffffffffffffffffffffffff1916149050919050565b60008073ffffffffffffffffffffffffffffffffffffffff166002600084815260200190815260200160002060009054906101000a900473ffffffffffffffffffffffffffffffffffffffff1673ffffffffffffffffffffffffffffffffffffffff1614159050919050565b600033905090565b816004600083815260200190815260200160002060006101000a81548173ffffffffffffffffffffffffffffffffffffffff021916908373ffffffffffffffffffffffffffffffffffffffff160217905550808273ffffffffffffffffffffffffffffffffffffffff16610fe083610939565b73ffffffffffffffffffffffffffffffffffffffff167f8c5be1e5ebec7d5bd14f71427d1e84f3dd0314c0f7b2291e5b200ac8c7c3b92560405160405180910390a45050565b600061103182610ef9565b611070576040517f08c379a00000000000000000000000000000000000000000000000000000000081526004016110679061289a565b60405180910390fd5b600061107b83610939565b90508073ffffffffffffffffffffffffffffffffffffffff168473ffffffffffffffffffffffffffffffffffffffff1614806110bd57506110bc8185610d04565b5b806110fb57508373ffffffffffffffffffffffffffffffffffffffff166110e38461052e565b73ffffffffffffffffffffffffffffffffffffffff16145b91505092915050565b8273ffffffffffffffffffffffffffffffffffffffff1661112482610939565b73ffffffffffffffffffffffffffffffffffffffff161461117a576040517f08c379a00000000000000000000000000000000000000000000000000000000081526004016111719061292c565b60405180910390fd5b600073ffffffffffffffffffffffffffffffffffffffff168273ffffffffffffffffffffffffffffffffffffffff16036111e9576040517f08c379a00000000000000000000000000000000000000000000000000000000081526004016111e0906129be565b60405180910390fd5b6111f48383836117b1565b6111ff600082610f6d565b6001600360008573ffffffffffffffffffffffffffffffffffffffff1673ffffffffffffffffffffffffffffffffffffffff168152602001908152602001600020600082825461124f9190612a0d565b925050819055506001600360008473ffffffffffffffffffffffffffffffffffffffff1673ffffffffffffffffffffffffffffffffffffffff16815260200190815260200160002060008282546112a69190612a41565b92505081905550816002600083815260200190815260200160002060006101000a81548173ffffffffffffffffffffffffffffffffffffffff021916908373ffffffffffffffffffffffffffffffffffffffff160217905550808273ffffffffffffffffffffffffffffffffffffffff168473ffffffffffffffffffffffffffffffffffffffff167fddf252ad1be2c89b69c2b068fc378daa952ba7f163c4a11628f55a4df523b3ef60405160405180910390a46113658383836117b6565b505050565b600081600001549050919050565b6001816000016000828254019250508190555050565b6113a88282604051806020016040528060008152506117bb565b5050565b6000600660009054906101000a900473ffffffffffffffffffffffffffffffffffffffff16905081600660006101000a81548173ffffffffffffffffffffffffffffffffffffffff021916908373ffffffffffffffffffffffffffffffffffffffff1602179055508173ffffffffffffffffffffffffffffffffffffffff168173ffffffffffffffffffffffffffffffffffffffff167f8be0079c531659141344cd1fd0a4f28419497f9722a3daafe3b4186f6b6457e060405160405180910390a35050565b8173ffffffffffffffffffffffffffffffffffffffff168373ffffffffffffffffffffffffffffffffffffffff16036114e0576040517f08c379a00000000000000000000000000000000000000000000000000000000081526004016114d790612ac1565b60405180910390fd5b80600560008573ffffffffffffffffffffffffffffffffffffffff1673ffffffffffffffffffffffffffffffffffffffff16815260200190815260200160002060008473ffffffffffffffffffffffffffffffffffffffff1673ffffffffffffffffffffffffffffffffffffffff16815260200190815260200160002060006101000a81548160ff0219169083151502179055508173ffffffffffffffffffffffffffffffffffffffff168373ffffffffffffffffffffffffffffffffffffffff167f17307eab39ab6107e8899845ad3d59bd9653f200f220920489ca2b5937696c31836040516115d19190611c4d565b60405180910390a3505050565b6115e9848484611104565b6115f584848484611816565b611634576040517f08c379a000000000000000000000000000000000000000000000000000000000815260040161162b90612b53565b60405180910390fd5b50505050565b606060405180602001604052806000815250905090565b606060008203611698576040518060400160405280600181526020017f300000000000000000000000000000000000000000000000000000000000000081525090506117ac565b600082905060005b600082146116ca5780806116b390612b73565b915050600a826116c39190612bea565b91506116a0565b60008167ffffffffffffffff8111156116e6576116e5611fd0565b5b6040519080825280601f01601f1916602001820160405280156117185781602001600182028036833780820191505090505b5090505b600085146117a5576001826117319190612a0d565b9150600a856117409190612c1b565b603061174c9190612a41565b60f81b81838151811061176257611761612c4c565b5b60200101907effffffffffffffffffffffffffffffffffffffffffffffffffffffffffffff1916908160001a905350600a8561179e9190612bea565b945061171c565b8093505050505b919050565b505050565b505050565b6117c5838361199d565b6117d26000848484611816565b611811576040517f08c379a000000000000000000000000000000000000000000000000000000000815260040161180890612b53565b60405180910390fd5b505050565b60006118378473ffffffffffffffffffffffffffffffffffffffff16611b76565b15611990578373ffffffffffffffffffffffffffffffffffffffff1663150b7a02611860610f65565b8786866040518563ffffffff1660e01b81526004016118829493929190612cd0565b6020604051808303816000875af19250505080156118be57506040513d601f19601f820116820180604052508101906118bb9190612d31565b60015b611940573d80600081146118ee576040519150601f19603f3d011682016040523d82523d6000602084013e6118f3565b606091505b506000815103611938576040517f08c379a000000000000000000000000000000000000000000000000000000000815260040161192f90612b53565b60405180910390fd5b805181602001fd5b63150b7a0260e01b7bffffffffffffffffffffffffffffffffffffffffffffffffffffffff1916817bffffffffffffffffffffffffffffffffffffffffffffffffffffffff191614915050611995565b600190505b949350505050565b600073ffffffffffffffffffffffffffffffffffffffff168273ffffffffffffffffffffffffffffffffffffffff1603611a0c576040517f08c379a0000000000000000000000000000000000000000000000000000000008152600401611a0390612daa565b60405180910390fd5b611a1581610ef9565b15611a55576040517f08c379a0000000000000000000000000000000000000000000000000000000008152600401611a4c90612e16565b60405180910390fd5b611a61600083836117b1565b6001600360008473ffffffffffffffffffffffffffffffffffffffff1673ffffffffffffffffffffffffffffffffffffffff1681526020019081526020016000206000828254611ab19190612a41565b92505081905550816002600083815260200190815260200160002060006101000a81548173ffffffffffffffffffffffffffffffffffffffff021916908373ffffffffffffffffffffffffffffffffffffffff160217905550808273ffffffffffffffffffffffffffffffffffffffff16600073ffffffffffffffffffffffffffffffffffffffff167fddf252ad1be2c89b69c2b068fc378daa952ba7f163c4a11628f55a4df523b3ef60405160405180910390a4611b72600083836117b6565b5050565b6000808273ffffffffffffffffffffffffffffffffffffffff163b119050919050565b6000604051905090565b600080fd5b600080fd5b60007fffffffff0000000000000000000000000000000000000000000000000000000082169050919050565b611be281611bad565b8114611bed57600080fd5b50565b600081359050611bff81611bd9565b92915050565b600060208284031215611c1b57611c1a611ba3565b5b6000611c2984828501611bf0565b91505092915050565b60008115159050919050565b611c4781611c32565b82525050565b6000602082019050611c626000830184611c3e565b92915050565b600081519050919050565b600082825260208201905092915050565b60005b83811015611ca2578082015181840152602081019050611c87565b60008484015250505050565b6000601f19601f8301169050919050565b6000611cca82611c68565b611cd48185611c73565b9350611ce4818560208601611c84565b611ced81611cae565b840191505092915050565b60006020820190508181036000830152611d128184611cbf565b905092915050565b6000819050919050565b611d2d81611d1a565b8114611d3857600080fd5b50565b600081359050611d4a81611d24565b92915050565b600060208284031215611d6657611d65611ba3565b5b6000611d7484828501611d3b565b91505092915050565b600073ffffffffffffffffffffffffffffffffffffffff82169050919050565b6000611da882611d7d565b9050919050565b611db881611d9d565b82525050565b6000602082019050611dd36000830184611daf565b92915050565b611de281611d9d565b8114611ded57600080fd5b50565b600081359050611dff81611dd9565b92915050565b60008060408385031215611e1c57611e1b611ba3565b5b6000611e2a85828601611df0565b9250506020611e3b85828601611d3b565b9150509250929050565b600080600060608486031215611e5e57611e5d611ba3565b5b6000611e6c86828701611df0565b9350506020611e7d86828701611df0565b9250506040611e8e86828701611d3b565b9150509250925092565b600060208284031215611eae57611ead611ba3565b5b6000611ebc84828501611df0565b91505092915050565b6000611ed082611d9d565b9050919050565b611ee081611ec5565b8114611eeb57600080fd5b50565b600081359050611efd81611ed7565b92915050565b600060208284031215611f1957611f18611ba3565b5b6000611f2784828501611eee565b91505092915050565b611f3981611d1a565b82525050565b6000602082019050611f546000830184611f30565b92915050565b611f6381611c32565b8114611f6e57600080fd5b50565b600081359050611f8081611f5a565b92915050565b60008060408385031215611f9d57611f9c611ba3565b5b6000611fab85828601611df0565b9250506020611fbc85828601611f71565b9150509250929050565b600080fd5b600080fd5b7f4e487b7100000000000000000000000000000000000000000000000000000000600052604160045260246000fd5b61200882611cae565b810181811067ffffffffffffffff8211171561202757612026611fd0565b5b80604052505050565b600061203a611b99565b90506120468282611fff565b919050565b600067ffffffffffffffff82111561206657612065611fd0565b5b61206f82611cae565b9050602081019050919050565b82818337600083830152505050565b600061209e6120998461204b565b612030565b9050828152602081018484840111156120ba576120b9611fcb565b5b6120c584828561207c565b509392505050565b600082601f8301126120e2576120e1611fc6565b5b81356120f284826020860161208b565b91505092915050565b6000806000806080858703121561211557612114611ba3565b5b600061212387828801611df0565b945050602061213487828801611df0565b935050604061214587828801611d3b565b925050606085013567ffffffffffffffff81111561216657612165611ba8565b5b612172878288016120cd565b91505092959194509250565b6000806040838503121561219557612194611ba3565b5b60006121a385828601611df0565b92505060206121b485828601611df0565b9150509250929050565b7f4e487b7100000000000000000000000000000000000000000000000000000000600052602260045260246000fd5b6000600282049050600182168061220557607f821691505b602082108103612218576122176121be565b5b50919050565b7f4552433732313a20617070726f76656420717565727920666f72206e6f6e657860008201527f697374656e7420746f6b656e0000000000000000000000000000000000000000602082015250565b600061227a602c83611c73565b91506122858261221e565b604082019050919050565b600060208201905081810360008301526122a98161226d565b9050919050565b7f4552433732313a20617070726f76616c20746f2063757272656e74206f776e6560008201527f7200000000000000000000000000000000000000000000000000000000000000602082015250565b600061230c602183611c73565b9150612317826122b0565b604082019050919050565b6000602082019050818103600083015261233b816122ff565b9050919050565b7f4552433732313a20617070726f76652063616c6c6572206973206e6f74206f7760008201527f6e6572206e6f7220617070726f76656420666f7220616c6c0000000000000000602082015250565b600061239e603883611c73565b91506123a982612342565b604082019050919050565b600060208201905081810360008301526123cd81612391565b9050919050565b7f4552433732313a207472616e736665722063616c6c6572206973206e6f74206f60008201527f776e6572206e6f7220617070726f766564000000000000000000000000000000602082015250565b6000612430603183611c73565b915061243b826123d4565b604082019050919050565b6000602082019050818103600083015261245f81612423565b9050919050565b7f4f776e61626c653a2063616c6c6572206973206e6f7420746865206f776e6572600082015250565b600061249c602083611c73565b91506124a782612466565b602082019050919050565b600060208201905081810360008301526124cb8161248f565b9050919050565b6000815190506124e181611d24565b92915050565b6000602082840312156124fd576124fc611ba3565b5b600061250b848285016124d2565b91505092915050565b7f534320646f65736e74206861766520656e6f7567687420746f6b656e73000000600082015250565b600061254a601d83611c73565b915061255582612514565b602082019050919050565b600060208201905081810360008301526125798161253d565b9050919050565b7f4552433732313a206f776e657220717565727920666f72206e6f6e657869737460008201527f656e7420746f6b656e0000000000000000000000000000000000000000000000602082015250565b60006125dc602983611c73565b91506125e782612580565b604082019050919050565b6000602082019050818103600083015261260b816125cf565b9050919050565b7f4552433732313a2062616c616e636520717565727920666f7220746865207a6560008201527f726f206164647265737300000000000000000000000000000000000000000000602082015250565b600061266e602a83611c73565b915061267982612612565b604082019050919050565b6000602082019050818103600083015261269d81612661565b9050919050565b7f4552433732314d657461646174613a2055524920717565727920666f72206e6f60008201527f6e6578697374656e7420746f6b656e0000000000000000000000000000000000602082015250565b6000612700602f83611c73565b915061270b826126a4565b604082019050919050565b6000602082019050818103600083015261272f816126f3565b9050919050565b600081905092915050565b600061274c82611c68565b6127568185612736565b9350612766818560208601611c84565b80840191505092915050565b600061277e8285612741565b915061278a8284612741565b91508190509392505050565b7f4f776e61626c653a206e6577206f776e657220697320746865207a65726f206160008201527f6464726573730000000000000000000000000000000000000000000000000000602082015250565b60006127f2602683611c73565b91506127fd82612796565b604082019050919050565b60006020820190508181036000830152612821816127e5565b9050919050565b7f4552433732313a206f70657261746f7220717565727920666f72206e6f6e657860008201527f697374656e7420746f6b656e0000000000000000000000000000000000000000602082015250565b6000612884602c83611c73565b915061288f82612828565b604082019050919050565b600060208201905081810360008301526128b381612877565b9050919050565b7f4552433732313a207472616e736665722066726f6d20696e636f72726563742060008201527f6f776e6572000000000000000000000000000000000000000000000000000000602082015250565b6000612916602583611c73565b9150612921826128ba565b604082019050919050565b6000602082019050818103600083015261294581612909565b9050919050565b7f4552433732313a207472616e7366657220746f20746865207a65726f2061646460008201527f7265737300000000000000000000000000000000000000000000000000000000602082015250565b60006129a8602483611c73565b91506129b38261294c565b604082019050919050565b600060208201905081810360008301526129d78161299b565b9050919050565b7f4e487b7100000000000000000000000000000000000000000000000000000000600052601160045260246000fd5b6000612a1882611d1a565b9150612a2383611d1a565b9250828203905081811115612a3b57612a3a6129de565b5b92915050565b6000612a4c82611d1a565b9150612a5783611d1a565b9250828201905080821115612a6f57612a6e6129de565b5b92915050565b7f4552433732313a20617070726f766520746f2063616c6c657200000000000000600082015250565b6000612aab601983611c73565b9150612ab682612a75565b602082019050919050565b60006020820190508181036000830152612ada81612a9e565b9050919050565b7f4552433732313a207472616e7366657220746f206e6f6e20455243373231526560008201527f63656976657220696d706c656d656e7465720000000000000000000000000000602082015250565b6000612b3d603283611c73565b9150612b4882612ae1565b604082019050919050565b60006020820190508181036000830152612b6c81612b30565b9050919050565b6000612b7e82611d1a565b91507fffffffffffffffffffffffffffffffffffffffffffffffffffffffffffffffff8203612bb057612baf6129de565b5b600182019050919050565b7f4e487b7100000000000000000000000000000000000000000000000000000000600052601260045260246000fd5b6000612bf582611d1a565b9150612c0083611d1a565b925082612c1057612c0f612bbb565b5b828204905092915050565b6000612c2682611d1a565b9150612c3183611d1a565b925082612c4157612c40612bbb565b5b828206905092915050565b7f4e487b7100000000000000000000000000000000000000000000000000000000600052603260045260246000fd5b600081519050919050565b600082825260208201905092915050565b6000612ca282612c7b565b612cac8185612c86565b9350612cbc818560208601611c84565b612cc581611cae565b840191505092915050565b6000608082019050612ce56000830187611daf565b612cf26020830186611daf565b612cff6040830185611f30565b8181036060830152612d118184612c97565b905095945050505050565b600081519050612d2b81611bd9565b92915050565b600060208284031215612d4757612d46611ba3565b5b6000612d5584828501612d1c565b91505092915050565b7f4552433732313a206d696e7420746f20746865207a65726f2061646472657373600082015250565b6000612d94602083611c73565b9150612d9f82612d5e565b602082019050919050565b60006020820190508181036000830152612dc381612d87565b9050919050565b7f4552433732313a20746f6b656e20616c7265616479206d696e74656400000000600082015250565b6000612e00601c83611c73565b9150612e0b82612dca565b602082019050919050565b60006020820190508181036000830152612e2f81612df3565b905091905056fea2646970667358221220ce6a1bcd28917ef99c66924db9ed4d84ec4a8214db42d4924102cfca014653f064736f6c63430008110033",
  "linkReferences": {},
  "deployedLinkReferences": {}
}