{
  "_format": "hh-sol-artifact-1",
  "contractName": "nft_erc20",
  "sourceName": "contracts/nft_erc20.sol",
  "abi": [
    {
      "inputs": [
        {
          "internalType": "contract erc20liz",
          "name": "_token",
          "type": "address"
        },
        {
          "internalType": "contract erc721liz",
          "name": "_nft",
          "type": "address"
        }
      ],
      "stateMutability": "nonpayable",
      "type": "constructor"
    },
    {
      "inputs": [],
      "name": "getContractBalance",
      "outputs": [
        {
          "internalType": "uint256",
          "name": "",
          "type": "uint256"
        }
      ],
      "stateMutability": "view",
      "type": "function"
    },
    {
      "inputs": [],
      "name": "minting",
      "outputs": [],
      "stateMutability": "nonpayable",
      "type": "function"
    }
  ],
  "bytecode": "0x6080604052678ac7230489e8000060005534801561001c57600080fd5b506040516106fb3803806106fb833981810160405281019061003e91906101cb565b610058678b2382b30659597460c01b61011560201b60201c565b610072670bd7b0bd424c0f3960c01b61011560201b60201c565b81600160006101000a81548173ffffffffffffffffffffffffffffffffffffffff021916908373ffffffffffffffffffffffffffffffffffffffff1602179055506100cd6768bb76882ee84a2b60c01b61011560201b60201c565b80600260006101000a81548173ffffffffffffffffffffffffffffffffffffffff021916908373ffffffffffffffffffffffffffffffffffffffff160217905550505061020b565b50565b600080fd5b600073ffffffffffffffffffffffffffffffffffffffff82169050919050565b60006101488261011d565b9050919050565b600061015a8261013d565b9050919050565b61016a8161014f565b811461017557600080fd5b50565b60008151905061018781610161565b92915050565b60006101988261013d565b9050919050565b6101a88161018d565b81146101b357600080fd5b50565b6000815190506101c58161019f565b92915050565b600080604083850312156101e2576101e1610118565b5b60006101f085828601610178565b9250506020610201858286016101b6565b9150509250929050565b6104e18061021a6000396000f3fe608060405234801561001057600080fd5b50600436106100365760003560e01c80636f9fb98a1461003b5780637dc2268c14610059575b600080fd5b610043610063565b6040516100509190610359565b60405180910390f35b610061610142565b005b60006100796793ceb8eebc66ee1360c01b61033d565b61008d679c74159fb5ba256960c01b61033d565b6100a1679080c61b374ff27660c01b61033d565b600160009054906101000a900473ffffffffffffffffffffffffffffffffffffffff1673ffffffffffffffffffffffffffffffffffffffff166370a08231306040518263ffffffff1660e01b81526004016100fc91906103b5565b602060405180830381865afa158015610119573d6000803e3d6000fd5b505050506040513d601f19601f8201168201806040525081019061013d9190610401565b905090565b61015667a8533a136891de8760c01b61033d565b61016a67afd78489c1b0cc0860c01b61033d565b61017e677c304ef30ab70be060c01b61033d565b610192678eea904463675dd560c01b61033d565b600054600160009054906101000a900473ffffffffffffffffffffffffffffffffffffffff1673ffffffffffffffffffffffffffffffffffffffff166370a08231306040518263ffffffff1660e01b81526004016101f091906103b5565b602060405180830381865afa15801561020d573d6000803e3d6000fd5b505050506040513d601f19601f820116820180604052508101906102319190610401565b1015610272576040517f08c379a00000000000000000000000000000000000000000000000000000000081526004016102699061048b565b60405180910390fd5b610286677293accbfd46a05160c01b61033d565b61029a6785ac897c08d900b960c01b61033d565b6102ae67c5941129b8ebc73460c01b61033d565b600260009054906101000a900473ffffffffffffffffffffffffffffffffffffffff1673ffffffffffffffffffffffffffffffffffffffff166340d097c3336040518263ffffffff1660e01b815260040161030991906103b5565b600060405180830381600087803b15801561032357600080fd5b505af1158015610337573d6000803e3d6000fd5b50505050565b50565b6000819050919050565b61035381610340565b82525050565b600060208201905061036e600083018461034a565b92915050565b600073ffffffffffffffffffffffffffffffffffffffff82169050919050565b600061039f82610374565b9050919050565b6103af81610394565b82525050565b60006020820190506103ca60008301846103a6565b92915050565b600080fd5b6103de81610340565b81146103e957600080fd5b50565b6000815190506103fb816103d5565b92915050565b600060208284031215610417576104166103d0565b5b6000610425848285016103ec565b91505092915050565b600082825260208201905092915050565b7f534320646f65736e74206861766520656e6f7567687420746f6b656e73000000600082015250565b6000610475601d8361042e565b91506104808261043f565b602082019050919050565b600060208201905081810360008301526104a481610468565b905091905056fea26469706673582212206085a69e70353737d3b5f8e39a0c715783c4189946ff7f6190e168ad421c44c464736f6c63430008120033",
  "linkReferences": {},
  "deployedLinkReferences": {}
}