{
  "_format": "hh-sol-artifact-1",
  "contractName": "nft_erc20",
  "sourceName": "contracts/nft_erc20.sol",
  "abi": [
    {
      "inputs": [
        {
          "internalType": "contract erc20liz",
          "name": "_token",
          "type": "address"
        },
        {
          "internalType": "contract erc721liz",
          "name": "_nft",
          "type": "address"
        }
      ],
      "stateMutability": "nonpayable",
      "type": "constructor"
    },
    {
      "inputs": [],
      "name": "getContractBalance",
      "outputs": [
        {
          "internalType": "uint256",
          "name": "",
          "type": "uint256"
        }
      ],
      "stateMutability": "view",
      "type": "function"
    },
    {
      "inputs": [],
      "name": "minting",
      "outputs": [],
      "stateMutability": "nonpayable",
      "type": "function"
    }
  ],
  "bytecode": "0x6080604052678ac7230489e8000060005534801561001c57600080fd5b506040516108af3803806108af833981810160405281019061003e91906101cb565b61005867a8533a136891de8760c01b61011560201b60201c565b61007267afd78489c1b0cc0860c01b61011560201b60201c565b81600160006101000a81548173ffffffffffffffffffffffffffffffffffffffff021916908373ffffffffffffffffffffffffffffffffffffffff1602179055506100cd677c304ef30ab70be060c01b61011560201b60201c565b80600260006101000a81548173ffffffffffffffffffffffffffffffffffffffff021916908373ffffffffffffffffffffffffffffffffffffffff160217905550505061020b565b50565b600080fd5b600073ffffffffffffffffffffffffffffffffffffffff82169050919050565b60006101488261011d565b9050919050565b600061015a8261013d565b9050919050565b61016a8161014f565b811461017557600080fd5b50565b60008151905061018781610161565b92915050565b60006101988261013d565b9050919050565b6101a88161018d565b81146101b357600080fd5b50565b6000815190506101c58161019f565b92915050565b600080604083850312156101e2576101e1610118565b5b60006101f085828601610178565b9250506020610201858286016101b6565b9150509250929050565b6106958061021a6000396000f3fe608060405234801561001057600080fd5b50600436106100365760003560e01c80636f9fb98a1461003b5780637dc2268c14610059575b600080fd5b610043610063565b604051610050919061042c565b60405180910390f35b610061610142565b005b600061007967e611975f98ebbdc960c01b610410565b61008d67567e9681409c125660c01b610410565b6100a167e1cadd080b52574060c01b610410565b600160009054906101000a900473ffffffffffffffffffffffffffffffffffffffff1673ffffffffffffffffffffffffffffffffffffffff166370a08231306040518263ffffffff1660e01b81526004016100fc9190610488565b602060405180830381865afa158015610119573d6000803e3d6000fd5b505050506040513d601f19601f8201168201806040525081019061013d91906104d4565b905090565b610156678eea904463675dd560c01b610410565b61016a677293accbfd46a05160c01b610410565b61017e6785ac897c08d900b960c01b610410565b61019267c5941129b8ebc73460c01b610410565b600054600160009054906101000a900473ffffffffffffffffffffffffffffffffffffffff1673ffffffffffffffffffffffffffffffffffffffff166370a08231336040518263ffffffff1660e01b81526004016101f09190610488565b602060405180830381865afa15801561020d573d6000803e3d6000fd5b505050506040513d601f19601f8201168201806040525081019061023191906104d4565b1015610272576040517f08c379a00000000000000000000000000000000000000000000000000000000081526004016102699061055e565b60405180910390fd5b6102866793ceb8eebc66ee1360c01b610410565b61029a679c74159fb5ba256960c01b610410565b6102ae679080c61b374ff27660c01b610410565b600160009054906101000a900473ffffffffffffffffffffffffffffffffffffffff1673ffffffffffffffffffffffffffffffffffffffff166323b872dd3330678ac7230489e800006040518463ffffffff1660e01b8152600401610315939291906105c3565b6020604051808303816000875af1158015610334573d6000803e3d6000fd5b505050506040513d601f19601f820116820180604052508101906103589190610632565b5061036d6753efb2e262ef220b60c01b610410565b6103816734b0465b861da58260c01b610410565b600260009054906101000a900473ffffffffffffffffffffffffffffffffffffffff1673ffffffffffffffffffffffffffffffffffffffff166340d097c3336040518263ffffffff1660e01b81526004016103dc9190610488565b600060405180830381600087803b1580156103f657600080fd5b505af115801561040a573d6000803e3d6000fd5b50505050565b50565b6000819050919050565b61042681610413565b82525050565b6000602082019050610441600083018461041d565b92915050565b600073ffffffffffffffffffffffffffffffffffffffff82169050919050565b600061047282610447565b9050919050565b61048281610467565b82525050565b600060208201905061049d6000830184610479565b92915050565b600080fd5b6104b181610413565b81146104bc57600080fd5b50565b6000815190506104ce816104a8565b92915050565b6000602082840312156104ea576104e96104a3565b5b60006104f8848285016104bf565b91505092915050565b600082825260208201905092915050565b7f5573657220646f65736e74206861766520656e6f7567687420746f6b656e7300600082015250565b6000610548601f83610501565b915061055382610512565b602082019050919050565b600060208201905081810360008301526105778161053b565b9050919050565b6000819050919050565b6000819050919050565b60006105ad6105a86105a38461057e565b610588565b610413565b9050919050565b6105bd81610592565b82525050565b60006060820190506105d86000830186610479565b6105e56020830185610479565b6105f260408301846105b4565b949350505050565b60008115159050919050565b61060f816105fa565b811461061a57600080fd5b50565b60008151905061062c81610606565b92915050565b600060208284031215610648576106476104a3565b5b60006106568482850161061d565b9150509291505056fea2646970667358221220e0116603468e290f8f17cfb96ab7cb0ebaf8f81a4c6a815e424be1c4d092a2e864736f6c63430008120033",
  "linkReferences": {},
  "deployedLinkReferences": {}
}