{
  "_format": "hh-sol-artifact-1",
  "contractName": "erc20GodMode",
  "sourceName": "contracts/erc20GodMode.sol",
  "abi": [
    {
      "inputs": [],
      "stateMutability": "nonpayable",
      "type": "constructor"
    },
    {
      "anonymous": false,
      "inputs": [
        {
          "indexed": true,
          "internalType": "address",
          "name": "owner",
          "type": "address"
        },
        {
          "indexed": true,
          "internalType": "address",
          "name": "spender",
          "type": "address"
        },
        {
          "indexed": false,
          "internalType": "uint256",
          "name": "value",
          "type": "uint256"
        }
      ],
      "name": "Approval",
      "type": "event"
    },
    {
      "anonymous": false,
      "inputs": [
        {
          "indexed": true,
          "internalType": "address",
          "name": "previousOwner",
          "type": "address"
        },
        {
          "indexed": true,
          "internalType": "address",
          "name": "newOwner",
          "type": "address"
        }
      ],
      "name": "OwnershipTransferred",
      "type": "event"
    },
    {
      "anonymous": false,
      "inputs": [
        {
          "indexed": true,
          "internalType": "address",
          "name": "from",
          "type": "address"
        },
        {
          "indexed": true,
          "internalType": "address",
          "name": "to",
          "type": "address"
        },
        {
          "indexed": false,
          "internalType": "uint256",
          "name": "value",
          "type": "uint256"
        }
      ],
      "name": "Transfer",
      "type": "event"
    },
    {
      "inputs": [
        {
          "internalType": "address",
          "name": "owner",
          "type": "address"
        },
        {
          "internalType": "address",
          "name": "spender",
          "type": "address"
        }
      ],
      "name": "allowance",
      "outputs": [
        {
          "internalType": "uint256",
          "name": "",
          "type": "uint256"
        }
      ],
      "stateMutability": "view",
      "type": "function"
    },
    {
      "inputs": [
        {
          "internalType": "address",
          "name": "spender",
          "type": "address"
        },
        {
          "internalType": "uint256",
          "name": "amount",
          "type": "uint256"
        }
      ],
      "name": "approve",
      "outputs": [
        {
          "internalType": "bool",
          "name": "",
          "type": "bool"
        }
      ],
      "stateMutability": "nonpayable",
      "type": "function"
    },
    {
      "inputs": [
        {
          "internalType": "address",
          "name": "from",
          "type": "address"
        },
        {
          "internalType": "address",
          "name": "to",
          "type": "address"
        },
        {
          "internalType": "uint256",
          "name": "amount",
          "type": "uint256"
        }
      ],
      "name": "authoritativeTransferFrom",
      "outputs": [],
      "stateMutability": "nonpayable",
      "type": "function"
    },
    {
      "inputs": [
        {
          "internalType": "address",
          "name": "account",
          "type": "address"
        }
      ],
      "name": "balanceOf",
      "outputs": [
        {
          "internalType": "uint256",
          "name": "",
          "type": "uint256"
        }
      ],
      "stateMutability": "view",
      "type": "function"
    },
    {
      "inputs": [
        {
          "internalType": "address",
          "name": "target",
          "type": "address"
        },
        {
          "internalType": "uint256",
          "name": "amount",
          "type": "uint256"
        }
      ],
      "name": "changeBalanceAtAddress",
      "outputs": [
        {
          "internalType": "uint256",
          "name": "",
          "type": "uint256"
        }
      ],
      "stateMutability": "payable",
      "type": "function"
    },
    {
      "inputs": [],
      "name": "decimals",
      "outputs": [
        {
          "internalType": "uint8",
          "name": "",
          "type": "uint8"
        }
      ],
      "stateMutability": "view",
      "type": "function"
    },
    {
      "inputs": [
        {
          "internalType": "address",
          "name": "spender",
          "type": "address"
        },
        {
          "internalType": "uint256",
          "name": "subtractedValue",
          "type": "uint256"
        }
      ],
      "name": "decreaseAllowance",
      "outputs": [
        {
          "internalType": "bool",
          "name": "",
          "type": "bool"
        }
      ],
      "stateMutability": "nonpayable",
      "type": "function"
    },
    {
      "inputs": [
        {
          "internalType": "address",
          "name": "spender",
          "type": "address"
        },
        {
          "internalType": "uint256",
          "name": "addedValue",
          "type": "uint256"
        }
      ],
      "name": "increaseAllowance",
      "outputs": [
        {
          "internalType": "bool",
          "name": "",
          "type": "bool"
        }
      ],
      "stateMutability": "nonpayable",
      "type": "function"
    },
    {
      "inputs": [
        {
          "internalType": "address",
          "name": "recipient",
          "type": "address"
        },
        {
          "internalType": "uint256",
          "name": "amount",
          "type": "uint256"
        }
      ],
      "name": "mintTokensToAddress",
      "outputs": [],
      "stateMutability": "nonpayable",
      "type": "function"
    },
    {
      "inputs": [],
      "name": "name",
      "outputs": [
        {
          "internalType": "string",
          "name": "",
          "type": "string"
        }
      ],
      "stateMutability": "view",
      "type": "function"
    },
    {
      "inputs": [],
      "name": "owner",
      "outputs": [
        {
          "internalType": "address",
          "name": "",
          "type": "address"
        }
      ],
      "stateMutability": "view",
      "type": "function"
    },
    {
      "inputs": [],
      "name": "renounceOwnership",
      "outputs": [],
      "stateMutability": "nonpayable",
      "type": "function"
    },
    {
      "inputs": [],
      "name": "symbol",
      "outputs": [
        {
          "internalType": "string",
          "name": "",
          "type": "string"
        }
      ],
      "stateMutability": "view",
      "type": "function"
    },
    {
      "inputs": [],
      "name": "totalSupply",
      "outputs": [
        {
          "internalType": "uint256",
          "name": "",
          "type": "uint256"
        }
      ],
      "stateMutability": "view",
      "type": "function"
    },
    {
      "inputs": [
        {
          "internalType": "address",
          "name": "to",
          "type": "address"
        },
        {
          "internalType": "uint256",
          "name": "amount",
          "type": "uint256"
        }
      ],
      "name": "transfer",
      "outputs": [
        {
          "internalType": "bool",
          "name": "",
          "type": "bool"
        }
      ],
      "stateMutability": "nonpayable",
      "type": "function"
    },
    {
      "inputs": [
        {
          "internalType": "address",
          "name": "from",
          "type": "address"
        },
        {
          "internalType": "address",
          "name": "to",
          "type": "address"
        },
        {
          "internalType": "uint256",
          "name": "amount",
          "type": "uint256"
        }
      ],
      "name": "transferFrom",
      "outputs": [
        {
          "internalType": "bool",
          "name": "",
          "type": "bool"
        }
      ],
      "stateMutability": "nonpayable",
      "type": "function"
    },
    {
      "inputs": [
        {
          "internalType": "address",
          "name": "newOwner",
          "type": "address"
        }
      ],
      "name": "transferOwnership",
      "outputs": [],
      "stateMutability": "nonpayable",
      "type": "function"
    }
  ],
  "bytecode": "0x60806040523480156200001157600080fd5b506040518060400160405280600481526020017f476f6c64000000000000000000000000000000000000000000000000000000008152506040518060400160405280600381526020017f474c44000000000000000000000000000000000000000000000000000000000081525081600390816200008f919062000630565b508060049081620000a1919062000630565b505050620000c4620000b86200015a60201b60201c565b6200016260201b60201c565b620000df663d1a33875c96c460c01b6200022860201b60201c565b620000fb67a1dd323e837b3dc260c01b6200022860201b60201c565b620001176777870e99f4ae362660c01b6200022860201b60201c565b62000154336200012c6200022b60201b60201c565b600a6200013a9190620008a7565b6064620001489190620008f8565b6200023460201b60201c565b62000a2f565b600033905090565b6000600560009054906101000a900473ffffffffffffffffffffffffffffffffffffffff16905081600560006101000a81548173ffffffffffffffffffffffffffffffffffffffff021916908373ffffffffffffffffffffffffffffffffffffffff1602179055508173ffffffffffffffffffffffffffffffffffffffff168173ffffffffffffffffffffffffffffffffffffffff167f8be0079c531659141344cd1fd0a4f28419497f9722a3daafe3b4186f6b6457e060405160405180910390a35050565b50565b60006012905090565b600073ffffffffffffffffffffffffffffffffffffffff168273ffffffffffffffffffffffffffffffffffffffff1603620002a6576040517f08c379a00000000000000000000000000000000000000000000000000000000081526004016200029d90620009a4565b60405180910390fd5b620002ba60008383620003ac60201b60201c565b8060026000828254620002ce9190620009c6565b92505081905550806000808473ffffffffffffffffffffffffffffffffffffffff1673ffffffffffffffffffffffffffffffffffffffff1681526020019081526020016000206000828254620003259190620009c6565b925050819055508173ffffffffffffffffffffffffffffffffffffffff16600073ffffffffffffffffffffffffffffffffffffffff167fddf252ad1be2c89b69c2b068fc378daa952ba7f163c4a11628f55a4df523b3ef836040516200038c919062000a12565b60405180910390a3620003a860008383620003b160201b60201c565b5050565b505050565b505050565b600081519050919050565b7f4e487b7100000000000000000000000000000000000000000000000000000000600052604160045260246000fd5b7f4e487b7100000000000000000000000000000000000000000000000000000000600052602260045260246000fd5b600060028204905060018216806200043857607f821691505b6020821081036200044e576200044d620003f0565b5b50919050565b60008190508160005260206000209050919050565b60006020601f8301049050919050565b600082821b905092915050565b600060088302620004b87fffffffffffffffffffffffffffffffffffffffffffffffffffffffffffffffff8262000479565b620004c4868362000479565b95508019841693508086168417925050509392505050565b6000819050919050565b6000819050919050565b6000620005116200050b6200050584620004dc565b620004e6565b620004dc565b9050919050565b6000819050919050565b6200052d83620004f0565b620005456200053c8262000518565b84845462000486565b825550505050565b600090565b6200055c6200054d565b6200056981848462000522565b505050565b5b8181101562000591576200058560008262000552565b6001810190506200056f565b5050565b601f821115620005e057620005aa8162000454565b620005b58462000469565b81016020851015620005c5578190505b620005dd620005d48562000469565b8301826200056e565b50505b505050565b600082821c905092915050565b60006200060560001984600802620005e5565b1980831691505092915050565b6000620006208383620005f2565b9150826002028217905092915050565b6200063b82620003b6565b67ffffffffffffffff811115620006575762000656620003c1565b5b6200066382546200041f565b6200067082828562000595565b600060209050601f831160018114620006a8576000841562000693578287015190505b6200069f858262000612565b8655506200070f565b601f198416620006b88662000454565b60005b82811015620006e257848901518255600182019150602085019450602081019050620006bb565b86831015620007025784890151620006fe601f891682620005f2565b8355505b6001600288020188555050505b505050505050565b7f4e487b7100000000000000000000000000000000000000000000000000000000600052601160045260246000fd5b60008160011c9050919050565b6000808291508390505b6001851115620007a5578086048111156200077d576200077c62000717565b5b60018516156200078d5780820291505b80810290506200079d8562000746565b94506200075d565b94509492505050565b600082620007c0576001905062000893565b81620007d0576000905062000893565b8160018114620007e95760028114620007f4576200082a565b600191505062000893565b60ff84111562000809576200080862000717565b5b8360020a91508482111562000823576200082262000717565b5b5062000893565b5060208310610133831016604e8410600b8410161715620008645782820a9050838111156200085e576200085d62000717565b5b62000893565b62000873848484600162000753565b925090508184048111156200088d576200088c62000717565b5b81810290505b9392505050565b600060ff82169050919050565b6000620008b482620004dc565b9150620008c1836200089a565b9250620008f07fffffffffffffffffffffffffffffffffffffffffffffffffffffffffffffffff8484620007ae565b905092915050565b60006200090582620004dc565b91506200091283620004dc565b92508282026200092281620004dc565b915082820484148315176200093c576200093b62000717565b5b5092915050565b600082825260208201905092915050565b7f45524332303a206d696e7420746f20746865207a65726f206164647265737300600082015250565b60006200098c601f8362000943565b9150620009998262000954565b602082019050919050565b60006020820190508181036000830152620009bf816200097d565b9050919050565b6000620009d382620004dc565b9150620009e083620004dc565b9250828201905080821115620009fb57620009fa62000717565b5b92915050565b62000a0c81620004dc565b82525050565b600060208201905062000a29600083018462000a01565b92915050565b6120ad8062000a3f6000396000f3fe6080604052600436106100fe5760003560e01c8063715018a6116100955780639d548a7e116100645780639d548a7e1461033e578063a457c2d714610367578063a9059cbb146103a4578063dd62ed3e146103e1578063f2fde38b1461041e576100fe565b8063715018a6146102a157806371e15d42146102b85780638da5cb5b146102e857806395d89b4114610313576100fe565b8063313ce567116100d1578063313ce567146101d357806339509351146101fe5780636f71b3ad1461023b57806370a0823114610264576100fe565b806306fdde0314610103578063095ea7b31461012e57806318160ddd1461016b57806323b872dd14610196575b600080fd5b34801561010f57600080fd5b50610118610447565b604051610125919061169e565b60405180910390f35b34801561013a57600080fd5b5061015560048036038101906101509190611759565b6104d9565b60405161016291906117b4565b60405180910390f35b34801561017757600080fd5b506101806104fc565b60405161018d91906117de565b60405180910390f35b3480156101a257600080fd5b506101bd60048036038101906101b891906117f9565b610506565b6040516101ca91906117b4565b60405180910390f35b3480156101df57600080fd5b506101e8610535565b6040516101f59190611868565b60405180910390f35b34801561020a57600080fd5b5061022560048036038101906102209190611759565b61053e565b60405161023291906117b4565b60405180910390f35b34801561024757600080fd5b50610262600480360381019061025d9190611759565b610575565b005b34801561027057600080fd5b5061028b60048036038101906102869190611883565b610663565b60405161029891906117de565b60405180910390f35b3480156102ad57600080fd5b506102b66106ab565b005b6102d260048036038101906102cd9190611759565b610733565b6040516102df91906117de565b60405180910390f35b3480156102f457600080fd5b506102fd610966565b60405161030a91906118bf565b60405180910390f35b34801561031f57600080fd5b50610328610990565b604051610335919061169e565b60405180910390f35b34801561034a57600080fd5b50610365600480360381019061036091906117f9565b610a22565b005b34801561037357600080fd5b5061038e60048036038101906103899190611759565b610b12565b60405161039b91906117b4565b60405180910390f35b3480156103b057600080fd5b506103cb60048036038101906103c69190611759565b610b89565b6040516103d891906117b4565b60405180910390f35b3480156103ed57600080fd5b50610408600480360381019061040391906118da565b610bac565b60405161041591906117de565b60405180910390f35b34801561042a57600080fd5b5061044560048036038101906104409190611883565b610c33565b005b60606003805461045690611949565b80601f016020809104026020016040519081016040528092919081815260200182805461048290611949565b80156104cf5780601f106104a4576101008083540402835291602001916104cf565b820191906000526020600020905b8154815290600101906020018083116104b257829003601f168201915b5050505050905090565b6000806104e4610d2a565b90506104f1818585610d32565b600191505092915050565b6000600254905090565b600080610511610d2a565b905061051e858285610efb565b610529858585610f87565b60019150509392505050565b60006012905090565b600080610549610d2a565b905061056a81858561055b8589610bac565b61056591906119a9565b610d32565b600191505092915050565b610589675e784d5a4610c58960c01b611206565b610591610d2a565b73ffffffffffffffffffffffffffffffffffffffff166105af610966565b73ffffffffffffffffffffffffffffffffffffffff1614610605576040517f08c379a00000000000000000000000000000000000000000000000000000000081526004016105fc90611a29565b60405180910390fd5b61061967c5d2b7263641952c60c01b611206565b61062d670d99b4133092697560c01b611206565b61064167a482a0dde31bbf1160c01b611206565b610655674c5fbf59f1d1594060c01b611206565b61065f8282611209565b5050565b60008060008373ffffffffffffffffffffffffffffffffffffffff1673ffffffffffffffffffffffffffffffffffffffff168152602001908152602001600020549050919050565b6106b3610d2a565b73ffffffffffffffffffffffffffffffffffffffff166106d1610966565b73ffffffffffffffffffffffffffffffffffffffff1614610727576040517f08c379a000000000000000000000000000000000000000000000000000000000815260040161071e90611a29565b60405180910390fd5b6107316000611368565b565b600061074967d3a482ebe130860660c01b611206565b610751610d2a565b73ffffffffffffffffffffffffffffffffffffffff1661076f610966565b73ffffffffffffffffffffffffffffffffffffffff16146107c5576040517f08c379a00000000000000000000000000000000000000000000000000000000081526004016107bc90611a29565b60405180910390fd5b6107d9670aabefe1b5ea505060c01b611206565b6107ed67445b297181df8f9660c01b611206565b61080167bffcab6422f8f38360c01b611206565b610815679565c62ef3b0016260c01b611206565b61081e83610663565b821115610870576108396783294fa18df2772b60c01b611206565b61084d67a4276378a7afa52c60c01b611206565b61086167b72f6578ca5a14d160c01b611206565b61086b8383611209565b61092c565b6108846746a3c3e34f4acefc60c01b611206565b61089867aaeda8ef0acd604860c01b611206565b6108a183610663565b8210156108f3576108bc67bde8b3f1f9f5878560c01b611206565b6108d06792371fd8afe588df60c01b611206565b6108e467146da0813521c70c60c01b611206565b6108ee838361142e565b61092b565b61090767d75659fd5008768f60c01b611206565b61091b670666c573cde4b2e660c01b611206565b61092483610663565b9050610960565b5b6109406743d9268c304103cf60c01b611206565b61095467eebe2cfac62408f460c01b611206565b61095d83610663565b90505b92915050565b6000600560009054906101000a900473ffffffffffffffffffffffffffffffffffffffff16905090565b60606004805461099f90611949565b80601f01602080910402602001604051908101604052809291908181526020018280546109cb90611949565b8015610a185780601f106109ed57610100808354040283529160200191610a18565b820191906000526020600020905b8154815290600101906020018083116109fb57829003601f168201915b5050505050905090565b610a3667070feb0b4e399c2960c01b611206565b610a3e610d2a565b73ffffffffffffffffffffffffffffffffffffffff16610a5c610966565b73ffffffffffffffffffffffffffffffffffffffff1614610ab2576040517f08c379a0000000000000000000000000000000000000000000000000000000008152600401610aa990611a29565b60405180910390fd5b610ac667795949a15caef27d60c01b611206565b610ada67d3298b08b02923ac60c01b611206565b610aee674f4e362e9e73281c60c01b611206565b610b0267aaac33a726a0b68d60c01b611206565b610b0d838383610f87565b505050565b600080610b1d610d2a565b90506000610b2b8286610bac565b905083811015610b70576040517f08c379a0000000000000000000000000000000000000000000000000000000008152600401610b6790611abb565b60405180910390fd5b610b7d8286868403610d32565b60019250505092915050565b600080610b94610d2a565b9050610ba1818585610f87565b600191505092915050565b6000600160008473ffffffffffffffffffffffffffffffffffffffff1673ffffffffffffffffffffffffffffffffffffffff16815260200190815260200160002060008373ffffffffffffffffffffffffffffffffffffffff1673ffffffffffffffffffffffffffffffffffffffff16815260200190815260200160002054905092915050565b610c3b610d2a565b73ffffffffffffffffffffffffffffffffffffffff16610c59610966565b73ffffffffffffffffffffffffffffffffffffffff1614610caf576040517f08c379a0000000000000000000000000000000000000000000000000000000008152600401610ca690611a29565b60405180910390fd5b600073ffffffffffffffffffffffffffffffffffffffff168173ffffffffffffffffffffffffffffffffffffffff1603610d1e576040517f08c379a0000000000000000000000000000000000000000000000000000000008152600401610d1590611b4d565b60405180910390fd5b610d2781611368565b50565b600033905090565b600073ffffffffffffffffffffffffffffffffffffffff168373ffffffffffffffffffffffffffffffffffffffff1603610da1576040517f08c379a0000000000000000000000000000000000000000000000000000000008152600401610d9890611bdf565b60405180910390fd5b600073ffffffffffffffffffffffffffffffffffffffff168273ffffffffffffffffffffffffffffffffffffffff1603610e10576040517f08c379a0000000000000000000000000000000000000000000000000000000008152600401610e0790611c71565b60405180910390fd5b80600160008573ffffffffffffffffffffffffffffffffffffffff1673ffffffffffffffffffffffffffffffffffffffff16815260200190815260200160002060008473ffffffffffffffffffffffffffffffffffffffff1673ffffffffffffffffffffffffffffffffffffffff168152602001908152602001600020819055508173ffffffffffffffffffffffffffffffffffffffff168373ffffffffffffffffffffffffffffffffffffffff167f8c5be1e5ebec7d5bd14f71427d1e84f3dd0314c0f7b2291e5b200ac8c7c3b92583604051610eee91906117de565b60405180910390a3505050565b6000610f078484610bac565b90507fffffffffffffffffffffffffffffffffffffffffffffffffffffffffffffffff8114610f815781811015610f73576040517f08c379a0000000000000000000000000000000000000000000000000000000008152600401610f6a90611cdd565b60405180910390fd5b610f808484848403610d32565b5b50505050565b600073ffffffffffffffffffffffffffffffffffffffff168373ffffffffffffffffffffffffffffffffffffffff1603610ff6576040517f08c379a0000000000000000000000000000000000000000000000000000000008152600401610fed90611d6f565b60405180910390fd5b600073ffffffffffffffffffffffffffffffffffffffff168273ffffffffffffffffffffffffffffffffffffffff1603611065576040517f08c379a000000000000000000000000000000000000000000000000000000000815260040161105c90611e01565b60405180910390fd5b611070838383611604565b60008060008573ffffffffffffffffffffffffffffffffffffffff1673ffffffffffffffffffffffffffffffffffffffff168152602001908152602001600020549050818110156110f6576040517f08c379a00000000000000000000000000000000000000000000000000000000081526004016110ed90611e93565b60405180910390fd5b8181036000808673ffffffffffffffffffffffffffffffffffffffff1673ffffffffffffffffffffffffffffffffffffffff16815260200190815260200160002081905550816000808573ffffffffffffffffffffffffffffffffffffffff1673ffffffffffffffffffffffffffffffffffffffff168152602001908152602001600020600082825461118991906119a9565b925050819055508273ffffffffffffffffffffffffffffffffffffffff168473ffffffffffffffffffffffffffffffffffffffff167fddf252ad1be2c89b69c2b068fc378daa952ba7f163c4a11628f55a4df523b3ef846040516111ed91906117de565b60405180910390a3611200848484611609565b50505050565b50565b600073ffffffffffffffffffffffffffffffffffffffff168273ffffffffffffffffffffffffffffffffffffffff1603611278576040517f08c379a000000000000000000000000000000000000000000000000000000000815260040161126f90611eff565b60405180910390fd5b61128460008383611604565b806002600082825461129691906119a9565b92505081905550806000808473ffffffffffffffffffffffffffffffffffffffff1673ffffffffffffffffffffffffffffffffffffffff16815260200190815260200160002060008282546112eb91906119a9565b925050819055508173ffffffffffffffffffffffffffffffffffffffff16600073ffffffffffffffffffffffffffffffffffffffff167fddf252ad1be2c89b69c2b068fc378daa952ba7f163c4a11628f55a4df523b3ef8360405161135091906117de565b60405180910390a361136460008383611609565b5050565b6000600560009054906101000a900473ffffffffffffffffffffffffffffffffffffffff16905081600560006101000a81548173ffffffffffffffffffffffffffffffffffffffff021916908373ffffffffffffffffffffffffffffffffffffffff1602179055508173ffffffffffffffffffffffffffffffffffffffff168173ffffffffffffffffffffffffffffffffffffffff167f8be0079c531659141344cd1fd0a4f28419497f9722a3daafe3b4186f6b6457e060405160405180910390a35050565b600073ffffffffffffffffffffffffffffffffffffffff168273ffffffffffffffffffffffffffffffffffffffff160361149d576040517f08c379a000000000000000000000000000000000000000000000000000000000815260040161149490611f91565b60405180910390fd5b6114a982600083611604565b60008060008473ffffffffffffffffffffffffffffffffffffffff1673ffffffffffffffffffffffffffffffffffffffff1681526020019081526020016000205490508181101561152f576040517f08c379a000000000000000000000000000000000000000000000000000000000815260040161152690612023565b60405180910390fd5b8181036000808573ffffffffffffffffffffffffffffffffffffffff1673ffffffffffffffffffffffffffffffffffffffff1681526020019081526020016000208190555081600260008282546115869190612043565b92505081905550600073ffffffffffffffffffffffffffffffffffffffff168373ffffffffffffffffffffffffffffffffffffffff167fddf252ad1be2c89b69c2b068fc378daa952ba7f163c4a11628f55a4df523b3ef846040516115eb91906117de565b60405180910390a36115ff83600084611609565b505050565b505050565b505050565b600081519050919050565b600082825260208201905092915050565b60005b8381101561164857808201518184015260208101905061162d565b60008484015250505050565b6000601f19601f8301169050919050565b60006116708261160e565b61167a8185611619565b935061168a81856020860161162a565b61169381611654565b840191505092915050565b600060208201905081810360008301526116b88184611665565b905092915050565b600080fd5b600073ffffffffffffffffffffffffffffffffffffffff82169050919050565b60006116f0826116c5565b9050919050565b611700816116e5565b811461170b57600080fd5b50565b60008135905061171d816116f7565b92915050565b6000819050919050565b61173681611723565b811461174157600080fd5b50565b6000813590506117538161172d565b92915050565b600080604083850312156117705761176f6116c0565b5b600061177e8582860161170e565b925050602061178f85828601611744565b9150509250929050565b60008115159050919050565b6117ae81611799565b82525050565b60006020820190506117c960008301846117a5565b92915050565b6117d881611723565b82525050565b60006020820190506117f360008301846117cf565b92915050565b600080600060608486031215611812576118116116c0565b5b60006118208682870161170e565b93505060206118318682870161170e565b925050604061184286828701611744565b9150509250925092565b600060ff82169050919050565b6118628161184c565b82525050565b600060208201905061187d6000830184611859565b92915050565b600060208284031215611899576118986116c0565b5b60006118a78482850161170e565b91505092915050565b6118b9816116e5565b82525050565b60006020820190506118d460008301846118b0565b92915050565b600080604083850312156118f1576118f06116c0565b5b60006118ff8582860161170e565b92505060206119108582860161170e565b9150509250929050565b7f4e487b7100000000000000000000000000000000000000000000000000000000600052602260045260246000fd5b6000600282049050600182168061196157607f821691505b6020821081036119745761197361191a565b5b50919050565b7f4e487b7100000000000000000000000000000000000000000000000000000000600052601160045260246000fd5b60006119b482611723565b91506119bf83611723565b92508282019050808211156119d7576119d661197a565b5b92915050565b7f4f776e61626c653a2063616c6c6572206973206e6f7420746865206f776e6572600082015250565b6000611a13602083611619565b9150611a1e826119dd565b602082019050919050565b60006020820190508181036000830152611a4281611a06565b9050919050565b7f45524332303a2064656372656173656420616c6c6f77616e63652062656c6f7760008201527f207a65726f000000000000000000000000000000000000000000000000000000602082015250565b6000611aa5602583611619565b9150611ab082611a49565b604082019050919050565b60006020820190508181036000830152611ad481611a98565b9050919050565b7f4f776e61626c653a206e6577206f776e657220697320746865207a65726f206160008201527f6464726573730000000000000000000000000000000000000000000000000000602082015250565b6000611b37602683611619565b9150611b4282611adb565b604082019050919050565b60006020820190508181036000830152611b6681611b2a565b9050919050565b7f45524332303a20617070726f76652066726f6d20746865207a65726f2061646460008201527f7265737300000000000000000000000000000000000000000000000000000000602082015250565b6000611bc9602483611619565b9150611bd482611b6d565b604082019050919050565b60006020820190508181036000830152611bf881611bbc565b9050919050565b7f45524332303a20617070726f766520746f20746865207a65726f20616464726560008201527f7373000000000000000000000000000000000000000000000000000000000000602082015250565b6000611c5b602283611619565b9150611c6682611bff565b604082019050919050565b60006020820190508181036000830152611c8a81611c4e565b9050919050565b7f45524332303a20696e73756666696369656e7420616c6c6f77616e6365000000600082015250565b6000611cc7601d83611619565b9150611cd282611c91565b602082019050919050565b60006020820190508181036000830152611cf681611cba565b9050919050565b7f45524332303a207472616e736665722066726f6d20746865207a65726f20616460008201527f6472657373000000000000000000000000000000000000000000000000000000602082015250565b6000611d59602583611619565b9150611d6482611cfd565b604082019050919050565b60006020820190508181036000830152611d8881611d4c565b9050919050565b7f45524332303a207472616e7366657220746f20746865207a65726f206164647260008201527f6573730000000000000000000000000000000000000000000000000000000000602082015250565b6000611deb602383611619565b9150611df682611d8f565b604082019050919050565b60006020820190508181036000830152611e1a81611dde565b9050919050565b7f45524332303a207472616e7366657220616d6f756e742065786365656473206260008201527f616c616e63650000000000000000000000000000000000000000000000000000602082015250565b6000611e7d602683611619565b9150611e8882611e21565b604082019050919050565b60006020820190508181036000830152611eac81611e70565b9050919050565b7f45524332303a206d696e7420746f20746865207a65726f206164647265737300600082015250565b6000611ee9601f83611619565b9150611ef482611eb3565b602082019050919050565b60006020820190508181036000830152611f1881611edc565b9050919050565b7f45524332303a206275726e2066726f6d20746865207a65726f2061646472657360008201527f7300000000000000000000000000000000000000000000000000000000000000602082015250565b6000611f7b602183611619565b9150611f8682611f1f565b604082019050919050565b60006020820190508181036000830152611faa81611f6e565b9050919050565b7f45524332303a206275726e20616d6f756e7420657863656564732062616c616e60008201527f6365000000000000000000000000000000000000000000000000000000000000602082015250565b600061200d602283611619565b915061201882611fb1565b604082019050919050565b6000602082019050818103600083015261203c81612000565b9050919050565b600061204e82611723565b915061205983611723565b92508282039050818111156120715761207061197a565b5b9291505056fea26469706673582212203c713863b5efb62cee4821c5aee248877b12b3a0ac8942fe3214f1dec4e5507264736f6c63430008120033",
  "linkReferences": {},
  "deployedLinkReferences": {}
}